S0110000666C6173682D746573742E733337E8
S113000000800020D977000005780000A9360000A0
S1130010AD360000B1360000B536000005780000AA
S113002005780000057800000578000005780000D8
S11300300578000005780000057800005567000089
S1130040858E000095A300003D2B0000057800007C
S1130050057800000578000005780000357300007D
S1130060057800000578000005780000B9A30000B9
S11300700578000005780000057800000578000088
S11300800578000005780000057800000578000078
S11300900578000005780000C974000005780000A8
S11300A0057800000578000005780000E97100007B
S11300B005780000057800000D1D0000056F0000A4
S11300C00578000005780000057800000578000038
S11300D00578000005780000057800000578000028
S11300E010B5054C237833B9044B13B10448AFF36E
S11300F000800123237010BD000E002000000000CA
S113010040C80000084B10B51BB108480849AFF3BC
S113011000800848036803B910BD074B002BFBD0CF
S1130120BDE81040184700BF0000000040C80000B0
S1130130040E0020600D002000000000154B002B71
S113014008BF134B9D46A3F5803A00218B460F460A
S11301501348144A121A0BF0F3F90F4B002B00D07A
S113016098470E4B002B00D0984700200021040034
S11301700D000D48002802D00C480AF08BFE0BF04D
S113018041F92000290003F097FA0AF089FE00BF24
S113019000000800008000200000000000000000B3
S11301A0000E00200822002095AE000099B900003E
S11301B000B587B00190019B03930323059321E0CD
S11301C00723049315E0059B039A13441B781A46EE
S11301D0049B42FA03F3DBB203F001038DF80B3006
S11301E09DF80B300A48194605F05CFB049B013B63
S11301F00493049B002BE6DA202005F07BFB059B8F
S1130200013B0593059B002BDADA07B05DF804FB8C
S1130210C4BA000000B589B005900B4603928DF86E
S1130220133001238DF81F30059B1B88002B02D04F
S1130230352B0BD0CDE06C4841F2883104F05EFFE1
S113024000238DF81F30059B35221A809DF81F303E
S1130250002B05D0644804F061FF0346002B01D154
S11302600123BDE0032002F0E1FE604B1B68184649
S11302704FF4006106F018FD5D4B00935D485E4944
S11302805D4A5B4B05F00EFB5C4B00221A600EE0EE
S11302905A4B1B681A46584B13441B785848194646
S11302A005F000FB554B1B680433544A1360534B51
S11302B01B681A46534B1B689A42E9D30A2005F07F
S11302C019FB4E4B00221A601AE04F4B1B684B4A35
S11302D01268134418464D49042206F01BFD4B488E
S11302E0FFF766FF454B1B6803F00F03002B02D199
S11302F00A2005F0FFFA414B1B6804333F4A1360A0
S11303003E4B1B68B3F5006FDFDB0A2005F0F2FA01
S1130310364B1A683B4B1B68104637491A4606F0A1
S113032017FD03461A46374B1A60364B1B6838488C
S1130330194605F0B7FA032002F078FE2B4B1B6830
S1130340184634494FF4007206F0E4FC2B4B0022AB
S11303501A600DE0294B1B682E4A52F823302848B6
S1130360194605F09FFA254B1B680133234A136095
S1130370224B1B687F2BEDDD0A2005F0BBFA1F4BD7
S113038000221A601AE0204B1B681C4A12681344AE
S113039018461E49042206F0BDFC1C48FFF708FF5E
S11303A0164B1B6803F00F03002B02D10A2005F043
S11303B0A1FA124B1B680433104A13600F4B1B68DD
S11303C0B3F5006FDFDB0A2005F094FA032002F096
S11303D02DFE00238DF81F30059B00221A80032375
S11303E0184609B05DF804FB1C0E0020180000201C
S11303F0FCBA0000C8BA0000FCBC00002C100020AD
S1130400E0BA00001400002010000020301000208A
S1130410E8BA00002C0E002084B00190002303935E
S11304200BE00B4A039B52F82320019B9A4201D113
S1130430039B09E0039B01330393064B1B781A4685
S1130440039B9A42EDDC039B184604B0704700BF3F
S1130450800000203410002000B583B00190019882
S1130460FFF7DAFF0346064AD25C62F07F02D1B29C
S1130470034AD154034804F027FB03B05DF804FB9E
S1130480D01E00201C00002000B587B003900B464E
S113049001928DF80B3001238DF81730039B1B88D4
S11304A0772B33D07E2B5AD0002B40F0858004F07C
S11304B0EBF803461A46464B1A70464B00221A6064
S11304C012E0444B1B68444A0021D154414B1B6841
S11304D0424A52F823309B688020002198473D4BC4
S11304E01B6801333B4A13603A4B1B683B4A52F882
S11304F02330002BE5D1374B1B68DAB2384B1A7026
S113050000238DF81730039B77221A809DF817304B
S1130510002B01D1012356E0324B00221A602D4BEF
S113052000221A603CE02B4B1B682B4AD35CDBB2E5
S11305305BB2002B2FDA264B1978264B1B68274A0F
S113054052F8233000201A4604F058FA0346002BD0
S113055011D100238DF81730039B7E221A809DF859
S11305601730002B05D01A4B1B789DF80B209A42AC
S113057001D0012327E0174B1B68164A126816495D
S11305808A5C02F07F02D1B2134AD154154B1B6826
S11305900133144A13600F4B1B6801330D4A136077
S11305A00F4B1B781A460B4B1B689A42BBDC0D4B56
S11305B01B68002BB0D1A3E700238DF81730039BF1
S11305C000221A800323184607B05DF804FB00BF1D
S11305D0B01E002038100020D01E00208000002013
S11305E0341000203C10002082B00B49896C01912A
S11305F00949C96C08464FF0000103000022019923
S113060008464FF0000142EA000243EA01031046A3
S1130610194602B0704700BFA881E00F08B5084A28
S1130620084B9B6C1360084A064BDB6C1360FFF7A6
S1130630DBFF02460B4692B2044B1A8008BD00BF92
S1130640B41E0020A881E00FB81E00204010002036
S113065008B502F033F900F0B9FA0A2002F01EFAE4
S113066000F0BAFA642002F019FA00F0E7FB02F095
S1130670F7F908BD00B585B0019001238DF8083065
S113068002AA02AB01201146082200F0DDFB019B07
S1130690002B25D09DF80820019B1A709DF8093085
S11306A01B029AB29DF80A309BB213449AB2019B82
S11306B05A809DF80B20019B1A719DF80C301B0287
S11306C09AB29DF80D309BB213449AB2019BDA8022
S11306D09DF80E20019B1A729DF80F20019B5A72FF
S11306E005B05DF804FB00BF00B585B003468DF886
S11306F007300B468DF806301346ADF8043031232D
S11307008DF808309DF807308DF809309DF80630D3
S11307108DF80A30BDF804301B0A9BB2DBB28DF8A9
S11307200B30BDF80430DBB28DF80C3000238DF8AB
S11307300D3000238DF80E3002AB0720194600F06F
S1130740F9FA05B05DF804FB10B584B00446084618
S113075011461A4623468DF8073003468DF80630B5
S11307600B46ADF8043013468DF8033032238DF870
S113077008309DF807308DF809309DF806308DF863
S11307800A30BDF804301B0A9BB2DBB28DF80B3083
S1130790BDF80430DBB28DF80C309DF803308DF8D1
S11307A00D309DF818308DF80E309DF81C308DF802
S11307B00F3002AB0820194600F0BCFA04B010BD9B
S11307C000B585B0009303468DF807300B468DF8CD
S11307D0063013468DF8053020238DF808309DF837
S11307E007308DF809309DF806308DF80A309DF8F1
S11307F005308DF80B3002AA02AB04201146082202
S113080000F022FB009B002B1FD09DF80820009BCA
S11308101A709DF80920009B5A709DF80A20009BCD
S11308209A709DF80B20009BDA709DF80C20009BB9
S11308301A719DF80D20009B5A719DF80E20009BA3
S11308409A719DF80F20009BDA7105B05DF804FBE6
S113085000B585B0034600918DF8073015238DF857
S11308600C309DF807308DF80D3003AA03AB02203D
S11308701146022200F0E8FA009B002B07D09DF8F5
S11308800C20009B1A709DF80D20009B5A7005B037
S11308905DF804FB00B583B0034600918DF8073082
S11308A09DF80730662000211A46009B00F090FA5C
S11308B003B05DF804FB00BF00B583B003460091AC
S11308C08DF807309DF80730772000211A46009BE9
S11308D000F050FA03B05DF804FB00BF00B585B02A
S11308E0019033238DF80C3003AA03AB0120114689
S11308F0022200F0A9FA019B002B07D09DF80C20DE
S1130900019B1A709DF80D20019B5A7005B05DF88B
S113091004FB00BF84B001900091019B03F10473B8
S1130920DA00009B13449B000393039B1B68184647
S113093004B0704782B0019000910748064BD3F889
S11309402421009BDB431A400199009B0B40134375
S1130950C0F8243102B070470060004000B583B095
S1130960034600918DF807309DF80730002B12D014
S11309709DF80730012B0ED09DF80730022B0AD0CA
S11309809DF80730032B06D09DF80730042B02D0C6
S11309909DF80730052B9DF807201346DB00134410
S11309A09B001C3303F1804303F5C04318460099B0
S11309B0FFF7B0FF0346184603B05DF804FB00BF21
S11309C082B0034600918DF807309DF80730002B64
S11309D012D09DF80730012B0ED09DF80730022B62
S11309E00AD09DF80730032B06D09DF80730042B5E
S11309F002D09DF80730052B08499DF80720009B7D
S1130A00012000FA03F318461346DB0013449B004D
S1130A100B441033586002B0704700BF00600040C0
S1130A2082B0034600918DF807309DF80730002B03
S1130A3012D09DF80730012B0ED09DF80730022B01
S1130A400AD09DF80730032B06D09DF80730042BFD
S1130A5002D09DF80730052B08499DF80720009B1C
S1130A60012000FA03F318461346DB0013449B00ED
S1130A700B441033186002B0704700BF00600040A0
S1130A8010B584B0029111461A4603468DF80F3012
S1130A900B468DF80E3013468DF80D309DF80F205F
S1130AA09DF80E409DF80D3000939DF81830019389
S1130AB010460299029A234608F042FD04B010BD84
S1130AC000B585B003900B468DF80B300420092146
S1130AD00422012308F0A6FD042008210422002397
S1130AE008F0A0FD04200D210222012308F09AFD44
S1130AF09DF80B30002B3ED02848012107F008FC5C
S1130B0000200F210122002308F08CFD04200E2177
S1130B100122002308F086FD002000210422002386
S1130B2008F080FD002001210422002308F07AFD52
S1130B300023009300200F2100220023FFF7A0FFD1
S1130B400023009304200E2100220023FFF798FFC6
S1130B5000204FF44411072208F096FE01204FF4C0
S1130B604411062208F090FE0D4B03229A600220E5
S1130B700221FFF7DFFE039B002B0BD00D2003990E
S1130B8009F0CAFB0123009304200D210022012354
S1130B90FFF776FF05B05DF804FB00BF00F2040028
S1130BA000C00C4008B5064B064A9A60044B01226B
S1130BB0DA75054B1B681846014900F0F5F908BDC4
S1130BC03000002000127A002C00002008B5042018
S1130BD00821FFF725FF08BD08B504200821FFF709
S1130BE0EFFE08BD08B504200921FFF7E9FE08BDA2
S1130BF008B504200921FFF713FF08BD08B5042038
S1130C000D21FFF7ABFE0346DBB2184608BD00BF5B
S1130C1000B583B003468DF80730064B1A680DF112
S1130C20070310461946012200F020FB03B05DF8CB
S1130C3004FB00BF2C00002000B583B00190054BDD
S1130C401B6818460199012200F0E6FA03B05DF82A
S1130C5004FB00BF2C00002000B583B003460091C4
S1130C608DF80730054B1A689DF807301046009937
S1130C701A4600F0FBFA03B05DF804FB2C000020D8
S1130C8000B583B0034600918DF80730054B1A6810
S1130C909DF80730104600991A4600F0BDFA03B0DB
S1130CA05DF804FB2C00002000B585B003460091DC
S1130CB08DF8073042F21073ADF80E3000238DF832
S1130CC00D3020E0FFF78EFF4420FFF7A1FF03ABB8
S1130CD01846FFF7B1FF9DF80C30FF2B0CD19DF89F
S1130CE00730002B05D09DF8073018460099FFF710
S1130CF0C7FFFFF77DFF0AE0FFF77AFFBDF80E306C
S1130D00013BADF80E30BDF80E30002BDAD19DF862
S1130D100C30FF2B06D1064B01221A709DF80C30C3
S1130D208DF80D309DF80D30184605B05DF804FBC4
S1130D309C10002000B583B0034600918DF8073065
S1130D4001E000F073F80A4B1B78002BF9D0FFF791
S1130D5049FF9DF8073018460099FFF77DFFFFF71C
S1130D6047FF034B00221A7003B05DF804FB00BF79
S1130D709C10002000B583B0009303468DF8073023
S1130D800B468DF8063013468DF805309DF8063075
S1130D90002B06D001E000F049F80C4B1B78002B27
S1130DA0F9D0FFF71FFF9DF807301846FFF730FF13
S1130DB09DF8053018460099FFF762FFFFF718FF0A
S1130DC0024B00221A7003B05DF804FB9C10002053
S1130DD000B583B0009303468DF807300B468DF8B9
S1130DE0063013468DF805309DF80630002B06D0EA
S1130DF001E000F01BF80C4B1B78002BF9D0FFF737
S1130E00F1FE9DF807301846FFF702FF9DF8053004
S1130E1018460099FFF720FFFFF7EAFE024B002275
S1130E201A7003B05DF804FB9C10002008B5002084
S1130E300021FFF739FF0346184608BD014B002285
S1130E401A7070479C10002000B585B00291019380
S1130E5003468DF80F3013468DF80E309DF80F3091
S1130E6018460299FFF766FF9DF80E30184601995F
S1130E70FFF71AFF0346184605B05DF804FB00BFF0
S1130E8000B58DB0019073E0019B5A1C01921B7850
S1130E908DF82E309DF82E30102B1DD9019B1B7818
S1130EA0662B17D19DF82E30802B01D9042364E0E2
S1130EB0019B013301939DF82E30013BDBB21846B0
S1130EC0019900F05FF89DF82E30013B019A13441C
S1130ED001934DE0042350E000238DF82F300FE000
S1130EE09DF82F30019A12780CA90B4403F8142CA6
S1130EF0019B013301939DF82F3001338DF82F307E
S1130F009DF82F209DF82E309A42E9D39DF82E109B
S1130F1007AA0DF10B03084611460122FFF794FFBF
S1130F200346FF2B01D0022327E09DF81C30192B28
S1130F300BD19DF80C30012B01D104231DE09DF849
S1130F400C30022B01D1042317E0FFF757FE0346B0
S1130F50002B0DD103AB002000210022FFF730FC51
S1130F609DF8123003F00803002B01D0042304E0A1
S1130F70019B1B78002B87D1002318460DB05DF828
S1130F8004FB00BF00B583B0034600918DF8073021
S1130F909DF80730662001211A46009BFFF718FFD1
S1130FA003B05DF804FB00BF30B58BB00190009135
S1130FB0884B02AC1D460FCD0FC495E8030084E8AE
S1130FC00300019B002B01D1834B00E1009B002B0C
S1130FD001D1824BFBE00198002158220AF0B0FABB
S1130FE0009B1B687E4A93420AD1019B7D4ADA64C6
S1130FF0019B7D4A5A62019B4FF450229A6221E080
S1131000009B1B68794A93420AD1019B784ADA64AF
S1131010019B784A5A62019B4FF460229A6211E064
S1131020009B1B68744A93420AD1019B734ADA6499
S1131030019B734A5A62019B4FF440229A6201E079
S1131040664BC4E0019A009B14461D460FCD0FC4A5
S113105095E8070084E80700009B5B7D012B02D123
S113106001238DF81630009B9B7D002B03D10023B8
S1131070ADF818301CE0009B9B7D012B04D14FF48C
S11310800073ADF8183013E0009B9B7D022B04D154
S11310904FF48073ADF818300AE0009B9B7D032B5E
S11310A004D14FF44073ADF8183001E04B4B8EE09F
S11310B0009B1B7D012B06D100238DF815304FF4C6
S11310C07A73049302E0009B9B6804934D480121CA
S11310D007F01EF94C48012107F01AF9019BDB6C5B
S11310E01846012107F014F9009B1A6802AB104658
S11310F0194608F053FF009B1B7D002B0BD1009B6E
S1131100DB7D002B07D1009B1B68009A12681268D4
S113111042F480321A60009BDB7D002B08D1009BD7
S11311201B68009A1279120242F00F025A6507E016
S1131130009B1B68009A1279120242F00B025A6556
S11311400198012100F0CAF80990099B002B01D0F5
S1131150099B3CE007F022FD08902C4B1B7883F0A0
S11311600103DBB2002B08D0284B01221A70089827
S113117007F020FD00F046FD02E0089807F01AFD94
S1131180009B1B7D012B09D1019B5433184600F0B1
S1131190F3FC0346002B01D01D4B18E001F098F836
S11311A0019B1C331846002101F038F80346002B3C
S11311B001D0184B0BE0019B20331846002101F0AD
S11311C02DF80346002B01D0124B00E000231846F3
S11311D00BB030BD04BF0000012000F0022000F07D
S11311E000C400400012040001000D0000C80040CB
S11311F00022040001000E0000C0004000020400B0
S113120001000C004081040000D204009D10002065
S1131210042000F0092000F000B587B0039002918B
S11312200192039B1B7D012B01D10E4B15E003980A
S11312300299019A00F0E2FB0590059B002B01D076
S1131240059B0AE003980299019A074B00F00CFBF6
S1131250039800F009FC039B5B6C184607B05DF82B
S113126004FB00BF082000F0C112000000B587B0E5
S1131270039002910192039B1B7D012B01D10E4B24
S113128015E003980299019A00F0B8FB0590059BBC
S1131290002B01D0059B0AE003980299019A074BA1
S11312A000F048FB039800F0DFFB039B5B6C1846DF
S11312B007B05DF804FB00BF082000F0C112000075
S11312C084B0039002910192039B029A5A64039B97
S11312D0012283F8502004B0704700BF00B58BB0E2
S11312E001900B468DF80330019B1B790393019BFE
S11312F01B689D4A934240F09B80039B002B0CD0BB
S1131300039B012B07D0039B022B01D1032306E08F
S11313104FF0FF3303E0032301E04FF0FF33069364
S1131320039B002B0CD0039B012B07D0039B022BA8
S113133001D1032306E04FF0FF3303E0032301E070
S11313404FF0FF330593039B002B0CD0039B012B21
S113135007D0039B022B01D1052306E04FF0FF3396
S113136003E0032301E04FF0FF330493039B002BBE
S11313700CD0039B012B07D0039B022B01D1052327
S113138006E04FF0FF3303E0032301E04FF0FF33A7
S1131390019AD363039B002B0CD0039B012B07D032
S11313A0039B022B01D1072306E04FF0FF3303E038
S11313B0002301E04FF0FF330993039B002B0CD073
S11313C0039B012B07D0039B022B01D1062306E0CC
S11313D04FF0FF3303E0012301E04FF0FF330893A4
S11313E0039B002B0CD0039B012B07D0039B022BE8
S11313F001D1002306E04FF0FF3303E0022301E0B4
S11314004FF0FF330793039B002B0CD0039B012B5E
S113141007D0039B022B01D1012306E04FF0FF33D9
S113142003E0032301E04FF0FF33019A136425E145
S1131430019B1B684D4A934272D1039B002B07D03A
S1131440039B012B01D1012304E04FF0FF3301E0A2
S11314504FF0FF330693039B002B07D0039B012B14
S113146001D1012304E04FF0FF3301E04FF0FF33DB
S11314700593039B002B07D0039B012B01D1012370
S113148004E04FF0FF3301E04FF0FF330493039B7C
S1131490002B07D0039B012B01D1012304E04FF063
S11314A0FF3301E04FF0FF33019AD363039B002B1A
S11314B007D0039B012B01D1032304E04FF0FF333A
S11314C001E04FF0FF330993039B002B07D0039BEC
S11314D0012B01D1042304E04FF0FF3301E04FF06E
S11314E0FF330893039B002B07D0039B012B01D1EF
S11314F0052304E04FF0FF3301E04FF0FF3307937F
S1131500039B002B07D0039B012B01D1062304E08E
S11315104FF0FF3301E04FF0FF33019A1364ADE065
S1131520019B1B68124A934240F0A680039B002B48
S113153020D0039B012B13D0039B022B0DD0039BC4
S1131540032B07D0039B042B01D1012313E04FF09D
S1131550FF3310E04FF0FF330DE04FF0FF330AE0AC
S11315604FF0FF3307E000BF00C4004000C8004054
S113157000C0004004230693039B002B19D0039B57
S1131580012B13D0039B022B0DD0039B032B07D0FD
S1131590039B042B01D101230CE04FF0FF3309E03E
S11315A04FF0FF3306E04FF0FF3303E04FF0FF331B
S11315B000E004230593039B002B01D1042301E0E5
S11315C04FF0FF330493039B002B01D1042201E06D
S11315D04FF0FF32019BDA63039B002B19D0039B6E
S11315E0012B13D0039B022B0DD0039B032B07D09D
S11315F0039B042B01D107230CE04FF0FF3309E0D8
S11316004FF0FF3306E04FF0FF3303E04FF0FF33BA
S113161000E00A230993039B002B19D0039B012BA1
S113162013D0039B022B0DD0039B032B07D0039BEA
S1131630042B01D108230CE04FF0FF3309E04FF0F5
S1131640FF3306E04FF0FF3303E04FF0FF3300E0D9
S11316500B230893039B002B01D10C2301E04FF0D3
S1131660FF330793039B002B01D10D2201E04FF0C0
S1131670FF32019B1A6401E0624BBFE09DF8033026
S1131680002B7ED0019B1B7D002B3DD1069BDAB243
S1131690099B104619460422002307F0C3FF059B4B
S11316A0DAB2089B104619460222002307F0BAFF5B
S11316B0019B9B7D002B03D0019B9B7D012B09D1BA
S11316C0049BDAB2079B104619460422002307F054
S11316D0A9FF08E0049BDAB2079B104619460422CE
S11316E0012307F09FFF019BDB7D002B40F08580E9
S11316F0019BDB6BDAB2019B1B6C1046194604227A
S1131700012307F08FFF78E0069BDAB2099B1046AD
S113171019460222002307F085FF059BDAB2089BD5
S1131720104619460422002307F07CFF019B9B7D91
S1131730002B03D0019B9B7D012B09D1049BDAB2C2
S1131740079B104619460222002307F06BFF08E0AE
S1131750049BDAB2079B104619460222012307F0C4
S113176061FF019BDB7D002B47D1019BDB6BDAB270
S1131770019B1B6C104619460222012307F052FFFD
S11317803BE0069BDAB2099B10461946022200236D
S113179007F048FF059BDAB2089B1046194602225F
S11317A0002307F03FFF019B9B7D002B03D0019B8F
S11317B09B7D012B09D1049BDAB2079B1046194685
S11317C00222002307F02EFF08E0049BDAB2079BF5
S11317D0104619460222012307F024FF019BDB7DFA
S11317E0002B0AD1019BDB6BDAB2019B1B6C104608
S11317F019460022002307F015FF002318460BB0FA
S11318005DF804FB022000F000B587B0039002915C
S1131810019207F0C3F90590019B0493049B0022F5
S11318205A64049B002283F84820049B00229A6394
S1131830049B1B7D012B04D1049B5B6D184600F0B7
S11318402FFA049BDB6A002B06D0049BDB6A049A04
S1131850526B049800219847059807F0ABF90123CF
S1131860184607B05DF804FB10B58EB009900891D6
S113187007920693099B002283F85020099B079A3C
S11318805A63099B1B684FF44062DA60099B069A0D
S1131890DA62099BDB68082B03D901238DF82F300A
S11318A002E000238DF82F30099BDB68082B08D950
S11318B0099B1B6824330D93099B1B683C330C93D1
S11318C007E0099B1B681C330D93099B1B68343389
S11318D00C93099B196A099B9A6A01230093079B3D
S11318E001939DF82F300293114B0393099B0493AA
S11318F008461146089A0D9B00F050FD099BD969D2
S1131900099B5A6A099B03F1100400230093079B67
S113191001939DF82F300293002303930023049333
S1131920084611460C9A234600F014FD0EB010BD73
S11319300918000000B58FB009900891079206932A
S1131940099B002283F85020099B079A5A63099B3C
S11319501B684FF44062DA60099B069ADA62099BBD
S1131960DB68082B03D901238DF82F3002E0002314
S11319708DF82F30099BDB68082B08D9099B1B685D
S113198024330D93099B1B683C330C9307E0099B9C
S11319901B681C330D93099B1B6834330C93099B00
S11319A0186A099B996A099B03F13002002300938A
S11319B0079B01939DF82F3002930F4B0393099BD0
S11319C004930D9B00F0EAFC099BD969099B5A6AB0
S11319D001230093079B01939DF82F30029300236A
S11319E0039300230493084611460C9A089B00F0C5
S11319F0B1FC0FB05DF804FB0918000000B587B016
S1131A00039002910192039B002B01D1134B21E01F
S1131A10029B002B06D0019B002B03D0019BB3F546
S1131A20806F01DD0E4B15E007F0B8F80590039BBD
S1131A3093F84830DBB2002B04D0059807F0BAF8CD
S1131A40084B07E0039B012283F84820059807F020
S1131A50B1F80023184607B05DF804FB012000F03C
S1131A60022000F0032000F000B583B001900020B4
S1131A7007F0A8F80346002B0CD001E007F002FAA7
S1131A80019B93F85030DBB283F00103DBB2002BEF
S1131A90F4D109E000BF019B93F85030DBB283F02E
S1131AA00103DBB2002BF6D103B05DF804FB00BFE9
S1131AB082B003468DF8073007499DF907305B096A
S1131AC09DF8072002F01F02012000FA02F241F8FB
S1131AD0232002B0704700BF00E100E082B003465B
S1131AE08DF8073007499DF907305B099DF80720F9
S1131AF002F01F02012000FA02F2603341F82320B1
S1131B0002B0704700E100E0014B5B681846704783
S1131B100000084082B00190024A019B936102B028
S1131B20704700BF0000084082B001900449044B94
S1131B30DA69019BDB431340CB6102B0704700BFFD
S1131B400000084082B001900349034BDA69019B0D
S1131B501343CB6102B070470000084082B0054BCC
S1131B60DB690193034B1A69019B1340184602B0C9
S1131B70704700BF0000084000B587B00190002303
S1131B8005930023049307F009F8039002E0059BF2
S1131B9001330593059B032B0ADC1749059A134669
S1131BA09B001344DB000B4418339B79002BEED1CC
S1131BB0059B042B02D1114B049314E0019B002BD1
S1131BC00FD00D49059A13469B001344DB000B44C8
S1131BD0183301229A71059A019B1A600023049319
S1131BE001E0074B0493039806F0E4FF049B1846B6
S1131BF007B05DF804FB00BFA0100020011000F046
S1131C00041000F008B51D4B1B78002B01D00023F5
S1131C1032E01A4B01221A701948012106F078FBB0
S1131C201848022106F056FD1748082106F080FAEC
S1131C301548012106F06CFB144807F043FF072008
S1131C40FFF772FF0720FFF765FF07F05DFF1E2017
S1131C50FFF744FF1E20FFF72BFF0D480021A022B1
S1131C6009F06EFC0B4B00221A700B4B00221A7009
S1131C700A4B00221A600023184608BD4A110020AE
S1131C800043020002001A00601610001CBF00008E
S1131C90A010002048110020491100204411002008
S1131CA000B585B00190019B032B01D9144B23E0AF
S1131CB006F074FF03901349019A13469B001344E2
S1131CC0DB000B4418339B7983F00103DBB2002B58
S1131CD004D0039806F06EFF0B4B0DE00949019AFE
S1131CE013469B001344DB000B44183300221A7183
S1131CF0039806F05FFF0023184605B05DF804FB67
S1131D00021000F0A0100020031000F000B587B00E
S1131D1006F044FF0490FFF721FF0390039B23F098
S1131D2003031846FFF7F6FE039B03F00203002BA0
S1131D3039D0204B01221A70FFF7E6FE05900220ED
S1131D40FFF7F2FE059B1A021B4B1B681B02D31AFA
S1131D501B0A0293029800F033F800F083F9059807
S1131D6000F0B0F9FFF7D0FE0590059B1A02124B64
S1131D701B681B02D31A1B0A0293002007F054FEAF
S1131D8003461A020C4B1B681B02D31A1B0A01934D
S1131D900A4B1B78002B03D0029A019B9A42CED89F
S1131DA0044B00221A70049806F004FF07B05DF893
S1131DB004FB00BF481100204011002049110020FD
S1131DC010B485B001900023039341E1A449039A20
S1131DD013469B001344DB000B44183300225A7152
S1131DE09F49039A13469B001344DB000B441833AA
S1131DF01B79002B00F029819949039A13469B0013
S1131E001344DB000B44D3E90023019908464FF047
S1131E100001994208BF904219D29149039A13468E
S1131E209B001344DB000B44D3E90001019B1A46D9
S1131E304FF00003801A61EB0301894C039A1346A7
S1131E409B001344DB002344C3E90001FDE0844903
S1131E50039A13469B001344DB000B441833DB79CD
S1131E60002B0AD17E49039A13469B001344DB00DE
S1131E700B44183300221A71D2E07949039A1346AD
S1131E809B001344DB000B440833D3E90001019B9E
S1131E901A464FF00003801A61EB0301704C039A59
S1131EA013469B001344DB002344D3E9002380182A
S1131EB041EB03016A4C039A13469B001344DB0075
S1131EC02344C3E900016649039A13469B00134463
S1131ED0DB000B4410331B68002B50DD6049039A70
S1131EE013469B001344DB000B44103359685C48D1
S1131EF0039A13469B001344DB00034410331B680E
S1131F0019445748039A13469B001344DB000344C7
S1131F10103359605249039A13469B001344DB0063
S1131F200B4410335B68F32B7AD94D49039A13465B
S1131F309B001344DB000B44D3E90023501C43F102
S1131F400001474C039A13469B001344DB002344CF
S1131F50C3E900014249039A13469B001344DB0082
S1131F600B4410335B68A3F1F4013D48039A134614
S1131F709B001344DB0003441033596050E038499C
S1131F80039A13469B001344DB000B441033596837
S1131F903348039A13469B001344DB000344103375
S1131FA01B68C91A2E48039A13469B001344DB008E
S1131FB00344103359602A49039A13469B0013447F
S1131FC0DB000B4410335B68F32B29D92449039AB3
S1131FD013469B001344DB000B44D3E9002312F1A6
S1131FE0FF3043F1FF311E4C039A13469B00134408
S1131FF0DB002344C3E900011949039A13469B00FB
S11320001344DB000B4410335B68A3F1F401144860
S1132010039A13469B001344DB00034410335960B6
S11320200F49039A13469B001344DB000B441833F7
S11320301B68002B09D00A49039A13469B001344DA
S1132040DB000B44183301225A71039B01330393C1
S1132050039B032B7FF7BAAE05B05DF8044B7047C2
S1132060A010002010B582B00023019322E014498F
S1132070019A13469B001344DB000B4418335B792D
S1132080002B14D00E49019A13469B001344DB0025
S11320900B4418331C6801980949019A13469B00A4
S11320A01344DB000B4420331B681946A047019BF3
S11320B001330193019B032BD9DD02B010BD00BF96
S11320C0A010002000B58BB001904FF0FF324FF00C
S11320D0FF33CDE906230023099327E03749099A02
S11320E013469B001344DB000B4418331B79002B6D
S11320F019D03249099A13469B001344DB000B4460
S1132100D3E90001DDE90623994208BF90420AD2CF
S11321102A49099A13469B001344DB000B44D3E974
S11321200023CDE90623099B01330993099B032B63
S1132130D4DD234B00221A70DDE90623B3F1FF3FFF
S113214008BFB2F1FF3F35D0DDE90623CDE9042312
S11321501C4B0393039B1A464FF00003DDE9040173
S1132160994208BF904201D202460B46CDE90623AC
S1132170154B1B7883F00103DBB2002B05D0019BC8
S113218023F07F43114A136002E0104A019B13605D
S11321900220FFF7BFFC069A019B134423F07F4300
S11321A00020194607F05AFC054B01221A70022040
S11321B0FFF7C8FC0BB05DF804FB00BFA0100020C3
S11321C0491100209BFFFF0048110020401100200E
S11321D082B0034600918DF807309DF90730002B3B
S11321E00CDA0C499DF8073003F00F03043B009A06
S11321F0D2B25201D2B20B441A7609E006499DF9D3
S11322000730009AD2B25201D2B20B4483F80023B1
S113221002B0704700ED00E000E100E000B585B0D9
S113222001900091254B1B7883F00103DBB2002B56
S113223001D0234B3DE0019B002B01D1214B38E021
S113224006F0ACFC0290002303932BE01E49039A92
S113225013469B0013449B000B4410331B7883F0FC
S11322600103DBB2002B1AD0039A019B1A601649B2
S1132270039A13469B0013449B000B441033012222
S11322801A701149039A13469B0013449B000B4494
S113229000221A60029806F08DFC002309E0039BDB
S11322A001330393039B0B2BD0DD029806F082FCD1
S11322B0064B184605B05DF804FB00BF4B11002027
S11322C0028000F0018000F04C110020048000F036
S11322D000B585B006F062FC02901A4B1B78002B07
S11322E004D0029806F066FC174B26E0154B012239
S11322F01A70029806F05EFC002303930CE0134965
S1132300039A13469B0013449B000B441033002292
S11323101A70039B01330393039B0B2BEFDD002007
S11323200421FFF755FF00238DF80030084B01937B
S11323306B46184606F0E0FE0023184605B05DF82B
S113234004FB00BF4B110020038000F04C1100205F
S11323500020002000B58DB00B900A9109920893DB
S1132360099B0093089B0193002302939DF8383046
S113237003930F9B04939DF840300593119B0693A0
S1132380129B0793002000210B9A0A9B00F09CF8F3
S1132390034618460DB05DF804FB00BF00B58DB0D0
S11323A00B900A9109920893099B0093089B01934F
S11323B0002302939DF8383003930F9B04939DF8F8
S11323C040300593119B0693129B07930020012133
S11323D00B9A0A9B00F078F8034618460DB05DF896
S11323E004FB00BF00B587B003900B4601928DF843
S11323F00B30039A13469B0013449B000B4A13446F
S11324000593059B1B68002B0CD0059B9B685A1CED
S1132410059B9A60059B1B68059A9168059A52680A
S11324200398984707B05DF804FB00BF4C110020E7
S113243000B58BB007900B4605928DF81B30012335
S11324408DF82730079A13469B0013449B001D4ABE
S113245013440893089B1B68002B1DD0089B9B68A2
S11324605A1C089B9A60089B1B68089A9168089AF2
S11324705268079898470346002B14BF0123002392
S1132480DBB283F00103DBB28DF827309DF82730EF
S113249003F001038DF82730089BDB68013B1946E4
S11324A09DF81B200023009301919DF8273002938F
S11324B0002011460022002306F046FE0BB05DF812
S11324C004FB00BF4C11002000B58FB006920593A9
S11324D003468DF81F300B468DF81E308F4B1B784A
S11324E083F00103DBB2002B01D08D4B12E1069B7C
S11324F00B2B10D8109B002B0DD0119B002B0AD056
S1132500149BB3F5806F06DC9DF81F30012B04D1BA
S1132510129B002B01D1834BFCE0069A13469B00CF
S113252013449B00804A13440D930D9B1B7C83F042
S11325300103DBB2002B01D07C4BEBE09DF81F3094
S1132540002B09D17A49069A13465B0013449B0079
S11325500B44784A1A6008E07549069A13465B00F2
S113256013449B000B44744A1A607149069A13463B
S11325705B0013449B000B4400225A6000238DF837
S11325802830169B002B03D19DF81F30012B03D15B
S113259001238DF8293002E000238DF82930059BB2
S11325A00B93069A13465B0013449B00604A134442
S11325B00C930AAB0698194606F022FD9DF81E30CE
S11325C0002B1ED19DF84C30002B13D09DF85430B5
S11325D0002B03D100238DF821300EE09DF85430F8
S11325E0012B03D101238DF8213006E002238DF85D
S11325F0213002E003238DF8213003238DF82030AD
S11326001DE09DF84C30002B13D09DF85430002B66
S113261003D100238DF820300EE09DF85430012BB7
S113262003D101238DF8203006E002238DF82030F9
S113263002E003238DF8203003238DF821309DF828
S113264054308DF8223000238DF8233000238DF888
S1132650243008AB069801211A4606F019FD9DF8AE
S11326601F30012B05D108AB069800211A4606F04D
S11326700FFD0D9B169A1A600D9B179A5A600D9BBD
S113268000229A600D9B149ADA602C4A069B012161
S113269001FA03F3194602F58053083319609DF8D3
S11326A01F30002B0CD1149B013B1A46119B009345
S11326B00192069801210022109B06F04FFC28E0AD
S11326C09DF81E30002B12D1149B013B1946149B1C
S11326D0013B1A460091109B0193129B02930392B3
S11326E006980021109A119B06F05CFC11E0149BE3
S11326F0013B1946149B013B1A460091119B01931F
S1132700129B0293039206980021109A129B06F0E2
S113271049FC002318460FB05DF804FB4B11002060
S1132720028000F0018000F04C110020078000F0CE
S11327303C120020E52300003124000000200C405E
S113274082B003468DF8073007499DF907305B09CD
S11327509DF8072002F01F02012000FA02F241F85E
S1132760232002B0704700BF00E100E082B00346BE
S11327708DF8073007499DF907305B099DF807205C
S113278002F01F02012000FA02F2203341F8232054
S113279002B0704700E100E082B003468DF80730D4
S11327A007499DF907305B099DF8072002F01F02D5
S11327B0012000FA02F2603341F8232002B070478E
S11327C000E100E0034A034B1B6923F00403136197
S11327D030BF704700ED00E084B003900291019295
S11327E0039A029B03331B011344019A5A6004B0F9
S11327F0704700BF82B00190019B5B6A184602B02B
S1132800704700BF82B001900B468DF80330019BE6
S11328100E4A93420BD0019B0D4A934207D0019B71
S11328200C4A934203D0019B0B4A934200D100BF50
S11328309DF80330002B03D0019B01225A6002E073
S1132840019B02225A6002B0704700BF00000140A1
S11328500004014000080140000C014082B00190D6
S11328600091019B009A9A6102B0704782B0019076
S11328700091019BDA68009BDB431A40019BDA60FC
S113288002B0704782B001900091019BDA68009B0E
S11328901A43019BDA6002B0704700BF82B0019016
S11328A0019B1B69184602B0704700BF82B00190BB
S11328B00091019B009ADA6102B0704730B589B08B
S11328C001238DF80C3000238DF80D3000238DF892
S11328D00E3000238DF80F3000238DF810300023C4
S11328E08DF8113000238DF8123000238DF8133049
S11328F000238DF8143000238DF8153000238DF853
S1132900163000238DF8173000238DF8183000237B
S11329108DF8003000238DF8013000238DF802304B
S113292000238DF8033000238DF8043000238DF844
S1132930053000238DF8063000238DF8073000237E
S11329408DF8083000238DF8093000238DF80A3003
S113295002238DF806303748012105F0D9FC3648AA
S11329604FF6FF71FFF7A2FF6B46334800211A466A
S113297007F08EF900238DF80E3003AB2E4819466C
S113298007F006F92D4805F02FFD02462C4B1A607E
S11329902B4B1B689DF80E20D340294A13609DF8E9
S11329A00E300133DBB28DF80E309DF80E300A2B59
S11329B004D8234B1B68234A9342DED8224805F0EF
S11329C013FD0246214BB3FBF2F307931C4B1B6828
S11329D018464FF00001079B1A464FF0000302FB14
S11329E001F500FB03F42C44A0FB0223E1180B4681
S11329F017484FF00001121843EB01031046194623
S1132A00144A4FF0000307F06DFF02460B46124BC9
S1132A101A60124B00221A7007481021FFF726FF94
S1132A200220FFF7B9FE0220FFF78AFE00231846B2
S1132A3009B030BD00520400000001404081040090
S1132A40CC12002080841E005000020000B0710BE4
S1132A5020A1070040420F00D0120020D412002011
S1132A6008B50220FFF782FE0A481021FFF7FEFE98
S1132A7008481021FFF7F2FE0220FFF78DFE0548FB
S1132A800021FFF7BFFE0448002105F041FC0023AC
S1132A90184608BD000001400052040030B585B05E
S1132AA00190224B1B6818464FF00001019B1A4607
S1132AB04FF0000302FB01F500FB03F42C44A0FBE0
S1132AC00223E1180B461A484FF00001121843EB99
S1132AD0010310461946174A4FF0000307F002FF9E
S1132AE002460B46CDE902230DE04FF6E85000F014
S1132AF03FF8DDE9022310484FF0FF31121843EB91
S1132B000103CDE90223DDE902234FF6E8504FF03B
S1132B100001994208BF9042E7D3BDF80830184637
S1132B2000F026F80023184605B030BDCC12002072
S1132B3020A1070040420F001802FFFF00B583B038
S1132B400948FFF7ABFE0190019B03F01003002B33
S1132B5006D005481021FFF781FE044B01221A70AC
S1132B6003B05DF804FB00BF00000140D412002054
S1132B7000B587B00346ADF80630BDF80630002B2B
S1132B8036D006F00BF805901B48FFF733FE0146DC
S1132B901A4B1B680493BDF80630ADF80E30BDF82F
S1132BA00E20049B934238BF13460B441248002165
S1132BB01A46FFF711FE10481021FFF74FFE0E488A
S1132BC01021FFF75FFE059805F0F4FF01E0FFF721
S1132BD0F9FD0B4B1B78DBB283F00103DBB2002B56
S1132BE0F5D1074B00221A7003481021FFF73EFE6F
S1132BF007B05DF804FB00BF00000140D0120020C4
S1132C00D412002000B589B003468DF8073003AB19
S1132C100793002000210022079BFDF7D1FD079BAD
S1132C209B7803F01003002B03D0074801F04CFFFE
S1132C3004E0079B9B7803F00803002B00F080F965
S1132C4009B05DF804FB00BF4C00002008B519482A
S1132C500121FDF735FFFDF7A5FF00F085F90CE034
S1132C60154802F033FEFFF729FE42F21070FFF719
S1132C7015FFFFF7F5FE00F077F91048FEF700F9AD
S1132C800346002BECD10020002100220023FDF795
S1132C9097FD0B48FDF7EEFC094B5B880948194684
S1132CA002F000FE0848002101F0F8FC0123184658
S1132CB008BD00BF052C000038BF000098BF00000D
S1132CC0BC1E00205CBF00004C00002000B585B095
S1132CD001900B46ADF80230214B00221A60BDF87A
S1132CE00230402B01D9002335E0002303930BE08D
S1132CF0039A1C4B1340002B03DA013B63F00F03D0
S1132D000133039B01330393BDF80220039B9A42D2
S1132D10EEDC01200021FDF79BFD134A019B1360AB
S1132D20124ABDF8023013801148FDF7D7FD02E0C6
S1132D300F48FDF7D3FD0E4B1B78072BF8D00D4B36
S1132D401B68DB88DBB218460199FDF7A3FD044B31
S1132D5001221A600023184605B05DF804FB00BF89
S1132D60D81200200F000080DC120020E0120020A6
S1132D70BC1E00207C00002000B589B00346ADF8DD
S1132D80063003AB0793114B1B689A7BBDF80630E2
S1132D90104630211A46FDF7A7FC0020002100222E
S1132DA0079BFDF70DFD05E0002000210022079B95
S1132DB0FDF706FD079B9B7803F02003002BF3D15E
S1132DC00023184609B05DF804FB00BF7C00002016
S1132DD000B583B001900B46ADF80230BDF8023067
S1132DE001981946FFF772FF0346012B01D1012315
S1132DF005E0BDF802301846FFF7BEFF034618464B
S1132E0003B05DF804FB00BF00B587B001900B462A
S1132E10ADF8023002AB00201946FDF719FD9DF80C
S1132E200830ADF80230BDF80230DBB21846019923
S1132E30FDF742FD02200021FDF70AFDBDF8023036
S1132E40184607B05DF804FB18467047002318467F
S1132E50704700BF1846704708B502200021FDF7EF
S1132E60F7FC01200021FDF7F3FC00F069F80123D1
S1132E70184608BD00231846704700BF00B589B046
S1132E8003900B4601928DF80B3001238DF81F300F
S1132E90039B1B88002B03D0B3F5847F07D03FE04E
S1132EA000238DF81F30039B4FF484721A809DF821
S1132EB01F30002B03D09DF80B30822B01D001234F
S1132EC035E002F0BDFA02F09BFB03461846802170
S1132ED0FFF79AFF0590059B9BB2184602F07AFB18
S1132EE0154B1B69984702F08BFB04900023069353
S1132EF00BE0069A114B1340002B03DA013B63F0FD
S1132F000F030133069B01330693069A059B9A42ED
S1132F10EFDB01200021FDF79BFCFFF79DFFBFE7DE
S1132F2000238DF81F30039B00221A8003231846C8
S1132F3009B05DF804FB00BF2CC500000F00008041
S1132F4000B583B0074B1B681A7E03230093082344
S1132F5001931046002100220023FDF7F5FB03B086
S1132F605DF804FB7C00002008B5FDF771FBFFF75A
S1132F70A5FC42F21070FFF791FDFFF771FD08BD4B
S1132F8000B583B003468DF807309DF8073003F091
S1132F900103002B9DF8073003F00203002B9DF87A
S1132FA0073003F00403002B054B1A78054B1B78FC
S1132FB05340DBB2184600F06DF803B05DF804FB33
S1132FC0E2120020E312002008B500F055F8044B8B
S1132FD000221A70024B1A78024B1A7008BD00BF07
S1132FE0E3120020E212002000B585B003468DF8FC
S1132FF007300D4B1A789DF8073013408DF80F30C9
S11330009DF80730DB43DAB2074B1B78DBB2134081
S1133010DBB2DAB2044B1A709DF80F301846FFF792
S1133020AFFF05B05DF804FBE212002000B583B0E9
S113303003468DF807309DF80730184600F004F871
S113304003B05DF804FB00BF00B583B003468DF800
S11330500730084B1A789DF807305340DAB2054B15
S11330601A709DF807301846FFF78AFF03B05DF821
S113307004FB00BFE312002008B50520062104224A
S1133080002306F0CFFA052007210422002306F0CE
S1133090C9FA08BD00B583B003468DF807309DF822
S11330A0073003F00103002B04D0F620012103F0C4
S11330B0F5FC03E0F620002103F0F0FC9DF8073056
S11330C003F00203002B04D0F720012103F0E6FCF7
S11330D003E0F720002103F0E1FC03B05DF804FBFA
S11330E0014B01221A607047E4120020014B0122B7
S11330F01A607047E4120020014B00221A607047E6
S1133100E4120020014B1B6818467047E4120020AB
S113311000B583B0019004F021F90346184603B0CA
S11331205DF804FB00B583B001900091019B802BF6
S113313002D0812B04D00DE0FFF7D2FF01230AE077
S1133140009B002B02D0FFF7D1FF01E0FFF7D4FF73
S1133150012300E00023184603B05DF804FB00BF20
S113316000B583B00190019B822B03D1FFF7CAFF06
S1133170034600E00023184603B05DF804FB00BFDB
S113318010B584B0029111461A4603468DF80F30EB
S11331900B468DF80E3013468DF80D309DF80F2038
S11331A09DF80E409DF80D3000939DF81830019362
S11331B010460299029A234606F0C2F904B010BDE3
S11331C008B50248FDF748F908BD00BFF4C2000085
S11331D000B583B003F0C6FC0346002B01D103F015
S11331E0C7FC042003210222012306F01BFA012359
S11331F000930420032100220123FFF7C1FF0320D1
S1133200024907F089F803B05DF804FBC1310000FE
S113321008B5054B1B68002B01D1FFF7D9FF034B01
S113322001221A6008BD00BFE8120020EC12002041
S1133230014B00221A607047EC120020014B1B68FE
S113324018467047EC12002082B001900123184602
S113325002B0704700B583B00190019B813B012B04
S113326003D8FFF7EBFF034600E00023184603B042
S11332705DF804FB00B583B001900091019B802BA5
S113328002D0812B04D00DE0FFF7A2FF01230AE056
S1133290009B002B02D0FFF7BBFF01E0FFF7C8FF44
S11332A0012300E00023184603B05DF804FB00BFCF
S11332B0024BD3F814311846704700BF0060004039
S11332C010B584B0029111461A4603468DF80F30AA
S11332D00B468DF80E3013468DF80D309DF80F20F7
S11332E09DF80E409DF80D3000939DF81830019321
S11332F010460299029A234606F022F904B010BD42
S113330008B50248FDF7A8F808BD00BF0CC30000CB
S113331000B583B003F026FC0346002B01D103F073
S113332027FC042002210222012306F07BF9012359
S113333000930420022100220123FFF7C1FF022091
S1133340024906F0E9FF03B05DF804FB0133000015
S113335008B5054B1B68002B01D1FFF7D9FF034BC0
S113336001221A6008BD00BFF0120020F4120020F0
S1133370014B1B6818467047F412002000B583B057
S11333800190FFF795FF0346184603B05DF804FB70
S113339000B583B00190019B813B012B03D8FFF75B
S11333A0E7FF034600E00023184603B05DF804FB82
S11333B000B583B001900091019B802B02D0812B3A
S11333C004D007E0FFF7A4FF012304E0FFF7C0FFE8
S11333D0012300E00023184603B05DF804FB00BF9E
S11333E0034B01221A60034B01221A60704700BF8D
S11333F0F8120020FC12002008B5054B1B68002BB6
S113340001D1FFF7EDFF034B01221A6008BD00BF95
S1133410F8120020FC120020014B00221A607047B1
S1133420FC120020014B1B6818467047FC12002058
S113343000B585B00190042002F084F90346143BE2
S1133440184607F085F8034618464FF0804107F008
S113345087F9034618460A4906F0C4FF0346039356
S11334600398084907F0C8F80346184607F014FA09
S113347003460293029B184605B05DF804FB00BFA7
S11334800000F0420000204100B583B0019000919B
S1133490019B802B02D0812B04D00DE0FFF7A0FF0D
S11334A001230AE0009B002B02D0FFF7A5FF01E0F7
S11334B0FFF7B2FF012300E00023184603B05DF8D4
S11334C004FB00BF00B583B00190019B822B03D1A4
S11334D0FFF7A8FF034600E00023184603B05DF899
S11334E004FB00BF2A4A2A4B5B6C43F40053536429
S11334F0284A284BD3F8203143F00403C2F8203182
S1133500244A244BD3F8203123F44073C2F82031E9
S1133510204A204BD3F8B83023F47063C2F8B83093
S11335201C4A1C4BD3F8B83043F48063C2F8B8305B
S1133530174B10221A6200BF154BDB6A03F02003FD
S1133540002BF9D0144A144B1B6843F00103136099
S1133550114A114BDB6843F08073D3600F4B104A60
S11335601A60104B0F221A610E4B0222C3F8F0208E
S11335700C4B4FF48072C3F804234FF060430A4AA3
S1133580C3F8B02F4FF06043084AC3F8802E704749
S113359000800C4000600040F0ED00E0001000E00E
S11335A0FF130140000004E055CEACC50900010042
S11335B008B5D720012103F0B7FAD62003F09CFA0E
S11335C0052002210422002306F02CF8184A184B87
S11335D0D3F8203123F44073C2F82031144A144B39
S11335E0D3F8203143F00403C2F82031DE200E2149
S11335F0012203F035FADF200E21012203F030FA14
S1133600D020002103F090FAD12003F075FAD220E3
S1133610002103F089FAD320012103F085FAD72091
S1133620002103F081FAD62003F066FA08BD00BF3A
S11336300060004082B00B49896C01910949C96C52
S113364008464FF0000103000022019908464FF09C
S1133650000142EA000243EA01031046194602B09F
S1133660704700BFA881E00F00B583B00C4B1B6806
S113367001936B46184606F04FFA019B1B0E0F2B65
S11336800BD99DF80030032B07D1064A054B1B6864
S113369023F0500343F01003136003B05DF804FB00
S11336A0FC81E00FC0800C40FEE700BFFEE700BFD6
S11336B0FEE700BFFEE700BF00B587B0FFF7D4FF09
S11336C003F056FAFFF780FC0320FFF78DFC4FF45C
S11336D0E13003F019FF454803F0B6FF444802F017
S11336E0E1F8444802F0F2F8032005F059F9424B9E
S11336F05B68059306F054F90346049306F028F931
S113370003F03EFDFFF7EEFE059803F031FCFFF7F2
S11337104FFF03F041FE03F039FDFFF78BFFCDE9C6
S1133720020103F0BDFA01F0EBFD01F081F833482A
S113373002F0B8F8324B1B689B68184607F07AFC15
S113374003F036F803F062FA01F072F82D48002114
S113375000F0A4FF01F080FD01F0CAFA2A4800211C
S113376000F09CFF294802F0B1F8294802F09AF8C9
S1133770234B1B689B68184607F05CFCFCF74EFF64
S113378000F0C4F8234B1B88184601F0BDFD01F07E
S113379041FE1E4802F09AF81F4802F083F800F038
S11337A0CFF80346B3F1FF3F03D11C4802F08EF873
S11337B002E01B4802F08AF801F0A0FD00F058F87E
S11337C01848194902F06EF8184800F031F8174803
S11337D001F09EF903F010FA03F014FA01F0F6F880
S11337E00190019B002BF7DCF6E700BF754B00004E
S11337F034C3000040C3000000A00C4064C30000B8
S113380038050020B00000201C00002080C3000008
S113381088C3000040100020A4C30000D8C30000E7
S113382000C4000008C4000038C40000F4BA00005A
S113383000B583B001900C4802F034F809E0019B14
S11338401B685B680948194602F02CF8019B043395
S11338500193019B1B68002BF1D10A2002F04AF866
S113386003B05DF804FB00BF44C4000050C4000072
S113387000B583B01B4802F015F8002301930AE059
S1133880194A019B13441B781848194602F00AF898
S1133890019B01330193019B002BF1D0124A019B40
S11338A013441B781248194601F0FCFF114B1B8886
S11338B0002B06D00F4B1B880F48194601F0F2FF6E
S11338C002E00E4802F002F80D4B1A680D4B1B681B
S11338D00D4811461A464FF4D97301F0E3FF03B0C3
S11338E05DF804FB58C40000D81E002060C400002A
S11338F064C400004010002068C4000074C40000C8
S1133900FCC400002CC500008CC4000008B50A48A3
S11339100021022207F014FE084B1B88DAB2064B82
S11339201A70064B1B881B0A9BB2DAB2024B5A7000
S1133930014800F035F808BDD81E002040100020D2
S113394000B583B00E4B00221A60002301930AE0F5
S1133950019B4033DB0218464FF4006103F0A4F9E5
S1133960019B01330193019B1F2BF1D905480021D1
S1133970A82207F0E5FD0023184603B05DF804FB18
S1133980A01300200013002000B583B00190009123
S113399001980099022207F05DFD03B05DF804FB75
S11339A000B583B0019003480199FFF7EDFF03B020
S11339B05DF804FBDC1E002000B583B000F09CFA27
S11339C000900F4B1B68184601F00EFA01900AE0B4
S11339D0019B5B68002B02D0019B5B6898470198B0
S11339E001F06AFA0190019B002BF1D1009B002B9E
S11339F002D0009800F054FA03B05DF804FB00BF55
S1133A009400002008B501F0DBFE01F019FD00F080
S1133A105BF800F06DFA02204FF47A614EF66022F2
S1133A20014B00F08BF908BD80EE360000B587B07D
S1133A30039002910192039B0493029B012B03D0F8
S1133A40022B03D0002B02E000BF00E000BF0F4BAD
S1133A501B68184601F0C8F905900BE0059B9B68AC
S1133A60002B03D0059B9B6802989847059801F0AA
S1133A7023FA0590059B002BF0D104980299019A32
S1133A8000F020FA07B05DF804FB00BF94000020AA
S1133A9000B583B00190019800F046FA0346002B6C
S1133AA008D001F011FD064B9B6806480199984720
S1133AB0012300E00023184603B05DF804FB00BFB7
S1133AC0FCC400002D3A000008B5034B1B681846DF
S1133AD001F082F908BD00BF9800002082B0019077
S1133AE0024A019B136002B0704700BFB01300206C
S1133AF008B5044B1B68184601F076F903461846CE
S1133B0008BD00BF9800002010B584B001900B469A
S1133B10ADF802301346ADF80030124B1B6818465E
S1133B2001F062F9039018E0039B9B88BDF8022022
S1133B309A420ED1039B9B68002B09D0039B9C687F
S1133B40BDF80220BDF8003003980199A04707E0B2
S1133B5006E0039801F0B0F90390039B002BE3D136
S1133B6004B010BD9800002000B585B0019001F0AC
S1133B7067FC01F045FD0290029B00221A80FFF7CA
S1133B80B7FF03901DE0029B1B881846039B99888E
S1133B90029A830013440A465A80029B1B881846E3
S1133BA0039BD988029A830013440A469A80029B95
S1133BB01B8801339AB2029B1A80039801F07CF9A6
S1133BC00390039B002B03D0039B1B7B002BDAD1B8
S1133BD0029B1B889B009BB202339BB2184601F0E8
S1133BE0F9FC029B1B88002B02D0034800F01EF94D
S1133BF005B05DF804FB00BFB413002010B586B017
S1133C000190009101F0FCFC059003AB1846059966
S1133C10022207F01FFCBDF80C309B009C1C01F035
S1133C201FFD03469C4220D8059B023305930023C5
S1133C30049314E002AB18460599042207F00AFC29
S1133C40BDF80820BDF80A30009811461A46FFF75F
S1133C505BFF059B04330593049B01330493BDF878
S1133C600C301A46049B9A42E4DC06B010BD00BF37
S1133C7084B003900291019204B0704708B50D4BD3
S1133C805B6E0D4819460D4A002301F0F9FA01F064
S1133C9049FB03461A46074B5B6EB2FBF3F103FB89
S1133CA001F3D31A06481946064A002301F0E8FA3C
S1133CB008BD00BFB4130020EC130020C93C000071
S1133CC0CC130020693B000000B585B001900A4B7D
S1133CD05B6E5B000393084B1A6E039B9A4202D2FD
S1133CE0054B1B6E0393044A039B5366FFF7C6FF01
S1133CF005B05DF804FB00BFB413002010B582B01A
S1133D000446084611461A462346ADF806300346D3
S1133D108DF805300B46ADF802301346ADF800308F
S1133D209DF81030012B05D1034B9B6D024A53665D
S1133D30FFF7A4FF02B010BDB413002000B585B096
S1133D400291019200930346ADF80E30BDF80E3097
S1133D5009481946094A00F049F8074A029B936545
S1133D60054A019BD365044A009B13660448FFF788
S1133D70B5FE05B05DF804FBB4130020C4C4000014
S1133D80FD3C000000B585B00190019B0393182011
S1133D9001F0FEFC024602AB18461146FFF7F4FDA3
S1133DA0039B5B691B68002B06D0039B5B691B6844
S1133DB002AA03981146984705B05DF804FB00BFBA
S1133DC000B587B0039002910192039B0593059B74
S1133DD05B695B68002B06D0059B5B695B68059893
S1133DE00299019A984707B05DF804FB00B585B0C5
S1133DF003900B460192ADF80A30039ABDF80A30DD
S1133E0010461946074A00F023F8039B019A5A61A9
S1133E10BDF80A301846044900F0B8F805B05DF85A
S1133E2004FB00BFD0C40000CCC4000000B583B0C4
S1133E3001901820054901F093FC019B184600F0FD
S1133E4023F80346184603B05DF804FBDC1E00208B
S1133E5000B585B003900B460192ADF80A30039A81
S1133E60BDF80A301046194600F0ACF8039B019ADD
S1133E701A61BDF80A301846024900F087F805B007
S1133E805DF804FBD8C4000000B583B00190019B29
S1133E901846FFF7FDFD0346184603B05DF804FB22
S1133EA000B585B00190019B0393039B1B691B68BC
S1133EB0002B04D0039B1B691B680398984705B02B
S1133EC05DF804FB00B587B0039002910192039B57
S1133ED00593059B1B695B68002B06D0059B1B693A
S1133EE05B6805980299019A984707B05DF804FB4E
S1133EF008B500F041F808BD00B583B00023019374
S1133F00084B1B6898470190019B002B05D0019B2F
S1133F109B880120194601F0FFFB019B184603B062
S1133F205DF804FBE8C4000000B585B001900A4BBD
S1133F305B68019898470390019B9B880120194670
S1133F4001F0EAFB039B002B01D0012300E00023D6
S1133F50184605B05DF804FBE8C4000000B583B062
S1133F600190044B9B68019898470346184603B098
S1133F705DF804FBE8C4000008B5034B1B68184651
S1133F8000F02AFF08BD00BF9C00002000B585B0EA
S1133F9003460091ADF80630BDF80630184600F02F
S1133FA027F80390039B002B09D0039B009A9A6087
S1133FB00098FFF7D3FF0346DAB2039B1A7305B0E8
S1133FC05DF804FB00B583B001900B46ADF80230F8
S1133FD0019BBDF802209A80044B1B681846019986
S1133FE000F022FF03B05DF804FB00BF9C0000203A
S1133FF000B585B00346ADF806300D4B1B68184676
S113400000F0F2FE03900BE0039B9B88BDF80620B2
S11340109A4201D1039B07E0039800F04DFF0390FF
S1134020039B002BF0D10023184605B05DF804FB78
S11340309C00002086B0039002910192039B1B78A0
S11340401B029AB2039B01331B789BB213439BB2AE
S1134050ADF81630BDF81620029B02FA03F31B12CA
S11340600649019A0A4412781A40019BC3F10803D5
S113407042FA03F3DBB2184606B07047DCC4000012
S113408010B586B00390029101920093009B072B18
S113409009DC02980199009AFFF7CCFF03461A46FF
S11340A0039B1A705EE0019B002B2BD10023059328
S11340B00AE0059B039A1344059A02990A4412786C
S11340C01A70059B01330593009B002B00DA07331C
S11340D0DB101A46059B9A42EBDC009B03F00703B6
S11340E00493049B002B3DD0059B039AD418059B95
S11340F0029A134418460021049AFFF79BFF0346D3
S113410023702FE0002305930FE0059B039AD41836
S1134110059B029A1344184601990822FFF78AFF67
S113412003462370059B01330593009B002B00DAA3
S11341300733DB101A46059B9A42E6DC009B03F02A
S113414007030493049B002B0CD0059B039AD418FB
S1134150059B029A134418460199049AFFF76AFFD3
S11341600346237006B010BD84B00190002303936E
S113417009E0019B5B780293039A029B1344039327
S1134180019B02330193019B1B78002BF1D1039B0C
S1134190184604B0704700BF86B0039002910093A4
S11341A013468DF807309DF80720029BC3F11001D8
S11341B0009BCB1A02FA03F3ADF81630039B1A786E
S11341C0BDF816301B0A9BB2DBB21343DAB2039B71
S11341D01A70039B0133039A01321278D1B2BDF8ED
S11341E01620D2B20A43D2B2D2B21A7006B07047C5
S11341F000B587B00390029101920093009B072BB6
S113420008DC019B1B78039802991A46009BFFF770
S1134210C3FF6EE0029B002B32D1002305930AE01A
S1134220059B039A1344059A01990A4412781A705B
S1134230059B01330593009B002B00DA0733DB1049
S11342401A46059B9A42EBDC009B03F00703049398
S1134250049B002B4DD0059B039AD118059B019A12
S113426013441B781A46049BC3F1080342FA03F370
S1134270DBB2084600211A46049BFFF78DFF38E0A5
S1134280002305930FE0059B039AD118059B019A1F
S113429013441B78084602991A460823FFF77CFF4B
S11342A0059B01330593009B002B00DA0733DB10D9
S11342B01A46059B9A42E6DC009B03F0070304932D
S11342C0049B002B15D0059B039AD118059B019ADA
S11342D013441B781846049BC3F10802029B134441
S11342E040FA03F3DBB2084600211A46049BFFF7A9
S11342F053FF07B05DF804FB30B58BB00190019B10
S11343001B7BDB08DBB21A46019B1B7B03F0070314
S1134310002B14BF01230023DBB213440793079B34
S11343200233184601F012F90346002B01D1002391
S113433063E001F071F90690019B9B88DAB2069B59
S11343401A70019B9B881B0A9BB2DAB2069B5A70B7
S113435001F062F9034602330593079B0598002197
S11343601A4607F0EDF800230893089B0493019B79
S11343709B6809933CE0099B5B780393089B002BA3
S113438000DA0733DB100493099B1B78172B12D92F
S1134390049B059AD518089B03F00704099B1B7816
S11343A0184601F0F5F90346284621461A46039BB0
S11343B0FFF71EFF15E0099B1B78184601F0C2F9B0
S11343C00346ADF80A30049B059AD118089B03F004
S11343D007020DF10A03084611461A46039BFFF72C
S11343E007FF089A039B13440893099B023309931C
S11343F0099B1B78002BBED1012318460BB030BD9E
S113440000B58BB001F0FCF80790022001F0C0F871
S11344100346002B01D100237CE0079B5B789BB211
S11344201B029AB2079B1B789BB213449BB218469B
S1134430FFF7DEFD0690069B002B01D1002369E007
S113444001F0DEF80590069B1B7BDB08DBB21A4605
S1134450069B1B7B03F00703002B14BF01230023DF
S1134460DBB213440493049801F092F80346002B42
S113447001D100234EE000230893089B0393069B7D
S11344809B68099341E0099B5B780293089B002B8E
S113449000DA0733DB100393099B1B78172B14D91D
S11344A0039B059A1A44089B03F0070301A90846D5
S11344B011461A46029BFFF7E3FD099B1A7801ABEC
S11344C01046194601F04CF918E00023ADF802300B
S11344D0039B059A1A44089B03F007030DF102019C
S11344E0084611461A46029BFFF7CAFD099B1A7833
S11344F0BDF802301046194601F00EF9089A029BE5
S113450013440893099B02330993099B1B78002BDE
S1134510B9D1069B18460BB05DF804FB00B583B017
S113452001900091034B9B6801980099984703B050
S11345305DF804FB2CC5000008B5024B9B68984746
S113454008BD00BFB8C4000008B5034B5B699847B9
S11345500346184608BD00BF2CC5000000B583B053
S11345600190044B9B69019898470346184603B091
S11345705DF804FB2CC5000000231846704700BFFB
S1134580704700BF30B585B0019000910D4BDC68D9
S113459001F042F8054601F073F80346284619462F
S11345A0A0470346002B02D10023039301E0042318
S11345B0039301980099039A012300F049F805B088
S11345C030BD00BF70BF000000B585B003900291FC
S11345D00192019B002B08D0019B5B68184601F0F7
S11345E001F903980299FFF7CDFF05B05DF804FBCC
S11345F008B5024BDB68984708BD00BFFCC4000047
S113460008B5034B1B6A98470346184608BD00BF0C
S113461070BF000000B583B00190019B002B04D053
S1134620064B1B6A9847034603E0044B5B6A9847B2
S11346300346184603B05DF804FB00BF70BF0000DA
S113464000231846704700BF08B5FFF7D9FF08BD1F
S113465000B585B00390029101920093019B012B58
S113466003D0022B03D0002B02E000BF00E000BF08
S1134670039B002B04D0039B02980199009A98474E
S113468005B05DF804FB00BF034B1B785A1CD1B284
S1134690014A1170184670472C14002000B585B0EB
S11346A001900091134B1B68039302E0039B1B686A
S11346B00393039A019B9A4202D0039B002BF5D1EA
S11346C0039A019B9A4200D111E00A4B1A68019B9C
S11346D01A60084A019B1360019B01229A73019B93
S11346E000229A8101988121009A00F0D3F905B043
S11346F05DF804FB2414002010B584B001900091EF
S11347002B4B1B6803932B4B1C6800E02468019B14
S11347109C4201D0002CF9D1002C00D145E0019835
S113472000F0EAF90346002B23D0019B00229A7380
S1134730204B1C6808E0019BA34204D0204687213B
S1134740019A00F039F82468002CF4D1019B9B688D
S1134750002B0ED0019A009B9A420AD0144A019B66
S11347601360019B9B68019A0C321046832100223E
S11347709847104B1B68019A9A4205D10D4B1B6850
S11347801B680C4A13600DE00A4B1C6808E02268A1
S1134790019B9A4203D1019B1B68236002E02468B9
S11347A0002CF4D1024A039B136004B010BD00BF77
S11347B0281400202414002000B587B003900B4671
S11347C001928DF80B30039B9B7B03F00103002BBC
S11347D028D0039B9B68002B24D0144A039B1360AE
S11347E0039B02229A73039B9B68039A02F10C01B8
S11347F09DF80B2008461146019A984703460593F5
S1134800059B022B06D0059B032B03D09DF80B3090
S1134810832B04D103980399FFF76EFF02E0039BF7
S113482001229A7307B05DF804FB00BF281400202E
S1134830084B8A221A70084B00221A70064B1A7809
S1134840064B1A70064B00221A60054B1B68054A7A
S1134850136070472C1400202E1400202D14002007
S1134860241400202814002000B583B00F4B00222C
S11348701A700F4B1B68019311E0019BDB7B002B2B
S11348800AD0019B01229A73019B0022DA730198DA
S113489082210022FFF790FF019B1B680193019B7B
S11348A0002BEAD103B05DF804FB00BFB015002073
S11348B02414002008B53B4B1B78002B70D03A4BD6
S11348C01B781946394A0B465B000B449B00134482
S11348D01A78374B1A70344B1B781946334A0B46F7
S11348E05B000B449B0013445B68324A13602E4BFD
S11348F01B7819462D4A0B465B000B449B0013445E
S113490008331B682C4A1360274B1B785A1C2B4B0B
S11349101340002B03DA013B63F01F030133DAB2C7
S1134920214B1A701F4B1B78013BDAB21D4B1A70D6
S1134930214B1B68002B20D1214B1B68214A13609B
S113494016E0214B1B78DBB2002B01D0FFF78CFF64
S11349501C4B1968164B1A78164B1B6808461146EF
S11349601A46FFF729FF174B1B681B68154A13608B
S1134970144B1B68002BE4D112E00D4B1B78812BE8
S113498003D10D4B1B6801229A730B4B1968084B1A
S11349901A78084B1B68084611461A46FFF70CFFA5
S11349A008BD00BF2D1400202E1400203014002058
S11349B0B1150020B4150020B81500201F00008098
S11349C024140020BC150020B015002008B5094BA4
S11349D01B78DBB2002B01D0FFF746FFFFF76AFF1D
S11349E0054B1B781A46034B1B78DBB2134418465D
S11349F008BD00BFB01500202D14002084B0039022
S1134A000B4601928DF80B301E4B1B78202B01D1E5
S1134A10012334E01C4B1A781A4B1B781344DBB285
S1134A2003F01F03DAB2194B1A70184B1B7819469E
S1134A30174A0B465B000B449B0013449DF80B2064
S1134A401A70124B1B781946114A0B465B000B4433
S1134A509B001344019A5A600C4B1B7819460C4A6C
S1134A600B465B000B449B0013440833039A1A6003
S1134A70044B1B780133DAB2024B1A700023184638
S1134A8004B070472D1400202E140020C0150020FF
S1134A903014002000B587B003900B4601928DF8C6
S1134AA00B30084B1B6805939DF80B30039819468F
S1134AB0019AFFF781FE034A059B136007B05DF876
S1134AC004FB00BF2814002082B00190019B002B3E
S1134AD00DD0019B9B7B012B03D0019B9B7B022B65
S1134AE005D1019B0122DA73024B01221A7002B034
S1134AF0704700BFB015002082B00190019B9B7BE2
S1134B00002B14BF01230023DBB2184602B0704708
S1134B1000B585B00190019B1B68144801991A46A1
S1134B2000F0C0FE0023039315E0039B9B00019A51
S1134B3013441B6818460021FFF7B0FD039B9B003C
S1134B40019A13441B685B680948194600F0AAFEE1
S1134B50039B01330393039B9B00019A13441B683B
S1134B60002BE2D105B05DF804FB00BF4CC500008A
S1134B7060C5000000B583B003468DF807309DF88A
S1134B8007300D2B01D1002324E0144B1B78002B9C
S1134B900CD19DF807301248194600F0E3FB034698
S1134BA0002B13D10D4B01221A700FE09DF8073032
S1134BB00A2B0BD19DF807300948194600F0D2FBA7
S1134BC00346002B02D0054B00221A700548FFF75C
S1134BD07BFF0123184603B05DF804FB4C1600204C
S1134BE0C4150020A000002000B587B003900B4638
S1134BF001928DF80B3001238DF81730039B1B882D
S1134C00672B1AD0792B4ED0002B5BD1FFF73CFDDC
S1134C1003461A46314B1A70314B00221A60314850
S1134C2000F0CEFB0490049BB3F1FF3F0BD10023B3
S1134C308DF81730039B67221A809DF81730002BDC
S1134C403FD1012345E0049B0A2B0DD0244B1B6864
S1134C507E2B36DC224B1B685A1C21490A60049ABD
S1134C60D1B2214AD1542CE01D4B1B685A1C1C495B
S1134C700A601D4A0021D154184B1B7800201946A4
S1134C80194AFFF7BBFE194B1B6818468521002201
S1134C90FFF7B4FE0346002B0FD100238DF8173025
S1134CA0039B79221A809DF81730002B03D09DF8BE
S1134CB00B30852B01D001230BE0094B00221A6035
S1134CC0ADE7ACE700238DF81730039B00221A8070
S1134CD00323184607B05DF804FB00BFDE1E002066
S1134CE050160020C415002054160020281400205B
S1134CF008B505480549802200F01CFB0448002142
S1134D00FFF7CCFC08BD00BFC4150020CC15002063
S1134D10A000002000B583B00190019B5A68019B5C
S1134D205B88104600211A4606F00AFC019B9A682B
S1134D30019B1B881946019B5B8803FB01F310460A
S1134D4000211A4606F0FCFB03B05DF804FB00BF2B
S1134D5082B001900091019B9A68009B9A420ED800
S1134D60019B9B68019A52881146019A128802FBA2
S1134D7001F21A44009B9A4201D9012300E0002366
S1134D80184602B0704700BF00B583B0019000918F
S1134D90019B009A5A6001F025FD0246019B1A60AE
S1134DA003B05DF804FB00BF00B585B0019001F0CD
S1134DB019FD0246019B1B68D31A01330393019B1F
S1134DC05A68039B9A4234BF01230023DBB218467E
S1134DD005B05DF804FB00BF82B00190019B002286
S1134DE01A6002B0704700BF82B00190019B1B683B
S1134DF0184602B0704700BF84B00190019B1B6845
S1134E00002B01D100230BE0019B1B68039302E0FC
S1134E10039B1B680393039B1B68002BF8D1039B24
S1134E20184604B0704700BF00B585B001900091EA
S1134E300198009900F014F8009B00221A60019870
S1134E40FFF7DAFF0390039B002B03D1019B009A29
S1134E501A6002E0039B009A1A6005B05DF804FB37
S1134E6084B001900091019B1B68002B00D121E0CC
S1134E7000230293019B1B68039318E0039A009B91
S1134E809A420FD1029B002B04D1039B1A68019B09
S1134E901A6003E0039B1A68029B1A60039B0022BA
S1134EA01A6007E0039B0293039B1B680393039B15
S1134EB0002BE3D104B0704782B00190019B002B1A
S1134EC002D0019B1B6800E00023184602B0704723
S1134ED000B585B01C4B1B68002B03D11B4B002273
S1134EE01A602EE001F07EFC0190174B1B680293C0
S1134EF0029B1A68029B5B681A44019BD31A0393B2
S1134F00029B9B68029314E0029B1A68029B5B68F5
S1134F101A44019BD21A039B9A4207D2029B1A6835
S1134F20029B5B681A44019BD31A0393029B9B6800
S1134F300293029B002BE7D1019A039B1344034A7B
S1134F40136005B05DF804FBD4160020D8160020C9
S1134F5000B589B003900B4601928DF80B30012304
S1134F608DF81730039B1B88002B02D0592B09D0D6
S1134F707CE0444B00221A6000238DF81730039B19
S1134F8059221A809DF81730002B01D1012374E0B7
S1134F909DF80B30872B2DD1019B049304E0394BF2
S1134FA01B689B68374A1360364B1B68002B05D07F
S1134FB0344B1B68DA68049B9A42F0D0314B1B686F
S1134FC0002B16D02F4B1B6807930EE0079B9B68A2
S1134FD0DA68049B9A4205D1079B9B689A68079BF1
S1134FE09A6002E0079B9B680793079B9B68002BD2
S1134FF0ECD13AE09DF80B30822B00D035E0002351
S11350000693204B1B6807932CE0079B1846FFF779
S1135010CBFE0346002B20D0079BDB681846882173
S1135020079AFFF7EBFC0346002B14D1079B0022E1
S1135030DA60069B002B04D0079B9A68069B9A6053
S113504003E0079B9B680F4A1360079B00229A604A
S1135050FFF73EFFD3E700F017F8079B0693079B83
S11350609B680793079B002BCFD185E700238DF81E
S11350701730039B00221A800323184609B05DF8F9
S113508004FB00BFD416002008B50248FFF71CFD3E
S113509008BD00BFB000002000B585B00190FFF747
S11350A0F3FF019BDB68002B14D0124B1B680393A6
S11350B00DE0039A019B9A4206D10F4B1A68019B9B
S11350C0DA60FFF705FF12E0039B9B680393039BE1
S11350D0002BEED1084B1A68019BDA60054B1A6865
S11350E0019B9A60034A019B1360FFF7F1FE05B030
S11350F05DF804FBD41600202814002000B583B00A
S113510001900091019B18460099FFF73DFE01981C
S1135110FFF7C2FF03B05DF804FB00BF82B001904B
S1135120019BDB68002B0CBF01230023DBB2184674
S113513002B07047044B1B68002B14BF01230023EB
S1135140DBB21846704700BFD416002008B5FFF73D
S1135150F1FF0346002B02D0024B1B6800E0002342
S1135160184608BDD816002000B589B003900B4638
S113517001928DF80B3001238DF81B30039B1B88A3
S1135180002B02D04A2B1ED055E0304B1B6818462A
S1135190FFF72AFE07900AE0079B1A1D079B9B68EE
S11351A010461946FFF7AAFF079B1B680793079B46
S11351B0002BF1D1264B01221A7000238DF81B30ED
S11351C0039B4A221A809DF81B30002B03D09DF8C4
S11351D00B30882B01D0012334E01C4B1B6818468C
S11351E0FFF702FE079022E0079B1A1D019B9A42DB
S11351F01AD1164B1B6818460799FFF731FE154B59
S11352001B680593079B5B69124A1360079B9B69A4
S1135210002B05D0079B9B69079AD26910469847D3
S11352200C4A059B136005E0079B1B680793079BCB
S1135230002BD9D1C1E700238DF81B30039B00223A
S11352401A800323184609B05DF804FBC00000204F
S1135250E01600202814002008B5064B00221A701E
S1135260054B1B681846FFF7B7FD04480021FFF7FC
S113527015FA08BDE0160020C0000020C40000207C
S113528000B587B00390029101920093174B1A68FE
S1135290039B5A61039B019A9A61039B009ADA610A
S11352A0134B1B78002B0FD0104B1B6805930F4B2F
S11352B0104A1A60039B043318460299FFF71EFF35
S11352C00A4A059B136002E0039B029A9A600A4B08
S11352D01B6818460399FFF7C3FD074B1B68184664
S11352E00399FFF7A1FD07B05DF804FB2814002023
S11352F0E0160020C4000020C0000020704700BF5A
S113530008B501F0AFFA08BD00B583B00346ADF8A7
S11353100630BDF80630184606F064F903B05DF8AF
S113532004FB00BF08B506F067F903469BB21846B4
S113533008BD00BF84B00390029113468DF8073076
S1135340039B029A1A609DF80730013BDAB2039B73
S11353501A71039B00225A71039B00229A7104B0B4
S1135360704700BF82B001900B468DF80330019B5B
S11353705B791A46019B9B79D31A019A12791340DF
S1135380019A1279934201D1002315E0019B1B6815
S1135390019A527913449DF803201A70019B5B799A
S11353A00133DBB2DAB2019B1B79DBB21340DBB20F
S11353B0DAB2019B5A710123184602B0704700BF4C
S11353C084B00190019B5B791A46019B9B79D31AA7
S11353D0019A12791340002B17DD019B1B68019A77
S11353E0927913441B788DF80F30019B9B7901331C
S11353F0DBB2DAB2019B1B79DBB21340DBB2DAB267
S1135400019B9A719DF80F3001E04FF0FF3318466D
S113541004B0704708B5064B1B689847054B5B689A
S11354209847054B5B689847044B5B68984708BDF1
S113543070BF00002CC50000FCC40000B8C400000C
S113544008B5094B00221A80074B1A88074B1A80AB
S1135450074B30221A70074B1B683033064A13601F
S113546000F01AF908BD00BFE4160020E21600207F
S1135470E6160020D40000209C17002000B585B05B
S113548001900B46ADF80230FFF7DAFFBDF80230A9
S1135490802B28BF8023ADF80E30094B1A68BDF865
S11354A00E30104601991A4605F0D4FF054ABDF89E
S11354B00E301380BDF80E30184605B05DF804FBBD
S11354C09C170020E216002030B583B000F0B0F83D
S11354D00346002B0FD01B4B1B6803F1300400F074
S11354E0B9F8054600F0BCF80346204629461A469A
S11354F005F0B0FF23E0144B1B88002B1FD000F0F5
S1135500AFF80346303300933023019310E00D4B82
S11355101A68019B13440B4A12680B490988084610
S1135520019901440A4412781A70019B01330193D2
S1135530019A009B9A42EADB034B00221A8003B0D3
S113554030BD00BFD4000020E416002000B583B0B5
S113555001900E4B1B781A46019B9A4211DB00F016
S11355608FF803461A46019B1344802B09DC074B32
S11355701A78019BDBB2D31ADAB2044B1A700123F6
S113558000E00023184603B05DF804FBE616002093
S113559082B001900D4B1B881A46019B9A4201DA96
S11355A0002310E0019B9AB2094B1B8813449AB262
S11355B0074B1A80054B1A88019B9BB2D31A9AB2E7
S11355C0024B1A800123184602B07047E2160020ED
S11355D0E416002000B583B00346ADF80630BDF8EC
S11355E006300548194600F05DF9044ABDF8063056
S11355F0138003B05DF804FBDCC50000E216002054
S1135600034B1A68034B1B88303313441846704706
S1135610D4000020E4160020034B1B68034A1278D0
S113562013441846704700BFD4000020E61600203B
S1135630064B1B6803F13002054B1B689A4214BFEA
S113564001230023DBB21846704700BFD4000020BA
S11356509C170020014B1B68184670479C170020BC
S1135660014B1B8818467047E2160020034B1B7839
S1135670C3F13003DBB21846704700BFE6160020C2
S113568010B5FFF7F3FF03469CB2FFF7E9FF0346AB
S113569023449BB2184610BD00B583B00023019388
S11356A007E00F4A019B002122F81310019B0133EC
S11356B00193019B172BF4DD002301930AE0019B66
S11356C05B00084A134418460749FEF75DF9019B3D
S11356D001330193019B032BF1DD03B05DF804FB5F
S11356E0E81E0020E01E0020ACC4000000B583B01A
S11356F00190009106480199302205F0ABFE054B5C
S1135700009A1168526819605A6003B05DF804FB8E
S1135710E81E0020E01E002082B003460A468DF8F1
S113572007301346ADF804309DF807300449BDF83E
S1135730042021F813200123184602B0704700BF4B
S1135740E81E002082B003468DF807309DF807302C
S1135750024A32F81330184602B07047E81E00209F
S113576000B583B0034600918DF807309DF80730EB
S1135770183B5B00054A134418460099FEF704F9E8
S11357800123184603B05DF804FB00BFE01E0020AF
S113579082B003468DF807309DF80730183B5B0054
S11357A0024A1344184602B0704700BFE01E0020AE
S11357B082B00190019B1B68184602B0704700BF7D
S11357C008B50548FFF7A6FA0448FFF7A3FA04480A
S11357D0FFF7A0FA08BD00BFF0000020D8000020A9
S11357E0E400002000B585B0019023480199FFF73B
S11357F0AFFA0346002B15D00198FFF7D9FF0390A9
S1135800039B9A1C039B1B8810461946FFF736FE20
S1135810039B03F18202039BB23310461946FFF740
S113582065FF26E015480199FFF792FA0346002B1D
S11358301FD0019B0293FFF703FE029B5A68029B51
S11358401B8810461946FFF719FE029B93F838305F
S11358501846FFF77BFEFFF7DFFE0146029B03F1CC
S11358600802029B93F83830084611461A4605F0A0
S1135870F1FD05B05DF804FBD8000020E400002031
S113588000B585B0039002910192019B002B03D0D7
S11358900298019901F022F80023184605B05DF83A
S11358A004FB00BF0FB400B583B005AB00930648FA
S11358B00499009A00F0B2F90190019B184603B0D4
S11358C05DF804EB04B07047FC00002000B583B021
S11358D00190019805F004FF03460198194600F071
S11358E0FDFF0A2001F008F80023184603B05DF814
S11358F004FB00BF00B583B00190019BDBB21846E6
S113590000F0FAFF019B184603B05DF804FB00BFEA
S113591084B0019000230393019B1B680293029BB4
S11359201B78203B102B3ED801A252F823F000BF75
S113593089590000A7590000A75900009359000095
S1135940A7590000A7590000A7590000A759000053
S1135950A7590000A7590000A75900007F5900006B
S1135960A759000075590000A7590000A759000065
S11359709D590000039B43F00103039318E0039B2C
S113598043F00603039313E0039B43F002030393E2
S11359900EE0039B43F00803039309E0039B43F0E9
S11359A01003039304E0019B029A1A60039B03E033
S11359B0029B01330293B2E7184604B0704700BF5C
S11359C086B0019000230593019B1B6804930DE0AE
S11359D0059A13469B0013445B001A469DF80F304A
S11359E01344303B0593049B01330493049B1B78BD
S11359F08DF80F309DF80F302F2B03D99DF80F3001
S1135A00392BE5D9019B049A1A60059B184606B008
S1135A10704700BF00B587B00390CDE90023039B16
S1135A201B6805931FE0059B013B0593DDE90023FB
S1135A30104619464FF00A024FF0000304F052FFDB
S1135A40D3B23033DAB2059B1A70DDE90023104675
S1135A5019464FF00A024FF0000304F043FF0246D8
S1135A600B46CDE90023DDE900231343DBD1039B7F
S1135A701B681A46059BD31A0493039B059A1A6064
S1135A80049B184607B05DF804FB00BF30B488B02F
S1135A900390CDE900230A9B03F48043002B01D03B
S1135AA0164B00E0164B0693039B1B68079312E00A
S1135AB0079B013B0793009B03F00F03069A1344D3
S1135AC01A78079B1A70DDE90023140944EA037469
S1135AD01D09CDE90045DDE900231343E8D1039B0B
S1135AE01B681A46079BD31A0593039B079A1A60EF
S1135AF0059B184608B030BC704700BFF8C50000CD
S1135B000CC6000030B486B00390CDE90023039B9B
S1135B101B68059313E0059B013B05939DF800303A
S1135B2003F00703DBB23033DAB2059B1A70DDE908
S1135B300023D40844EA4374DD08CDE90045DDE9D7
S1135B4000231343E7D1039B1B681A46059BD31A12
S1135B500493039B059A1A60049B184606B030BC54
S1135B60704700BF00B585B00190009110E0019B23
S1135B701B68019A526810461049102298470390F6
S1135B80039B002B01D0039B13E0009B103B00936D
S1135B90009B102BEBD8009B002B01D1002308E0C5
S1135BA0019B1B68019A526810460449009A984761
S1135BB00346184605B05DF804FB00BF40C600006C
S1135BC000B585B00190009110E0019B1B68019A1B
S1135BD0526810461049102298470390039B002BEB
S1135BE001D0039B13E0009B103B0093009B102B00
S1135BF0EBD8009B002B01D1002308E0019B1B681C
S1135C00019A526810460449009A98470346184678
S1135C1005B05DF804FB00BF50C6000000B5B5B088
S1135C2005900491039200233393049B149300F092
S1135C3041BD002331934FF0FF333093149B1F93E6
S1135C4002E0149B01331493149B1B788DF87B3072
S1135C509DF87B30002B03D09DF87B30252BF0D1B1
S1135C60149A1F9B9A4219D0059B1B68059A516888
S1135C70149A10461F9A821A08461F999847034699
S1135C80002B03D04FF0FF3300F01ABD149B1A46CB
S1135C901F9BD31A1A46339B13443393149B1B78CC
S1135CA0002B02D1339B00F00BBD149B01331493E2
S1135CB0149B1B78002B02D1339B00F001BD14AB65
S1135CC01846FFF725FE3290149B1B78302B09D918
S1135CD0149B1B78392B05D814AB1846FFF770FEBC
S1135CE0319017E0149B1B782A2B13D1039B1A1DA8
