S012000068656C6C6F2D776F726C642E73333779
S1130000008000202975000055750000E1340000CF
S1130010E5340000E9340000ED34000055750000BB
S113002055750000557500005575000055750000A4
S1130030557500005575000055750000A165000058
S11300409D850000757B00002D290000557500007A
S11300505575000055750000557500009970000035
S11300605575000055750000557500009D7B000016
S11300705575000055750000557500005575000054
S11300805575000055750000557500005575000044
S1130090557500005575000011720000557500007B
S11300A05575000055750000557500003D6F000042
S11300B05575000055750000611B00006D6C000053
S11300C05575000055750000557500005575000004
S11300D055750000557500005575000055750000F4
S11300E0044B05481B1A062B02D9044B03B11847CD
S11300F0704700BF630D0020600D00200000000069
S113010005490648091A891001EBD171491002D03A
S1130110034B03B118477047600D0020600D0020A9
S11301200000000010B5064C237843B9FFF7D8FF50
S1130130044B13B10448AFF300800123237010BDB6
S1130140000E00200000000064C6000008B5084B43
S11301501BB108490848AFF300800848036813B985
S1130160BDE80840CCE7064B002BF9D09847F7E7E9
S113017000000000040E002064C600005C0D002096
S113018000000000134B002B08BF114B9D46A3F544
S1130190803A00218B460F461148124A121A0BF07E
S11301A0DBFA0D4B002B00D098470C4B002B00D0F2
S11301B098470020002104000D000B480AF004FCBD
S11301C00AF082FF2000290003F092F90AF002FCF1
S11301D00000080000800020000000000000000073
S11301E0000E0020082000209DAD000000B587B05F
S11301F003900B4601928DF80B3001238DF81730D4
S1130200039B1B88002B02D0142B0DD01FE003206E
S113021002F0E8FDC821134804F0A0FE00238DF885
S11302201730039B14221A809DF81730002B05D039
S11302300C4804F0A3FE0346002B01D101230DE07A
S1130240032002F0F3FD084805F07EFAE2E70023FC
S11302508DF81730039B00221A800323184607B039
S11302605DF804FB1C0E0020BCBC000084B00190AF
S1130270002303930BE00B4A039B52F82320019BBA
S11302809A4201D1039B09E0039B01330393064B7C
S11302901B781A46039B9A42EDDC039B184604B074
S11302A0704700BF740000202C0E002000B583B0FE
S11302B001900198FFF7DAFF0346074AD25C62F027
S11302C07F02D1B2044AD154044804F03BFB00BF7E
S11302D003B05DF804FB00BFD01C00201000002018
S11302E000B587B003900B4601928DF80B300123C3
S11302F08DF81730039B1B88772B33D07E2B59D076
S1130300002B40F0848004F0FBF803461A46454B6A
S11303101A70454B00221A6012E0434B1B68434A93
S11303200021D154404B1B68414A52F823309B684A
S11303300021802098473C4B1B6801333A4A1360E4
S1130340394B1B683A4A52F82330002BE5D1364B1F
S11303501B68DAB2374B1A7000238DF81730039BF1
S113036077221A809DF81730002B01D1012355E024
S1130370314B00221A602C4B00221A603BE02A4BBE
S11303801B682A4AD35C5BB2002B2FDA254B197801
S1130390254B1B68264A52F823301A46002004F0E5
S11303A069FA0346002B11D100238DF81730039B03
S11303B07E221A809DF81730002B05D0194B1B782C
S11303C09DF80B209A4201D0012327E0164B1B68AD
S11303D0154A126815498A5C02F07F02D1B2134AA9
S11303E0D154154B1B680133134A13600E4B1B6821
S11303F001330D4A13600F4B1B781A460A4B1B68D6
S11304009A42BCDC0C4B1B68002BB1D1A4E700233F
S11304108DF81730039B00221A800323184607B077
S11304205DF804FBB01C0020300E0020D01C00201E
S1130430740000202C0E0020340E002010B483B071
S11304400B4A926C01920A4AD26C11464FF0000298
S11304500C000023019A11464FF0000243EA010305
S113046044EA02041846214603B010BC704700BF9A
S1130470A881E00F10B5084A084B9B6C1360084A2A
S1130480064BDB6C1360FFF7D9FF03460C469AB2A8
S1130490044B1A8000BF10BDB41C0020A881E00FDB
S11304A0B81C0020380E002008B502F037F900F01F
S11304B0C5FA0A2002F0EAF900F0C8FA642002F052
S11304C0E5F900F0FFFB02F0C3F900BF08BD00BF6F
S11304D000B585B0019001238DF8083002AB02A964
S11304E00822012000F0F6FB019B002B25D09DF88B
S11304F00820019B1A709DF809301B029AB29DF8DE
S11305000A309BB213449AB2019B5A809DF80B2087
S1130510019B1A719DF80C301B029AB29DF80D30A4
S11305209BB213449AB2019BDA809DF80E20019B82
S11305301A729DF80F20019B5A7200BF05B05DF836
S113054004FB00BF00B585B003468DF807300B46A9
S11305508DF806301346ADF8043031238DF8083099
S11305609DF807308DF809309DF806308DF80A3073
S1130570BDF804301B0A9BB2DBB28DF80B30BDF81A
S11305800430DBB28DF80C3000238DF80D300023DD
S11305908DF80E3002AB1946072000F00BFB00BFAC
S11305A005B05DF804FB00BF10B584B004460846EE
S11305B011461A4623468DF8073003468DF8063057
S11305C00B46ADF8043013468DF8033032238DF812
S11305D008309DF807308DF809309DF806308DF805
S11305E00A30BDF804301B0A9BB2DBB28DF80B3025
S11305F0BDF80430DBB28DF80C309DF803308DF873
S11306000D309DF818308DF80E309DF81C308DF8A3
S11306100F3002AB1946082000F0CCFA00BF04B03A
S113062010BD00BF00B585B0009303468DF80730B8
S11306300B468DF8063013468DF8053020238DF8CF
S113064008309DF807308DF809309DF806308DF894
S11306500A309DF805308DF80B3002AB02A9082250
S1130660042000F037FB009B002B1FD09DF80820CE
S1130670009B1A709DF80920009B5A709DF80A206F
S1130680009B9A709DF80B20009BDA709DF80C205B
S1130690009B1A719DF80D20009B5A719DF80E2045
S11306A0009B9A719DF80F20009BDA7100BF05B082
S11306B05DF804FB00B585B0034600918DF8073062
S11306C015238DF80C309DF807308DF80D3003ABF1
S11306D003A90222022000F0FDFA009B002B07D0A0
S11306E09DF80C20009B1A709DF80D20009B5A70F9
S11306F000BF05B05DF804FB00B583B0034600916C
S11307008DF807309DF80720009B0021662000F03B
S1130710A1FA00BF03B05DF804FB00BF00B583B0CD
S1130720034600918DF807309DF80720009B0021B7
S1130730772000F05FFA00BF03B05DF804FB00BF50
S113074000B585B0019033238DF80C3003AB03A9B9
S11307500222012000F0BEFA019B002B07D09DF875
S11307600C20019B1A709DF80D20019B5A7000BF4C
S113077005B05DF804FB00BF84B001900091019BBB
S113078003F10473DA00009B13449B000393039B5F
S11307901B68184604B0704782B001900091084865
S11307A0074BD3F82421009BDB431A400199009B9B
S11307B00B401343C0F8243100BF02B0704700BFA0
S11307C00060004000B583B0034600918DF8073007
S11307D09DF80730002B12D09DF80730012B0ED066
S11307E09DF80730022B0AD09DF80730032B06D062
S11307F09DF80730042B02D09DF80730052B9DF897
S113080007201346DB0013449B001C3303F1804391
S113081003F5C04300991846FFF7AEFF0346184698
S113082003B05DF804FB00BF82B0034600918DF86D
S113083007309DF80730002B12D09DF80730012BAC
S11308400ED09DF80730022B0AD09DF80730032BF9
S113085006D09DF80730042B02D09DF80730052BF5
S113086008499DF807200120009B00FA03F318466D
S11308701346DB0013449B000B441433186000BF81
S113088002B070470060004082B0034600918DF8CA
S113089007309DF80730002B12D09DF80730012B4C
S11308A00ED09DF80730022B0AD09DF80730032B99
S11308B006D09DF80730042B02D09DF80730052B95
S11308C008499DF807200120009B00FA03F318460D
S11308D01346DB0013449B000B441033186000BF25
S11308E002B070470060004000B585B00291114627
S11308F01A4603468DF80F300B468DF80E3013461A
S11309008DF80D309DF80E209DF80F009DF81830DD
S113091001939DF80D3000931346029A029907F053
S113092089FB00BF05B05DF804FB00BF00B585B0CE
S113093003900B468DF80B30012304220921042077
S113094007F0ECFB002304220821042007F0E6FB57
S1130950012302220D21042007F0E0FB9DF80B3057
S1130960002B3ED00121284808F0F2FC002301228C
S11309700F21002007F0D2FB002301220E210420C6
S113098007F0CCFB002304220021002007F0C6FB63
S1130990002304220121002007F0C0FB0023009360
S11309A0002300220F210020FFF79EFF0023009365
S11309B0002300220E210420FFF796FF07224FF4A4
S11309C04411002008F034F906224FF444110120A8
S11309D008F02EF90D4B03229A6002210220FFF742
S11309E0DBFE039B002B0BD003990D2007F082F84C
S11309F001230093012300220D210420FFF774FF3B
S1130A0000BF05B05DF804FB00F2040000C00C4018
S1130A1008B5074B074A9A60054B0122DA75064B65
S1130A201B680349184600F003FA00BF08BD00BF65
S1130A302400002000127A002000002008B50821BC
S1130A400420FFF721FF00BF08BD00BF08B508213F
S1130A500420FFF7E9FE00BF08BD00BF08B5092167
S1130A600420FFF7E1FE00BF08BD00BF08B509215F
S1130A700420FFF709FF00BF08BD00BF08B50D2122
S1130A800420FFF79FFE0346DBB2184608BD00BFF3
S1130A9000B583B003468DF80730064B1B680DF193
S1130AA007010122184600F025FB00BF03B05DF8E2
S1130AB004FB00BF2000002000B583B00190054B6B
S1130AC01B6801220199184600F0EAFA00BF03B03E
S1130AD05DF804FB2000002000B583B003460091BC
S1130AE08DF80730054B1B689DF8072000991846C0
S1130AF000F000FB00BF03B05DF804FB2000002001
S1130B0000B583B0034600918DF80730054B1B6890
S1130B109DF807200099184600F0C2FA00BF03B000
S1130B205DF804FB2000002000B585B00346009169
S1130B308DF8073042F21073ADF80E3000238DF8B3
S1130B400D3020E0FFF78AFF4420FFF7A1FF03AB3D
S1130B501846FFF7B1FF9DF80C30FF2B0CD19DF820
S1130B600730002B05D09DF8073000991846FFF791
S1130B70C7FFFFF77BFF0AE0FFF778FFBDF80E30F1
S1130B80013BADF80E30BDF80E30002BDAD19DF8E4
S1130B900C30FF2B06D1064B01221A709DF80C3045
S1130BA08DF80D309DF80D30184605B05DF804FB46
S1130BB0940E002000B583B0034600918DF80730F1
S1130BC001E000F077F80A4B1B78002BF9D0FFF70F
S1130BD045FF9DF8073000991846FFF77DFFFFF7A2
S1130BE045FF034B00221A7000BF03B05DF804FBFD
S1130BF0940E002000B583B0009303468DF80730AF
S1130C000B468DF8063013468DF805309DF80630F6
S1130C10002B06D001E000F04DF80D4B1B78002BA3
S1130C20F9D0FFF71BFF9DF807301846FFF730FF98
S1130C309DF8053000991846FFF762FFFFF716FF8D
S1130C40034B00221A7000BF03B05DF804FB00BF21
S1130C50940E002000B583B0009303468DF807304E
S1130C600B468DF8063013468DF805309DF8063096
S1130C70002B06D001E000F01DF80D4B1B78002B73
S1130C80F9D0FFF7EBFE9DF807301846FFF700FF99
S1130C909DF8053000991846FFF71EFFFFF7E6FEA2
S1130CA0034B00221A7000BF03B05DF804FB00BFC1
S1130CB0940E002008B500210020FFF735FF0346FD
S1130CC0184608BD024B00221A7000BF704700BFCF
S1130CD0940E002000B585B00291019303468DF86F
S1130CE00F3013468DF80E309DF80F3002991846D8
S1130CF0FFF760FF9DF80E3001991846FFF714FFC7
S1130D000346184605B05DF804FB00BF00B58DB07E
S1130D10019071E0019B5A1C01921B788DF82E30D2
S1130D209DF82E30102B1DD9019B1B78662B17D1F3
S1130D309DF82E30802B01D9042362E0019B0133FE
S1130D4001939DF82E30013BDBB20199184600F067
S1130D505DF89DF82E30013B019A134401934BE05A
S1130D6004234EE000238DF82F300FE09DF82F3040
S1130D70019A12780CA90B4403F8142C019B01333B
S1130D8001939DF82F3001338DF82F309DF82F20DB
S1130D909DF82E309A42E9D30DF10B0307A99DF873
S1130DA02E000122FFF796FF0346FF2B01D00223FA
S1130DB027E09DF81C30192B0BD19DF80C30012B2A
S1130DC001D104231DE09DF80C30022B01D1042332
S1130DD017E0FFF753FE0346002B0DD103AB0022AF
S1130DE000210020FFF71EFC9DF8123003F00803D9
S1130DF0002B01D0042304E0019B1B78002B89D134
S1130E00002318460DB05DF804FB00BF00B583B0A5
S1130E10034600918DF807309DF80720009B0121BF
S1130E206620FFF717FF00BF03B05DF804FB00BFA7
S1130E3030B58BB001900091884B02AC1D460FCDAC
S1130E400FC495E8030084E80300019B002B01D143
S1130E50834B00E1009B002B01D1824BFBE0582225
S1130E60002101980AF078FC009B1B687E4A93429B
S1130E700AD1019B7D4ADA64019B7D4A5A62019B37
S1130E804FF450229A6221E0009B1B68794A9342F6
S1130E900AD1019B784ADA64019B784A5A62019B21
S1130EA04FF460229A6211E0009B1B68744A9342DB
S1130EB00AD1019B734ADA64019B734A5A62019B0B
S1130EC04FF440229A6201E0664BC4E0019A009B11
S1130ED014461D460FCD0FC495E8070084E80700AB
S1130EE0009B5B7D012B02D101238DF81630009B02
S1130EF09B7D002B03D10023ADF818301CE0009B30
S1130F009B7D012B04D14FF40073ADF8183013E02E
S1130F10009B9B7D022B04D14FF48073ADF81830F5
S1130F200AE0009B9B7D032B04D14FF44073ADF882
S1130F30183001E04B4B8EE0009B1B7D012B06D14A
S1130F4000238DF815304FF47A73049302E0009B6C
S1130F509B68049301214D4808F0FAF901214C489B
S1130F6008F0F6F9019BDB6C0121184608F0F0F952
S1130F70009B1B6802AA1146184606F0BFFC009BA2
S1130F801B7D002B0BD1009BDB7D002B07D1009B2D
S1130F901B68009A1268126842F480321A60009B3F
S1130FA0DB7D002B08D1009B1B68009A127912028A
S1130FB042F00F025A6507E0009B1B68009A127901
S1130FC0120242F00B025A650121019800F0CAF89E
S1130FD00990099B002B01D0099B3CE009F04EF8D5
S1130FE008902C4B1B7883F00103DBB2002B08D054
S1130FF0284B01221A70089809F04CF800F02CFDD7
S113100002E0089809F046F8009B1B7D012B09D1EA
S1131010019B5433184600F0D9FC0346002B01D041
S11310201D4B18E001F078F8019B1C330021184691
S113103001F018F80346002B01D0184B0BE0019B7C
S113104020330021184601F00DF80346002B01D08F
S1131050124B00E0002318460BB030BDDCBC00008E
S1131060012000F0022000F000C40040001204003F
S113107001000D0000C800400022040001000E0021
S113108000C000400002040001000C004081040084
S113109000D20400950E0020042000F0092000F086
S11310A000B587B0039002910192039B1B7D012B35
S11310B001D10E4B15E0019A0299039800F0C4FB8C
S11310C00590059B002B01D0059B0AE0084B019A73
S11310D00299039800F0F0FA039800F0EBFB039BED
S11310E05B6C184607B05DF804FB00BF082000F0F5
S11310F04911000000B587B0039002910192039B4F
S11311001B7D012B01D10E4B15E0019A0299039826
S113111000F09AFB0590059B002B01D0059B0AE08B
S1131120084B019A0299039800F02AFB039800F0F7
S1131130C1FB039B5B6C184607B05DF804FB00BF62
S1131140082000F04911000084B00390029101923C
S1131150039B029A5A64039B012283F8502000BF28
S113116004B0704700B58BB001900B468DF8033086
S1131170019B1B790393019B1B689D4A934240F09A
S11311809B80039B002B0CD0039B012B07D0039B5C
S1131190022B01D1032306E04FF0FF3303E00323C6
S11311A001E04FF0FF330693039B002B0CD0039B0D
S11311B0012B07D0039B022B01D1032306E04FF040
S11311C0FF3303E0032301E04FF0FF330593039B58
S11311D0002B0CD0039B012B07D0039B022B01D1C6
S11311E0052306E04FF0FF3303E0032301E04FF053
S11311F0FF330493039B002B0CD0039B012B07D0DC
S1131200039B022B01D1052306E04FF0FF3303E0DB
S1131210032301E04FF0FF33019AD363039B002BB8
S11312200CD0039B012B07D0039B022B01D1072376
S113123006E04FF0FF3303E0002301E04FF0FF33FB
S11312400993039B002B0CD0039B012B07D0039B1A
S1131250022B01D1062306E04FF0FF3303E0012304
S113126001E04FF0FF330893039B002B0CD0039B4A
S1131270012B07D0039B022B01D1002306E04FF082
S1131280FF3303E0022301E04FF0FF330793039B96
S1131290002B0CD0039B012B07D0039B022B01D105
S11312A0012306E04FF0FF3303E0032301E04FF096
S11312B0FF33019A136425E1019B1B684D4A934255
S11312C072D1039B002B07D0039B012B01D1012377
S11312D004E04FF0FF3301E04FF0FF330693039B2C
S11312E0002B07D0039B012B01D1012304E04FF015
S11312F0FF3301E04FF0FF330593039B002B07D02E
S1131300039B012B01D1012304E04FF0FF3301E0E3
S11313104FF0FF330493039B002B07D0039B012B57
S113132001D1012304E04FF0FF3301E04FF0FF331C
S1131330019AD363039B002B07D0039B012B01D19C
S1131340032304E04FF0FF3301E04FF0FF33099330
S1131350039B002B07D0039B012B01D1042304E042
S11313604FF0FF3301E04FF0FF330893039B002B52
S113137007D0039B012B01D1052304E04FF0FF3379
S113138001E04FF0FF330793039B002B07D0039B2F
S1131390012B01D1062304E04FF0FF3301E04FF0AD
S11313A0FF33019A1364ADE0019B1B68124A934218
S11313B040F0A680039B002B20D0039B012B13D06D
S11313C0039B022B0DD0039B032B07D0039B042B01
S11313D001D1012313E04FF0FF3310E04FF0FF334E
S11313E00DE04FF0FF330AE04FF0FF3307E000BF9A
S11313F000C4004000C8004000C00040042306931D
S1131400039B002B19D0039B012B13D0039B022BAE
S11314100DD0039B032B07D0039B042B01D1012385
S11314200CE04FF0FF3309E04FF0FF3306E04FF0DC
S1131430FF3303E04FF0FF3300E004230593039BE5
S1131440002B01D1042301E04FF0FF330493039BED
S1131450002B01D1042201E04FF0FF32019BDA633B
S1131460039B002B19D0039B012B13D0039B022B4E
S11314700DD0039B032B07D0039B042B01D107231F
S11314800CE04FF0FF3309E04FF0FF3306E04FF07C
S1131490FF3303E04FF0FF3300E00A230993039B7B
S11314A0002B19D0039B012B13D0039B022B0DD0CF
S11314B0039B032B07D0039B042B01D108230CE0CF
S11314C04FF0FF3309E04FF0FF3306E04FF0FF33F6
S11314D003E04FF0FF3300E00B230893039B002B42
S11314E001D10C2301E04FF0FF330793039B002B42
S11314F001D10D2201E04FF0FF32019B1A6401E09B
S1131500544BA3E09DF80330002B6BD0019B1B7D53
S1131510002B33D1069BD8B209990023042206F08C
S1131520FDFD059BD8B208990023022206F0F6FDC2
S1131530019B9B7D002B03D0019B9B7D012B07D13D
S1131540049BD8B207990023042206F0E7FD06E0C5
S1131550049BD8B207990123042206F0DFFD019B06
S1131560DB7D002B71D1019BDB6BD8B2019B1B6C23
S113157019460123042206F0D1FD66E0069BD8B289
S113158009990023022206F0C9FD059BD8B20899E7
S11315900023042206F0C2FD019B9B7D002B03D097
S11315A0019B9B7D012B07D1049BD8B20799002393
S11315B0022206F0B3FD06E0049BD8B2079901238A
S11315C0022206F0ABFD019BDB7D002B3DD1019B8C
S11315D0DB6BD8B2019B1B6C19460123022206F077
S11315E09DFD32E0069BD8B209990023022206F041
S11315F095FD059BD8B208990023022206F08EFDC2
S1131600019B9B7D002B03D0019B9B7D012B07D16C
S1131610049BD8B207990023022206F07FFD06E05E
S1131620049BD8B207990123022206F077FD019B9F
S1131630DB7D002B09D1019BDB6BD8B2019B1B6CBA
S113164019460023002206F069FD002318460BB05A
S11316505DF804FB022000F000B587B0039002910E
S1131660019208F00BFD0590019B0493049B00225A
S11316705A64049B002283F84820049B00229A6346
S1131680049B1B7D012B04D1049B5B6D184600F069
S113169031FA049BDB6A002B06D0049BDB6A049AB4
S11316A0526B002104989847059808F0F3FC012335
S11316B0184607B05DF804FB00B58FB00990089197
S11316C007920693099B002283F85020099B079AEE
S11316D05A63099B1B684FF44062DA60099B069ABF
S11316E0DA62099BDB68082B03D901238DF82F30BC
S11316F002E000238DF82F30099BDB68082B08D902
S1131700099B1B6824330D93099B1B683C330C9382
S113171007E0099B1B681C330D93099B1B6834333A
S11317200C93099B186A099B996A099B0493134BB0
S113173003939DF82F300293079B01930123009399
S11317400D9B089A00F04EFD099BD869099B596AC4
S1131750099B03F1100200230493002303939DF8D3
S11317602F300293079B01930023009313460C9A96
S113177000F014FD00BF0FB05DF804FB5916000023
S113178000B58FB00990089107920693099B002237
S113179083F85020099B079A5A63099B1B684FF4EE
S11317A04062DA60099B069ADA62099BDB68082BBF
S11317B003D901238DF82F3002E000238DF82F3058
S11317C0099BDB68082B08D9099B1B6824330D93FC
S11317D0099B1B683C330C9307E0099B1B681C3373
S11317E00D93099B1B6834330C93099B186A099B5E
S11317F0996A099B03F13002099B0493114B0393EB
S11318009DF82F300293079B0193002300930D9BB7
S113181000F0E8FC099BD869099B596A00230493EA
S1131820002303939DF82F300293079B0193012318
S11318300093089B0C9A00F0B1FC00BF0FB05DF858
S113184004FB00BF5916000000B587B00390029155
S11318500192039B002B01D1134B21E0029B002B2F
S113186006D0019B002B03D0019BB3F5806F01DDF3
S11318700E4B15E008F002FC0590039B93F84830EA
S1131880DBB2002B04D0059808F004FC084B07E0F9
S1131890039B012283F84820059808F0FBFB0023F2
S11318A0184607B05DF804FB012000F0022000F0A8
S11318B0032000F000B583B00190002008F0F4FB91
S11318C00346002B0CD001E006F068FE019B93F860
S11318D05030DBB283F00103DBB2002BF4D109E01A
S11318E000BF019B93F85030DBB283F00103DBB2FD
S11318F0002BF6D100BF03B05DF804FB82B00346B1
S11319008DF8073007499DF907305B099DF80720DA
S113191002F01F02012000FA02F241F8232000BF66
S113192002B0704700E100E082B003468DF8073052
S113193008499DF907305B099DF8072002F01F0252
S1131940012000FA02F2603341F8232000BF02B004
S1131950704700BF00E100E0014B5B681846704728
S11319600000084082B00190024A019B936100BFCD
S113197002B070470000084082B001900449044B53
S1131980DA69019BDB431340CB6100BF02B07047AF
S11319900000084082B001900449044BDA69019BBD
S11319A01343CB6100BF02B0704700BF0000084082
S11319B082B0054BDB690193034B1A69019B134009
S11319C0184602B0704700BF0000084000B587B059
S11319D00190002305930023049308F04FFB039028
S11319E002E0059B01330593059B032B0ADC174991
S11319F0059A13469B001344DB000B441E331B78EB
S1131A00002BEED1059B042B02D1114B049314E05F
S1131A10019B002B0FD00D49059A13469B001344DC
S1131A20DB000B441E3301221A70059A019B1A60D5
S1131A300023049301E0074B0493039808F02AFB66
S1131A40049B184607B05DF804FB00BF980E002005
S1131A50011000F0041000F008B51D4B1B78002B9A
S1131A6001D0002332E01A4B01221A7001211948D7
S1131A7007F06EFC0221184807F04CFE08211748B5
S1131A8007F078FB0121154807F062FC144808F0C0
S1131A90A3FA0720FFF770FF0720FFF763FF08F0A2
S1131AA0BFFA1E20FFF740FF1E20FFF727FFA022EA
S1131AB000210C4809F050FE0B4B00221A700B4B0E
S1131AC000221A700A4B00221A600023184608BD2F
S1131AD0420F00200043020002001A0060161000AA
S1131AE0F4BC0000980E0020400F0020410F00209D
S1131AF03C0F002000B585B00190019B032B01D958
S1131B00144B23E008F0BAFA03901349019A1346E0
S1131B109B001344DB000B441E331B7883F001034A
S1131B20DBB2002B04D0039808F0B4FA0B4B0DE0A1
S1131B300949019A13469B001344DB000B441C33F0
S1131B4000221A70039808F0A5FA0023184605B07D
S1131B505DF804FB021000F0980E0020031000F062
S1131B6000B587B008F08AFA0490FFF721FF0390CC
S1131B70039B23F003031846FFF7F4FE039B03F0D3
S1131B800203002B39D0204B01221A70FFF7E4FE28
S1131B9005900220FFF7F0FE059B1A021B4B1B6801
S1131BA01B02D31A1B0A0293029800F033F800F0C8
S1131BB07DF9059800F0AAF9FFF7CEFE0590059B84
S1131BC01A02124B1B681B02D31A1B0A0293002031
S1131BD008F0B6F903461A020C4B1B681B02D31A11
S1131BE01B0A01930A4B1B78002B03D0029A019B1A
S1131BF09A42CED8044B00221A70049808F04AFA8C
S1131C0000BF07B05DF804FB400F0020380F002030
S1131C10410F002010B485B00190002303933BE1F1
S1131C20A149039A13469B001344DB000B441D3364
S1131C3000221A709C49039A13469B001344DB004C
S1131C400B441C331B78002B00F023819649039A24
S1131C5013469B001344DB000B4418CB019A114636
S1131C604FF00002A24208BF994218D28E49039A4B
S1131C7013469B001344DB000B44D3E90012019B81
S1131C804FF00004C91A62EB0402874C0398034620
S1131C909B000344DB002344C3E90012F9E08249BA
S1131CA0039A13469B001344DB000B441F331B7839
S1131CB0002B0AD17C49039A13469B001344DB0092
S1131CC00B441C3300221A70CEE07749039A134662
S1131CD09B001344DB000B440833D3E90012019B3F
S1131CE04FF00004C91A62EB04026F4C03980346D8
S1131CF09B000344DB00234418CBC91842EB0402C5
S1131D00694C039803469B000344DB002344C3E966
S1131D1000126549039A13469B001344DB000B44ED
S1131D2010331B68002B4FDD5F49039A13469B0059
S1131D301344DB000B44143319685B48039A1346BD
S1131D409B001344DB00034410331B6819445648BA
S1131D50039A13469B001344DB00034414331960B5
S1131D605149039A13469B001344DB000B4414337C
S1131D701B68F32B78D94C49039A13469B001344F0
S1131D80DB000B4418CB591C44F10002464C039869
S1131D9003469B000344DB002344C3E90012424989
S1131DA0039A13469B001344DB000B4414331B6853
S1131DB0A3F1F4013C48039A13469B001344DB004F
S1131DC00344143319604FE03749039A13469B00C8
S1131DD01344DB000B44143319683348039A134645
S1131DE09B001344DB00034410331B68C91A2E48BC
S1131DF0039A13469B001344DB0003441433196015
S1131E002949039A13469B001344DB000B44143303
S1131E101B68F32B28D92449039A13469B001344C7
S1131E20DB000B4418CB13F1FF3144F1FF321E4C9D
S1131E30039803469B000344DB002344C3E90012D8
S1131E401949039A13469B001344DB000B441433D3
S1131E501B68A3F1F4011448039A13469B0013442E
S1131E60DB000344143319600F49039A13469B00A3
S1131E701344DB000B4418331B68002B09D00A49B8
S1131E80039A13469B001344DB000B441D330122C9
S1131E901A70039B01330393039B032B7FF7C0AE9C
S1131EA000BF05B010BC7047980E002010B582B07A
S1131EB00023019322E01449019A13469B00134422
S1131EC0DB000B441D331B78002B14D00E49019A00
S1131ED013469B001344DB000B4418331C68019821
S1131EE00949019A13469B001344DB000B44203339
S1131EF01B681946A047019B01330193019B032BE7
S1131F00D9DD00BF02B010BD980E002010B58AB014
S1131F1001904FF0FF334FF0FF34CDE90634002336
S1131F20099326E03649099A13469B001344DB00C3
S1131F300B441C331B78002B18D03149099A1346E3
S1131F409B001344DB000B44D3E90012DDE90634A3
S1131F50A24208BF994209D22949099A13469B0013
S1131F601344DB000B4418CBCDE90634099B013341
S1131F700993099B032BD5DD224B00221A70DDE95E
S1131F800634B4F1FF3F08BFB3F1FF3F34D0DDE9BD
S1131F900634CDE904341C4B0393039B4FF0000437
S1131FA0DDE90412A24208BF994201D20B4614464D
S1131FB0CDE90634154B1B7883F00103DBB2002B0B
S1131FC005D0019B23F07F43114A136002E0104ABD
S1131FD0019B13600220FFF7C5FC069A019B134482
S1131FE023F07F431946002007F0C4FF054B01226C
S1131FF01A700220FFF7CEFC00BF0AB010BD00BF6C
S1132000980E0020410F00209BFFFF00400F00208E
S1132010380F002082B0034600918DF807309DF9F7
S11320200730002B0CDA0D499DF8073003F00F033D
S1132030043B009AD2B25201D2B20B441A7609E0A0
S113204007499DF90730009AD2B25201D2B20B442B
S113205083F8002300BF02B0704700BF00ED00E02A
S113206000E100E000B585B001900091254B1B789C
S113207083F00103DBB2002B01D0234B3DE0019B35
S1132080002B01D1214B38E007F0F8FF0290002328
S113209003932BE01E49039A13469B0013449B00B1
S11320A00B4410331B7883F00103DBB2002B1AD0EE
S11320B0039A019B1A601649039A13469B00134422
S11320C09B000B44103301221A701149039A1346E2
S11320D09B0013449B000B4400221A60029807F0F3
S11320E0D9FF002309E0039B01330393039B0B2BCC
S11320F0D0DD029807F0CEFF064B184605B05DF818
S113210004FB00BF430F0020028000F0018000F0B8
S1132110440F0020048000F000B585B007F0AEFF46
S113212002901A4B1B78002B04D0029807F0B2FFE0
S1132130174B26E0154B01221A70029807F0AAFFEC
S1132140002303930CE01349039A13469B001344A2
S11321509B000B44103300221A70039B013303933A
S1132160039B0B2BEFDD04210020FFF753FF00231B
S11321708DF80030084B01936B46184606F04EFB71
S11321800023184605B05DF804FB00BF430F002090
S1132190038000F0440F0020001E002000B58DB025
S11321A00B900A9109920893129B0793119B069333
S11321B09DF8403005930F9B04939DF838300393AA
S11321C000230293089B0193099B00930A9B0B9A9B
S11321D00021002000F09CF8034618460DB05DF87D
S11321E004FB00BF00B58DB00B900A9109920893CF
S11321F0129B0793119B06939DF8403005930F9B08
S113220004939DF83830039300230293089B0193B1
S1132210099B00930A9B0B9A0121002000F078F897
S1132220034618460DB05DF804FB00BF00B587B047
S113223003900B4601928DF80B30039A13469B00D2
S113224013449B000B4A13440593059B1B68002B06
S11322500CD0059B9B685A1C059B9A60059B1B68C8
S1132260059A9168059A52680398984700BF07B089
S11322705DF804FB440F002000B58BB007900B46BB
S113228005928DF81B3001238DF82730079A1346E9
S11322909B0013449B001D4A13440893089B1B682E
S11322A0002B1DD0089B9B685A1C089B9A60089BB6
S11322B01B68089A9168089A5268079898470346D9
S11322C0002B14BF01230023DBB283F00103DBB234
S11322D08DF827309DF8273003F001038DF827305F
S11322E0089BDB68013B1A469DF81B109DF82730BC
S11322F0029301920023009300230022002006F0A1
S1132300B7FA00BF0BB05DF804FB00BF440F002018
S113231000B58FB00692059303468DF81F300B4627
S11323208DF81E308E4B1B7883F00103DBB2002B3B
S113233001D08C4B10E1069B0B2B10D8109B002B6B
S11323400DD0119B002B0AD0149BB3F5806F06DCD3
S11323509DF81F30012B04D1129B002B01D1824B1D
S1132360FAE0069A13469B0013449B007F4A1344E9
S11323700D930D9B1B7C83F00103DBB2002B01D07A
S11323807B4BE9E09DF81F30002B09D17949069A6F
S113239013465B0013449B000B44774A1A6008E021
S11323A07449069A13465B0013449B000B44734A1A
S11323B01A607049069A13465B0013449B000B4451
S11323C0043300221A6000238DF82830169B002B5A
S11323D003D19DF81F30012B03D101238DF829303F
S11323E002E000238DF82930059B0B93069A1346CF
S11323F05B0013449B005F4A13440C930AAB1946D9
S1132400069806F08DF99DF81E30002B1ED19DF81C
S11324104C30002B13D09DF85430002B03D10023F3
S11324208DF821300EE09DF85430012B03D10123A7
S11324308DF8213006E002238DF8213002E00323D9
S11324408DF8213003238DF820301DE09DF84C30A9
S1132450002B13D09DF85430002B03D100238DF8AA
S113246020300EE09DF85430012B03D101238DF868
S1132470203006E002238DF8203002E003238DF89B
S1132480203003238DF821309DF854308DF822300C
S113249000238DF8233000238DF8243008AB1A462E
S11324A00121069806F084F99DF81F30012B05D10F
S11324B008AB1A460021069806F07AF90D9B169A85
S11324C01A600D9B179A5A600D9B00229A600D9B0F
S11324D0149ADA602A4A0121069B01FA03F3194689
S11324E002F58053083319609DF81F30002B0BD17F
S11324F0149B013B0193119B0093109B002201212B
S1132500069806F0B7F826E09DF81E30002B11D18E
S1132510149B013B1A46149B013B0393129B0293A9
S1132520109B01930092119B109A0021069806F0CB
S1132530C7F810E0149B013B1A46149B013B03931C
S1132540129B0293119B01930092129B109A0021FB
S1132550069806F0B5F8002318460FB05DF804FBA2
S1132560430F0020028000F0018000F0440F00209F
S1132570078000F0341000202D2200007922000092
S113258000200C4082B003468DF8073007499DF9BE
S113259007305B099DF8072002F01F02012000FAB2
S11325A002F241F8232000BF02B0704700E100E0CE
S11325B082B003468DF8073008499DF907305B095E
S11325C09DF8072002F01F02012000FA02F22033D6
S11325D041F8232000BF02B0704700BF00E100E0D3
S11325E082B003468DF8073008499DF907305B092E
S11325F09DF8072002F01F02012000FA02F2603366
S113260041F8232000BF02B0704700BF00E100E0A2
S1132610044A044B1B6923F00403136130BF00BF59
S1132620704700BF00ED00E084B003900291019276
S1132630039A029B03331B0113440433019A1A6067
S113264000BF04B0704700BF82B00190019B5B6A79
S1132650184602B0704700BF82B001900B468DF857
S11326600330019B0E4A93420AD0019B0D4A9342C8
S113267006D0019B0C4A934202D0019B0B4A934221
S113268000BF9DF80330002B03D0019B01225A6048
S113269002E0019B02225A6000BF02B0704700BFF3
S11326A0000001400004014000080140000C01400A
S11326B082B001900091019B009A9A6100BF02B020
S11326C0704700BF82B001900091019BDA68009BC3
S11326D0DB431A40019BDA6000BF02B0704700BFC1
S11326E082B001900091019BDA68009B1A43019B20
S11326F0DA6000BF02B0704782B00190019B1B6991
S1132700184602B0704700BF82B001900091019B4F
S1132710009ADA6100BF02B0704700BF70B588B09C
S113272003AB00221A605A609A601A7301238DF871
S11327300C306B4600221A605A60C3F8072002234B
S11327408DF806300121374806F002FE4FF6FF717E
S11327503548FFF7D9FF6B461A460021324806F088
S1132760C9F900238DF80E3003AB19462E4806F044
S113277041F92E4806F058FE02462D4B1A602C4BA8
S11327801B689DF80E20D340294A13609DF80E3033
S11327900133DBB28DF80E309DF80E300A2B04D8CD
S11327A0234B1B68234A9342DED8234806F03CFEA1
S11327B00246224BB3FBF2F307931D4B1B681946E9
S11327C04FF00002079B4FF0000403FB02F501FBEE
S11327D004F02844A1FB03340219144618494FF0AD
S11327E000025D1844EB020628463146154A4FF0B4
S11327F0000307F059FF03460C461A46124B1A60B1
S1132800124B00221A7010210748FFF75BFF0220C9
S1132810FFF7E6FE0220FFF7B5FE0023184608B0D6
S113282070BD00BF0052040000000140408104005C
S1132830C410002080841E005000020000B0710B00
S113284020A1070040420F00C8100020CC10002037
S113285008B50220FFF7ACFE10210A48FFF732FF4B
S113286010210848FFF724FF0220FFF7B9FE0021DA
S11328700448FFF7F1FE0021034806F069FD002338
S1132880184608BD000001400052040070B584B031
S11328900190224B1B6819464FF00002019B4FF038
S11328A0000403FB02F501FB04F02844A1FB0334FC
S11328B0021914461A494FF000025D1844EB02064F
S11328C028463146174A4FF0000307F0EDFE034651
S11328D00C46CDE902340DE04FF6E85000F040F824
S11328E0DDE9023410494FF0FF325B1844EB020477
S11328F0CDE90234DDE902344FF6E8514FF000022D
S1132900A24208BF9942E7D3BDF80830184600F048
S113291027F80023184604B070BD00BFC41000207F
S113292020A1070040420F001802FFFF00B583B04A
S11329300948FFF7E1FE0190019B03F01003002B0F
S113294006D010210448FFF7B3FE044B01221A708D
S113295000BF03B05DF804FB00000140CC10002070
S113296000B587B00346ADF80630BDF80630002B3D
S113297036D007F083FB05901B48FFF765FE014640
S11329801A4B1B680493BDF80630ADF80E30BDF841
S11329900E20049B934238BF13460B441A46002171
S11329A01148FFF741FE10210F48FFF781FE102167
S11329B00D48FFF795FE059807F06CFB01E0FFF763
S11329C027FE0B4B1B78DBB283F00103DBB2002B39
S11329D0F5D1074B00221A7010210348FFF772FE4D
S11329E000BF07B05DF804FB00000140C8100020E0
S11329F0CC10002000B589B003468DF8073003AB36
S1132A000793079B002200210020FDF70BFE079B84
S1132A109B7803F01003002B03D0074801F092FFCA
S1132A2004E0079B9B7803F00803002B00F082F975
S1132A3000BF09B05DF804FB4000002008B5012187
S1132A401848FDF773FFFDF7E3FF00F087F90CE08A
S1132A50154802F079FEFFF761FE42F21070FFF7AD
S1132A6015FFFFF7F5FE00F079F91048FEF74EF96F
S1132A700346002BECD10023002200210020FDF7A7
S1132A80D1FD0B48FDF724FD094B5B881946094825
S1132A9002F046FE0021084801F03CFD01231846DF
S1132AA008BD00BFF529000010BD000070BD000086
S1132AB0BC1C002034BD00004000002000B585B0DF
S1132AC001900B46ADF80230214B00221A60BDF88C
S1132AD00230402B01D9002335E0002303930BE09F
S1132AE0039A1C4B1340002B03DA013B63F00F03E2
S1132AF00133039B01330393BDF80220039B9A42E5
S1132B00EEDC00210120FDF7D5FD134A019B136083
S1132B10124ABDF8023013801148FDF711FE02E09D
S1132B200F48FDF70DFE0E4B1B78072BF8D00D4B0D
S1132B301B68DB88DBB201991846FDF7DDFD044B09
S1132B4001221A600023184605B05DF804FB00BF9B
S1132B50D01000200F000080D4100020D8100020D6
S1132B60BC1C00207000002000B589B00346ADF8FD
S1132B70063003AB0793104B1B689B7BBDF8062004
S1132B8030211846FDF7DEFC079B002200210020BF
S1132B90FDF748FD05E0079B002200210020FDF71A
S1132BA041FD079B9B7803F02003002BF3D1002306
S1132BB0184609B05DF804FB7000002000B583B02E
S1132BC001900B46ADF80230BDF802301946019869
S1132BD0FFF774FF0346012B01D1012305E0BDF883
S1132BE002301846FFF7C0FF0346184603B05DF8ED
S1132BF004FB00BF00B587B001900B46ADF802306E
S1132C0002AB19460020FDF755FD9DF80830ADF8DC
S1132C100230BDF80230DBB201991846FDF77EFDA3
S1132C2000210220FDF746FDBDF80230184607B02A
S1132C305DF804FB00BF1846704700BF0023184628
S1132C40704700BF00BF1846704700BF08B5002199
S1132C500220FDF72FFD00210120FDF72BFD00F0E0
S1132C6069F80123184608BD00231846704700BFC1
S1132C7000B589B003900B4601928DF80B30012307
S1132C808DF81F30039B1B88002B03D0B3F5847F82
S1132C9007D03FE000238DF81F30039B4FF484726C
S1132CA01A809DF81F30002B03D09DF80B30822B27
S1132CB001D0012335E002F0FDFA02F0DDFB03460A
S1132CC080211846FFF796FF0590059B9BB2184696
S1132CD002F0BAFB154B1B69984702F0CDFB049038
S1132CE0002306930BE0069A114B1340002B03DAE2
S1132CF0013B63F00F030133069B01330693069AED
S1132D00059B9A42EFDB00210120FDF7D3FCFFF77E
S1132D109DFFBFE700238DF81F30039B00221A801C
S1132D200323184609B05DF804FB00BFBCC40000CF
S1132D300F00008000B583B0074B1B68187E082382
S1132D40019303230093002300220021FDF72CFCB0
S1132D5000BF03B05DF804FB7000002008B5FDF768
S1132D60A3FBFFF7DBFC42F21070FFF78FFDFFF7C8
S1132D706FFD00BF08BD00BF00B583B003468DF8EA
S1132D8007309DF8073003F00103002B9DF807304E
S1132D9003F00203002B9DF8073003F00403002B1B
S1132DA0064B1A78064B1B785340DBB2184600F0EA
S1132DB073F800BF03B05DF804FB00BFDA10002015
S1132DC0DB10002008B500F057F8044B00221A70FD
S1132DD0024B1A78024B1A7000BF08BDDB100020AA
S1132DE0DA10002000B585B003468DF807300E4B8D
S1132DF01A789DF8073013408DF80F309DF907308D
S1132E00DB435AB2084B1B785BB213405BB2DAB2B5
S1132E10054B1A709DF80F301846FFF7ADFF00BF41
S1132E2005B05DF804FB00BFDA10002000B583B0E4
S1132E3003468DF807309DF80730184600F004F873
S1132E4000BF03B05DF804FB00B583B003468DF802
S1132E500730084B1A789DF807305340DAB2054B17
S1132E601A709DF807301846FFF786FF00BF03B0BD
S1132E705DF804FBDB10002008B5002304220621C2
S1132E80052005F04BF9002304220721052005F055
S1132E9045F900BF08BD00BF00B583B003468DF8F7
S1132EA007309DF8073003F00103002B04D0012103
S1132EB0F62003F023FD03E00021F62003F01EFDBD
S1132EC09DF8073003F00203002B04D00121F72002
S1132ED003F014FD03E00021F72003F00FFD00BF11
S1132EE003B05DF804FB00BF024B01221A6000BF6F
S1132EF0704700BFDC100020024B01221A6000BFA3
S1132F00704700BFDC100020024B00221A6000BF93
S1132F10704700BFDC100020014B1B681846704747
S1132F20DC10002000B583B0019004F0CBF8034618
S1132F30184603B05DF804FB00B583B0019000911E
S1132F40019B802B02D0812B04D00DE0FFF7CCFF36
S1132F5001230AE0009B002B02D0FFF7CDFF01E024
S1132F60FFF7D2FF012300E00023184603B05DF809
S1132F7004FB00BF00B583B00190019B822B03D1F9
S1132F80FFF7CAFF034600E00023184603B05DF8CC
S1132F9004FB00BF00B585B0029111461A460346F2
S1132FA08DF80F300B468DF80E3013468DF80D302A
S1132FB09DF80E209DF80F009DF8183001939DF8A0
S1132FC00D3000931346029A029905F033F800BFBE
S1132FD005B05DF804FB00BF08B50248FDF766F9CB
S1132FE000BF08BDCCC0000000B583B003F0E8FC0E
S1132FF00346002B01D103F0E9FC01230222032143
S1133000042005F08BF801230093012300220321FF
S11330100420FFF7BFFF0449032004F06BFD00BF49
S113302003B05DF804FB00BFD92F000008B5054BC1
S11330301B68002B01D1FFF7D7FF034B01221A6055
S113304000BF08BDE0100020E4100020024B002265
S11330501A6000BF704700BFE4100020014B1B68DA
S113306018467047E410002082B0019001231846EE
S113307002B0704700B583B00190019B813B012BE6
S113308003D8FFF7EBFF034600E00023184603B024
S11330905DF804FB00B583B001900091019B802B87
S11330A002D0812B04D00DE0FFF79EFF01230AE03C
S11330B0009B002B02D0FFF7B9FF01E0FFF7C6FF2A
S11330C0012300E00023184603B05DF804FB00BFB1
S11330D0024BD3F814311846704700BF006000401B
S11330E000B585B0029111461A4603468DF80F309B
S11330F00B468DF80E3013468DF80D309DF80E20DA
S11331009DF80F009DF8183001939DF80D30009341
S11331101346029A029904F08DFF00BF05B05DF8D2
S113312004FB00BF08B50248FDF7C0F800BF08BDA6
S1133130E4C0000000B583B003F042FC0346002B5A
S113314001D103F043FC012302220221042004F0F4
S1133150E5FF012300930123002202210420FFF74D
S1133160BFFF0449022004F0C5FC00BF03B05DF8B2
S113317004FB00BF2531000008B5054B1B68002B7C
S113318001D1FFF7D7FF034B01221A6000BF08BD2E
S1133190E8100020EC100020014B1B681846704713
S11331A0EC10002000B583B00190FFF791FF0346B7
S11331B0184603B05DF804FB00B583B00190019B91
S11331C0813B012B03D8FFF7E7FF034600E0002310
S11331D0184603B05DF804FB00B583B0019000917C
S11331E0019B802B02D0812B04D007E0FFF7A2FFC4
S11331F0012304E0FFF7C0FF012300E00023184689
S113320003B05DF804FB00BF034B01221A60034BBB
S113321001221A6000BF7047F0100020F410002053
S113322008B5054B1B68002B01D1FFF7EDFF034BDD
S113323001221A6000BF08BDF0100020F410002025
S1133240024B00221A6000BF704700BFF410002038
S1133250014B1B6818467047F410002000B585B078
S11332600190042002F0AEF90346143B184607F01F
S113327051F803464FF08041184607F053F90346CE
S11332800A49184606F090FF034603930849039839
S113329007F094F80346184607F0E0F90346029352
S11332A0029B184605B05DF804FB00BF0000F04225
S11332B00000204100B583B001900091019B802B58
S11332C002D0812B04D00DE0FFF79EFF01230AE01A
S11332D0009B002B02D0FFF7A3FF01E0FFF7B0FF34
S11332E0012300E00023184603B05DF804FB00BF8F
S11332F000B583B00190019B822B03D1FFF7A8FF97
S1133300034600E00023184603B05DF804FB00BF49
S11333102B4A2B4B5B6C43F400535364294A294BCF
S1133320D3F8203143F00403C2F82031254A254B59
S1133330D3F8203123F44073C2F82031214A214BC1
S1133340D3F8B83023F47063C2F8B8301D4A1D4B6B
S1133350D3F8B83043F48063C2F8B830184B102265
S11333601A6200BF164BDB6A03F02003002BF9D06E
S1133370154A154B1B6843F001031360124A124BA4
S1133380DB6843F08073D360104B114A1A60114B11
S11333900F221A610F4B0222C3F8F0200D4B4FF499
S11333A08072C3F804234FF060430B4AC3F8B02F74
S11333B04FF06043094AC3F8802E00BF704700BF36
S11333C000800C4000600040F0ED00E0001000E0E0
S11333D0FF130140000004E055CEACC50900010014
S11333E008B50121D72003F0CFFAD62003F0B4FAB0
S11333F0002304220221052004F090FE184A184BF1
S1133400D3F8203123F44073C2F82031144A144B0A
S1133410D3F8203143F00403C2F8203101220E21F5
S1133420DE2003F04BFA01220E21DF2003F046FADE
S11334300021D02003F0A8FAD12003F08DFA002156
S1133440D22003F0A1FA0121D32003F09DFA002138
S1133450D72003F099FAD62003F07EFA00BF08BD06
S11334600060004010B483B00B4A926C01920A4A87
S1133470D26C11464FF000020C000023019A114651
S11334804FF0000243EA010344EA020418462146CD
S113349003B010BC704700BFA881E00F00B583B033
S11334A00D4B1B6801936B46184605F0D9FB019B35
S11334B01B0E0F2B0BD99DF80030032B07D1074AA5
S11334C0064B1B6823F0500343F01003136000BF46
S11334D003B05DF804FB00BFFC81E00FC0800C402A
S11334E0FEE700BFFEE700BFFEE700BFFEE700BF48
S11334F000B587B0FFF7D2FF03F068FAFFF762FC6C
S11335000320FFF76FFC4FF4E13003F0A1FE4448C1
S113351003F040FF434802F003F9434802F014F972
S1133520032006F05DFA414B5B68059304F08EF8C6
S11335300346049304F062F803F0C6FCFFF7E8FEC8
S1133540059803F0C9FBFFF74BFF03F0D9FD03F027
S1133550C3FCFFF787FFCDE9020103F0D7FA01F0BE
S113356005FE01F0A1F8324802F0DAF8314B1B688D
S11335709B68184607F0F8FA03F040F803F07AFA6B
S113358001F092F800212C4800F0C4FF01F096FDF0
S113359001F0D8FA0021294800F0BCFF284802F0C5
S11335A0D3F8284802F0BCF8224B1B689B681846E5
S11335B007F0DAFAFCF75EFF00F0C2F8224B1B8832
S11335C0184601F0D9FD01F05DFE1D4802F0BCF87B
S11335D01E4802F0A5F800F0CFF80346B3F1FF3F10
S11335E003D11B4802F0B0F802E01A4802F0ACF82C
S11335F001F0BAFD00F056F81749184802F090F8A7
S1133600174800F02FF8164801F0C0F903F026FA25
S113361003F02AFA01F016F90190019B002BF7E759
S1133620C94900000CC1000018C1000000A00C40F2
S11336303CC1000008010020A4000020100000206C
S113364058C1000060C10000380E00207CC1000099
S1133650B0C10000D8C10000E0C10000ECC100000E
S1133660CCBC000000B583B001900C4802F058F8BF
S113367009E0019B1B685B681946094802F050F891
S1133680019B04330193019B1B68002BF1D10A2099
S113369002F06EF800BF03B05DF804FB1CC200002A
S11336A028C2000000B583B01B4802F039F800239B
S11336B001930AE0194A019B13441B7819461848E0
S11336C002F02EF8019B01330193019B002BF1D0F2
S11336D0124A019B13441B781946124802F020F841
S11336E0114B1B88002B06D00F4B1B8819460F4823
S11336F002F016F802E00E4802F026F80D4B1968A5
S11337000D4B1A684FF4D9730C4802F009F800BF46
S113371003B05DF804FB00BF30C20000D81C0020D9
S113372038C200003CC20000380E002040C2000035
S11337304CC200008CC40000BCC4000064C2000081
S113374008B5022200210A4808F006F8094B1B8834
S1133750DAB2074B1A70074B1B881B0A9BB2DAB20A
S1133760034B5A70024800F047F800BF08BD00BF81
S1133770D81C0020380E002000B583B02021134847
S113378001F0CEFF124B00221A60002301930DE0DA
S1133790019B4033DB024FF40061184603F0BCF98F
S11337A02E2001F0E5FF019B01330193019B1F2BA8
S11337B0EED9A8220021074807F0CEFF064801F001
S11337C0C3FF0023184603B05DF804FB14C40000D3
S11337D098110020F810002034C4000000B583B014
S11337E00190009102220099019807F03FFF00BF69
S11337F003B05DF804FB00BF00B583B001900199EC
S11338000348FFF7EBFF00BF03B05DF804FB00BF04
S1133810DC1C002000B583B000F0AEFA00900F4B22
S11338201B68184601F008FA01900AE0019B5B68E6
S1133830002B02D0019B5B689847019801F068FA5D
S11338400190019B002BF1D1009B002B02D000982A
S113385000F060FA00BF03B05DF804FB88000020AC
S113386008B501F0EDFE01F025FD00F05DF800F073
S11338707DFA054B4EF660224FF47A61022000F087
S113388091F900BF08BD00BF80EE360000B587B0D7
S1133890039002910192039B0493029B012B03D09A
S11338A0022B03D0002B02E000BF00E000BF0F4B4F
S11338B01B68184601F0C0F905900BE0059B9B6856
S11338C0002B03D0059B9B6802989847059801F04C
S11338D01FFA0590059B002BF0D1019A02990498D8
S11338E000F02CFA00BF07B05DF804FB880000204C
S11338F000B583B00190019800F056FA0346002BFE
S113390008D001F01BFD064B9B68019905489847B8
S1133910012300E00023184603B05DF804FB00BF58
S11339208CC400008D38000008B5034B1B68184692
S113393001F07AF900BF08BD8C00002082B001902C
S1133940024A019B136000BF02B07047A811002017
S113395008B5044B1B68184601F06EF90346184677
S113396008BD00BF8C00002010B584B001900B4648
S1133970ADF802301346ADF80030134B1B681846FF
S113398001F05AF9039017E0039B9B88BDF80220CD
S11339909A420DD1039B9B68002B11D0039B9C681A
S11339A0BDF80030BDF8022001990398A04707E054
S11339B0039801F0ADF90390039B002BE4D100E0E0
S11339C000BF04B010BD00BF8C00002000B585B05E
S11339D0019001F06FFC01F04FFD0290029B002268
S11339E01A80FFF7B5FF03901DE0029B1B88184661
S11339F0039B9988029A830013440A465A80029BC7
S1133A001B881846039BD988029A830013440A46EC
S1133A109A80029B1B8801339AB2029B1A800398F6
S1133A2001F076F90390039B002B03D0039B1B7BCF
S1133A30002BDAD1029B1B889B009BB202339BB202
S1133A40184601F001FD029B1B88002B02D003489D
S1133A5000F024F900BF05B05DF804FBAC110020B0
S1133A6010B586B00190009101F006FD059003ABFE
S1133A7002220599184607F0F9FDBDF80C309B00A9
S1133A809C1C01F029FD03469C4220D8059B02336F
S1133A9005930023049313E002AB0422059918460E
S1133AA007F0E4FDBDF80830BDF80A201946009877
S1133AB0FFF75AFF059B04330593049B01330493DA
S1133AC0BDF80C301A46049B9A42E5DC00E000BFC6
S1133AD006B010BD84B003900291019200BF04B0FF
S1133AE0704700BF08B50C4B596E00230B4A0C48B5
S1133AF001F0FAFA01F04EFB03461A46064B5B6EE0
S1133B00B2FBF3F103FB01F3D11A0023054A064883
S1133B1001F0EAFA00BF08BDAC1100202D3B000003
S1133B20E4110020CD390000C411002000B585B097
S1133B3001900A4B5B6E5B000393084B1A6E039B68
S1133B409A4202D2054B1B6E0393044A039B5366AD
S1133B50FFF7C8FF00BF05B05DF804FBAC110020FF
S1133B6010B582B00446084611461A462346ADF8FD
S1133B70063003468DF805300B46ADF80230134687
S1133B80ADF800309DF81030012B05D1044B9B6D2E
S1133B90034A5366FFF7A6FF00BF02B010BD00BF83
S1133BA0AC11002000B585B0029101920093034648
S1133BB0ADF80E30BDF80E300A4A19460A4800F036
S1133BC04DF8094A029B9365074A019BD365064A4F
S1133BD0009B13660548FFF7B1FE00BF05B05DF812
S1133BE004FB00BF54C40000AC110020613B000082
S1133BF000B585B00190019B0393182001F008FDE6
S1133C00024602AB11461846FFF7E8FD039B5B69C9
S1133C101B68002B06D0039B5B691B6802AA114634
S1133C200398984700BF05B05DF804FB00B587B062
S1133C30039002910192039B0593059B5B695B686A
S1133C40002B06D0059B5B695B68019A0299059875
S1133C50984700BF07B05DF804FB00BF00B585B00E
S1133C6003900B460192ADF80A30039BBDF80A108D
S1133C70084A184600F024F8039B019A5A61BDF8DB
S1133C800A300549184600F0C1F800BF05B05DF8D8
S1133C9004FB00BF60C400005CC4000000B583B036
S1133CA001900649182001F09BFC019B184600F086
S1133CB025F80346184603B05DF804FBDC1C00201D
S1133CC000B585B003900B460192ADF80A30039B12
S1133CD0BDF80A201146184600F0B6F8039B019A75
S1133CE01A61BDF80A300449184600F08FF800BF85
S1133CF005B05DF804FB00BF68C4000000B583B0E4
S1133D000190019B1846FFF7F3FD0346184603B0E4
S1133D105DF804FB00B585B00190019B0393039B00
S1133D201B691B68002B04D0039B1B691B68039849
S1133D30984700BF05B05DF804FB00BF00B587B02D
S1133D40039002910192039B0593059B1B695B6899
S1133D50002B06D0059B1B695B68019A02990598A4
S1133D60984700BF07B05DF804FB00BF08B500F03A
S1133D7043F800BF08BD00BF00B583B00023019322
S1133D80084B1B6898470190019B002B05D0019BB1
S1133D909B881946012001F0FFFB019B184603B0E4
S1133DA05DF804FB78C4000000B585B001900A4BAF
S1133DB05B68019898470390019B9B8819460120F2
S1133DC001F0EAFB039B002B01D0012300E0002358
S1133DD0184605B05DF804FB78C4000000B583B054
S1133DE00190044B9B68019898470346184603B01A
S1133DF05DF804FB78C4000008B5034B1B68184643
S1133E0000F012FF00BF08BD9000002000B585B08F
S1133E1003460091ADF80630BDF80630184600F0B0
S1133E2029F80390039B002B09D0039B009A9A6006
S1133E300098FFF7D3FF0346DAB2039B1A7300BF5F
S1133E4005B05DF804FB00BF00B583B001900B46DC
S1133E50ADF80230019BBDF802209A80044B1B6828
S1133E600199184600F008FF00BF03B05DF804FB99
S1133E709000002000B585B00346ADF806300D4B28
S1133E801B68184600F0D8FE03900BE0039B9B8848
S1133E90BDF806209A4201D1039B07E0039800F085
S1133EA037FF0390039B002BF0D10023184605B085
S1133EB05DF804FB9000002086B00390029101920B
S1133EC0039B1B781B021AB2039B01331B781BB2A2
S1133ED013431BB2ADF81630BDF81620029B02FA4C
S1133EE003F31B120649019A0A4412781A40019BF3
S1133EF0C3F1080342FA03F3DBB2184606B0704775
S1133F006CC4000010B586B0039002910192009336
S1133F10009B072B09DC009A01990298FFF7CCFF5C
S1133F2003461A46039B1A705EE0019B002B2BD1BB
S1133F30002305930AE0059B039A1344059A02990A
S1133F400A4412781A70059B01330593009B002BD9
S1133F5000DA0733DB101A46059B9A42EBDC009B20
S1133F6003F007030493049B002B3DD0059B039AA5
S1133F70D418059B029A1344049A00211846FFF7AB
S1133F809BFF034623702FE0002305930FE0059B5E
S1133F90039AD418059B029A1344082201991846DF
S1133FA0FFF78AFF03462370059B01330593009BAB
S1133FB0002B00DA0733DB101A46059B9A42E6DC35
S1133FC0009B03F007030493049B002B0CD0059B78
S1133FD0039AD418059B029A1344049A019918462B
S1133FE0FFF76AFF0346237000BF06B010BD00BF91
S1133FF084B001900023039309E0019B5B78029352
S1134000039A029B13440393019B02330193019B84
S11340101B78002BF1D1039B184604B0704700BFF6
S113402086B003900291009313468DF807309DF8F3
S11340300720029BC3F11001009BCB1A02FA03F381
S1134040ADF81630039B1A78BDF816301B0A9BB2E4
S1134050DBB21343DAB2039B1A70039B0133039A56
S11340600132127851B2BDF8162052B20A4352B24C
S1134070D2B21A7000BF06B0704700BF00B587B057
S11340800390029101920093009B072B07DC019B94
S11340901A78009B02990398FFF7C2FF68E0029B1D
S11340A0002B30D1002305930AE0059B039A1344A7
S11340B0059A01990A4412781A70059B01330593F5
S11340C0009B002B00DA0733DB101A46059B9A424B
S11340D0EBDC009B03F007030493049B002B47D005
S11340E0059B039AD018059B019A13441B781A4622
S11340F0049BC3F1080342FA03F3DAB2049B0021E0
S1134100FFF78EFF34E0002305930DE0059B039A2F
S1134110D018059B019A13441A7808230299FFF7D3
S11341207FFF059B01330593009B002B00DA0733C7
S1134130DB101A46059B9A42E8DC009B03F0070358
S11341400493049B002B13D0059B039AD018059B62
S1134150019A13441B781946049BC3F10802029B7D
S1134160134441FA03F3DAB2049B0021FFF758FF2A
S113417000BF07B05DF804FB30B58BB00190019B24
S11341801B7BDB08DBB21A46019B1B7B03F0070396
S1134190002B14BF01230023DBB213440793079BB6
S11341A00233184601F00CF90346002B01D1002319
S11341B05FE001F06DF90690019B9B88DAB2069BE3
S11341C01A70019B9B881B0A9BB2DAB2069B5A7039
S11341D001F05EF9034602330593079B1A4600215A
S11341E0059807F0B9FA00230893089B0493019BF0
S11341F09B68099338E0099B5B780393089B002B29
S113420000DA0733DB100493099B1B78172B11D9B1
S1134210049B059AD418089B03F00705099B1B7897
S1134220184601F0F5F90246039B29462046FFF79C
S113423025FF12E0099B1B78184601F0C3F90346D9
S1134240ADF80A30049B059AD018089B03F00701C7
S11342500DF10A02039BFFF711FF089A039B134415
S11342600893099B02330993099B1B78002BC2D145
S1134270012318460BB030BD00B58BB001F0FCF83B
S11342800790022001F0BEF80346002B01D1002361
S113429076E0079B5B789BB21B029AB2079B1B7864
S11342A09BB213449BB21846FFF7E4FD0690069BAD
S11342B0002B01D1002363E001F0DEF80590069B9A
S11342C01B7BDB08DBB21A46069B1B7B03F0070350
S11342D0002B14BF01230023DBB21344049304987E
S11342E001F090F80346002B01D1002348E000239D
S11342F00893089B0393069B9B6809933BE0099BE7
S11343005B780293089B002B00DA0733DB100393DE
S1134310099B1B78172B11D9039B059AD118089B6D
S113432003F0070201A8029BFFF7ECFD099B1B7831
S113433001AA1146184601F053F915E00023ADF81F
S11343400230039B059AD118089B03F007020DF174
S11343500200029BFFF7D6FD099B1B78BDF80220E3
S11343601146184601F018F9089A029B1344089361
S1134370099B02330993099B1B78002BBFD1069B31
S113438018460BB05DF804FB00B583B001900091B2
S1134390044B9B6800990198984700BF03B05DF8EF
S11343A004FB00BFBCC4000008B5024B9B689847DF
S11343B000BF08BD48C4000008B5034B5B699847BB
S11343C00346184608BD00BFBCC4000000B583B056
S11343D00190044B9B69019898470346184603B023
S11343E05DF804FBBCC4000000231846704700BFFE
S11343F000BF704730B585B0019000910D4BDC686B
S113440001F046F8054601F077F8034619462846B8
S1134410A0470346002B02D10023039301E00423A9
S113442003930123039A0099019800F04DF800BF0B
S113443005B030BD48BD000000B585B003900291C1
S11344400192019B002B08D0019B5B68184601F088
S113445009F902990398FFF7CDFF00BF05B05DF895
S113446004FB00BF08B5024BDB68984700BF08BDDA
S11344708CC4000008B5034B1B6A984703461846D2
S113448008BD00BF48BD000000B583B00190019B8A
S1134490002B04D0064B1B6A9847034603E0044BE9
S11344A05B6A98470346184603B05DF804FB00BFF7
S11344B048BD000000231846704700BF08B5FFF749
S11344C0D9FF00BF08BD00BF00B585B003900291BD
S11344D001920093019B012B03D0022B03D0002BEC
S11344E002E000BF00E000BF039B002B04D0039B4D
S11344F0009A01990298984700BF05B05DF804FB43
S1134500034B1B785A1CD1B2014A117018467047EC
S11345102412002000B585B001900091144B1B6853
S1134520039302E0039B1B680393039A019B9A4243
S113453002D0039B002BF5D1039A019B9A4212D01F
S11345400B4B1A68019B1A60094A019B1360019B7B
S113455001229A73019B00229A81009A8121019879
S113456000F0D6F900E000BF05B05DF804FB00BF21
S11345701C12002010B584B0019000912B4B1B68D5
S113458003932B4B1C6800E02468019B9C4201D0E0
S1134590002CF9D1002C46D0019800F0EBF9034629
S11345A0002B23D0019B00229A73214B1C6808E046
S11345B0019BA34204D0019A8721204600F03AF8D7
S11345C02468002CF4D1019B9B68002B0ED0019A27
S11345D0009B9A420AD0154A019B1360019B9B6879
S11345E0019A02F10C00002283219847104B1B68AA
S11345F0019A9A4205D10E4B1B681B680C4A136042
S11346000DE00B4B1C6808E02268019B9A4203D121
S1134610019B1B68236002E02468002CF4D1034A48
S1134620039B136000E000BF04B010BD2012002003
S11346301C12002000B587B003900B4601928DF840
S11346400B30039B9B7B03F00103002B26D0039BC1
S11346509B68002B22D0134A039B1360039B022206
S11346609A73039B9B68039A02F10C009DF80B104C
S1134670019A984703460593059B022B06D0059B98
S1134680032B03D09DF80B30832B04D1039903989B
S1134690FFF770FF02E0039B01229A7300BF07B08B
S11346A05DF804FB20120020094B8A221A70094B82
S11346B000221A70074B1A78074B1A70074B002216
S11346C01A60064B1B68064A136000BF704700BFA0
S11346D02412002026120020251200201C12002083
S11346E02012002000B583B00F4B00221A700F4B2C
S11346F01B68019311E0019BDB7B002B0AD0019B1B
S113470001229A73019B0022DA730022822101980C
S1134710FFF790FF019B1B680193019B002BEAD1DB
S113472000BF03B05DF804FBA81300201C12002096
S113473008B53A4B1B78002B6DD0394B1B781946C2
S1134740384A0B465B000B449B0013441A78364BE3
S11347501A70334B1B781946324A0B465B000B44E4
S11347609B00134404331B68304A13602C4B1B78A2
S113477019462C4A0B465B000B449B001344083338
S11347801B682B4A1360264B1B785A1C294B134079
S1134790002B03DA013B63F01F030133DAB2204B31
S11347A01A701E4B1B78013BDAB21C4B1A70204B5B
S11347B01B68002B1ED1204B1B68204A136014E099
S11347C01F4B1B78DBB2002B01D0FFF78BFF1B4B79
S11347D01868154B1978154B1B681A46FFF72AFF02
S11347E0164B1B681B68154A1360144B1B68002B7F
S11347F0E6D110E00C4B1B78812B03D10C4B1B68CA
S113480001229A730A4B1868074B1978074B1B68E7
S11348101A46FFF70FFF00BF08BD00BF2512002096
S11348202612002028120020A9130020AC13002017
S1134830B01300201F0000801C120020B4130020BD
S1134840A813002008B5094B1B78DBB2002B01D05C
S1134850FFF748FFFFF76CFF054B1B781A46034B25
S11348601B78DBB21344184608BD00BFA813002010
S11348702512002084B003900B4601928DF80B3072
S11348801F4B1B78202B01D1012335E01D4B1A78D7
S11348901B4B1B781344DBB203F01F03DAB21A4B31
S11348A01A70194B1B781946184A0B465B000B44C7
S11348B09B0013449DF80B201A70134B1B78194668
S11348C0124A0B465B000B449B0013440433019AC9
S11348D01A600D4B1B7819460C4A0B465B000B44BF
S11348E09B0013440833039A1A60054B1B78013369
S11348F0DAB2034B1A700023184604B0704700BFA5
S11349002512002026120020B813002028120020AF
S113491000B587B003900B4601928DF80B30084B1D
S11349201B6805939DF80B30019A19460398FFF70D
S113493081FE034A059B136000BF07B05DF804FBCA
S11349402012002082B00190019B002B0DD0019B0E
S11349509B7B012B03D0019B9B7B022B05D1019BED
S11349600122DA73024B01221A7000BF02B07047B1
S1134970A813002082B00190019B9B7B002B14BFE5
S113498001230023DBB2184602B0704700B585B09E
S11349900190002303930BE0039B9B00019A1344B3
S11349A01B6800211846FFF7B5FD039B01330393F1
S11349B0039B9B00019A13441B68002BECD100BF9E
S11349C005B05DF804FB00BF00B583B003468DF865
S11349D007309DF807300D2B01D1002324E0144B40
S11349E01B78002B0CD19DF807301946114800F0B4
S11349F0F1FB0346002B13D10D4B01221A700FE07B
S1134A009DF807300A2B0BD19DF807301946094849
S1134A1000F0E0FB0346002B02D0054B00221A7085
S1134A200548FFF78FFF0123184603B05DF804FB28
S1134A3044140020BC1300209400002000B587B06B
S1134A4003900B4601928DF80B3001238DF817303B
S1134A50039B1B88672B1CD0792B50D0002B5CD177
S1134A60FFF74EFD03461A46314B1A70314B0022B4
S1134A701A6000E000BF304800F0DAFB0490049BA9
S1134A80B3F1FF3F0BD100238DF81730039B67224E
S1134A901A809DF81730002BECD1012344E0049BCD
S1134AA00A2B0DD0234B1B687E2BE3DC214B1B68A8
S1134AB05A1C20490A60049AD1B2204AD154D9E739
S1134AC01C4B1B685A1C1B490A601C4A0021D15408
S1134AD0174B1B78194A19460020FFF7CBFE184BD9
S1134AE01B68002285211846FFF7C4FE0346002BED
S1134AF00FD100238DF81730039B79221A809DF87B
S1134B001730002B03D09DF80B30852B01D00123E7
S1134B100AE0084B00221A60ACE700238DF8173036
S1134B20039B00221A800323184607B05DF804FB98
S1134B30DE1C002048140020BC1300204C1400206C
S1134B402012002008B580220449054800F02AFB01
S1134B5000210448FFF7DEFC00BF08BDC413002099
S1134B60BC1300209400002000B583B00190019B89
S1134B705868019B5B881A46002106F0EDFD019BF5
S1134B809868019B1B881A46019B5B8803FB02F310
S1134B901A46002106F0E0FD00BF03B05DF804FBF7
S1134BA082B001900091019B9A68009B9A420ED8B2
S1134BB0019B9B68019A52881146019A128802FB54
S1134BC001F21A44009B9A4201D9012300E0002318
S1134BD0184602B0704700BF00B583B00190009141
S1134BE0019B009A5A6001F025FD0246019B1A6060
S1134BF000BF03B05DF804FB00B585B0019001F07F
S1134C0019FD0246019B1B68D31A01330393019BD0
S1134C105A68039B9A4234BF01230023DBB218462F
S1134C2005B05DF804FB00BF82B00190019B002237
S1134C301A6000BF02B0704782B00190019B1B68EC
S1134C40184602B0704700BF84B00190019B1B68F6
S1134C50002B01D100230BE0019B1B68039302E0AE
S1134C60039B1B680393039B1B68002BF8D1039BD6
S1134C70184604B0704700BF00B585B0019000919C
S1134C800099019800F016F8009B00221A60019820
S1134C90FFF7DAFF0390039B002B03D1019B009ADB
S1134CA01A6002E0039B009A1A6000BF05B05DF829
S1134CB004FB00BF84B001900091019B1B68002B92
S1134CC022D000230293019B1B68039318E0039AEC
S1134CD0009B9A420FD1029B002B04D1039B1A68BC
S1134CE0019B1A6003E0039B1A68029B1A60039BF2
S1134CF000221A6009E0039B0293039B1B68039341
S1134D00039B002BE3D100E000BF04B0704700BF59
S1134D1082B00190019B002B02D0019B1B6800E034
S1134D200023184602B0704700B585B01D4B1B68C0
S1134D30002B03D11C4B00221A602EE001F07AFCF8
S1134D400190184B1B680293029B1A68029B5B68D4
S1134D501A44019BD31A0393029B9B68029314E0A9
S1134D60029B1A68029B5B681A44019BD21A039B3C
S1134D709A4207D2029B1A68029B5B681A44019B01
S1134D80D31A0393029B9B680293029B002BE7D1E7
S1134D90019A039B1344044A136000BF05B05DF8F5
S1134DA004FB00BFCC140020D014002000B589B04F
S1134DB003900B4601928DF80B3001238DF81730C8
S1134DC0039B1B88002B02D0592B09D07FE0454B55
S1134DD000221A6000238DF81730039B59221A8091
S1134DE09DF81730002B01D1012377E09DF80B309B
S1134DF0872B2DD1019B049304E03A4B1B689B68DD
S1134E00384A1360374B1B68002B05D0354B1B68A1
S1134E10DA68049B9A42F0D0324B1B68002B52D0C4
S1134E20304B1B6807930EE0079B9B68DA68049B72
S1134E309A4205D1079B9B689A68079B9A6002E097
S1134E40079B9B680793079B9B68002BECD13AE078
S1134E509DF80B30822B38D100230693214B1B681D
S1134E6007932CE0079B1846FFF7C6FE0346002B6A
S1134E7020D0079BDB68079A88211846FFF7FAFCC5
S1134E800346002B14D1079B0022DA60069B002BFB
S1134E9004D0079B9A68069B9A6003E0079B9B6873
S1134EA0104A1360079B00229A60FFF73DFFD3E787
S1134EB000F01AF8079B0693079B9B680793079BD0
S1134EC0002BCFD186E700BF84E700BF82E7002331
S1134ED08DF81730039B00221A800323184609B06B
S1134EE05DF804FBCC14002008B50248FFF72AFD46
S1134EF000BF08BDA400002000B585B00190FFF7F5
S1134F00F3FF019BDB68002B14D0124B1B68039347
S1134F100DE0039A019B9A4206D10F4B1A68019B3C
S1134F20DA60FFF701FF12E0039B9B680393039B86
S1134F30002BEED1084B1A68019BDA60054B1A6806
S1134F40019B9A60034A019B1360FFF7EDFE05B0D5
S1134F505DF804FBCC1400202012002000B583B0BF
S1134F6001900091019B00991846FFF735FE0198C6
S1134F70FFF7C2FF00BF03B05DF804FB82B00190ED
S1134F80019BDB68002B0CBF01230023DBB2184616
S1134F9002B07047044B1B68002B14BF012300238D
S1134FA0DBB21846704700BFCC14002008B5FFF7E9
S1134FB0F1FF0346002B02D0024B1B6800E00023E4
S1134FC0184608BDD014002000B589B003900B46E4
S1134FD001928DF80B3001238DF81B30039B1B8845
S1134FE0002B02D04A2B1ED056E0314B1B681846CA
S1134FF0FFF722FE07900AE0079B1A1D079B9B6898
S113500019461046FFF7AAFF079B1B680793079BE7
S1135010002BF1D1274B01221A7000238DF81B308D
S1135020039B4A221A809DF81B30002B03D09DF865
S11350300B30882B01D0012335E01D4B1B6818462B
S1135040FFF7FAFD079023E0079B1A1D019B9A4284
S11350501BD1174B1B6807991846FFF72BFE164BFD
S11350601B680593079B5B69134A1360079B9B6945
S1135070002B05D0079B9B69079AD2691046984775
S11350800D4A059B136000BFC7E7079B1B68079386
S1135090079B002BD8D1C0E700238DF81B30039B5E
S11350A000221A800323184609B05DF804FB00BFF0
S11350B0B4000020D81400202012002008B5074BAB
S11350C000221A70064B1B681846FFF7ADFD00213D
S11350D00448FFF71FFA00BF08BD00BFD814002022
S11350E0B4000020B800002000B587B003900291FE
S11350F001920093184B1A68039B5A61039B019A0F
S11351009A61039B009ADA61144B1B78002B0FD031
S1135110114B1B680593104B114A1A60039B04330F
S113512002991846FFF71AFF0B4A059B136002E029
S1135130039B029A9A600B4B1B6803991846FFF76E
S1135140B9FD084B1B6803991846FFF795FD00BF8E
S113515007B05DF804FB00BF20120020D814002023
S1135160B8000020B400002000BF704708B501F06B
S1135170A3FA00BF08BD00BF00B583B00346ADF875
S11351800630BDF80630184606F038FB00BF03B001
S11351905DF804FB08B506F03BFB03469BB21846DA
S11351A008BD00BF84B00390029113468DF8073008
S11351B0039B029A1A609DF80730013BDAB2039B05
S11351C01A71039B00225A71039B00229A7100BF3B
S11351D004B0704782B001900B468DF80330019BF8
S11351E05B791A46019B9B79D31A019A1279134071
S11351F0019A1279934201D1002315E0019B1B68A7
S1135200019A527913449DF803201A70019B5B792B
S11352100133DBB25AB2019B1B795BB213405BB220
S1135220DAB2019B5A710123184602B0704700BFDD
S113523084B00190019B5B791A46019B9B79D31A38
S1135240019A12791340002B17DD019B1B68019A08
S1135250927913441B788DF80F30019B9B790133AD
S1135260DBB25AB2019B1B795BB213405BB2DAB278
S1135270019B9A719DF80F3001E04FF0FF331846FF
S113528004B0704708B5074B1B689847064B5B682A
S11352909847064B5B689847054B5B68984700BF87
S11352A008BD00BF48BD0000BCC400008CC40000A1
S11352B048C4000008B5094B00221A80074B1A881D
S11352C0074B1A80074B30221A70074B1B68303388
S11352D0064A136000F01CF900BF08BDDC1400206E
S11352E0DA140020DE140020C800002094150020E9
S11352F000B585B001900B46ADF80230FFF7DAFF38
S1135300BDF80230802B28BF8023ADF80E30094B46
S11353101B68BDF80E200199184606F0A7F9064A45
S1135320BDF80E301380BDF80E30184605B05DF898
S113533004FB00BF94150020DA14002030B583B0BC
S113534000F0B2F80346002B0FD01B4B1B6803F18F
S1135350300400F0BBF8054600F0BEF803461A46D8
S11353602946204606F082F923E0144B1B88002BC3
S11353701FD000F0B1F8034630330093302301937B
S113538010E00D4B1A68019B13440B4A12680B4939
S113539009880846019901440A4412781A70019B4D
S11353A001330193019A009B9A42EADB034B0022EA
S11353B01A8000BF03B030BDC8000020DC140020F8
S11353C000B583B001900E4B1B781A46019B9A429C
S11353D011DB00F091F803461A46019B1344802B1D
S11353E009DC074B1A78019BDBB2D31ADAB2044BFF
S11353F01A70012300E00023184603B05DF804FB93
S1135400DE14002082B001900D4B1B881A46019BCC
S11354109A4201DA002310E0019B9AB2094B1B88DF
S113542013449AB2074B1A80054B1A88019B9BB20E
S1135430D31A9AB2024B1A800123184602B070475D
S1135440DA140020DC14002000B583B00346ADF864
S11354500630BDF806301946054800F061F9054AE2
S1135460BDF80630138000BF03B05DF804FB00BF35
S113547008C50000DA140020034B1A68034B1B888C
S11354803033134418467047C8000020DC14002051
S1135490034B1B68034A127813441846704700BF35
S11354A0C8000020DE140020064B1B6803F1300204
S11354B0054B1B689A4214BF01230023DBB2184634
S11354C0704700BFC800002094150020014B1B68E2
S11354D01846704794150020014B1B8818467047E6
S11354E0DA140020034B1B78C3F13003DBB21846F7
S11354F0704700BFDE14002010B5FFF7F3FF03462A
S11355009CB2FFF7E9FF034623449BB2184610BD43
S113551000B583B00023019307E0104A019B0021EA
S113552022F81310019B01330193019B172BF4DD27
S1135530002301930AE0019B5B00094A13440949D3
S11355401846FEF74BF9019B01330193019B032B92
S1135550F1DD00BF03B05DF804FB00BFE81C0020D0
S1135560E01C00203CC4000000B583B00190009111
S113557030220199064806F079F8064B009A116822
S1135580526819605A6000BF03B05DF804FB00BFA5
S1135590E81C0020E01C002082B003460A468DF877
S11355A007301346ADF804309DF807300449BDF8C0
S11355B0042021F813200123184602B0704700BFCD
S11355C0E81C002082B003468DF807309DF80730B0
S11355D0024A32F81330184602B07047E81C002023
S11355E000B583B0034600918DF807309DF807306D
S11355F0183B5B00054A134400991846FEF7EEF881
S11356000123184603B05DF804FB00BFE01C002032
S113561082B003468DF807309DF80730183B5B00D5
S1135620024A1344184602B0704700BFE01C002031
S113563082B00190019B1B68184602B0704700BFFE
S113564008B50548FFF790FA0448FFF78DFA0448B7
S1135650FFF78AFA00BF08BDE4000020CC00002058
S1135660D800002000B585B0019001992148FFF7CA
S113567097FA0346002B15D00198FFF7D9FF039042
S1135680039B9A1C039B1B8819461046FFF730FEA8
S1135690039B03F18202039BB23319461046FFF7C2
S11356A063FF23E001991448FFF77AFA0346002BBD
S11356B01CD0019B0293FFF7FDFD029B5A68029BDD
S11356C01B8819461046FFF713FE029B93F83830E7
S11356D01846FFF775FEFFF7DBFE029B03F1080196
S11356E0029B93F838301A4605F0C0FF00BF05B09E
S11356F05DF804FBCC000020D800002000B585B084
S1135700039002910192019B002B03D0019902980E
S113571001F010F80023184605B05DF804FB00BF43
S11357200FB400B583B005AB0093009A0499054803
S113573000F0AAF90190019B184603B05DF804EB50
S113574004B07047F000002000B583B001900198C8
S113575006F0D6F803461946019800F0EBFF0A203C
S113576000F0F6FF0023184603B05DF804FB00BF09
S113577000B583B00190019BDBB2184600F0E8FF4E
S1135780019B184603B05DF804FB00BF84B0019090
S113579000230393019B1B680293029B1B78203B0D
S11357A0102B3ED801A252F823F000BF0558000088
S11357B023580000235800000F580000235800000D
S11357C023580000235800002358000023580000E9
S11357D02358000023580000FB5700002358000002
S11357E0F157000023580000235800001958000006
S11357F0039B43F00103039318E0039B43F0060368
S1135800039313E0039B43F0020303930EE0039B13
S113581043F00803039309E0039B43F0100303934D
S113582004E0019B029A1A60039B03E0029B01338C
S11358300293B2E7184604B0704700BF86B00190E7
S113584000230593019B1B6804930DE0059A1346FE
S11358509B0013445B001A469DF80F301344303B01
S11358600593049B01330493049B1B788DF80F303C
S11358709DF80F302F2B03D99DF80F30392BE5D924
S1135880019B049A1A60059B184606B0704700BF36
S113589010B586B00390CDE90023039B1B680593E4
S11358A01DE0059B013B0593DDE900014FF00A0271
S11358B04FF0000304F0F8FE1C461346DBB230330D
S11358C0DAB2059B1A70DDE900014FF00A024FF0CD
S11358D0000304F0E9FE03460C46CDE90034DDE99B
S11358E000342343DDD1039B1B681A46059BD31A5E
S11358F00493039B059A1A60049B184606B010BDD6
S113590030B488B00390CDE900230A9B03F48043AC
S1135910002B01D0164B00E0164B0693039B1B682B
S1135920079312E0079B013B0793009B03F00F03CF
S1135930069A13441A78079B1A70DDE900231409A8
S113594044EA03741D09CDE90045DDE9002313434E
S1135950E8D1039B1B681A46079BD31A0593039B44
S1135960079A1A60059B184608B030BC704700BF00
S113597024C5000038C5000030B486B00390CDE9DA
S11359800023039B1B68059313E0059B013B0593D0
S11359909DF8003003F00703DBB23033DAB2059B25
S11359A01A70DDE90023D40844EA4374DD08CDE924
S11359B00045DDE900231343E7D1039B1B681A4626
S11359C0059BD31A0493039B059A1A60049B1846FB
S11359D006B030BC704700BF00B585B0019000919F
S11359E00FE0019B1B68019A506810220F499847E9
S11359F00390039B002B01D0039B12E0009B103B00
S1135A000093009B102BECD8009B002B01D10023AA
S1135A1007E0019B1B68019A5068009A0349984764
S1135A200346184605B05DF804FB00BF6CC50000D2
S1135A3000B585B0019000910FE0019B1B68019AAD
S1135A40506810220F4998470390039B002B01D004
S1135A50039B12E0009B103B0093009B102BECD89F
S1135A60009B002B01D1002307E0019B1B68019AD6
S1135A705068009A034998470346184605B05DF8F4
S1135A8004FB00BF7CC5000010B5B4B005900491C0
S1135A90039200233393049B149300F02FBD00233F
S1135AA031934FF0FF333093149B1F9302E0149B08
S1135AB001331493149B1B788DF87B309DF87B3055
S1135AC0002B03D09DF87B30252BF0D1149A1F9B1B
S1135AD09A4218D0059B1B68059A5068149A11467F
S1135AE01F9A8A1A1F9998470346002B03D04FF038
S1135AF0FF3300F009BD149B1A461F9BD31A1A46A4
S1135B00339B13443393149B1B78002B02D1339B98
S1135B1000F0FABC149B01331493149B1B78002BE4
S1135B2002D1339B00F0F0BC14AB1846FFF72EFEF5
S1135B303290149B1B78302B09D9149B1B78392B7A
S1135B4005D814AB1846FFF779FE319017E0149B83
S1135B501B782A2B13D1039B1A1D03921B681D93D8
S1135B601D9B002B06DA329B43F0010332931D9BED
S1135B70319301E01D9B3193149B01331493149BC7
S1135B801B782E2B1DD1149B01331493149B1B786B
S1135B902F2B0AD9149B1B78392B06D814AB184623
S1135BA0FFF74CFE034630930BE0149B1B782A2B23
S1135BB007D1149B01331493039B1A1D03921B6892
S1135BC03093149B1B786C2B13D1149B01331493C7
S1135BD0149B1B786C2B07D1329B43F080033293C8
S1135BE0149B013314931BE0329B43F06003329304
S1135BF016E0149B1B78682B12D1149B0133149369
S1135C00149B1B78682B07D1329B43F020033293FB
S1135C10149B0133149303E0329B43F0400332930B
S1135C20149B1B78782B00F2518101A252F823F0C7
S1135C30C95E0000CD5E0000CD5E0000CD5E0000B8
S1135C40CD5E0000CD5E0000CD5E0000CD5E0000A4
S1135C50CD5E0000CD5E0000CD5E0000CD5E000094
S1135C60CD5E0000CD5E0000CD5E0000CD5E000084
S1135C70CD5E0000CD5E0000CD5E0000CD5E000074
S1135C80CD5E0000CD5E0000CD5E0000CD5E000064
S1135C90CD5E0000CD5E0000CD5E0000CD5E000054
S1135CA0CD5E0000CD5E0000CD5E0000CD5E000044
S1135CB0CD5E0000CD5E0000CD5E0000CD5E000034
S1135CC0CD5E0000BF5E0000CD5E0000CD5E000032
S1135CD0CD5E0000CD5E0000CD5E0000CD5E000014
S1135CE0CD5E0000CD5E0000CD5E0000CD5E000004
