S015000062726F6164636173742D746573742E7333373F
S1130000008000207D6A0000A96A000079360000A3
S11300107D3600008136000085360000A96A0000A4
S1130020A96A0000A96A0000A96A0000A96A000080
S1130030A96A0000A96A0000A96A0000395D0000ED
S113004085870000897D0000012A0000A96A00005C
S1130050A96A0000A96A0000A96A000055670000A7
S1130060A96A0000A96A0000A96A0000AD7D000029
S1130070A96A0000A96A0000A96A0000A96A000030
S1130080A96A0000A96A0000A96A0000A96A000020
S1130090A96A0000A96A0000E9680000A96A0000D2
S11300A0A96A0000A96A0000A96A0000A96A000000
S11300B0A96A0000A96A0000D11B0000D5630000F2
S11300C0A96A0000A96A0000A96A0000A96A0000E0
S11300D0A96A0000A96A0000A96A0000A96A0000D0
S11300E0044B05481B1A062B02D9044B03B11847CD
S11300F0704700BF5F0D00205C0D00200000000071
S113010005490648091A891001EBD171491002D03A
S1130110034B03B1184770475C0D00205C0D0020B1
S11301200000000010B5064C237843B9FFF7D8FF50
S1130130044B13B10448AFF300800123237010BDB6
S1130140000E00200000000018C5000008B5084B90
S11301501BB108480849AFF300800848036813B985
S1130160BDE80840CCE7064B002BF9D09847F7E7E9
S11301700000000018C50000040E0020580D0020E7
S113018000000000134B002B08BF114B9D46A3F544
S1130190803A00218B460F461148124A121A0BF07E
S11301A065F90D4B002B00D098470C4B002B00D069
S11301B098470020002104000D000B480AF0EAFDD6
S11301C00BF0B6F82000290003F05EFA0AF0E8FD0F
S11301D00000080000800020000000000000000073
S11301E0000E00200820002069B0000030B583B064
S11301F001900091009B1B781D46009B5B781C4678
S113020004F0F0FC034605482946224604F03CFE6F
S1130210012002F0F3FE03B030BD00BFA0B900001E
S113022000B587B003900B4601928DF80B30012383
S11302308DF81730039B1B88002B02D02D2B15D073
S113024033E01F4881211F4A03F0CEFB1E4B9B68FD
S11302508120012198471D4B9B68812001219847EB
S113026000238DF81730039B2D221A809DF8173038
S1130270002B01D101231FE0154B1B789DF80B20A7
S11302809A4211D1019B104A93420DD111481C216D
S113029004F0E6FB0A4803F0C7FB0F4804F008FE2D
S11302A0022002F0ABFEDBE7DAE700238DF817301B
S11302B0039B00221A800323184607B05DF804FB51
S11302C01C0E002020BA000040C0000028C000001E
S11302D0AC1C0020E4B9000004BA000084B0019012
S11302E0002303930BE00B4A039B52F82320019B4A
S11302F09A4201D1039B09E0039B01330393064B0C
S11303001B781A46039B9A42EDDC039B184604B003
S1130310704700BF78000020340E002000B583B081
S113032001900198FFF7DAFF0346064AD25C62F0B7
S11303307F02D1B2034AD154034803F03BFF03B018
S11303405DF804FBCC1C00201000002000B587B031
S113035003900B4601928DF80B3001238DF8173072
S1130360039B1B88772B33D07E2B5AD0002B40F075
S1130370858003F0FFFC03461A46464B1A70464B31
S113038000221A6012E0444B1B68444A0021D154F5
S1130390414B1B68424A52F823309B68802000215D
S11303A098473D4B1B6801333B4A13603A4B1B682B
S11303B03B4A52F82330002BE5D1374B1B68DAB2A5
S11303C0384B1A7000238DF81730039B77221A805C
S11303D09DF81730002B01D1012356E0324B002247
S11303E01A602D4B00221A603CE02B4B1B682B4AF1
S11303F0D35CDBB25BB2002B2FDA264B1978264B89
S11304001B68274A52F8233000201A4603F06CFE7A
S11304100346002B11D100238DF81730039B7E2255
S11304201A809DF81730002B05D01A4B1B789DF8C5
S11304300B209A4201D0012327E0174B1B68164A70
S1130440126816498A5C02F07F02D1B2134AD15471
S1130450154B1B680133144A13600F4B1B6801339F
S11304600D4A13600F4B1B781A460B4B1B689A42BC
S1130470BBDC0D4B1B68002BB0D1A3E700238DF828
S11304801730039B00221A800323184607B05DF837
S113049004FB00BFAC1C0020380E0020CC1C002044
S11304A078000020340E00203C0E002082B00B495E
S11304B0896C01910949C96C08464FF00001030099
S11304C00022019908464FF0000142EA000243EA83
S11304D001031046194602B0704700BFA881E00F1F
S11304E008B5084A084B9B6C1360084A064BDB6C42
S11304F01360FFF7DBFF02460B4692B2044B1A80EF
S113050008BD00BFB01C0020A881E00FB41C00206F
S1130510400E002008B502F033F900F0B9FA0A20C1
S113052002F01EFA00F0BAFA642002F019FA00F0A0
S1130530E7FB02F0F7F908BD00B585B0019001238F
S11305408DF8083002AA02AB01201146082200F0FF
S1130550DDFB019B002B25D09DF80820019B1A7020
S11305609DF809301B029AB29DF80A309BB21344DD
S11305709AB2019B5A809DF80B20019B1A719DF839
S11305800C301B029AB29DF80D309BB213449AB200
S1130590019BDA809DF80E20019B1A729DF80F20B2
S11305A0019B5A7205B05DF804FB00BF00B585B02D
S11305B003468DF807300B468DF806301346ADF828
S11305C0043031238DF808309DF807308DF8093058
S11305D09DF806308DF80A30BDF804301B0A9BB232
S11305E0DBB28DF80B30BDF80430DBB28DF80C3083
S11305F000238DF80D3000238DF80E3002AB072058
S1130600194600F0F9FA05B05DF804FB10B584B0A2
S11306100446084611461A4623468DF80730034619
S11306208DF806300B46ADF8043013468DF80330D0
S113063032238DF808309DF807308DF809309DF885
S113064006308DF80A30BDF804301B0A9BB2DBB2C9
S11306508DF80B30BDF80430DBB28DF80C309DF80A
S113066003308DF80D309DF818308DF80E309DF85C
S11306701C308DF80F3002AB0820194600F0BCFA8C
S113068004B010BD00B585B0009303468DF8073063
S11306900B468DF8063013468DF8053020238DF86F
S11306A008309DF807308DF809309DF806308DF834
S11306B00A309DF805308DF80B3002AA02AB0420F5
S11306C01146082200F022FB009B002B1FD09DF84E
S11306D00820009B1A709DF80920009B5A709DF811
S11306E00A20009B9A709DF80B20009BDA709DF8FD
S11306F00C20009B1A719DF80D20009B5A719DF8E7
S11307000E20009B9A719DF80F20009BDA7105B0B2
S11307105DF804FB00B585B0034600918DF8073001
S113072015238DF80C309DF807308DF80D3003AA91
S113073003AB02201146022200F0E8FA009B002BD2
S113074007D09DF80C20009B1A709DF80D20009B8B
S11307505A7005B05DF804FB00B583B00346009100
S11307608DF807309DF80730662000211A46009B5B
S113077000F090FA03B05DF804FB00BF00B583B04D
S1130780034600918DF807309DF80730772000214B
S11307901A46009B00F050FA03B05DF804FB00BF5A
S11307A000B585B0019033238DF80C3003AA03AB58
S11307B001201146022200F0A9FA019B002B07D068
S11307C09DF80C20019B1A709DF80D20019B5A7016
S11307D005B05DF804FB00BF84B001900091019B5B
S11307E003F10473DA00009B13449B000393039BFF
S11307F01B68184604B0704782B001900091074806
S1130800064BD3F82421009BDB431A400199009B3B
S11308100B401343C0F8243102B07047006000401D
S113082000B583B0034600918DF807309DF807307A
S1130830002B12D09DF80730012B0ED09DF8073005
S1130840022B0AD09DF80730032B06D09DF8073001
S1130850042B02D09DF80730052B9DF80720134682
S1130860DB0013449B001C3303F1804303F5C043B6
S113087018460099FFF7B0FF0346184603B05DF829
S113088004FB00BF82B0034600918DF807309DF849
S11308900730002B12D09DF80730012B0ED09DF8A5
S11308A00730022B0AD09DF80730032B06D09DF8A1
S11308B00730042B02D09DF80730052B08499DF81A
S11308C00720009B012000FA03F318461346DB00BF
S11308D013449B000B441033586002B0704700BFB0
S11308E00060004082B0034600918DF807309DF807
S11308F00730002B12D09DF80730012B0ED09DF845
S11309000730022B0AD09DF80730032B06D09DF840
S11309100730042B02D09DF80730052B08499DF8B9
S11309200720009B012000FA03F318461346DB005E
S113093013449B000B441033186002B0704700BF8F
S11309400060004010B584B0029111461A46034677
S11309508DF80F300B468DF80E3013468DF80D30A0
S11309609DF80F209DF80E409DF80D3000939DF8E2
S11309701830019310460299029A234607F05CFC52
S113098004B010BD00B585B003900B468DF80B3054
S1130990042009210422012307F0C0FC04200821BB
S11309A00422002307F0BAFC04200D2102220123B3
S11309B007F0B4FC9DF80B30002B3ED028480121F1
S11309C008F06AFD00200F210122002307F0A6FC95
S11309D004200E210122002307F0A0FC00200021A6
S11309E00422002307F09AFC0020012104220023A2
S11309F007F094FC0023009300200F210022002321
S1130A00FFF7A0FF0023009304200E2100220023FF
S1130A10FFF798FF00204FF44411072208F0B4F9BF
S1130A2001204FF44411062208F0AEF90D4B0322C5
S1130A309A6002200221FFF7DFFE039B002B0BD0FC
S1130A400D20039907F062F90123009304200D217E
S1130A5000220123FFF776FF05B05DF804FB00BF19
S1130A6000F2040000C00C4008B5064B064A9A6028
S1130A70044B0122DA75054B1B681846014900F046
S1130A80F5F908BD2400002000127A00200000209F
S1130A9008B504200821FFF725FF08BD08B5042088
S1130AA00821FFF7EFFE08BD08B504200921FFF770
S1130AB0E9FE08BD08B504200921FFF713FF08BDAE
S1130AC008B504200D21FFF7ABFE0346DBB2184640
S1130AD008BD00BF00B583B003468DF80730064B50
S1130AE01A680DF1070310461946012200F020FB95
S1130AF003B05DF804FB00BF2000002000B583B004
S1130B000190054B1B6818460199012200F0E6FA92
S1130B1003B05DF804FB00BF2000002000B583B0E3
S1130B20034600918DF80730054B1A689DF807308D
S1130B30104600991A4600F0FBFA03B05DF804FB76
S1130B402000002000B583B0034600918DF80730E3
S1130B50054B1A689DF80730104600991A4600F0B4
S1130B60BDFA03B05DF804FB2000002000B585B099
S1130B70034600918DF8073042F21073ADF80E3041
S1130B8000238DF80D3020E0FFF78EFF4420FFF79F
S1130B90A1FF03AB1846FFF7B1FF9DF80C30FF2B04
S1130BA00CD19DF80730002B05D09DF8073018466E
S1130BB00099FFF7C7FFFFF77DFF0AE0FFF77AFF11
S1130BC0BDF80E30013BADF80E30BDF80E30002BF1
S1130BD0DAD19DF80C30FF2B06D1064B01221A7096
S1130BE09DF80C308DF80D309DF80D30184605B089
S1130BF05DF804FB9C0E002000B583B00346009111
S1130C008DF8073001E000F073F80A4B1B78002BD5
S1130C10F9D0FFF749FF9DF8073018460099FFF710
S1130C207DFFFFF747FF034B00221A7003B05DF806
S1130C3004FB00BF9C0E002000B583B00093034664
S1130C408DF807300B468DF8063013468DF80530C5
S1130C509DF80630002B06D001E000F049F80C4B5B
S1130C601B78002BF9D0FFF71FFF9DF807301846BB
S1130C70FFF730FF9DF8053018460099FFF762FF33
S1130C80FFF718FF024B00221A7003B05DF804FB53
S1130C909C0E002000B583B0009303468DF8073006
S1130CA00B468DF8063013468DF805309DF8063056
S1130CB0002B06D001E000F01BF80C4B1B78002B36
S1130CC0F9D0FFF7F1FE9DF807301846FFF702FF51
S1130CD09DF8053018460099FFF720FFFFF7EAFE5C
S1130CE0024B00221A7003B05DF804FB9C0E002036
S1130CF008B500200021FFF739FF0346184608BD58
S1130D00014B00221A7070479C0E002000B585B07C
S1130D100291019303468DF80F3013468DF80E307F
S1130D209DF80F3018460299FFF766FF9DF80E30C4
S1130D3018460199FFF71AFF0346184605B05DF8F7
S1130D4004FB00BF00B58DB0019073E0019B5A1CF9
S1130D5001921B788DF82E309DF82E30102B1DD962
S1130D60019B1B78662B17D19DF82E30802B01D95F
S1130D70042364E0019B013301939DF82E30013B71
S1130D80DBB21846019900F05FF89DF82E30013B64
S1130D90019A134401934DE0042350E000238DF89D
S1130DA02F300FE09DF82F30019A12780CA90B44D4
S1130DB003F8142C019B013301939DF82F30013368
S1130DC08DF82F309DF82F209DF82E309A42E9D3CC
S1130DD09DF82E1007AA0DF10B03084611460122B7
S1130DE0FFF794FF0346FF2B01D0022327E09DF871
S1130DF01C30192B0BD19DF80C30012B01D104238D
S1130E001DE09DF80C30022B01D1042317E0FFF7FD
S1130E1057FE0346002B0DD103AB00200021002216
S1130E20FFF730FC9DF8123003F00803002B01D0CB
S1130E30042304E0019B1B78002B87D10023184670
S1130E400DB05DF804FB00BF00B583B0034600910C
S1130E508DF807309DF80730662001211A46009B63
S1130E60FFF718FF03B05DF804FB00BF30B58BB08B
S1130E7001900091884B02AC1D460FCD0FC495E83C
S1130E80030084E80300019B002B01D1834B00E1A4
S1130E90009B002B01D1824BFBE0019800215822DA
S1130EA00AF0E4FA009B1B687E4A93420AD1019B34
S1130EB07D4ADA64019B7D4A5A62019B4FF45022B9
S1130EC09A6221E0009B1B68794A93420AD1019BF4
S1130ED0784ADA64019B784A5A62019B4FF4602293
S1130EE09A6211E0009B1B68744A93420AD1019BE9
S1130EF0734ADA64019B734A5A62019B4FF440229D
S1130F009A6201E0664BC4E0019A009B14461D46B8
S1130F100FCD0FC495E8070084E80700009B5B7DB4
S1130F20012B02D101238DF81630009B9B7D002BF1
S1130F3003D10023ADF818301CE0009B9B7D012BEE
S1130F4004D14FF40073ADF8183013E0009B9B7D7F
S1130F50022B04D14FF48073ADF818300AE0009BE3
S1130F609B7D032B04D14FF44073ADF8183001E09E
S1130F704B4B8EE0009B1B7D012B06D100238DF88B
S1130F8015304FF47A73049302E0009B9B6804933A
S1130F904D48012108F080FA4C48012108F07CFA00
S1130FA0019BDB6C1846012108F076FA009B1A6855
S1130FB002AB1046194606F0AFFD009B1B7D002BCB
S1130FC00BD1009BDB7D002B07D1009B1B68009A93
S1130FD01268126842F480321A60009BDB7D002B99
S1130FE008D1009B1B68009A1279120242F00F028A
S1130FF05A6507E0009B1B68009A1279120242F0BE
S11310000B025A650198012100F0CAF80990099B66
S1131010002B01D0099B3CE009F0CCF808902C4B44
S11310201B7883F00103DBB2002B08D0284B01228C
S11310301A70089809F0CAF800F046FD02E0089812
S113104009F0C4F8009B1B7D012B09D1019B54338B
S1131050184600F0F3FC0346002B01D01D4B18E0AA
S113106001F098F8019B1C331846002101F038F870
S11310700346002B01D0184B0BE0019B203318468C
S1131080002101F02DF80346002B01D0124B00E0A3
S1131090002318460BB030BD38BA0000012000F020
S11310A0022000F000C400400012040001000D0002
S11310B000C800400022040001000E0000C00040EF
S11310C00002040001000C004081040000D204006E
S11310D09D0E0020042000F0092000F000B587B028
S11310E0039002910192039B1B7D012B01D10E4BB6
S11310F015E003980299019A00F0E2FB0590059B24
S1131100002B01D0059B0AE003980299019A074B32
S113111000F00CFB039800F009FC039B5B6C184681
S113112007B05DF804FB00BF082000F08511000043
S113113000B587B0039002910192039B1B7D012BA4
S113114001D10E4B15E003980299019A00F0B8FB07
S11311500590059B002B01D0059B0AE0039802999A
S1131160019A074B00F048FB039800F0DFFB039B58
S11311705B6C184607B05DF804FB00BF082000F064
S11311808511000084B0039002910192039B029A9E
S11311905A64039B012283F8502004B0704700BFB7
S11311A000B58BB001900B468DF80330019B1B7981
S11311B00393019B1B689D4A934240F09B80039BD1
S11311C0002B0CD0039B012B07D0039B022B01D1D6
S11311D0032306E04FF0FF3303E0032301E04FF065
S11311E0FF330693039B002B0CD0039B012B07D0EA
S11311F0039B022B01D1032306E04FF0FF3303E0EE
S1131200032301E04FF0FF330593039B002B0CD025
S1131210039B012B07D0039B022B01D1052306E07E
S11312204FF0FF3303E0032301E04FF0FF33049357
S1131230039B002B0CD0039B012B07D0039B022B99
S113124001D1052306E04FF0FF3303E0032301E05F
S11312504FF0FF33019AD363039B002B0CD0039B05
S1131260012B07D0039B022B01D1072306E04FF08B
S1131270FF3303E0002301E04FF0FF330993039BA6
S1131280002B0CD0039B012B07D0039B022B01D115
S1131290062306E04FF0FF3303E0012301E04FF0A3
S11312A0FF330893039B002B0CD0039B012B07D027
S11312B0039B022B01D1002306E04FF0FF3303E030
S11312C0022301E04FF0FF330793039B002B0CD064
S11312D0039B012B07D0039B022B01D1012306E0C2
S11312E04FF0FF3303E0032301E04FF0FF33019A93
S11312F0136425E1019B1B684D4A934272D1039B01
S1131300002B07D0039B012B01D1012304E04FF0F4
S1131310FF3301E04FF0FF330693039B002B07D00C
S1131320039B012B01D1012304E04FF0FF3301E0C3
S11313304FF0FF330593039B002B07D0039B012B36
S113134001D1012304E04FF0FF3301E04FF0FF33FC
S11313500493039B002B07D0039B012B01D1012392
S113136004E04FF0FF3301E04FF0FF33019AD36301
S1131370039B002B07D0039B012B01D1032304E023
S11313804FF0FF3301E04FF0FF330993039B002B31
S113139007D0039B012B01D1042304E04FF0FF335A
S11313A001E04FF0FF330893039B002B07D0039B0E
S11313B0012B01D1052304E04FF0FF3301E04FF08E
S11313C0FF330793039B002B07D0039B012B01D111
S11313D0062304E04FF0FF3301E04FF0FF33019A9E
S11313E01364ADE0019B1B68124A934240F0A6804F
S11313F0039B002B20D0039B012B13D0039B022BB8
S11314000DD0039B032B07D0039B042B01D1012395
S113141013E04FF0FF3310E04FF0FF330DE04FF0D7
S1131420FF330AE04FF0FF3307E000BF00C4004081
S113143000C8004000C0004004230693039B002B17
S113144019D0039B012B13D0039B022B0DD0039BBC
S1131450032B07D0039B042B01D101230CE04FF095
S1131460FF3309E04FF0FF3306E04FF0FF3303E0B2
S11314704FF0FF3300E004230593039B002B01D1BD
S1131480042301E04FF0FF330493039B002B01D1AD
S1131490042201E04FF0FF32019BDA63039B002B2F
S11314A019D0039B012B13D0039B022B0DD0039B5C
S11314B0032B07D0039B042B01D107230CE04FF02F
S11314C0FF3309E04FF0FF3306E04FF0FF3303E052
S11314D04FF0FF3300E00A230993039B002B19D03C
S11314E0039B012B13D0039B022B0DD0039B032BD7
S11314F007D0039B042B01D108230CE04FF0FF33EA
S113150009E04FF0FF3306E04FF0FF3303E04FF004
S1131510FF3300E00B230893039B002B01D10C2322
S113152001E04FF0FF330793039B002B01D10D2201
S113153001E04FF0FF32019B1A6401E0624BBFE00F
S11315409DF80330002B7ED0019B1B7D002B3DD1E9
S1131550069BDAB2099B104619460422002306F0C2
S1131560DDFE059BDAB2089B1046194602220023D1
S113157006F0D4FE019B9B7D002B03D0019B9B7D39
S1131580012B09D1049BDAB2079B104619460422A9
S1131590002306F0C3FE08E0049BDAB2079B104662
S11315A019460422012306F0B9FE019BDB7D002BC2
S11315B040F08580019BDB6BDAB2019B1B6C10460B
S11315C019460422012306F0A9FE78E0069BDAB24C
S11315D0099B104619460222002306F09FFE059B34
S11315E0DAB2089B104619460422002306F096FE40
S11315F0019B9B7D002B03D0019B9B7D012B09D17B
S1131600049BDAB2079B104619460222002306F017
S113161085FE08E0049BDAB2079B104619460222B5
S1131620012306F07BFE019BDB7D002B47D1019B50
S1131630DB6BDAB2019B1B6C1046194602220123B4
S113164006F06CFE3BE0069BDAB2099B1046194695
S11316500222002306F062FE059BDAB2089B1046C4
S113166019460222002306F059FE019B9B7D002BA4
S113167003D0019B9B7D012B09D1049BDAB2079B0C
S1131680104619460222002306F048FE08E0049B97
S1131690DAB2079B104619460222012306F03EFEE9
S11316A0019BDB7D002B0AD1019BDB6BDAB2019B32
S11316B01B6C104619460022002306F02FFE00235F
S11316C018460BB05DF804FB022000F000B587B0AB
S11316D003900291019208F06DFD0590019B049323
S11316E0049B00225A64049B002283F84820049B34
S11316F000229A63049B1B7D012B04D1049B5B6D28
S1131700184600F02FFA049BDB6A002B06D0049BDA
S1131710DB6A049A526B049800219847059808F0F4
S113172055FD0123184607B05DF804FB10B58EB0D3
S11317300990089107920693099B002283F8502090
S1131740099B079A5A63099B1B684FF44062DA604D
S1131750099B069ADA62099BDB68082B03D90123EB
S11317608DF82F3002E000238DF82F30099BDB68C1
S1131770082B08D9099B1B6824330D93099B1B680C
S11317803C330C9307E0099B1B681C330D93099BA6
S11317901B6834330C93099B196A099B9A6A0123C9
S11317A00093079B01939DF82F300293114B0393F1
S11317B0099B049308461146089A0D9B00F050FDBE
S11317C0099BD969099B5A6A099B03F110040023F8
S11317D00093079B01939DF82F30029300230393FA
S11317E000230493084611460C9A234600F014FD86
S11317F00EB010BDCD16000000B58FB00990089151
S113180007920693099B002283F85020099B079AAC
S11318105A63099B1B684FF44062DA60099B069A7D
S1131820DA62099BDB68082B03D901238DF82F307A
S113183002E000238DF82F30099BDB68082B08D9C0
S1131840099B1B6824330D93099B1B683C330C9341
S113185007E0099B1B681C330D93099B1B683433F9
S11318600C93099B186A099B996A099B03F130023E
S113187000230093079B01939DF82F3002930F4B95
S11318800393099B04930D9B00F0EAFC099BD9691F
S1131890099B5A6A01230093079B01939DF82F30FB
S11318A002930023039300230493084611460C9AE1
S11318B0089B00F0B1FC0FB05DF804FBCD160000EE
S11318C000B587B0039002910192039B002B01D1D4
S11318D0134B21E0029B002B06D0019B002B03D06D
S11318E0019BB3F5806F01DD0E4B15E008F062FC3F
S11318F00590039B93F84830DBB2002B04D0059885
S113190008F064FC084B07E0039B012283F848209D
S1131910059808F05BFC0023184607B05DF804FB4B
S1131920012000F0022000F0032000F000B583B095
S11319300190002008F052FC0346002B0CD001E07B
S113194006F020FF019B93F85030DBB283F00103D3
S1131950DBB2002BF4D109E000BF019B93F85030B7
S1131960DBB283F00103DBB2002BF6D103B05DF8E8
S113197004FB00BF82B003468DF8073007499DF988
S113198007305B099DF8072002F01F02012000FACE
S113199002F241F8232002B0704700BF00E100E0EA
S11319A082B003468DF8073007499DF907305B097B
S11319B09DF8072002F01F02012000FA02F26033B2
S11319C041F8232002B0704700E100E0014B5B685E
S11319D0184670470000084082B00190024A019BFB
S11319E0936102B0704700BF0000084082B00190CC
S11319F00449044BDA69019BDB431340CB6102B019
S1131A00704700BF0000084082B001900349034BB7
S1131A10DA69019B1343CB6102B0704700000840B0
S1131A2082B0054BDB690193034B1A69019B134098
S1131A30184602B0704700BF0000084000B587B0E8
S1131A400190002305930023049308F0B3FB039053
S1131A5002E0059B01330593059B032B0ADC174920
S1131A60059A13469B001344DB000B4418339B79FF
S1131A70002BEED1059B042B02D1114B049314E0EF
S1131A80019B002B0FD00D49059A13469B0013446C
S1131A90DB000B44183301229A71059A019B1A60EA
S1131AA00023049301E0074B0493039808F08EFB92
S1131AB0049B184607B05DF804FB00BFA00E00208D
S1131AC0011000F0041000F008B51D4B1B78002B2A
S1131AD001D0002332E01A4B01221A701948012167
S1131AE007F0DAFC1848022107F0B8FE174808216D
S1131AF007F0E2FB1548012107F0CEFC144808F07A
S1131B000BFB0720FFF772FF0720FFF765FF08F0C4
S1131B1025FB1E20FFF744FF1E20FFF72BFF0D4877
S1131B200021A02209F0A2FC0B4B00221A700B4BDF
S1131B3000221A700A4B00221A600023184608BDBE
S1131B404A0F00200043020002001A006016100031
S1131B5050BA0000A00E0020480F0020490F0020BA
S1131B60440F002000B585B00190019B032B01D9DF
S1131B70144B23E008F01EFB03901349019A13460B
S1131B809B001344DB000B4418339B7983F001035F
S1131B90DBB2002B04D0039808F018FB0B4B0DE0CC
S1131BA00949019A13469B001344DB000B44183384
S1131BB000221A71039808F009FB0023184605B0A7
S1131BC05DF804FB021000F0A00E0020031000F0EA
S1131BD000B587B008F0EEFA0490FFF721FF0390F8
S1131BE0039B23F003031846FFF7F6FE039B03F061
S1131BF00203002B39D0204B01221A70FFF7E6FEB6
S1131C0005900220FFF7F2FE059B1A021B4B1B688E
S1131C101B02D31A1B0A0293029800F033F800F057
S1131C2083F9059800F0B0F9FFF7D0FE0590059B05
S1131C301A02124B1B681B02D31A1B0A02930020C0
S1131C4008F01CFA03461A020C4B1B681B02D31A39
S1131C501B0A01930A4B1B78002B03D0029A019BA9
S1131C609A42CED8044B00221A70049808F0AEFAB7
S1131C7007B05DF804FB00BF480F0020400F0020B0
S1131C80490F002010B485B001900023039341E173
S1131C90A449039A13469B001344DB000B441833F6
S1131CA000225A719F49039A13469B001344DB0098
S1131CB00B4418331B79002B00F029819949039AAE
S1131CC013469B001344DB000B44D3E90023019922
S1131CD008464FF00001994208BF904219D2914939
S1131CE0039A13469B001344DB000B44D3E9000121
S1131CF0019B1A464FF00003801A61EB0301894CE3
S1131D00039A13469B001344DB002344C3E90001F8
S1131D10FDE08449039A13469B001344DB000B4403
S1131D201833DB79002B0AD17E49039A13469B00B2
S1131D301344DB000B44183300221A71D2E07949B2
S1131D40039A13469B001344DB000B440833D3E986
S1131D500001019B1A464FF00003801A61EB030156
S1131D60704C039A13469B001344DB002344D3E9CD
S1131D700023801841EB03016A4C039A13469B002D
S1131D801344DB002344C3E900016649039A134664
S1131D909B001344DB000B4410331B68002B50DD05
S1131DA06049039A13469B001344DB000B44103331
S1131DB059685C48039A13469B001344DB000344B0
S1131DC010331B6819445748039A13469B00134465
S1131DD0DB000344103359605249039A13469B00B5
S1131DE01344DB000B4410335B68F32B7AD94D4961
S1131DF0039A13469B001344DB000B44D3E90023EE
S1131E00501C43F10001474C039A13469B001344B2
S1131E10DB002344C3E900014249039A13469B00B3
S1131E201344DB000B4410335B68A3F1F4013D4819
S1131E30039A13469B001344DB0003441033596098
S1131E4050E03849039A13469B001344DB000B44CB
S1131E50103359683348039A13469B001344DB003C
S1131E60034410331B68C91A2E48039A13469B0077
S1131E701344DB000344103359602A49039A134680
S1131E809B001344DB000B4410335B68F32B29D90C
S1131E902449039A13469B001344DB000B44D3E903
S1131EA0002312F1FF3043F1FF311E4C039A134615
S1131EB09B001344DB002344C3E900011949039A3E
S1131EC013469B001344DB000B4410335B68A3F1FF
S1131ED0F4011448039A13469B001344DB000344A3
S1131EE0103359600F49039A13469B001344DB00D7
S1131EF00B4418331B68002B09D00A49039A134674
S1131F009B001344DB000B44183301225A71039BDA
S1131F1001330393039B032B7FF7BAAE05B05DF83F
S1131F20044B7047A00E002010B582B0002301932B
S1131F3022E01449019A13469B001344DB000B442E
S1131F4018335B79002B14D00E49019A13469B0079
S1131F501344DB000B4418331C6801980949019AA7
S1131F6013469B001344DB000B4420331B681946C3
S1131F70A047019B01330193019B032BD9DD02B0E0
S1131F8010BD00BFA00E002000B58BB001904FF033
S1131F90FF324FF0FF33CDE906230023099327E0F6
S1131FA03749099A13469B001344DB000B4418334A
S1131FB01B79002B19D03249099A13469B0013440C
S1131FC0DB000B44D3E90001DDE90623994208BF95
S1131FD090420AD22A49099A13469B001344DB0013
S1131FE00B44D3E90023CDE90623099B013309936C
S1131FF0099B032BD4DD234B00221A70DDE9062351
S1132000B3F1FF3F08BFB2F1FF3F35D0DDE906234E
S1132010CDE904231C4B0393039B1A464FF00003A2
S1132020DDE90401994208BF904201D202460B4601
S1132030CDE90623154B1B7883F00103DBB2002B9B
S113204005D0019B23F07F43114A136002E0104A3C
S1132050019B13600220FFF7BFFC069A019B134407
S113206023F07F430020194608F022F8054B012293
S11320701A700220FFF7C8FC0BB05DF804FB00BF28
S1132080A00E0020490F00209BFFFF00480F0020F6
S1132090400F002082B0034600918DF807309DF96F
S11320A00730002B0CDA0C499DF8073003F00F03BE
S11320B0043B009AD2B25201D2B20B441A7609E020
S11320C006499DF90730009AD2B25201D2B20B44AC
S11320D083F8002302B0704700ED00E000E100E067
S11320E000B585B001900091254B1B7883F0010366
S11320F0DBB2002B01D0234B3DE0019B002B01D12F
S1132100214B38E008F056F80290002303932BE0AB
S11321101E49039A13469B0013449B000B4410333F
S11321201B7883F00103DBB2002B1AD0039A019BC6
S11321301A601649039A13469B0013449B000B44F0
S1132140103301221A701149039A13469B00134459
S11321509B000B4400221A60029808F037F8002311
S113216009E0039B01330393039B0B2BD0DD0298FF
S113217008F02CF8064B184605B05DF804FB00BFC8
S11321804B0F0020028000F0018000F04C0F002073
S1132190048000F000B585B008F00CF802901A4BEA
S11321A01B78002B04D0029808F010F8174B26E097
S11321B0154B01221A70029808F008F800230393C3
S11321C00CE01349039A13469B0013449B000B44F1
S11321D0103300221A70039B01330393039B0B2BD0
S11321E0EFDD00200421FFF755FF00238DF80030B8
S11321F0084B01936B46184606F0FEFB0023184675
S113220005B05DF804FB00BF4B0F0020038000F015
S11322104C0F0020001E002000B58DB00B900A91D9
S113222009920893099B0093089B0193002302934E
S11322309DF8383003930F9B04939DF84030059329
S1132240119B0693129B0793002000210B9A0A9B73
S113225000F09CF8034618460DB05DF804FB00BF7F
S113226000B58DB00B900A9109920893099B0093D5
S1132270089B0193002302939DF8383003930F9B2E
S113228004939DF840300593119B0693129B07938A
S1132290002001210B9A0A9B00F078F803461846A7
S11322A00DB05DF804FB00BF00B587B003900B468A
S11322B001928DF80B30039A13469B0013449B0044
S11322C00B4A13440593059B1B68002B0CD0059BFC
S11322D09B685A1C059B9A60059B1B68059A91682C
S11322E0059A52680398984707B05DF804FB00BF4D
S11322F04C0F002000B58BB007900B4605928DF86B
S11323001B3001238DF82730079A13469B00134492
S11323109B001D4A13440893089B1B68002B1DD087
S1132320089B9B685A1C089B9A60089B1B68089A28
S11323309168089A5268079898470346002B14BF7F
S113234001230023DBB283F00103DBB28DF82730D5
S11323509DF8273003F001038DF82730089BDB68D4
S1132360013B19469DF81B200023009301919DF821
S113237027300293002011460022002306F064FB5C
S11323800BB05DF804FB00BF4C0F002000B58FB00C
S11323900692059303468DF81F300B468DF81E30C8
S11323A08F4B1B7883F00103DBB2002B01D08D4BE4
S11323B012E1069B0B2B10D8109B002B0DD0119B08
S11323C0002B0AD0149BB3F5806F06DC9DF81F30F8
S11323D0012B04D1129B002B01D1834BFCE0069A04
S11323E013469B0013449B00804A13440D930D9B9A
S11323F01B7C83F00103DBB2002B01D07C4BEBE0B0
S11324009DF81F30002B09D17A49069A13465B00C8
S113241013449B000B44784A1A6008E07549069AF5
S113242013465B0013449B000B44744A1A607149C1
S1132430069A13465B0013449B000B4400225A6027
S113244000238DF82830169B002B03D19DF81F30F4
S1132450012B03D101238DF8293002E000238DF8EC
S11324602930059B0B93069A13465B0013449B008B
S1132470604A13440C930AAB0698194606F040FAD6
S11324809DF81E30002B1ED19DF84C30002B13D02C
S11324909DF85430002B03D100238DF821300EE039
S11324A09DF85430012B03D101238DF8213006E02F
S11324B002238DF8213002E003238DF82130032319
S11324C08DF820301DE09DF84C30002B13D09DF882
S11324D05430002B03D100238DF820300EE09DF8FA
S11324E05430012B03D101238DF8203006E0022360
S11324F08DF8203002E003238DF8203003238DF87B
S113250021309DF854308DF8223000238DF823308B
S113251000238DF8243008AB069801211A4606F0F2
S113252037FA9DF81F30012B05D108AB069800211E
S11325301A4606F02DFA0D9B169A1A600D9B179AEF
S11325405A600D9B00229A600D9B149ADA602C4A03
S1132550069B012101FA03F3194602F5805308335F
S113256019609DF81F30002B0CD1149B013B1A46B7
S1132570119B00930192069801210022109B06F002
S11325806DF928E09DF81E30002B12D1149B013BFD
S11325901946149B013B1A460091109B0193129B10
S11325A00293039206980021109A119B06F07AF97F
S11325B011E0149B013B1946149B013B1A46009100
S11325C0119B0193129B0293039206980021109A87
S11325D0129B06F067F9002318460FB05DF804FB60
S11325E04B0F0020028000F0018000F04C0F00200F
S11325F0078000F03C100020A9220000F522000012
S113260000200C4082B003468DF8073007499DF93D
S113261007305B099DF8072002F01F02012000FA31
S113262002F241F8232002B0704700BF00E100E04D
S113263082B003468DF8073007499DF907305B09DE
S11326409DF8072002F01F02012000FA02F2203355
S113265041F8232002B0704700E100E082B0034655
S11326608DF8073007499DF907305B099DF807206D
S113267002F01F02012000FA02F2603341F8232025
S113268002B0704700E100E0034A034B1B6923F0EA
S11326900403136130BF704700ED00E084B0039081
S11326A002910192039A029B03331B011344019A82
S11326B05A6004B0704700BF82B00190019B5B6A0E
S11326C0184602B0704700BF82B001900B468DF8E7
S11326D00330019B0E4A93420BD0019B0D4A934257
S11326E007D0019B0C4A934203D0019B0B4A9342AF
S11326F000D100BF9DF80330002B03D0019B0122C1
S11327005A6002E0019B02225A6002B0704700BF87
S1132710000001400004014000080140000C014099
S113272082B001900091019B009A9A6102B07047B7
S113273082B001900091019BDA68009BDB431A4050
S1132740019BDA6002B0704782B001900091019B56
S1132750DA68009B1A43019BDA6002B0704700BF3D
S113276082B00190019B1B69184602B0704700BFFC
S113277082B001900091019B009ADA6102B0704727
S113278030B589B001238DF80C3000238DF80D305D
S113279000238DF80E3000238DF80F3000238DF8C0
S11327A0103000238DF8113000238DF812300023EF
S11327B08DF8133000238DF8143000238DF8153074
S11327C000238DF8163000238DF8173000238DF880
S11327D0183000238DF8003000238DF801300023D9
S11327E08DF8023000238DF8033000238DF8043077
S11327F000238DF8053000238DF8063000238DF872
S1132800073000238DF8083000238DF809300023A9
S11328108DF80A3002238DF806303748012106F07E
S11328203BFE36484FF6FF71FFF7A2FF6B46334875
S113283000211A4606F046FA00238DF80E3003AB49
S11328402E48194606F0BEF92D4806F091FE0246C0
S11328502C4B1A602B4B1B689DF80E20D340294A41
S113286013609DF80E300133DBB28DF80E309DF805
S11328700E300A2B04D8234B1B68234A9342DED81C
S1132880224806F075FE0246214BB3FBF2F3079390
S11328901C4B1B6818464FF00001079B1A464FF06B
S11328A0000302FB01F500FB03F42C44A0FB02230C
S11328B0E1180B4617484FF00001121843EB0103CF
S11328C010461946144A4FF0000307F08BFF0246E6
S11328D00B46124B1A60124B00221A700748102143
S11328E0FFF726FF0220FFF7B9FE0220FFF78AFE5A
S11328F00023184609B030BD005204000000014016
S113290040810400CC10002080841E00500002008E
S113291000B0710B20A1070040420F00D01000202E
S1132920D410002008B50220FFF782FE0A481021C7
S1132930FFF7FEFE08481021FFF7F2FE0220FFF722
S11329408DFE05480021FFF7BFFE0448002106F074
S1132950A3FD0023184608BD0000014000520400F6
S113296030B585B00190224B1B6818464FF000012A
S1132970019B1A464FF0000302FB01F500FB03F430
S11329802C44A0FB0223E1180B461A484FF0000127
S1132990121843EB010310461946174A4FF000037F
S11329A007F020FF02460B46CDE902230DE04FF667
S11329B0E85000F03FF8DDE9022310484FF0FF3102
S11329C0121843EB0103CDE90223DDE902234FF69C
S11329D0E8504FF00001994208BF9042E7D3BDF898
S11329E00830184600F026F80023184605B030BD1C
S11329F0CC10002020A1070040420F001802FFFF66
S1132A0000B583B00948FFF7ABFE0190019B03F0CA
S1132A101003002B06D005481021FFF781FE044B5C
S1132A2001221A7003B05DF804FB00BF00000140EE
S1132A30D410002000B587B00346ADF80630BDF8C9
S1132A400630002B36D007F0B5FB05901B48FFF786
S1132A5033FE01461A4B1B680493BDF80630ADF8EB
S1132A600E30BDF80E20049B934238BF13460B442E
S1132A70124800211A46FFF711FE10481021FFF7F3
S1132A804FFE0E481021FFF75FFE059807F09EFBEE
S1132A9001E0FFF7F9FD0B4B1B78DBB283F0010378
S1132AA0DBB2002BF5D1074B00221A70034810212A
S1132AB0FFF73EFE07B05DF804FB00BF00000140D5
S1132AC0D0100020D410002000B589B003468DF842
S1132AD0073003AB0793002000210022079BFDF77A
S1132AE0D1FD079B9B7803F01003002B06D00A4806
S1132AF002F0DEF9094801F05DFB08E0079B9B78D2
S1132B0003F00803002B02D0054802F0D1F900F0CD
S1132B1021FA09B05DF804FB6CBA00004000002003
S1132B2084BA000008B51A480121FDF72BFFFDF710
S1132B309BFF00F023FA0CE0164802F0B9F9FFF706
S1132B401FFE42F21070FFF70BFFFFF7EBFE00F0E1
S1132B5015FA1148FEF7F6F80346002BECD10020D5
S1132B60002100220023FDF78DFD0C48FDF7E4FC55
S1132B700A4B5B880A48194602F086F90948002185
S1132B8001F002F9084802F093F90123184608BD40
S1132B90C92A00009CBA0000CCBC0000B81C00206C
S1132BA0C0BA000040000020D4BA000000B585B0CF
S1132BB001900B46ADF80230314B00221A60BDF88B
S1132BC00230FF2B04D92F4802F072F9002352E09F
S1132BD0BDF802302C48194602F056F92B4802F091
S1132BE053F90023039318E0039B019A13441B78C1
S1132BF02748194602F048F9039A264B1340002B44
S1132C0003DA013B63F00F0301330F2B02D1224897
S1132C1002F03AF9039B01330393BDF80220039BAE
S1132C209A42E1DC1C4802F02FF901200021FDF753
S1132C3071FD1A4A019B1360194ABDF802301380D2
S1132C401848FDF7ADFD174B1B78072B04D1164828
S1132C5002F02EF900230EE0144B1B68DB88DBB274
S1132C6018460199FDF778FD054B01221A601048BA
S1132C7002F01EF90023184605B05DF804FB00BFFE
S1132C80D8100020E8BA00000CBB000014BB000000
S1132C902CBB00000F00008034BB0000DC100020BF
S1132CA0E0100020B81C002038BB00007400002095
S1132CB04CBB000000B589B00346ADF80630164899
S1132CC002F0F6F803AB0793144B1B689A7BBDF82C
S1132CD00630104630211A46FDF768FC002000211A
S1132CE00022079BFDF7CEFC05E000200021002216
S1132CF0079BFDF7C7FC079B9B7803F02003002B81
S1132D00F3D1BDF806300648194602F0BDF8002399
S1132D10184609B05DF804FB60BB00007400002095
S1132D2074BB000000B583B001900B46ADF80230CF
S1132D30BDF802300C48194602F0A6F8BDF802307E
S1132D4001981946FFF732FF0346012B01D10123F5
S1132D5005E0BDF802301846FFF7ACFF03461846FD
S1132D6003B05DF804FB00BF98BB000000B587B05A
S1132D7001900B46ADF80230124802F099F802AB0C
S1132D8000201946FDF7C6FC9DF80830ADF8023066
S1132D90BDF802300C48194602F076F8BDF802304E
S1132DA0DBB218460199FDF7E9FC02200021FDF78A
S1132DB0B1FC064802F07CF8BDF80230184607B0B2
S1132DC05DF804FBB8BB0000C8BB0000DCBB00001E
S1132DD008B5044802F06CF8034802F069F8184694
S1132DE008BD00BFECBB000004BC00000023184673
S1132DF0704700BF08B5024802F05AF8184608BDEB
S1132E001CBC000008B502200021FDF783FC012052
S1132E100021FDF77FFC00F09DF8034802F048F81C
S1132E200123184608BD00BF34BC000008B50348A0
S1132E3002F03EF80023184608BD00BF40BC000065
S1132E4000B589B003900B4601928DF80B30012335
S1132E508DF81F30039B1B88002B03D0B3F5877FAD
S1132E600AD05CE0334802F023F800238DF81F30C9
S1132E70039B4FF487721A809DF81F30002B03D0F8
S1132E809DF80B30822B01D001234FE02A4802F039
S1132E900FF801F0C7FD01F0A5FE03461846802196
S1132EA0FFF764FF0590059B9BB2184601F084FE72
S1132EB0224B1B69984701F095FE04902048059920
S1132EC001F0E2FF1F4801F0DFFF0023069318E042
S1132ED0069B049A13441B781B48194601F0D4FF3F
S1132EE0069A1A4B1340002B03DA013B63F00F03DD
S1132EF001330F2B02D1164801F0C6FF069B0133A4
S1132F000693069A059B9A42E2DB114801F0BCFF46
S1132F1001200021FDF7FEFBFFF774FFA5E7002366
S1132F208DF81F30039B00221A800323184609B032
S1132F305DF804FB4CBC00006CBC000090C20000B7
S1132F407CBC000084BC00002CBB00000F0000808F
S1132F5034BB000000B583B0074B1B681A7E032303
S1132F600093082301931046002100220023FDF75B
S1132F704DFB03B05DF804FB7400002008B5FDF7B9
S1132F80C9FAFFF7FDFB42F21070FFF7E9FCFFF707
S1132F90C9FC08BD00B583B003468DF807309DF821
S1132FA0073003F00103002B9DF8073003F0020300
S1132FB0002B9DF8073003F00403002B054B1A780F
S1132FC0054B1B785340DBB2184600F04BF803B0B6
S1132FD05DF804FBE2100020E310002008B500F0C7
S1132FE033F8044B00221A70024B1A78024B1A7001
S1132FF008BD00BFE3100020E210002000B583B03C
S113300003468DF807309DF80730184600F004F8A1
S113301003B05DF804FB00BF00B583B003468DF830
S11330200730084B1A789DF807305340DAB2054B45
S11330301A709DF807301846FFF7ACFF03B05DF82F
S113304004FB00BFE310002008B50520062104227C
S1133050002305F063F9052007210422002305F06D
S11330605DF908BD00B583B003468DF807309DF8BF
S1133070073003F00103002B04D0F620012102F0F5
S1133080FFFF03E0F620002102F0FAFF9DF807306D
S113309003F00203002B04D0F720012102F0F0FF1B
S11330A003E0F720002102F0EBFF03B05DF804FB1E
S11330B0014B01221A607047E4100020014B0122E9
S11330C01A607047E4100020014B00221A60704718
S11330D0E4100020014B1B6818467047E4100020E0
S11330E000B583B0019003F049FB0346184603B0D2
S11330F05DF804FB00B583B001900091019B802B27
S113310002D0812B04D00DE0FFF7D2FF01230AE0A7
S1133110009B002B02D0FFF7D1FF01E0FFF7D4FFA3
S1133120012300E00023184603B05DF804FB00BF50
S113313000B583B00190019B822B03D1FFF7CAFF36
S1133140034600E00023184603B05DF804FB00BF0B
S113315010B584B0029111461A4603468DF80F301B
S11331600B468DF80E3013468DF80D309DF80F2068
S11331709DF80E409DF80D3000939DF81830019392
S113318010460299029A234605F056F804B010BD81
S113319008B50248FDF7C2F808BD00BF28C000000A
S11331A000B583B002F0D0FF0346002B01D102F03A
S11331B0D1FF042003210222012305F0AFF80123EB
S11331C000930420032100220123FFF7C1FF032001
S11331D0024904F09BFD03B05DF804FB913100004B
S11331E008B5054B1B68002B01D1FFF7D9FF034B32
S11331F001221A6008BD00BFE8100020EC10002076
S1133200014B00221A607047EC100020014B1B6830
S113321018467047EC10002082B001900123184634
S113322002B0704700B583B00190019B813B012B34
S113323003D8FFF7EBFF034600E00023184603B072
S11332405DF804FB00B583B001900091019B802BD5
S113325002D0812B04D00DE0FFF7A2FF01230AE086
S1133260009B002B02D0FFF7BBFF01E0FFF7C8FF74
S1133270012300E00023184603B05DF804FB00BFFF
S1133280024BD3F814311846704700BF0060004069
S113329010B584B0029111461A4603468DF80F30DA
S11332A00B468DF80E3013468DF80D309DF80F2027
S11332B09DF80E409DF80D3000939DF81830019351
S11332C010460299029A234604F0B6FF04B010BDDA
S11332D008B50248FDF722F808BD00BF40C0000051
S11332E000B583B002F030FF0346002B01D102F099
S11332F031FF042002210222012305F00FF80123EB
S113330000930420022100220123FFF7C1FF0220C1
S1133310024904F0FBFC03B05DF804FBD132000069
S113332008B5054B1B68002B01D1FFF7D9FF034BF0
S113333001221A6008BD00BFF0100020F410002024
S1133340014B1B6818467047F410002000B583B089
S11333500190FFF795FF0346184603B05DF804FBA0
S113336000B583B00190019B813B012B03D8FFF78B
S1133370E7FF034600E00023184603B05DF804FBB2
S113338000B583B001900091019B802B02D0812B6A
S113339004D007E0FFF7A4FF012304E0FFF7C0FF18
S11333A0012300E00023184603B05DF804FB00BFCE
S11333B0034B01221A60034B01221A60704700BFBD
S11333C0F8100020FC10002008B5054B1B68002BEA
S11333D001D1FFF7EDFF034B01221A6008BD00BFC6
S11333E0F8100020FC100020014B00221A607047E6
S11333F0FC100020014B1B6818467047FC1000208D
S113340000B585B00190042001F08EFC0346143B06
S1133410184607F01DF8034618464FF0804107F0A0
S11334201FF9034618460A4906F05CFF0346039356
S11334300398084907F060F80346184607F0ACF90A
S113344003460293029B184605B05DF804FB00BFD7
S11334500000F0420000204100B583B001900091CB
S1133460019B802B02D0812B04D00DE0FFF7A0FF3D
S113347001230AE0009B002B02D0FFF7A5FF01E027
S1133480FFF7B2FF012300E00023184603B05DF804
S113349004FB00BF00B583B00190019B822B03D1D4
S11334A0FFF7A8FF034600E00023184603B05DF8C9
S11334B004FB00BF2A4A2A4B5B6C43F40053536459
S11334C0284A284BD3F8203143F00403C2F82031B2
S11334D0244A244BD3F8203123F44073C2F820311A
S11334E0204A204BD3F8B83023F47063C2F8B830C4
S11334F01C4A1C4BD3F8B83043F48063C2F8B8308C
S1133500174B10221A6200BF154BDB6A03F020032D
S1133510002BF9D0144A144B1B6843F001031360C9
S1133520114A114BDB6843F08073D3600F4B104A90
S11335301A60104B0F221A610E4B0222C3F8F020BE
S11335400C4B4FF48072C3F804234FF060430A4AD3
S1133550C3F8B02F4FF06043084AC3F8802E704779
S113356000800C4000600040F0ED00E0001000E03E
S1133570FF130140000004E055CEACC50900010072
S113358008B5D720012102F0C1FDD62002F0A6FD26
S1133590052002210422002304F0C0FE184A184B1F
S11335A0D3F8203123F44073C2F82031144A144B69
S11335B0D3F8203143F00403C2F82031DE200E2179
S11335C0012202F03FFDDF200E21012202F03AFD2C
S11335D0D020002102F09AFDD12002F07FFDD220FC
S11335E0002102F093FDD320012102F08FFDD720AA
S11335F0002102F08BFDD62002F070FD08BD00BF53
S11336000060004082B00B49896C01910949C96C82
S113361008464FF0000103000022019908464FF0CC
S1133620000142EA000243EA01031046194602B0CF
S1133630704700BFA881E00F00B583B00C4B1B6836
S113364001936B46184605F0B5FB019B1B0E0F2B2F
S11336500BD99DF80030032B07D1064A054B1B6894
S113366023F0500343F01003136003B05DF804FB30
S1133670FC81E00FC0800C40FEE700BFFEE700BF06
S1133680FEE700BFFEE700BF00B587B0FFF7D4FF39
S113369002F060FDFFF7A2FC4FF4E13003F044F9BF
S11336A0444803F0E1F9444801F0EEFB434801F0DB
S11336B0FFFB032006F038FA414B5B68059304F0E6
S11336C0D5F80346049304F0A9F802F0C1FFFFF70C
S11336D0F1FE059802F0B4FEFFF752FF03F06CF818
S11336E002F0BCFFFFF78EFFCDE9020102F0CAFD34
S11336F001F0F8F800F012FC324801F0C5FB324B3F
S11337001B689B68184607F015FC02F043FB02F0A7
S11337106FFD00F003FC2D48002100F035FB01F0A3
S11337208DF800F045FE2A48002100F02DFB2948C1
S113373001F0BEFB284801F0A7FB234B1B689B68E4
S1133740184607F0F7FBFCF7CBFE00F0C3F8234B59
S11337501B88184601F0CAF801F04EF91D4801F023
S1133760A7FB1F4801F0A4FB00F0CEF80346B3F119
S1133770FF3F03D11B4801F09BFB02E01A4801F014
S113378097FB01F0ADF800F057F81848184901F01C
S11337907BFB184800F030F8164800F02FFD02F0CB
S11337A01DFD02F021FD00F087FC0190019B002B20
S11337B0F7DCF6E73542000068C0000074C0000082
S11337C000A00C4090C0000030050020A0000020A4
S11337D010000020ACC00000B4C00000400E002067
S11337E0D0C0000004C100002CC1000034C100009E
S11337F05CC1000028BA000000B583B001900C48F9
S113380001F042FB09E0019B1B685B68094819460B
S113381001F03AFB019B04330193019B1B68002BCD
S1133820F1D10A2001F058FB03B05DF804FB00BF9E
S113383068C1000074C1000000B583B01B4801F0EA
S113384023FB002301930AE0194A019B13441B78CC
S11338501848194601F018FB019B01330193019BA1
S1133860002BF1D0124A019B13441B7812481946CD
S113387001F00AFB114B1B88002B06D00F4B1B8851
S11338800F48194601F000FB02E00E4801F010FB5E
S11338900D4B1A680D4B1B680D4811461A464FF420
S11338A0D97301F0F1FA03B05DF804FB7CC10000A8
S11338B0D41C002084C1000088C10000400E0020F8
S11338C08CC1000098C1000060C2000090C20000DA
S11338D0B0C1000008B50A480021022207F0C6FD65
S11338E0084B1B88DAB2064B1A70064B1B881B0A5E
S11338F09BB2DAB2024B5A70014800F035F808BDA9
S1133900D41C0020400E002000B583B00E4B0022D2
S11339101A60002301930AE0019B4033DB0218463E
S11339204FF4006102F0B2FC019B01330193019B4F
S11339301F2BF1D905480021A82207F097FD002389
S1133940184603B05DF804FBA0110020001100200C
S113395000B583B00190009101980099022207F00C
S11339600FFD03B05DF804FB00B583B0019003487C
S11339700199FFF7EDFF03B05DF804FBD81C0020AC
S113398000B585B00190019B0393182001F0F2F972
S1133990024602AB18461146FFF7DAFF039B5B6948
S11339A01B68002B06D0039B5B691B6802AA039863
S11339B01146984705B05DF804FB00BF00B587B019
S11339C0039002910192039B0593059B5B695B68DD
S11339D0002B06D0059B5B695B6805980299019AE8
S11339E0984707B05DF804FB00B585B003900B461B
S11339F00192ADF80A30039ABDF80A301046194610
S1133A00074A00F023F8039B019A5A61BDF80A3073
S1133A101846044900F0A4F805B05DF804FB00BFA3
S1133A20D8C10000D4C1000000B583B001901820B3
S1133A30054901F087F9019B184600F023F8034675
S1133A40184603B05DF804FBD81C002000B585B00F
S1133A5003900B460192ADF80A30039ABDF80A3080
S1133A601046194600F098F8039B019A1A61BDF8B4
S1133A700A301846024900F073F805B05DF804FBFB
S1133A80E0C1000000B583B001900A4B1B781946D1
S1133A90084B5B781A46019B9B88074801F0F4F9B0
S1133AA0019B184603F06EF80346184603B05DF810
S1133AB004FB00BFD81C0020E4C1000000B585B0A1
S1133AC00190019B03930C4B1B7819460A4B5B78BE
S1133AD01A46019B9B88094801F0D6F9039B1B6990
S1133AE01B68002B04D0039B1B691B680398984731
S1133AF005B05DF804FB00BFD81C002008C200001C
S1133B0000B587B0039002910192039B05930D4B7E
S1133B101B7819460B4B5B781A46039B9B880A4813
S1133B2001F0B2F9059B1B695B68002B06D0059B6D
S1133B301B695B6805980299019A984707B05DF87C
S1133B4004FB00BFD81C002034C2000008B5034B9E
S1133B501B68184600F03EFC08BD00BF8C00002026
S1133B6000B585B003460091ADF80630BDF80630C7
S1133B70184600F027F80390039B002B09D0039B01
S1133B80009A9A60009803F059FA0346DAB2039B4C
S1133B901A7305B05DF804FB00B583B001900B46C1
S1133BA0ADF80230019BBDF802209A80044B1B68DB
S1133BB01846019900F036FC03B05DF804FB00BF21
S1133BC08C00002000B585B00346ADF806300D4BDF
S1133BD01B68184600F006FC03900BE0039B9B88CF
S1133BE0BDF806209A4201D1039B07E0039800F038
S1133BF061FC0390039B002BF0D10023184605B011
S1133C005DF804FB8C00002000B583B001900091A6
S1133C10034B9B6801980099984703B05DF804FB37
S1133C2090C2000008B5024B9B68984708BD00BFCE
S1133C30B8C3000008B5034B5B69984703461846B0
S1133C4008BD00BF90C2000000B583B00190044BD2
S1133C509B69019898470346184603B05DF804FB36
S1133C6090C2000000231846704700BF704700BF91
S1133C7030B585B0019000910D4BDC6800F0BEFFBB
S1133C80054600F0EFFF034628461946A0470346C1
S1133C90002B02D10023039301E004230393019832
S1133CA00099039A012300F049F805B030BD00BF24
S1133CB0A4BC000000B585B0039002910192019B61
S1133CC0002B08D0019B5B68184601F07DF803982F
S1133CD00299FFF7CDFF05B05DF804FB08B5024B70
S1133CE0DB68984708BD00BF60C2000008B5034BFD
S1133CF01B6A98470346184608BD00BFA4BC0000D1
S1133D0000B583B00190019B002B04D0064B1B6AC5
S1133D109847034603E0044B5B6A984703461846FA
S1133D2003B05DF804FB00BFA4BC000000231846E8
S1133D30704700BF08B5FFF7D9FF08BD00B585B0CF
S1133D400390029101920093019B012B03D0022B5B
S1133D5003D0002B02E000BF00E000BF039B002B58
S1133D6004D0039B02980199009A984705B05DF826
S1133D7004FB00BF034B1B785A1CD1B2014A1170DB
S1133D8018467047B411002000B585B00190009129
S1133D90134B1B68039302E0039B1B680393039A72
S1133DA0019B9A4202D0039B002BF5D1039A019BFD
S1133DB09A4200D111E00A4B1A68019B1A60084A22
S1133DC0019B1360019B01229A73019B00229A813B
S1133DD001988121009A00F0D3F905B05DF804FB45
S1133DE0AC11002010B584B0019000912B4B1B68DE
S1133DF003932B4B1C6800E02468019B9C4201D078
S1133E00002CF9D1002C00D145E0019800F0EAF92A
S1133E100346002B23D0019B00229A73204B1C687D
S1133E2008E0019BA34204D020468721019A00F0B8
S1133E3039F82468002CF4D1019B9B68002B0ED028
S1133E40019A009B9A420AD0144A019B1360019B79
S1133E509B68019A0C321046832100229847104B2C
S1133E601B68019A9A4205D10D4B1B681B680C4ACA
S1133E7013600DE00A4B1C6808E02268019B9A421B
S1133E8003D1019B1B68236002E02468002CF4D159
S1133E90024A039B136004B010BD00BFB0110020A0
S1133EA0AC11002000B587B003900B4601928DF849
S1133EB00B30039B9B7B03F00103002B28D0039B57
S1133EC09B68002B24D0144A039B1360039B02229B
S1133ED09A73039B9B68039A02F10C019DF80B20D3
S1133EE008461146019A984703460593059B022B01
S1133EF006D0059B032B03D09DF80B30832B04D1F4
S1133F0003980399FFF76EFF02E0039B01229A7363
S1133F1007B05DF804FB00BFB0110020084B8A22F3
S1133F201A70084B00221A70064B1A78064B1A7046
S1133F30064B00221A60054B1B68054A1360704744
S1133F40B4110020B6110020B5110020AC110020DE
S1133F50B011002000B583B00F4B00221A700F4B34
S1133F601B68019311E0019BDB7B002B0AD0019BB2
S1133F7001229A73019B0022DA73019882210022A4
S1133F80FFF790FF019B1B680193019B002BEAD173
S1133F9003B05DF804FB00BF38130020AC1100200F
S1133FA008B53B4B1B78002B70D03A4B1B78194655
S1133FB0394A0B465B000B449B0013441A78374B79
S1133FC01A70344B1B781946334A0B465B000B447A
S1133FD09B0013445B68324A13602E4B1B781946CE
S1133FE02D4A0B465B000B449B00134408331B68AB
S1133FF02C4A1360274B1B785A1C2B4B1340002B65
S113400003DA013B63F01F030133DAB2214B1A7068
S11340101F4B1B78013BDAB21D4B1A70214B1B68F6
S1134020002B20D1214B1B68214A136016E0214B41
S11340301B78DBB2002B01D0FFF78CFF1C4B1968F7
S1134040164B1A78164B1B68084611461A46FFF79A
S113405029FF174B1B681B68154A1360144B1B6818
S1134060002BE4D112E00D4B1B78812B03D10D4BB7
S11340701B6801229A730B4B1968084B1A78084B7A
S11340801B68084611461A46FFF70CFF08BD00BF1F
S1134090B5110020B6110020B811002039130020FA
S11340A03C130020401300201F000080AC110020AE
S11340B0441300203813002008B5094B1B78DBB2E9
S11340C0002B01D0FFF746FFFFF76AFF054B1B7873
S11340D01A46034B1B78DBB21344184608BD00BFD5
S11340E038130020B511002084B003900B460192D0
S11340F08DF80B301E4B1B78202B01D1012334E0AB
S11341001C4B1A781A4B1B781344DBB203F01F03C1
S1134110DAB2194B1A70184B1B781946174A0B461A
S11341205B000B449B0013449DF80B201A70124B48
S11341301B781946114A0B465B000B449B00134441
S1134140019A5A600C4B1B7819460C4A0B465B00CB
S11341500B449B0013440833039A1A60044B1B78E6
S11341600133DAB2024B1A700023184604B07047C8
S1134170B5110020B611002048130020B81100200A
S113418000B587B003900B4601928DF80B30084BB5
S11341901B6805939DF80B3003981946019AFFF7A5
S11341A081FE034A059B136007B05DF804FB00BF62
S11341B0B011002082B00190019B002B0DD0019B17
S11341C09B7B012B03D0019B9B7B022B05D1019B85
S11341D00122DA73024B01221A7002B0704700BF49
S11341E03813002082B00190019B9B7B002B14BFED
S11341F001230023DBB2184602B0704700B585B036
S11342000190002303930BE0039B9B00019A13444A
S11342101B6818460021FFF7B7FD039B0133039386
S1134220039B9B00019A13441B68002BECD105B03F
S11342305DF804FB00B583B003468DF807309DF8A4
S113424007300D2B01D1002324E0144B1B78002BE5
S11342500CD19DF807301248194600F075FB03464F
S1134260002B13D10D4B01221A700FE09DF807307B
S11342700A2B0BD19DF807300948194600F064FB5E
S11342800346002B02D0054B00221A700548FFF7A5
S113429091FF0123184603B05DF804FBD4130020FA
S11342A04C1300209000002000B587B003900B460B
S11342B001928DF80B3001238DF81730039B1B8876
S11342C0672B1AD0792B4ED0002B5BD1FFF752FD10
S11342D003461A46314B1A70314B00221A6031489A
S11342E000F060FB0490049BB3F1FF3F0BD100236B
S11342F08DF81730039B67221A809DF81730002B26
S11343003FD1012345E0049B0A2B0DD0244B1B68AD
S11343107E2B36DC224B1B685A1C21490A60049A06
S1134320D1B2214AD1542CE01D4B1B685A1C1C49A4
S11343300A601D4A0021D154184B1B7800201946ED
S1134340194AFFF7D1FE194B1B6818468521002234
S1134350FFF7CAFE0346002B0FD100238DF8173058
S1134360039B79221A809DF81730002B03D09DF807
S11343700B30852B01D001230BE0094B00221A607E
S1134380ADE7ACE700238DF81730039B00221A80B9
S11343900323184607B05DF804FB00BFDA1C0020B5
S11343A0D81300204C130020DC130020B01100208F
S11343B008B505480549802200F0AEFA04480021FA
S11343C0FFF7E2FC08BD00BF4C130020541300208B
S11343D09000002082B00190019B00221A6002B07C
S11343E0704700BF82B00190019B1B68184602B061
S11343F0704700BF84B00190019B1B68002B01D162
S113440000230BE0019B1B68039302E0039B1B68E2
S11344100393039B1B68002BF8D1039B184604B03D
S1134420704700BF00B585B00190009101980099D4
S113443000F014F8009B00221A600198FFF7DAFFDD
S11344400390039B002B03D1019B009A1A6002E0A6
S1134450039B009A1A6005B05DF804FB84B00190D8
S11344600091019B1B68002B00D121E000230293E3
S1134470019B1B68039318E0039A009B9A420FD197
S1134480029B002B04D1039B1A68019B1A6003E072
S1134490039B1A68029B1A60039B00221A6007E0C0
S11344A0039B0293039B1B680393039B002BE3D1A1
S11344B004B0704782B00190019B002B02D0019B95
S11344C01B6800E00023184602B0704700B585B0B1
S11344D01C4B1B68002B03D11B4B00221A602EE0DF
S11344E001F072FC0190174B1B680293029B1A683F
S11344F0029B5B681A44019BD31A0393029B9B683B
S1134500029314E0029B1A68029B5B681A44019BA5
S1134510D21A039B9A4207D2029B1A68029B5B68D9
S11345201A44019BD31A0393029B9B680293029B38
S1134530002BE7D1019A039B1344034A136005B08F
S11345405DF804FB5C1400206014002000B589B001
S113455003900B4601928DF80B3001238DF8173030
S1134560039B1B88002B02D0592B09D07CE0444BC1
S113457000221A6000238DF81730039B59221A80F9
S11345809DF81730002B01D1012374E09DF80B3006
S1134590872B2DD1019B049304E0394B1B689B6846
S11345A0374A1360364B1B68002B05D0344B1B680D
S11345B0DA68049B9A42F0D0314B1B68002B16D06A
S11345C02F4B1B6807930EE0079B9B68DA68049BDC
S11345D09A4205D1079B9B689A68079B9A6002E000
S11345E0079B9B680793079B9B68002BECD13AE0E1
S11345F09DF80B30822B00D035E000230693204B2E
S11346001B6807932CE0079B184602F0E3FF034660
S1134610002B20D0079BDB6818468821079AFFF7F8
S113462063FD0346002B14D1079B0022DA60069B2E
S1134630002B04D0079B9A68069B9A6003E0079BB3
S11346409B680F4A1360079B00229A60FFF73EFFA6
S1134650D3E700F017F8079B0693079B9B68079323
S1134660079B002BCFD185E700238DF81730039BE0
S113467000221A800323184609B05DF804FB00BF2A
S11346805C14002008B50248FFF794FD08BD00BF84
S1134690A000002000B585B00190FFF7F3FF019B57
S11346A0DB68002B14D0124B1B6803930DE0039AB4
S11346B0019B9A4206D10F4B1A68019BDA60FFF7FF
S11346C005FF12E0039B9B680393039B002BEED131
S11346D0084B1A68019BDA60054B1A68019B9A60C3
S11346E0034A019B1360FFF7F1FE05B05DF804FB7C
S11346F05C140020B011002000B583B0019000913B
S1134700019B1846009902F055FF0198FFF7C2FF7C
S113471003B05DF804FB00BF044B1B68002B14BFFF
S113472001230023DBB21846704700BF5C1400204D
S113473008B5FFF7F1FF0346002B02D0024B1B68BC
S113474000E00023184608BD6014002000B589B0BD
S113475003900B4601928DF80B3001238DF81B302A
S1134760039B1B88002B02D04A2B1ED055E0304BF4
S11347701B681846FFF736FE07900AE0079B1A1DD0
S1134780079B9B6810461946FFF7B6FF079B1B68FB
S11347900793079B002BF1D1264B01221A700023AB
S11347A08DF81B30039B4A221A809DF81B30002B86
S11347B003D09DF80B30882B01D0012334E01C4B2F
S11347C01B681846FFF70EFE079022E0079B1A1D90
S11347D0019B9A421AD1164B1B6818460799FFF79A
S11347E03DFE154B1B680593079B5B69124A1360DA
S11347F0079B9B69002B05D0079B9B69079AD2698D
S1134800104698470C4A059B136005E0079B1B68FC
S11348100793079B002BD9D1C1E700238DF81B30E8
S1134820039B00221A800323184609B05DF804FB99
S1134830B000002068140020B011002008B5064B19
S113484000221A70054B1B681846FFF7C3FD044885
S11348500021FFF799FA08BD68140020B000002079
S1134860B400002000B587B0039002910192009338
S1134870174B1A68039B5A61039B019A9A61039B25
S1134880009ADA61134B1B78002B0FD0104B1B6876
S113489005930F4B104A1A60039B04331846029980
S11348A0FFF72AFF0A4A059B136002E0039B029A62
S11348B09A600A4B1B6818460399FFF7CFFD074B14
S11348C01B6818460399FFF7ADFD07B05DF804FBBC
S11348D0B011002068140020B4000020B0000020B3
S11348E0704700BF08B501F0AFFA08BD00B583B04A
S11348F00346ADF80630BDF80630184606F008FE4B
S113490003B05DF804FB00BF08B506F00BFE0346D8
S11349109BB2184608BD00BF84B0039002911346B1
S11349208DF80730039B029A1A609DF80730013B0B
S1134930DAB2039B1A71039B00225A71039B002273
S11349409A7104B0704700BF82B001900B468DF895
S11349500330019B5B791A46019B9B79D31A019A18
S113496012791340019A1279934201D1002315E080
S1134970019B1B68019A527913449DF803201A7015
S1134980019B5B790133DBB2DAB2019B1B79DBB2A9
S11349901340DBB2DAB2019B5A710123184602B00C
S11349A0704700BF84B00190019B5B791A46019B5C
S11349B09B79D31A019A12791340002B17DD019BBE
S11349C01B68019A927913441B788DF80F30019B70
S11349D09B790133DBB2DAB2019B1B79DBB2134062
S11349E0DBB2DAB2019B9A719DF80F3001E04FF00F
S11349F0FF33184604B0704708B5064B1B68984748
S1134A00054B5B689847054B5B689847044B5B68AC
S1134A10984708BDA4BC000090C2000060C200001A
S1134A20B8C3000008B5094B00221A80074B1A8846
S1134A30074B1A80074B30221A70074B1B68303320
S1134A40064A136000F01AF908BD00BF6C14002078
S1134A506A1400206E140020C400002024150020D5
S1134A6000B585B001900B46ADF80230FFF7DAFFD0
S1134A70BDF80230802B28BF8023ADF80E30094BDF
S1134A801A68BDF80E30104601991A4606F078FCF3
S1134A90054ABDF80E301380BDF80E30184605B037
S1134AA05DF804FB241500206A14002030B583B09F
S1134AB000F0B0F80346002B0FD01B4B1B6803F12A
S1134AC0300400F0B9F8054600F0BCF8034620466F
S1134AD029461A4606F054FC23E0144B1B88002B8D
S1134AE01FD000F0AFF80346303300933023019316
S1134AF010E00D4B1A68019B13440B4A12680B49D2
S1134B0009880846019901440A4412781A70019BE5
S1134B1001330193019A009B9A42EADB034B002282
S1134B201A8003B030BD00BFC40000206C14002004
S1134B3000B583B001900E4B1B781A46019B9A4234
S1134B4011DB00F08FF803461A46019B1344802BB7
S1134B5009DC074B1A78019BDBB2D31ADAB2044B97
S1134B601A70012300E00023184603B05DF804FB2B
S1134B706E14002082B001900D4B1B881A46019BD5
S1134B809A4201DA002310E0019B9AB2094B1B8878
S1134B9013449AB2074B1A80054B1A88019B9BB2A7
S1134BA0D31A9AB2024B1A800123184602B07047F6
S1134BB06A1400206C14002000B583B00346ADF8DD
S1134BC00630BDF806300548194600F05DF9044A80
S1134BD0BDF80630138003B05DF804FBDCC20000AE
S1134BE06A140020034B1A68034B1B8830331344A8
S1134BF018467047C40000206C140020034B1B6847
S1134C00034A127813441846704700BFC4000020BA
S1134C106E140020064B1B6803F13002054B1B6821
S1134C209A4214BF01230023DBB21846704700BF29
S1134C30C400002024150020014B1B68184670474F
S1134C4024150020014B1B88184670476A14002065
S1134C50034B1B78C3F13003DBB21846704700BF27
S1134C606E14002010B5FFF7F3FF03469CB2FFF764
S1134C70E9FF034623449BB2184610BD00B583B038
S1134C800023019307E00F4A019B002122F813102F
S1134C90019B01330193019B172BF4DD0023019346
S1134CA00AE0019B5B00084A134418460749FEF7D3
S1134CB04FFE019B01330193019B032BF1DD03B0F4
S1134CC05DF804FBE41C0020DC1C0020D0C10000C3
S1134CD000B583B00190009106480199302206F096
S1134CE04FFB054B009A1168526819605A6003B073
S1134CF05DF804FBE41C0020DC1C002082B00346A9
S1134D000A468DF807301346ADF804309DF8073095
S1134D100449BDF8042021F813200123184602B0E9
S1134D20704700BFE41C002082B003468DF80730B2
S1134D309DF80730024A32F81330184602B0704723
S1134D40E41C002000B583B0034600918DF80730C1
S1134D509DF80730183B5B00054A13441846009938
S1134D60FEF7F6FD0123184603B05DF804FB00BF0F
S1134D70DC1C002082B003468DF807309DF8073014
S1134D80183B5B00024A1344184602B0704700BF48
S1134D90DC1C002082B00190019B1B68184602B005
S1134DA0704700BF08B5054802F0CAFB044802F08A
S1134DB0C7FB044802F0C4FB08BD00BFE0000020AC
S1134DC0C8000020D400002000B585B0019023481D
S1134DD0019902F0D3FB0346002B15D00198FFF78D
S1134DE0D9FF0390039B9A1C039B1B88104619460A
S1134DF0FFF736FE039B03F18202039BB233104696
S1134E001946FFF765FF26E01548019902F0B6FB45
S1134E100346002B1FD0019B0293FFF703FE029B66
S1134E205A68029B1B8810461946FFF719FE029B1D
S1134E3093F838301846FFF77BFEFFF7DFFE014694
S1134E40029B03F10802029B93F83830084611468E
S1134E501A4606F095FA05B05DF804FBC800002078
S1134E60D400002000B585B0039002910192019B0B
S1134E70002B03D00298019901F022F80023184670
S1134E8005B05DF804FB00BF0FB400B583B005ABFB
S1134E90009306480499009A00F0B2F90190019B2E
S1134EA0184603B05DF804EB04B07047EC00002032
S1134EB000B583B00190019806F0A8FB0346019861
S1134EC0194600F0FDFF0A2001F008F800231846F7
S1134ED003B05DF804FB00BF00B583B00190019BF3
S1134EE0DBB2184600F0FAFF019B184603B05DF8E8
S1134EF004FB00BF84B0019000230393019B1B6853
S1134F000293029B1B78203B102B3ED801A252F83F
S1134F1023F000BF6D4F00008B4F00008B4F00004B
S1134F20774F00008B4F00008B4F00008B4F000029
S1134F308B4F00008B4F00008B4F00008B4F000005
S1134F40634F00008B4F0000594F00008B4F00004F
S1134F508B4F0000814F0000039B43F00103039338
S1134F6018E0039B43F00603039313E0039B43F011
S1134F70020303930EE0039B43F00803039309E049
S1134F80039B43F01003039304E0019B029A1A600D
S1134F90039B03E0029B01330293B2E7184604B07B
S1134FA0704700BF86B0019000230593019B1B68E6
S1134FB004930DE0059A13469B0013445B001A46C4
S1134FC09DF80F301344303B0593049B0133049345
S1134FD0049B1B788DF80F309DF80F302F2B03D9CD
S1134FE09DF80F30392BE5D9019B049A1A60059B73
S1134FF0184606B0704700BF00B587B00390CDE9EE
S11350000023039B1B6805931FE0059B013B05934D
S1135010DDE90023104619464FF00A024FF0000361
S113502005F0E0FBD3B23033DAB2059B1A70DDE948
S11350300023104619464FF00A024FF0000305F012
S1135040D1FB02460B46CDE90023DDE900231343DF
S1135050DBD1039B1B681A46059BD31A0493039B5D
S1135060059A1A60049B184607B05DF804FB00BF5C
S113507030B488B00390CDE900230A9B03F4804345
S1135080002B01D0164B00E0164B0693039B1B68C4
S1135090079312E0079B013B0793009B03F00F0368
S11350A0069A13441A78079B1A70DDE90023140941
S11350B044EA03741D09CDE90045DDE900231343E7
S11350C0E8D1039B1B681A46079BD31A0593039BDD
S11350D0079A1A60059B184608B030BC704700BF99
S11350E0F8C200000CC3000030B486B00390CDE9D0
S11350F00023039B1B68059313E0059B013B059369
S11351009DF8003003F00703DBB23033DAB2059BBD
S11351101A70DDE90023D40844EA4374DD08CDE9BC
S11351200045DDE900231343E7D1039B1B681A46BE
S1135130059BD31A0493039B059A1A60049B184693
S113514006B030BC704700BF00B585B00190009137
S113515010E0019B1B68019A526810461049102206
S113516098470390039B002B01D0039B13E0009B03
S1135170103B0093009B102BEBD8009B002B01D11C
S1135180002308E0019B1B68019A526810460449F9
S1135190009A98470346184605B05DF804FB00BF23
S11351A040C3000000B585B00190009110E0019B60
S11351B01B68019A526810461049102298470390C0
S11351C0039B002B01D0039B13E0009B103B009337
S11351D0009B102BEBD8009B002B01D1002308E08F
S11351E0019B1B68019A526810460449009A98472B
S11351F00346184605B05DF804FB00BF50C3000029
S113520000B5B5B005900491039200233393049B39
S1135210149300F041BD002331934FF0FF333093DA
S1135220149B1F9302E0149B01331493149B1B786B
S11352308DF87B309DF87B30002B03D09DF87B30BC
S1135240252BF0D1149A1F9B9A4219D0059B1B68F9
S1135250059A5168149A10461F9A821A08461F9993
S113526098470346002B03D04FF0FF3300F01ABDDC
S1135270149B1A461F9BD31A1A46339B1344339329
S1135280149B1B78002B02D1339B00F00BBD149BA5
S113529001331493149B1B78002B02D1339B00F031
S11352A001BD14AB1846FFF725FE3290149B1B7802
S11352B0302B09D9149B1B78392B05D814AB18460D
S11352C0FFF770FE319017E0149B1B782A2B13D143
S11352D0039B1A1D03921B681D931D9B002B06DA6A
S11352E0329B43F0010332931D9B319301E01D9BDC
S11352F03193149B01331493149B1B782E2B1DD1D3
S1135300149B01331493149B1B782F2B0AD9149BE1
S11353101B78392B06D814AB1846FFF743FE034617
S113532030930BE0149B1B782A2B07D1149B013379
S11353301493039B1A1D03921B683093149B1B78D0
S11353406C2B13D1149B01331493149B1B786C2B7B
S113535007D1329B43F080033293149B013314939F
S11353601BE0329B43F06003329316E0149B1B78DE
S1135370682B12D1149B01331493149B1B78682B54
S113538007D1329B43F020033293149B01331493CF
S113539003E0329B43F040033293149B1B78782B39
S11353A000F2528101A252F823F000BF45560000DA
S11353B0495600004956000049560000495600006D
S11353C0495600004956000049560000495600005D
S11353D0495600004956000049560000495600004D
S11353E0495600004956000049560000495600003D
S11353F0495600004956000049560000495600002D
S1135400495600004956000049560000495600001C
S1135410495600004956000049560000495600000C
S113542049560000495600004956000049560000FC
S113543049560000495600004956000049560000EC
S11354403B560000495600004956000049560000EA
S113545049560000495600004956000049560000CC
S113546049560000495600004956000049560000BC
S113547049560000495600004956000049560000AC
S1135480495600004956000049560000495600009C
S1135490495600004956000049560000495600008C
S11354A0495600004956000049560000495600007C
S11354B009560000495600004956000049560000AC
S11354C0E1550000CD550000F55500004956000097
S11354D0495600004956000049560000495600004C
S11354E0495600004956000049560000495600003C
S11354F0495600004956000049560000495600002C
S1135500495600004956000049560000B9550000AC
S1135510495600004956000049560000495600000B
S113552049560000495600004956000049560000FB
S1135530FF55000049560000135600009155000025
S1135540D7550000C3550000EB5500004956000034
S11355509155000049560000495600004956000084
S11355604956000031560000A5550000275600009A
S113557049560000495600001D56000049560000D7
S11355809B5500004956000049560000AF550000E5
S1135590329B43F42453329356E0329B43F410631A
S11355A0329351E0329B43F4885332934CE0329B64
S11355B043F4C853329347E0329B43F4B2433293EB
S11355C042E0329B43F4007332933DE0329B43F458
S11355D08443329338E0329B43F40243329333E002
S11355E0329B43F4424332932EE0329B43F48133A3
S11355F0329329E0329B43F4A133329324E0329B6B
S113560043F4C13332931FE0329B43F4E1333293CA
S11356101AE0329B43F4A063329315E0329B43F4C7
S11356208063329310E0329B43F4407332930BE077
S1135630329B43F4E063329306E0329B43F4C0634D
S1135640329301E0339B2DE3149B01331493329B7B
S113565003F4E063B3F5806F00F0E881B3F5806F85
S113566007D8B3F5807F22D0B3F5407F00F04182A4
S113567012E3B3F5C06F08D0B3F5E06F00F0038315
S1135680B3F5A06F00F0B68206E3059B1B68059A8C
S1135690526810469949012298470346002B02D0CC
S11356A04FF0FF33FEE2339B01333393F4E20023E4
S11356B02F9300232E930EAB16330D9300232D93BB
S11356C000231C934FF000024FF00003CDE9282380
S11356D000232793309B002B02DA0123309303E04D
S11356E0329B23F010033293329B03F40053002BBC
S11356F061D04FF000024FF00003CDE92423329B28
S113570003F0E003402B16D0402B04D8002B1DD00F
S1135710202B05D03AE0602B22D0802B2AD035E014
S1135720039B1A1D03921B68DBB25AB24FEAE27361
S1135730CDE924232AE0039B1A1D03921B689BB224
S11357401AB24FEAE273CDE924231FE0039B1A1D2A
S113575003921B681A464FEAE273CDE9242315E04D
S1135760039B1A1D03921B681A464FEAE273CDE9A4
S113577024230BE0039B073323F0070303F1080200
S11357800392D3E90023CDE9242300BFDDE92423D8
S1135790002A73F1000309DADDE92423524263EBA2
S11357A04303CDE92823012327934BE0DDE9242398
S11357B0CDE9282346E0329B03F0E003402B16D0CA
S11357C0402B04D8002B1DD0202B05D03AE0602BB1
S11357D022D0802B2AD035E0039B1A1D03921B682C
S11357E0DBB2DAB24FF00003CDE928232AE0039BB1
S11357F01A1D03921B689BB29AB24FF00003CDE9C5
S113580028231FE0039B1A1D03921B681A464FF0BE
S11358100003CDE9282315E0039B1A1D03921B689E
S11358201A464FF00003CDE928230BE0039B07330E
S113583023F0070303F108020392D3E90023CDE91F
S1135840282300BF329B03F4C053B3F5805F0DD00F
S1135850B3F5C05F12D0B3F5006F19D10DAB184684
S1135860DDE92823FFF7C8FB2D9011E00DAB1846A6
S1135870DDE92823FFF738FC2D9009E00DAA329BBF
S113588000931046DDE92823FFF7F2FB2D9000BFBB
S11358901C9A2D9B13441C93309A2D9B9A4203D936
S11358A0309A2D9BD31A00E000232C93329A41F6B0
S11358B00803134041F20802934204D12C9B002BAD
S11358C001D101232C931C9A2C9B13441C93329AD0
S11358D041F60803134041F60802934214D1DDE96E
S11358E02823134310D002232E93329B03F48043C6
S11358F0002B07D0024B2F9306E000BF20C300000B
S113590024C300009A4B2F93329B03F40053002BC3
S113591019D0279B002B04D0964B2F9301232E9351
S113592011E0329B03F00603022B02D0062B05D0B4
S113593009E0914B2F9301232E9304E08F4B2F9377
S113594001232E9300BF1C9A2E9B13441C93319A5F
S11359501C9B9A4203D9319A1C9BD31A00E0002362
S11359602B93329B03F00103002B15D1329B03F0E0
S11359701003002B06D02C9A2B9B13442C9300234A
S11359802B9309E005982B99FFF7DEFB0346002BC8
S113599002D04FF0FF3385E12E9B002B0DD0059BE9
S11359A01B68059A526810462F992E9A9847034609
S11359B0002B02D04FF0FF3374E1339A2E9B134433
S11359C0339305982C99FFF7EDFB0346002B02D087
S11359D04FF0FF3366E1339A2C9B13443393059BBA
S11359E01B68059A51680D9A084611462D9A9847E6
S11359F00346002B02D04FF0FF3353E1339A2D9B23
S1135A0013443393329B03F00103002B09D0059810
S1135A102B99FFF799FB0346002B02D04FF0FF337D
S1135A2040E1339A2B9B1344339335E1039B1A1DB6
S1135A3003921B682293229B002B0ED0229B21935E
S1135A4002E0219B01332193219B1B78002BF8D189
S1135A50219A229BD31A239303E0494B22930623D2
S1135A602393309B002B05DB309A239B9A4201D26F
S1135A70309B2393319A239B9A4203D9319A239BD7
S1135A80D31A00E000231B93329B03F00103002B85
S1135A9009D105981B99FFF757FB0346002B02D049
S1135AA04FF0FF33FEE0059B1B68059A52681046D1
S1135AB02299239A98470346002B02D04FF0FF33D4
S1135AC0F0E0339A239B13443393329B03F0010396
S1135AD0002B09D005981B99FFF736FB0346002BD2
S1135AE002D04FF0FF33DDE0339A1B9B1344339312
S1135AF0D2E0039B1A1D03921B681A464FF0000361
S1135B00CDE9182308AB1333079307AA329B0093FC
S1135B101046DDE91823FFF7ABFA2090209B002BF9
S1135B2008D1079B013B0793079B30221A70209BE7
S1135B3001332093079B013B0793079B78221A703C
S1135B40079B013B0793079B30221A70079B013B7D
S1135B500793079B23221A70209B03332093319AC7
S1135B60209B9A420ED9319A209BD31A0BE000BF96
S1135B7028C300002CC3000030C3000034C300005D
S1135B8038C3000000231793329B03F00103002B5A
S1135B9009D105981799FFF7D7FA0346002B02D0CD
S1135BA04FF0FF337EE0059B1B68059A5168079A06
S1135BB008461146209A98470346002B02D04FF01E
S1135BC0FF336FE0339A209B13443393329B03F0EB
S1135BD00103002B09D005981799FFF7B5FA03467E
S1135BE0002B02D04FF0FF335CE0339A179B134431
S1135BF0339351E0039B1A1D03921B68DBB28DF8AB
S1135C001B30319B012B02D9319B013B00E0002367
S1135C101693329B03F00103002B0DD105981699BE
S1135C20FFF792FA0346002B02D04FF0FF3339E01E
S1135C30339A169B13443393059B1B68059A51684A
S1135C400DF11B0208461146012298470346002B1A
S1135C5002D04FF0FF3325E0339B01333393329B63
S1135C6003F00103002B09D005981699FFF76CFA8D
S1135C700346002B02D04FF0FF3313E0339A169BF8
S1135C801344339308E0039B1A1D03921B68159376
S1135C90339A159B1A6000BF149B1B78002B7FF46A
S1135CA0BAAA339B184635B05DF804FB82B00346AC
S1135CB000918DF807309DF90730002B0CDA0C4960
S1135CC09DF8073003F00F03043B009AD2B252014F
S1135CD0D2B20B441A7609E006499DF90730009ABE
S1135CE0D2B25201D2B20B4483F8002302B07047FF
