S0110000726164696F2D746573742E733337E7
S1130000008000207D880000A9880000E9380000F5
S1130010ED380000F1380000F5380000A988000030
S1130020A9880000A9880000A9880000A988000008
S1130030A9880000A9880000A988000005780000AC
S1130040F1980000C98E0000352D0000A988000039
S1130050A9880000A9880000A9880000ED83000099
S1130060A9880000A9880000A9880000F18E00007A
S1130070A9880000A9880000A9880000A9880000B8
S1130080A9880000A9880000A9880000A9880000A8
S1130090A9880000A988000065850000A9880000DF
S11300A0A9880000A9880000A988000091820000A6
S11300B0A9880000A9880000691F0000C17F000012
S11300C0A9880000A9880000A9880000A988000068
S11300D0A9880000A9880000A9880000A988000058
S11300E0044B05481B1A062B02D9044B03B11847CD
S11300F0704700BF630D0020600D00200000000069
S113010005490648091A891001EBD171491002D03A
S1130110034B03B118477047600D0020600D0020A9
S11301200000000010B5064C237843B9FFF7D8FF50
S1130130044B13B10448AFF300800123237010BDB6
S1130140000E00200000000004DE000008B5084B8B
S11301501BB108490848AFF300800848036813B985
S1130160BDE80840CCE7064B002BF9D09847F7E7E9
S113017000000000040E002004DE00005C0D0020DE
S113018000000000134B002B08BF114B9D46A3F544
S1130190803A00218B460F461148124A121A0CF07D
S11301A085FC0D4B002B00D098470C4B002B00D046
S11301B098470020002104000D000B480BF0AEFD11
S11301C00CF02CF92000290003F096FB0BF0ACFD99
S11301D00000080000800020000000000000000073
S11301E0000E002008200020F1C0000000B58DB0F2
S11301F0039006F073FA0990012003F01BF8099BA1
S11302001B788DF82330099B5B788DF82230099B8D
S11302109B788DF82130099BDB788DF82030099B81
S11302201B798DF81F309DF823301B021AB29DF8FC
S113023022301BB213431BB29AB23A4B1A809DF878
S11302401F30053B8DF81E3000230B9305230A93C2
S11302509DF81E301946344806F094FB00230B9396
S113026016E00A9B099A13441978304A0B9B1344ED
S11302700A461A702D4A0B9B13441B7819462C48C6
S113028006F080FB0A9B01330A930B9B01330B930B
S11302909DF81E200B9B9A42E3DC0621254804F0BE
S11302A0F7F90690069B002B04DA2249224806F04F
S11302B069FB19E09DF81E301A461C49069804F0A3
S11302C017FB05909DF81E20059B9A4204D0194AFD
S11302D005991A4806F056FB069804F053FA059A55
S11302E01449174806F04EFB0E4B1B8818469DF820
S11302F021209DF820109DF81F3000930B460146E5
S1130300104806F03FFB9DF81F309AB20E4B1B8835
S113031013449BB2053B9AB20B4B1A8000BF0DB03D
S11303205DF804FBDA0E00202CD200009C0E0020A5
S11303305CD2000064D200006CD2000080D20000C5
S1130340A4D20000D8D20000DC0E002010B59CB06E
S113035005900B4603928DF8133001238DF86F300E
S1130360059B1B88002B02D0892B24D050E1AD487B
S113037004F03EFA00200CF079FD034618460CF018
S1130380E7FBA94B80221A80A84B9B68012181209E
S11303909847A74B9B68012181209847A54A802153
S11303A0A54804F0CBFD00E000BF00238DF86F30BA
S11303B0059B89221A809DF86F30002B01D10123FF
S11303C02DE19E4B1B789DF813209A42ECD1039BA0
S11303D0964A934240F0E98000238DF86E3003235F
S11303E08DF8633017238DF862309DF86330194619
S11303F0934806F0C7FA0CF0B5FB0246914B82FB1A
S113040003341319D911D317C91A0B461B025B1AEB
S1130410D11A0B468DF86130834B1B881B0A9BB2A3
S11304208DF86030804B1B888DF85F3001238DF888
S11304306D309DF86D30002B00F0AD8000238DF8F9
S11304406D309DF86E308DF85E303C238DF86C3045
S113045007AB3C22002118460CF028FB9DF86E30B7
S11304609BB21A46D200D21AD200D31AADF85C302D
S11304709DF860308DF81C309DF85F308DF81D308C
S11304809DF861308DF81E309DF85E308DF81F3078
S11304909DF86E209DF86330013B9A4203D19DF88C
S11304A062308DF86C309DF86C308DF820306648E1
S11304B006F07CFA00238DF86B3005238DF86B3041
S11304C029E09DF86E309BB21A46D200D21AD200AF
S11304D0D31A9AB29DF86B309BB213449BB2053B7E
S11304E0ADF85C309DF86B30BDF85C2057498A5CF0
S11304F01CA90B4403F8542CBDF85C10BDF85C3007
S1130500524AD35C1A46524806F03CFA9DF86B30C6
S113051001338DF86B309DF86B209DF86C309A4256
S1130520CFD39DF81C301B029DF81D2043EA020125
S11305309DF81E301A469DF81F3018469DF820304D
S113054000930346434806F01DFA07AB3C211846C6
S113055006F000F806F0C2F803463C3307AAD2B20C
S11305601A703C2006F0A2F8334804F005FD034657
S11305708DF86D309DF81F301946374806F002FAA1
S11305809DF86E3001338DF86E30022002F052FE79
S1130590C82007F093F99DF86E209DF863309A42C5
S11305A0FFF447AF2D4806F001FA039B204A93421B
S11305B07FF4FAAE2A4B1B8819462A4806F0E2F962
S11305C000231993002316930121164804F060F8C0
S11305D01690169B002B04DA1249234806F0D2F930
S11305E0E2E680222149169804F01CF900231993AD
S11305F00AE01E4A199B13441B7819461C4806F04E
S1130600C1F9199B01331993199B7F2BF1DDCBE6BB
S113061000238DF86F30059B00221A8003231846AF
S11306201CB010BD64D20000D80E002084D8000095
S11306306CD800006CD40000E00E0020801D002067
S113064028D300008180808040D30000ECD30000D8
S113065044D300004CD3000094D30000B0D3000076
S1130660DC0E0020C0D30000D0D300001C0E0020FC
S11306705CD2000084B00190002303930BE00B4A8A
S1130680039B52F82320019B9A4201D1039B09E06A
S1130690039B01330393064B1B781A46039B9A4230
S11306A0EDDC039B184604B0704700BF74000020C3
S11306B0F40E002000B583B001900198FFF7DAFF33
S11306C00346074AD25C62F07F02D1B2044AD15495
S11306D0044805F075FA00BF03B05DF804FB00BFE1
S11306E0A01D00201000002000B587B003900B4629
S11306F001928DF80B3001238DF81730039B1B8872
S1130700772B33D07E2B59D0002B40F0848005F01A
S113071035F803461A46454B1A70454B00221A60B9
S113072012E0434B1B68434A0021D154404B1B68E1
S1130730414A52F823309B680021802098473C4B63
S11307401B6801333A4A1360394B1B683A4A52F822
S11307502330002BE5D1364B1B68DAB2374B1A70C5
S113076000238DF81730039B77221A809DF81730E9
S1130770002B01D1012355E0314B00221A602C4B90
S113078000221A603BE02A4B1B682A4AD35C5BB206
S1130790002B2FDA254B1978254B1B68264A52F873
S11307A023301A46002005F0A3F90346002B11D18B
S11307B000238DF81730039B7E221A809DF8173092
S11307C0002B05D0194B1B789DF80B209A4201D0C1
S11307D0012327E0164B1B68154A126815498A5CE9
S11307E002F07F02D1B2134AD154154B1B68013376
S11307F0134A13600E4B1B6801330D4A13600F4BF1
S11308001B781A460A4B1B689A42BCDC0C4B1B68CB
S1130810002BB1D1A4E700238DF81730039B0022ED
S11308201A800323184607B05DF804FB801D0020DE
S1130830F80E0020A01D002074000020F40E0020FB
S1130840FC0E002010B483B00B4A926C01920A4A49
S1130850D26C11464FF000020C000023019A11469D
S11308604FF0000243EA010344EA02041846214619
S113087003B010BC704700BFA881E00F10B5084A50
S1130880084B9B6C1360084A064BDB6C1360FFF744
S1130890D9FF03460C469AB2044B1A8000BF10BD20
S11308A0841D0020A881E00F881D0020000F002077
S11308B008B502F037F900F0C5FA0A2002F0EAF9A7
S11308C000F0C8FA642002F0E5F900F0FFFB02F042
S11308D0C3F900BF08BD00BF00B585B00190012376
S11308E08DF8083002AB02A90822012000F0F6FBC3
S11308F0019B002B25D09DF80820019B1A709DF8C0
S113090009301B029AB29DF80A309BB213449AB282
S1130910019B5A809DF80B20019B1A719DF80C30A5
S11309201B029AB29DF80D309BB213449AB2019BFC
S1130930DA809DF80E20019B1A729DF80F20019B0E
S11309405A7200BF05B05DF804FB00BF00B585B066
S113095003468DF807300B468DF806301346ADF884
S1130960043031238DF808309DF807308DF80930B4
S11309709DF806308DF80A30BDF804301B0A9BB28E
S1130980DBB28DF80B30BDF80430DBB28DF80C30DF
S113099000238DF80D3000238DF80E3002AB19467C
S11309A0072000F00BFB00BF05B05DF804FB00BF9F
S11309B010B584B00446084611461A4623468DF8FD
S11309C0073003468DF806300B46ADF80430134665
S11309D08DF8033032238DF808309DF807308DF8F8
S11309E009309DF806308DF80A30BDF804301B0A32
S11309F09BB2DBB28DF80B30BDF80430DBB28DF85E
S1130A000C309DF803308DF80D309DF818308DF8BA
S1130A100E309DF81C308DF80F3002AB19460820BB
S1130A2000F0CCFA00BF04B010BD00BF00B585B023
S1130A30009303468DF807300B468DF806301346B5
S1130A408DF8053020238DF808309DF807308DF897
S1130A5009309DF806308DF80A309DF805308DF880
S1130A600B3002AB02A90822042000F037FB009BE4
S1130A70002B1FD09DF80820009B1A709DF80920B8
S1130A80009B5A709DF80A20009B9A709DF80B20D9
S1130A90009BDA709DF80C20009B1A719DF80D20C4
S1130AA0009B5A719DF80E20009B9A719DF80F20AF
S1130AB0009BDA7100BF05B05DF804FB00B585B09A
S1130AC0034600918DF8073015238DF80C309DF8FE
S1130AD007308DF80D3003AB03A90222022000F089
S1130AE0FDFA009B002B07D09DF80C20009B1A7088
S1130AF09DF80D20009B5A7000BF05B05DF804FB03
S1130B0000B583B0034600918DF807309DF80720A7
S1130B10009B0021662000F0A1FA00BF03B05DF83D
S1130B2004FB00BF00B583B0034600918DF8073085
S1130B309DF80720009B0021772000F05FFA00BF9A
S1130B4003B05DF804FB00BF00B585B0019033230A
S1130B508DF80C3003AB03A90222012000F0BEFA89
S1130B60019B002B07D09DF80C20019B1A709DF867
S1130B700D20019B5A7000BF05B05DF804FB00BF57
S1130B8084B001900091019B03F10473DA00009B8F
S1130B9013449B000393039B1B68184604B07047DF
S1130BA082B0019000910848074BD3F82421009BA0
S1130BB0DB431A400199009B0B401343C0F82431D6
S1130BC000BF02B0704700BF0060004000B583B0B2
S1130BD0034600918DF807309DF80730002B12D0A2
S1130BE09DF80730012B0ED09DF80730022B0AD058
S1130BF09DF80730032B06D09DF80730042B02D054
S1130C009DF80730052B9DF807201346DB0013449D
S1130C109B001C3303F1804303F5C043009918463D
S1130C20FFF7AEFF0346184603B05DF804FB00BFB0
S1130C3082B0034600918DF807309DF80730002BF1
S1130C4012D09DF80730012B0ED09DF80730022BEF
S1130C500AD09DF80730032B06D09DF80730042BEB
S1130C6002D09DF80730052B08499DF80720012084
S1130C70009B00FA03F318461346DB0013449B0061
S1130C800B441433186000BF02B07047006000408A
S1130C9082B0034600918DF807309DF80730002B91
S1130CA012D09DF80730012B0ED09DF80730022B8F
S1130CB00AD09DF80730032B06D09DF80730042B8B
S1130CC002D09DF80730052B08499DF80720012024
S1130CD0009B00FA03F318461346DB0013449B0001
S1130CE00B441033186000BF02B07047006000402E
S1130CF000B585B0029111461A4603468DF80F30AF
S1130D000B468DF80E3013468DF80D309DF80E20ED
S1130D109DF80F009DF8183001939DF80D30009355
S1130D201346029A029908F02FFB00BF05B05DF844
S1130D3004FB00BF00B585B003900B468DF80B3063
S1130D40012304220921042008F092FB0023042239
S1130D500821042008F08CFB012302220D21042029
S1130D6008F086FB9DF80B30002B3ED0012128486B
S1130D7009F098FC002301220F21002008F078FBE1
S1130D80002301220E21042008F072FB0023042218
S1130D900021002008F06CFB002304220121002024
S1130DA008F066FB00230093002300220F2100209B
S1130DB0FFF79EFF00230093002300220E2104204E
S1130DC0FFF796FF07224FF44411002009F0DAF8E8
S1130DD006224FF44411012009F0D4F80D4B0322EC
S1130DE09A6002210220FFF7DBFE039B002B0BD04D
S1130DF003990D2008F028F8012300930123002211
S1130E000D210420FFF774FF00BF05B05DF804FB5B
S1130E1000F2040000C00C4008B5074B074A9A6072
S1130E20054B0122DA75064B1B680349184600F08E
S1130E3003FA00BF08BD00BF2400002000127A009E
S1130E402000002008B508210420FFF721FF00BF7F
S1130E5008BD00BF08B508210420FFF7E9FE00BF64
S1130E6008BD00BF08B509210420FFF7E1FE00BF5B
S1130E7008BD00BF08B509210420FFF709FF00BF22
S1130E8008BD00BF08B50D210420FFF79FFE0346EF
S1130E90DBB2184608BD00BF00B583B003468DF829
S1130EA00730064B1B680DF107010122184600F0BC
S1130EB025FB00BF03B05DF804FB00BF2000002049
S1130EC000B583B00190054B1B68012201991846B7
S1130ED000F0EAFA00BF03B05DF804FB2000002034
S1130EE000B583B0034600918DF80730054B1B68AD
S1130EF09DF807200099184600F000FB00BF03B0DE
S1130F005DF804FB2000002000B583B00346009187
S1130F108DF80730054B1B689DF80720009918468B
S1130F2000F0C2FA00BF03B05DF804FB200000200B
S1130F3000B585B0034600918DF8073042F2107376
S1130F40ADF80E3000238DF80D3020E0FFF78AFF56
S1130F504420FFF7A1FF03AB1846FFF7B1FF9DF84C
S1130F600C30FF2B0CD19DF80730002B05D09DF8D9
S1130F70073000991846FFF7C7FFFFF77BFF0AE029
S1130F80FFF778FFBDF80E30013BADF80E30BDF829
S1130F900E30002BDAD19DF80C30FF2B06D1064B16
S1130FA001221A709DF80C308DF80D309DF80D302B
S1130FB0184605B05DF804FB5C0F002000B583B053
S1130FC0034600918DF8073001E000F077F80A4BF2
S1130FD01B78002BF9D0FFF745FF9DF807300099E7
S1130FE01846FFF77DFFFFF745FF034B00221A70F9
S1130FF000BF03B05DF804FB5C0F002000B583B0B4
S1131000009303468DF807300B468DF806301346DF
S11310108DF805309DF80630002B06D001E000F075
S11310204DF80D4B1B78002BF9D0FFF71BFF9DF8F3
S113103007301846FFF730FF9DF805300099184631
S1131040FFF762FFFFF716FF034B00221A7000BF81
S113105003B05DF804FB00BF5C0F002000B583B053
S1131060009303468DF807300B468DF8063013467F
S11310708DF805309DF80630002B06D001E000F015
S11310801DF80D4B1B78002BF9D0FFF7EBFE9DF8F4
S113109007301846FFF700FF9DF805300099184601
S11310A0FFF71EFFFFF7E6FE034B00221A7000BF96
S11310B003B05DF804FB00BF5C0F002008B50021FD
S11310C00020FFF735FF0346184608BD024B0022F7
S11310D01A7000BF704700BF5C0F002000B585B0D8
S11310E00291019303468DF80F3013468DF80E30AC
S11310F09DF80F3002991846FFF760FF9DF80E30F7
S113110001991846FFF714FF0346184605B05DF829
S113111004FB00BF00B58DB0019071E0019B5A1C27
S113112001921B788DF82E309DF82E30102B1DD98E
S1131130019B1B78662B17D19DF82E30802B01D98B
S1131140042362E0019B013301939DF82E30013B9F
S1131150DBB20199184600F05DF89DF82E30013B92
S1131160019A134401934BE004234EE000238DF8CD
S11311702F300FE09DF82F30019A12780CA90B4400
S113118003F8142C019B013301939DF82F30013394
S11311908DF82F309DF82F209DF82E309A42E9D3F8
S11311A00DF10B0307A99DF82E000122FFF796FF0E
S11311B00346FF2B01D0022327E09DF81C30192B96
S11311C00BD19DF80C30012B01D104231DE09DF8B7
S11311D00C30022B01D1042317E0FFF753FE034622
S11311E0002B0DD103AB002200210020FFF71EFCD1
S11311F09DF8123003F00803002B01D0042304E00F
S1131200019B1B78002B89D1002318460DB05DF893
S113121004FB00BF00B583B0034600918DF807308E
S11312209DF80720009B01216620FFF717FF00BFF0
S113123003B05DF804FB00BF30B58BB001900091A2
S1131240884B02AC1D460FCD0FC495E8030084E81B
S11312500300019B002B01D1834B00E1009B002B79
S113126001D1824BFBE05822002101980BF01EFCB7
S1131270009B1B687E4A93420AD1019B7D4ADA6433
S1131280019B7D4A5A62019B4FF450229A6221E0ED
S1131290009B1B68794A93420AD1019B784ADA641D
S11312A0019B784A5A62019B4FF460229A6211E0D2
S11312B0009B1B68744A93420AD1019B734ADA6407
S11312C0019B734A5A62019B4FF440229A6201E0E7
S11312D0664BC4E0019A009B14461D460FCD0FC413
S11312E095E8070084E80700009B5B7D012B02D191
S11312F001238DF81630009B9B7D002B03D1002326
S1131300ADF818301CE0009B9B7D012B04D14FF4F9
S11313100073ADF8183013E0009B9B7D022B04D1C1
S11313204FF48073ADF818300AE0009B9B7D032BCB
S113133004D14FF44073ADF8183001E04B4B8EE00C
S1131340009B1B7D012B06D100238DF815304FF433
S11313507A73049302E0009B9B68049301214D4837
S113136009F0A0F901214C4809F09CF9019BDB6CC0
S11313700121184609F096F9009B1B6802AA114640
S1131380184607F065FC009B1B7D002B0BD1009BCE
S1131390DB7D002B07D1009B1B68009A1268126842
S11313A042F480321A60009BDB7D002B08D1009B45
S11313B01B68009A1279120242F00F025A6507E084
S11313C0009B1B68009A1279120242F00B025A65C4
S11313D00121019800F0CAF80990099B002B01D063
S11313E0099B3CE009F0F4FF08902C4B1B7883F038
S11313F00103DBB2002B08D0284B01221A70089895
S113140009F0F2FF00F02CFD02E0089809F0ECFF6F
S1131410009B1B7D012B09D1019B5433184600F01E
S1131420D9FC0346002B01D01D4B18E001F078F8DD
S1131430019B1C330021184601F018F80346002BC9
S113144001D0184B0BE0019B20330021184601F01A
S11314500DF80346002B01D0124B00E00023184680
S11314600BB030BD7CD40000012000F0022000F05D
S113147000C400400012040001000D0000C8004038
S11314800022040001000E0000C00040000204001D
S113149001000C004081040000D204005D0F002014
S11314A0042000F0092000F000B587B003900291F9
S11314B00192039B1B7D012B01D10E4B15E0019A78
S11314C00299039800F0C4FB0590059B002B01D002
S11314D0059B0AE0084B019A0299039800F0F0FA80
S11314E0039800F0EBFB039B5B6C184607B05DF8B8
S11314F004FB00BF082000F05115000000B587B0C0
S1131500039002910192039B1B7D012B01D10E4B91
S113151015E0019A0299039800F09AFB0590059B47
S1131520002B01D0059B0AE0084B019A029903980D
S113153000F02AFB039800F0C1FB039B5B6C184688
S113154007B05DF804FB00BF082000F0511500004F
S113155084B0039002910192039B029A5A64039B04
S1131560012283F8502000BF04B0704700B58BB04F
S113157001900B468DF80330019B1B790393019B6B
S11315801B689D4A934240F09B80039B002B0CD028
S1131590039B012B07D0039B022B01D1032306E0FD
S11315A04FF0FF3303E0032301E04FF0FF330693D2
S11315B0039B002B0CD0039B012B07D0039B022B16
S11315C001D1032306E04FF0FF3303E0032301E0DE
S11315D04FF0FF330593039B002B0CD0039B012B8F
S11315E007D0039B022B01D1052306E04FF0FF3304
S11315F003E0032301E04FF0FF330493039B002B2C
S11316000CD0039B012B07D0039B022B01D1052394
S113161006E04FF0FF3303E0032301E04FF0FF3314
S1131620019AD363039B002B0CD0039B012B07D09F
S1131630039B022B01D1072306E04FF0FF3303E0A5
S1131640002301E04FF0FF330993039B002B0CD0E0
S1131650039B012B07D0039B022B01D1062306E039
S11316604FF0FF3303E0012301E04FF0FF33089311
S1131670039B002B0CD0039B012B07D0039B022B55
S113168001D1002306E04FF0FF3303E0022301E021
S11316904FF0FF330793039B002B0CD0039B012BCC
S11316A007D0039B022B01D1012306E04FF0FF3347
S11316B003E0032301E04FF0FF33019A136425E1B3
S11316C0019B1B684D4A934272D1039B002B07D0A8
S11316D0039B012B01D1012304E04FF0FF3301E010
S11316E04FF0FF330693039B002B07D0039B012B82
S11316F001D1012304E04FF0FF3301E04FF0FF3349
S11317000593039B002B07D0039B012B01D10123DD
S113171004E04FF0FF3301E04FF0FF330493039BE9
S1131720002B07D0039B012B01D1012304E04FF0D0
S1131730FF3301E04FF0FF33019AD363039B002B87
S113174007D0039B012B01D1032304E04FF0FF33A7
S113175001E04FF0FF330993039B002B07D0039B59
S1131760012B01D1042304E04FF0FF3301E04FF0DB
S1131770FF330893039B002B07D0039B012B01D15C
S1131780052304E04FF0FF3301E04FF0FF330793EC
S1131790039B002B07D0039B012B01D1062304E0FC
S11317A04FF0FF3301E04FF0FF33019A1364ADE0D3
S11317B0019B1B68124A934240F0A680039B002BB6
S11317C020D0039B012B13D0039B022B0DD0039B32
S11317D0032B07D0039B042B01D1012313E04FF00B
S11317E0FF3310E04FF0FF330DE04FF0FF330AE01A
S11317F04FF0FF3307E000BF00C4004000C80040C2
S113180000C0004004230693039B002B19D0039BC4
S1131810012B13D0039B022B0DD0039B032B07D06A
S1131820039B042B01D101230CE04FF0FF3309E0AB
S11318304FF0FF3306E04FF0FF3303E04FF0FF3388
S113184000E004230593039B002B01D1042301E052
S11318504FF0FF330493039B002B01D1042201E0DA
S11318604FF0FF32019BDA63039B002B19D0039BDB
S1131870012B13D0039B022B0DD0039B032B07D00A
S1131880039B042B01D107230CE04FF0FF3309E045
S11318904FF0FF3306E04FF0FF3303E04FF0FF3328
S11318A000E00A230993039B002B19D0039B012B0F
S11318B013D0039B022B0DD0039B032B07D0039B58
S11318C0042B01D108230CE04FF0FF3309E04FF063
S11318D0FF3306E04FF0FF3303E04FF0FF3300E047
S11318E00B230893039B002B01D10C2301E04FF041
S11318F0FF330793039B002B01D10D2201E04FF02E
S1131900FF32019B1A6401E0544BA3E09DF80330BD
S1131910002B6BD0019B1B7D002B33D1069BD8B2CF
S113192009990023042207F0A3FD059BD8B2089966
S11319300023022207F09CFD019B9B7D002B03D01A
S1131940019B9B7D012B07D1049BD8B207990023EF
S1131950042207F08DFD06E0049BD8B20799012309
S1131960042207F085FD019BDB7D002B71D1019BD7
S1131970DB6BD8B2019B1B6C19460123042207F0D0
S113198077FD66E0069BD8B209990023022207F08E
S11319906FFD059BD8B208990023042207F068FD67
S11319A0019B9B7D002B03D0019B9B7D012B07D1C9
S11319B0049BD8B207990023022207F059FD06E0E0
S11319C0049BD8B207990123022207F051FD019B21
S11319D0DB7D002B3DD1019BDB6BD8B2019B1B6CE3
S11319E019460123022207F043FD32E0069BD8B2D8
S11319F009990023022207F03BFD059BD8B2089900
S1131A000023022207F034FD019B9B7D002B03D0B1
S1131A10019B9B7D012B07D1049BD8B2079900231E
S1131A20022207F025FD06E0049BD8B207990123A2
S1131A30022207F01DFD019BDB7D002B09D1019BD8
S1131A40DB6BD8B2019B1B6C19460023002207F004
S1131A500FFD002318460BB05DF804FB022000F0D4
S1131A6000B587B003900291019209F0B1FC059092
S1131A70019B0493049B00225A64049B002283F874
S1131A804820049B00229A63049B1B7D012B04D1F4
S1131A90049B5B6D184600F031FA049BDB6A002B53
S1131AA006D0049BDB6A049A526B00210498984781
S1131AB0059809F099FC0123184607B05DF804FB6A
S1131AC000B58FB00990089107920693099B0022F4
S1131AD083F85020099B079A5A63099B1B684FF4AB
S1131AE04062DA60099B069ADA62099BDB68082B7C
S1131AF003D901238DF82F3002E000238DF82F3015
S1131B00099BDB68082B08D9099B1B6824330D93B8
S1131B10099B1B683C330C9307E0099B1B681C332F
S1131B200D93099B1B6834330C93099B186A099B1A
S1131B30996A099B0493134B03939DF82F300293E6
S1131B40079B0193012300930D9B089A00F04EFD1F
S1131B50099BD869099B596A099B03F11002002368
S1131B600493002303939DF82F300293079B019362
S1131B700023009313460C9A00F014FD00BF0FB02D
S1131B805DF804FB611A000000B58FB0099008915C
S1131B9007920693099B002283F85020099B079A19
S1131BA05A63099B1B684FF44062DA60099B069AEA
S1131BB0DA62099BDB68082B03D901238DF82F30E7
S1131BC002E000238DF82F30099BDB68082B08D92D
S1131BD0099B1B6824330D93099B1B683C330C93AE
S1131BE007E0099B1B681C330D93099B1B68343366
S1131BF00C93099B186A099B996A099B03F13002AB
S1131C00099B0493114B03939DF82F300293079B78
S1131C100193002300930D9B00F0E8FC099BD86915
S1131C20099B596A00230493002303939DF82F30E2
S1131C300293079B019301230093089B0C9A00F0E5
S1131C40B1FC00BF0FB05DF804FB00BF611A0000D7
S1131C5000B587B0039002910192039B002B01D140
S1131C60134B21E0029B002B06D0019B002B03D0D9
S1131C70019BB3F5806F01DD0E4B15E009F0A8FB65
S1131C800590039B93F84830DBB2002B04D00598F1
S1131C9009F0AAFB084B07E0039B012283F84820C4
S1131CA0059809F0A1FB0023184607B05DF804FB72
S1131CB0012000F0022000F0032000F000B583B002
S1131CC00190002009F09AFB0346002B0CD001E0A0
S1131CD007F00EFE019B93F85030DBB283F0010352
S1131CE0DBB2002BF4D109E000BF019B93F8503024
S1131CF0DBB283F00103DBB2002BF6D100BF03B0EB
S1131D005DF804FB82B003468DF8073007499DF95E
S1131D1007305B099DF8072002F01F02012000FA3A
S1131D2002F241F8232000BF02B0704700E100E056
S1131D3082B003468DF8073008499DF907305B09E6
S1131D409DF8072002F01F02012000FA02F260331E
S1131D5041F8232000BF02B0704700BF00E100E05B
S1131D60014B5B68184670470000084082B0019040
S1131D70024A019B936100BF02B070470000084013
S1131D8082B001900449044BDA69019BDB431340A0
S1131D90CB6100BF02B070470000084082B00190E0
S1131DA00449044BDA69019B1343CB6100BF02B0C1
S1131DB0704700BF0000084082B0054BDB69019307
S1131DC0034B1A69019B1340184602B0704700BFC9
S1131DD00000084000B587B001900023059300235C
S1131DE0049309F0F5FA039002E0059B013305938F
S1131DF0059B032B0ADC1749059A13469B001344E1
S1131E00DB000B441E331B78002BEED1059B042B07
S1131E1002D1114B049314E0019B002B0FD00D4908
S1131E20059A13469B001344DB000B441E33012226
S1131E301A70059A019B1A600023049301E0074B72
S1131E400493039809F0D0FA049B184607B05DF890
S1131E5004FB00BF600F0020011000F0041000F02C
S1131E6008B51D4B1B78002B01D0002332E01A4B20
S1131E7001221A700121194808F014FC02211848A3
S1131E8008F0F2FD0821174808F01EFB012115484F
S1131E9008F008FC144809F049FA0720FFF770FF1E
S1131EA00720FFF763FF09F065FA1E20FFF740FFE4
S1131EB01E20FFF727FFA02200210C480AF0F6FDA0
S1131EC00B4B00221A700B4B00221A700A4B002293
S1131ED01A600023184608BD0A10002000430200BF
S1131EE002001A006016100094D40000600F002055
S1131EF008100020091000200410002000B585B04F
S1131F000190019B032B01D9144B23E009F060FAE3
S1131F1003901349019A13469B001344DB000B44BE
S1131F201E331B7883F00103DBB2002B04D003982B
S1131F3009F05AFA0B4B0DE00949019A13469B002C
S1131F401344DB000B441C3300221A70039809F07D
S1131F504BFA0023184605B05DF804FB021000F0AC
S1131F60600F0020031000F000B587B009F030FACC
S1131F700490FFF721FF0390039B23F0030318460B
S1131F80FFF7F4FE039B03F00203002B39D0204B30
S1131F9001221A70FFF7E4FE05900220FFF7F0FE1D
S1131FA0059B1A021B4B1B681B02D31A1B0A0293C4
S1131FB0029800F033F800F07DF9059800F0AAF9D2
S1131FC0FFF7CEFE0590059B1A02124B1B681B02FD
S1131FD0D31A1B0A0293002009F05CF903461A0283
S1131FE00C4B1B681B02D31A1B0A01930A4B1B7868
S1131FF0002B03D0029A019B9A42CED8044B0022B4
S11320001A70049809F0F0F900BF07B05DF804FBFA
S113201008100020001000200910002010B485B022
S11320200190002303933BE1A149039A13469B00CB
S11320301344DB000B441D3300221A709C49039A9D
S113204013469B001344DB000B441C331B78002B0A
S113205000F023819649039A13469B001344DB0046
S11320600B4418CB019A11464FF00002A24208BF5C
S1132070994218D28E49039A13469B001344DB00FD
S11320800B44D3E90012019B4FF00004C91A62EB20
S11320900402874C039803469B000344DB0023445B
S11320A0C3E90012F9E08249039A13469B001344E2
S11320B0DB000B441F331B78002B0AD17C49039AA5
S11320C013469B001344DB000B441C3300221A709C
S11320D0CEE07749039A13469B001344DB000B447C
S11320E00833D3E90012019B4FF00004C91A62EBD4
S11320F004026F4C039803469B000344DB00234413
S113210018CBC91842EB0402694C039803469B00A0
S11321100344DB002344C3E900126549039A1346D0
S11321209B001344DB000B4410331B68002B4FDD72
S11321305F49039A13469B001344DB000B4414339A
S113214019685B48039A13469B001344DB0003445D
S113215010331B6819445648039A13469B001344D2
S1132160DB000344143319605149039A13469B005E
S11321701344DB000B4414331B68F32B78D94C490C
S1132180039A13469B001344DB000B4418CB591CE1
S113219044F10002464C039803469B000344DB00D1
S11321A02344C3E900124249039A13469B00134493
S11321B0DB000B4414331B68A3F1F4013C48039A7D
S11321C013469B001344DB000344143319604FE0AF
S11321D03749039A13469B001344DB000B44143322
S11321E019683348039A13469B001344DB000344E5
S11321F010331B68C91A2E48039A13469B001344D4
S1132200DB000344143319602949039A13469B00E5
S11322101344DB000B4414331B68F32B28D92449E3
S1132220039A13469B001344DB000B4418CB13F1B1
S1132230FF3144F1FF321E4C039803469B000344D4
S1132240DB002344C3E900121949039A13469B0097
S11322501344DB000B4414331B68A3F1F40114484A
S1132260039A13469B001344DB00034414331960A0
S11322700F49039A13469B001344DB000B441833A5
S11322801B68002B09D00A49039A13469B00134488
S1132290DB000B441D3301221A70039B01330393AB
S11322A0039B032B7FF7C0AE00BF05B010BC704783
S11322B0600F002010B582B00023019322E014497E
S11322C0019A13469B001344DB000B441D331B7817
S11322D0002B14D00E49019A13469B001344DB00D3
S11322E00B4418331C6801980949019A13469B0052
S11322F01344DB000B4420331B681946A047019BA1
S113230001330193019B032BD9DD00BF02B010BD43
S1132310600F002010B58AB001904FF0FF334FF0EA
S1132320FF34CDE906340023099326E03649099A9F
S113233013469B001344DB000B441C331B78002B17
S113234018D03149099A13469B001344DB000B440F
S1132350D3E90012DDE90634A24208BF994209D24A
S11323602949099A13469B001344DB000B4418CBFC
S1132370CDE90634099B01330993099B032BD5DD71
S1132380224B00221A70DDE90634B4F1FF3F08BF86
S1132390B3F1FF3F34D0DDE90634CDE904341C4BFE
S11323A00393039B4FF00004DDE90412A24208BF2B
S11323B0994201D20B461446CDE90634154B1B78DD
S11323C083F00103DBB2002B05D0019B23F07F4394
S11323D0114A136002E0104A019B13600220FFF7C8
S11323E0C5FC069A019B134423F07F431946002041
S11323F008F06AFF054B01221A700220FFF7CEFC99
S113240000BF0AB010BD00BF600F002009100020FB
S11324109BFFFF00081000200010002082B003463C
S113242000918DF807309DF90730002B0CDA0D4927
S11324309DF8073003F00F03043B009AD2B2520117
S1132440D2B20B441A7609E007499DF90730009A85
S1132450D2B25201D2B20B4483F8002300BF02B0BF
S1132460704700BF00ED00E000E100E000B585B07A
S113247001900091254B1B7883F00103DBB2002B04
S113248001D0234B3DE0019B002B01D1214B38E0CF
S113249008F09EFF0290002303932BE01E49039A49
S11324A013469B0013449B000B4410331B7883F0AA
S11324B00103DBB2002B1AD0039A019B1A60164960
S11324C0039A13469B0013449B000B4410330122D0
S11324D01A701149039A13469B0013449B000B4442
S11324E000221A60029808F07FFF002309E0039B92
S11324F001330393039B0B2BD0DD029808F074FF88
S1132500064B184605B05DF804FB00BF0B10002015
S1132510028000F0018000F00C100020048000F024
S113252000B585B008F054FF02901A4B1B78002BBD
S113253004D0029808F058FF174B26E0154B0122EF
S11325401A70029808F050FF002303930CE013491B
S1132550039A13469B0013449B000B441033002240
S11325601A70039B01330393039B0B2BEFDD0421B0
S11325700020FFF753FF00238DF80030084B019330
S11325806B46184607F0F4FA0023184605B05DF8C8
S113259004FB00BF0B100020038000F00C1000208F
S11325A0001E002000B58DB00B900A91099208938B
S11325B0129B0793119B06939DF8403005930F9B44
S11325C004939DF83830039300230293089B0193EE
S11325D0099B00930A9B0B9A0021002000F09CF8B1
S11325E0034618460DB05DF804FB00BF00B58DB07E
S11325F00B900A9109920893129B0793119B0693DF
S11326009DF8403005930F9B04939DF83830039355
S113261000230293089B0193099B00930A9B0B9A46
S11326200121002000F078F8034618460DB05DF84B
S113263004FB00BF00B587B003900B4601928DF8F0
S11326400B30039A13469B0013449B000B4A13441C
S11326500593059B1B68002B0CD0059B9B685A1C9B
S1132660059B9A60059B1B68059A9168059A5268B8
S11326700398984700BF07B05DF804FB0C100020D6
S113268000B58BB007900B4605928DF81B300123E3
S11326908DF82730079A13469B0013449B001D4A6C
S11326A013440893089B1B68002B1DD0089B9B6850
S11326B05A1C089B9A60089B1B68089A9168089AA0
S11326C05268079898470346002B14BF0123002340
S11326D0DBB283F00103DBB28DF827309DF827309D
S11326E003F001038DF82730089BDB68013B1A4691
S11326F09DF81B109DF8273002930192002300934C
S113270000230022002007F05DFA00BF0BB05DF843
S113271004FB00BF0C10002000B58FB00692059397
S113272003468DF81F300B468DF81E308E4B1B78F8
S113273083F00103DBB2002B01D08C4B10E1069B2C
S11327400B2B10D8109B002B0DD0119B002B0AD003
S1132750149BB3F5806F06DC9DF81F30012B04D168
S1132760129B002B01D1824BFAE0069A13469B0080
S113277013449B007F4A13440D930D9B1B7C83F0F1
S11327800103DBB2002B01D07B4BE9E09DF81F3045
S1132790002B09D17949069A13465B0013449B0028
S11327A00B44774A1A6008E07449069A13465B00A2
S11327B013449B000B44734A1A607049069A1346EB
S11327C05B0013449B000B44043300221A60002373
S11327D08DF82830169B002B03D19DF81F30012B58
S11327E003D101238DF8293002E000238DF829302C
S11327F0059B0B93069A13465B0013449B005F4AA8
S113280013440C930AAB1946069807F033F99DF864
S11328101E30002B1ED19DF84C30002B13D09DF898
S11328205430002B03D100238DF821300EE09DF8A5
S11328305430012B03D101238DF8213006E002230B
S11328408DF8213002E003238DF8213003238DF825
S113285020301DE09DF84C30002B13D09DF85430EF
S1132860002B03D100238DF820300EE09DF8543066
S1132870012B03D101238DF8203006E002238DF8CB
S1132880203002E003238DF8203003238DF821301B
S11328909DF854308DF8223000238DF82330002326
S11328A08DF8243008AB1A460121069807F02AF95E
S11328B09DF81F30012B05D108AB1A46002106985C
S11328C007F020F90D9B169A1A600D9B179A5A600F
S11328D00D9B00229A600D9B149ADA602A4A01210A
S11328E0069B01FA03F3194602F580530833196075
S11328F09DF81F30002B0BD1149B013B0193119BBE
S11329000093109B00220121069807F05DF826E051
S11329109DF81E30002B11D1149B013B1A46149BC9
S1132920013B0393129B0293109B01930092119B12
S1132930109A0021069807F06DF810E0149B013BF3
S11329401A46149B013B0393129B0293119B019320
S11329500092129B109A0021069807F05BF800235E
S113296018460FB05DF804FB0B100020028000F045
S1132970018000F00C100020078000F0FC10002003
S1132980352600008126000000200C4082B003465A
S11329908DF8073007499DF907305B099DF807203A
S11329A002F01F02012000FA02F241F8232000BFC6
S11329B002B0704700E100E082B003468DF80730B2
S11329C008499DF907305B099DF8072002F01F02B2
S11329D0012000FA02F2203341F8232000BF02B0A4
S11329E0704700BF00E100E082B003468DF8073075
S11329F008499DF907305B099DF8072002F01F0282
S1132A00012000FA02F2603341F8232000BF02B033
S1132A10704700BF00E100E0044A044B1B6923F047
S1132A200403136130BF00BF704700BF00ED00E036
S1132A3084B0039002910192039A029B03331B0119
S1132A4013440433019A1A6000BF04B0704700BFF6
S1132A5082B00190019B5B6A184602B0704700BFC8
S1132A6082B001900B468DF80330019B0E4A9342CD
S1132A700AD0019B0D4A934206D0019B0C4A934213
S1132A8002D0019B0B4A934200BF9DF80330002BF8
S1132A9003D0019B01225A6002E0019B02225A608A
S1132AA000BF02B0704700BF0000014000040140B5
S1132AB000080140000C014082B001900091019B8C
S1132AC0009A9A6100BF02B0704700BF82B00190C3
S1132AD00091019BDA68009BDB431A40019BDA609A
S1132AE000BF02B0704700BF82B001900091019B0B
S1132AF0DA68009B1A43019BDA6000BF02B070479A
S1132B0082B00190019B1B69184602B0704700BF58
S1132B1082B001900091019B009ADA6100BF02B07B
S1132B20704700BF70B588B003AB00221A605A60CA
S1132B309A601A7301238DF80C306B4600221A60D8
S1132B405A60C3F8072002238DF806300121374864
S1132B5007F0A8FD4FF6FF713548FFF7D9FF6B4624
S1132B601A460021324807F06FF900238DF80E3021
S1132B7003AB19462E4807F0E7F82E4807F0FEFD90
S1132B8002462D4B1A602C4B1B689DF80E20D34037
S1132B90294A13609DF80E300133DBB28DF80E30F4
S1132BA09DF80E300A2B04D8234B1B68234A93420A
S1132BB0DED8234807F0E2FD0246224BB3FBF2F3D2
S1132BC007931D4B1B6819464FF00002079B4FF0FB
S1132BD0000403FB02F501FB04F02844A1FB0334C9
S1132BE00219144618494FF000025D1844EB02061E
S1132BF028463146154A4FF0000308F0FFFE03460D
S1132C000C461A46124B1A60124B00221A701021FD
S1132C100748FFF75BFF0220FFF7E6FE0220FFF7FD
S1132C20B5FE0023184608B070BD00BF0052040072
S1132C3000000140408104008C11002080841E00AB
S1132C405000020000B0710B20A1070040420F00A9
S1132C50901100209411002008B50220FFF7ACFE6B
S1132C6010210A48FFF732FF10210848FFF724FF1C
S1132C700220FFF7B9FE00210448FFF7F1FE00210E
S1132C80034807F00FFD0023184608BD000001406B
S1132C900052040070B584B00190224B1B681946A1
S1132CA04FF00002019B4FF0000403FB02F501FB0F
S1132CB004F02844A1FB0334021914461A494FF0C6
S1132CC000025D1844EB020628463146174A4FF0CD
S1132CD0000308F093FE03460C46CDE902340DE0F0
S1132CE04FF6E85000F040F8DDE9023410494FF0A7
S1132CF0FF325B1844EB0204CDE90234DDE902340F
S1132D004FF6E8514FF00002A24208BF9942E7D3C0
S1132D10BDF80830184600F027F80023184604B020
S1132D2070BD00BF8C11002020A1070040420F009D
S1132D301802FFFF00B583B00948FFF7E1FE0190D8
S1132D40019B03F01003002B06D010210448FFF769
S1132D50B3FE044B01221A7000BF03B05DF804FBFC
S1132D60000001409411002000B587B00346ADF87F
S1132D700630BDF80630002B36D008F029FB05904C
S1132D801B48FFF765FE01461A4B1B680493BDF808
S1132D900630ADF80E30BDF80E20049B934238BFC8
S1132DA013460B441A4600211148FFF741FE102137
S1132DB00F48FFF781FE10210D48FFF795FE059897
S1132DC008F012FB01E0FFF727FE0B4B1B78DBB288
S1132DD083F00103DBB2002BF5D1074B00221A70FC
S1132DE010210348FFF772FE00BF07B05DF804FB33
S1132DF000000140901100209411002000B589B01A
S1132E0003468DF8073003AB0793079B002200218C
S1132E100020FDF70BFE079B9B7803F01003002BAB
S1132E2003D0074802F0CCFE04E0079B9B7803F034
S1132E300803002B00F082F900BF09B05DF804FB21
S1132E404000002008B501211848FDF773FFFDF785
S1132E50E3FF00F087F90CE0154803F0A7FDFFF746
S1132E6061FE42F21070FFF715FFFFF7F5FE00F068
S1132E7079F91048FEF74EF90346002BECD10023F4
S1132E80002200210020FDF7D1FD0B48FDF724FDB1
S1132E90094B5B881946094803F074FD0021084872
S1132EA002F076FC0123184608BD00BFFD2D00008A
S1132EB0B0D4000010D500008C1D0020D4D4000034
S1132EC04000002000B585B001900B46ADF80230FB
S1132ED0214B00221A60BDF80230402B01D9002397
S1132EE035E0002303930BE0039A1C4B1340002BA3
S1132EF003DA013B63F00F030133039B01330393B4
S1132F00BDF80220039B9A42EEDC00210120FDF76C
S1132F10D5FD134A019B1360124ABDF80230138099
S1132F201148FDF711FE02E00F48FDF70DFE0E4BB0
S1132F301B78072BF8D00D4B1B68DB88DBB201999B
S1132F401846FDF7DDFD044B01221A6000231846E4
S1132F5005B05DF804FB00BF981100200F0000804D
S1132F609C110020A01100208C1D00207000002066
S1132F7000B589B00346ADF8063003AB0793104B98
S1132F801B689B7BBDF8062030211846FDF7DEFC4C
S1132F90079B002200210020FDF748FD05E0079B68
S1132FA0002200210020FDF741FD079B9B7803F0E0
S1132FB02003002BF3D10023184609B05DF804FB6D
S1132FC07000002000B583B001900B46ADF80230CC
S1132FD0BDF8023019460198FFF774FF0346012B30
S1132FE001D1012305E0BDF802301846FFF7C0FF08
S1132FF00346184603B05DF804FB00BF00B587B074
S113300001900B46ADF8023002AB19460020FDF7E3
S113301055FD9DF80830ADF80230BDF80230DBB242
S113302001991846FDF77EFD00210220FDF746FDBB
S1133030BDF80230184607B05DF804FB00BF18461F
S1133040704700BF00231846704700BF00BF1846F2
S1133050704700BF08B500210220FDF72FFD0021B5
S11330600120FDF72BFD00F069F80123184608BD87
S113307000231846704700BF00B589B003900B4683
S113308001928DF80B3001238DF81F30039B1B88B0
S1133090002B03D0B3F5847F07D03FE000238DF8E5
S11330A01F30039B4FF484721A809DF81F30002B4D
S11330B003D09DF80B30822B01D0012335E003F0BF
S11330C02BFA03F00BFB034680211846FFF796FF0B
S11330D00590059B9BB2184603F0E8FA154B1B6953
S11330E0984703F0FBFA0490002306930BE0069A3A
S11330F0114B1340002B03DA013B63F00F03013340
S1133100069B01330693069A059B9A42EFDB002146
S11331100120FDF7D3FCFFF79DFFBFE700238DF8E7
S11331201F30039B00221A800323184609B05DF860
S113313004FB00BF5CDC00000F00008000B583B01E
S1133140074B1B68187E0823019303230093002375
S113315000220021FDF72CFC00BF03B05DF804FB46
S11331607000002008B5FDF7A3FBFFF7DBFC42F27B
S11331701070FFF78FFDFFF76FFD00BF08BD00BFA4
S113318000B583B003468DF807309DF8073003F08F
S11331900103002B9DF8073003F00203002B9DF878
S11331A0073003F00403002B064B1A78064B1B78F8
S11331B05340DBB2184600F073F800BF03B05DF86B
S11331C004FB00BFA2110020A311002008B500F0E9
S11331D057F8044B00221A70024B1A78024B1A70EB
S11331E000BF08BDA3110020A211002000B585B0C6
S11331F003468DF807300E4B1A789DF807301340BC
S11332008DF80F309DF90730DB435AB2084B1B7819
S11332105BB213405BB2DAB2054B1A709DF80F3003
S11332201846FFF7ADFF00BF05B05DF804FB00BF13
S1133230A211002000B583B003468DF807309DF835
S11332400730184600F004F800BF03B05DF804FB33
S113325000B583B003468DF80730084B1A789DF803
S113326007305340DAB2054B1A709DF80730184600
S1133270FFF786FF00BF03B05DF804FBA311002035
S113328008B5002304220621052006F0F1F80023E6
S113329004220721052006F0EBF800BF08BD00BF9B
S11332A000B583B003468DF807309DF8073003F06E
S11332B00103002B04D00121F62004F06FFC03E08D
S11332C00021F62004F06AFC9DF8073003F00203A5
S11332D0002B04D00121F72004F060FC03E000215E
S11332E0F72004F05BFC00BF03B05DF804FB00BFF3
S11332F0024B01221A6000BF704700BFA4110020D6
S1133300024B01221A6000BF704700BFA4110020C5
S1133310024B00221A6000BF704700BFA4110020B6
S1133320014B1B6818467047A411002000B583B0F8
S1133330019005F071F80346184603B05DF804FBEC
S113334000B583B001900091019B802B02D0812BAA
S113335004D00DE0FFF7CCFF01230AE0009B002B13
S113336002D0FFF7CDFF01E0FFF7D2FF012300E019
S11333700023184603B05DF804FB00BF00B583B01A
S11333800190019B822B03D1FFF7CAFF034600E0A3
S11333900023184603B05DF804FB00BF00B585B0F8
S11333A0029111461A4603468DF80F300B468DF8EC
S11333B00E3013468DF80D309DF80E209DF80F0049
S11333C09DF8183001939DF80D3000931346029A2E
S11333D0029905F0D9FF00BF05B05DF804FB00BFFA
S11333E008B50248FDF766F900BF08BD6CD80000B7
S11333F000B583B004F034FC0346002B01D104F083
S113340035FC012302220321042006F031F80123B4
S113341000930123002203210420FFF7BFFF044986
S1133420032005F011FD00BF03B05DF804FB00BFED
S1133430E133000008B5054B1B68002B01D1FFF7F1
S1133440D7FF034B01221A6000BF08BDA81100205A
S1133450AC110020024B00221A6000BF704700BF6D
S1133460AC110020014B1B6818467047AC110020BA
S113347082B001900123184602B0704700B583B0B2
S11334800190019B813B012B03D8FFF7EBFF03461F
S113349000E00023184603B05DF804FB00B583B0D8
S11334A001900091019B802B02D0812B04D00DE070
S11334B0FFF79EFF01230AE0009B002B02D0FFF7D9
S11334C0B9FF01E0FFF7C6FF012300E0002318461F
S11334D003B05DF804FB00BF024BD3F81431184667
S11334E0704700BF0060004000B585B002911146EE
S11334F01A4603468DF80F300B468DF80E301346EE
S11335008DF80D309DF80E209DF80F009DF81830B1
S113351001939DF80D3000931346029A029905F029
S113352033FF00BF05B05DF804FB00BF08B50248D7
S1133530FDF7C0F800BF08BD84D8000000B583B013
S113354004F08EFB0346002B01D104F08FFB012312
S113355002220221042005F08BFF012300930123A2
S1133560002202210420FFF7BFFF0449022005F0D6
S11335706BFC00BF03B05DF804FB00BF2D350000F9
S113358008B5054B1B68002B01D1FFF7D7FF034B90
S113359001221A6000BF08BDB0110020B411002040
S11335A0014B1B6818467047B411002000B583B066
S11335B00190FFF791FF0346184603B05DF804FB42
S11335C000B583B00190019B813B012B03D8FFF729
S11335D0E7FF034600E00023184603B05DF804FB50
S11335E000B583B001900091019B802B02D0812B08
S11335F004D007E0FFF7A2FF012304E0FFF7C0FFB8
S1133600012300E00023184603B05DF804FB00BF6B
S1133610034B01221A60034B01221A6000BF70475A
S1133620B8110020BC11002008B5054B1B68002B05
S113363001D1FFF7EDFF034B01221A6000BF08BD63
S1133640B8110020BC110020024B00221A6000BFF8
S1133650704700BFBC110020014B1B68184670471F
S1133660BC11002000B585B00190042003F0DCF803
S11336700346143B184607F0F7FF03464FF080411A
S1133680184608F0F9F803460A49184607F036FFC9
S1133690034603930849039808F03AF8034618468A
S11336A008F086F903460293029B184605B05DF8BC
S11336B004FB00BF0000F0420000204100B583B0CD
S11336C001900091019B802B02D0812B04D00DE04E
S11336D0FFF79EFF01230AE0009B002B02D0FFF7B7
S11336E0A3FF01E0FFF7B0FF012300E00023184629
S11336F003B05DF804FB00BF00B583B00190019BEB
S1133700822B03D1FFF7A8FF034600E000231846ED
S113371003B05DF804FB00BF2B4A2B4B5B6C43F4F6
S113372000535364294A294BD3F8203143F004034E
S1133730C2F82031254A254BD3F8203123F44073B5
S1133740C2F82031214A214BD3F8B83023F47063F6
S1133750C2F8B8301D4A1D4BD3F8B83043F4806327
S1133760C2F8B830184B10221A6200BF164BDB6A3D
S113377003F02003002BF9D0154A154B1B6843F0C6
S113378001031360124A124BDB6843F08073D36069
S1133790104B114A1A60114B0F221A610F4B02226F
S11337A0C3F8F0200D4B4FF48072C3F804234FF09C
S11337B060430B4AC3F8B02F4FF06043094AC3F883
S11337C0802E00BF704700BF00800C4000600040A6
S11337D0F0ED00E0001000E0FF130140000004E001
S11337E055CEACC50900010008B50121D72004F06D
S11337F01BFAD62004F000FA00230422022105203B
S113380005F036FE184A184BD3F8203123F44073E0
S1133810C2F82031144A144BD3F8203143F0040386
S1133820C2F8203101220E21DE2004F097F9012292
S11338300E21DF2004F092F90021D02004F0F4F9E5
S1133840D12004F0D9F90021D22004F0EDF90121AE
S1133850D32004F0E9F90021D72004F0E5F9D620BB
S113386004F0CAF900BF08BD0060004010B483B082
S11338700B4A926C01920A4AD26C11464FF0000234
S11338800C000023019A11464FF0000243EA0103A1
S113389044EA02041846214603B010BC704700BF36
S11338A0A881E00F00B583B00D4B1B6801936B46F4
S11338B0184606F07FFB019B1B0E0F2B0BD99DF8BE
S11338C00030032B07D1074A064B1B6823F0500333
S11338D043F01003136000BF03B05DF804FB00BFA6
S11338E0FC81E00FC0800C40FEE700BFFEE700BF94
S11338F0FEE700BFFEE700BF00B587B0FFF7D2FFC9
S113390004F0B4F9FFF762FC0320FFF76FFC4FF4F7
S1133910E13004F047FE444804F0E6FE434803F077
S113392031F8434803F042F8032007F003FA414B0F
S11339305B68059305F034F80346049305F008F832
S113394004F06CFCFFF7E8FE059804F06FFBFFF74A
S11339504BFF04F07FFD04F069FCFFF787FFCDE91E
S1133960020104F023FA02F033FD01F0DBFF3248D8
S113397003F008F8314B1B689B68184608F09EFA60
S113398003F06EFF04F0C6F901F0CCFF00212C48CF
S113399001F0FEFE02F0C4FC02F012FA00212948F4
S11339A001F0F6FE284803F001F8284802F0EAFF87
S11339B0224B1B689B68184608F080FAFCF75EFFF0
S11339C000F0C2F8224B1B88184602F007FD02F0F3
S11339D08BFD1D4802F0EAFF1E4802F0D3FF01F000
S11339E009F80346B3F1FF3F03D11B4802F0DEFFA1
S11339F002E01A4802F0DAFF02F0E8FC00F056F8A0
S1133A001749184802F0BEFF174800F02FF816486F
S1133A1002F0FAF804F072F904F076F902F050F8C2
S1133A200190019B002BF7E7455C0000ACD8000037
S1133A30B8D8000000A00C40DCD800000801002029
S1133A40A400002010000020F8D8000000D90000D5
S1133A50000F00201CD9000050D9000078D90000C4
S1133A6080D900008CD90000E4D3000000B583B0F5
S1133A7001900C4802F086FF09E0019B1B685B681B
S1133A801946094802F07EFF019B04330193019B10
S1133A901B68002BF1D10A2002F09CFF00BF03B089
S1133AA05DF804FBBCD90000C8D9000000B583B0A0
S1133AB01B4802F067FF002301930AE0194A019BA7
S1133AC013441B781946184802F05CFF019B01332C
S1133AD00193019B002BF1D0124A019B13441B78E4
S1133AE01946124802F04EFF114B1B88002B06D0DA
S1133AF00F4B1B8819460F4802F044FF02E00E48A2
S1133B0002F054FF0D4B19680D4B1A684FF4D9732A
S1133B100C4802F037FF00BF03B05DF804FB00BFA0
S1133B20D0D90000A81D0020D8D90000DCD900009D
S1133B30000F0020E0D90000ECD900002CDC0000CC
S1133B405CDC000004DA000008B5022200210A4807
S1133B5008F0ACFF094B1B88DAB2074B1A70074B0D
S1133B601B881B0A9BB2DAB2034B5A70024800F05E
S1133B7081FF00BF08BD00BFA81D0020000F00206A
S1133B8000B583B001900091019B5B7B43F001037E
S1133B90DAB2019B5A73009B4033DB022022019965
S1133BA0184604F053F900BF03B05DF804FB00BFEE
S1133BB000B583B001900091009B4033DB022022CA
S1133BC00199184604F024F9019B5B7B03F002037E
S1133BD0002B15D0019B5B7B03F00403002B0FD15A
S1133BE0019B5B7B03F02003002B09D1019B5B7BD2
S1133BF003F00103002B03D10099034802F0C2FE35
S1133C0000BF03B05DF804FB24DA000082B0019029
S1133C100091019BDA02009B13442033184602B042
S1133C20704700BF00B591B003460091ADF806306F
S1133C300C220021009808F039FF00230D930D9BFE
S1133C400E930E9B0F93BDF80630002B05D15B4BF2
S1133C5000221A605A4B00221A70BDF806300B93EA
S1133C600B9B01330A93564B1B78002B11D0534BFB
S1133C701B68002B09D0009B01221A604F4B1B6864
S1133C80013B4E4A1360002394E04C4B1B680F9396
S1133C9010E04A4B1B68002B09D0009B01225A609C
S1133CA0464B1B68013B454A1360002382E0434BAB
S1133CB01B680E93414B1B680B9A13440C9346E00C
S1133CC002AB0C991846FFF773FF3D4B00221A70A4
S1133CD09DF8153003F00203002B17D09DF8153022
S1133CE003F00403002B11D19DF8153003F02003D9
S1133CF0002B0BD1324B01221A70049B0C9A1344F3
S1133D000C93049B0F9A13440F9320E09DF81530F5
S1133D1003F02003002B06D00C9B01330C930E9B65
S1133D2001330E9313E09DF8153003F00403002BC8
S1133D3008D0049B0C9A13440C93049B0E9A1344CE
S1133D400E9304E00A9A0C9BD31A0D9303E00C9A89
S1133D500A9B9A42B4D30F9A0E9B1A440D9B1344A8
S1133D60013B164A1360154B1B68002B0CD0144BF7
S1133D701B78002B04D00E9BC3F101030F9303E0C7
S1133D800F9BC3F101030E93009B0F9A1A60009BD3
S1133D900E9A5A60009B0D9A9A60094B1B78002B6F
S1133DA006D1064B1B68002B02D1044B1B6800E0B4
S1133DB0002300BF184611B05DF804FB6812002010
S1133DC06C12002000B58DB00190009103AB20224D
S1133DD00021184608F06AFE22238DF819300023CA
S1133DE00B930AE0019A0B9B1A4403AB1146184645
S1133DF0FFF7C6FE0B9B01330B930B9A009B9A4271
S1133E00F0D3019A0099034802F0BCFD00BF0DB045
S1133E105DF804FB40DA000000B58BB00390039B0F
S1133E20012B01D1324B00E0324B1946324802F0EB
S1133E30A9FD0023ADF8263050E004AABDF82630D1
S1133E4011461846FFF7EEFE0890BDF82610049AB6
S1133E500598069B00930346284802F093FD049BB3
S1133E60002B35D1039B012B02D1069B002B05D0DF
S1133E70039B002B2DD1059B002B2AD0BDF82630A7
S1133E8007931F4B1A68079B9A4202D91C4A079B47
S1133E901360089B002B05D0079B01330899184633
S1133EA0FFF790FFBDF826304033DB024FF400618A
S1133EB0184603F081FFBDF826301946114802F078
S1133EC061FD039B012B04D1089B002B0BD100E067
S1133ED000BFBDF826300133ADF82630BDF82630DA
S1133EE01F2BAAD900E000BF00BF0BB05DF804FB94
S1133EF074DA000080DA000088DA0000C8DA000012
S1133F00601200200CDB000082B001900091009B45
S1133F105B7B03F00203002B02D1019B01330CE015
S1133F20009B5B7B03F02003002B02D0019B013339
S1133F3003E0009B9A68019B1344184602B0704743
S1133F4086B001900091002305934FF0FF33039353
S1133F50039B049315E0274A059B1B0113449B68AC
S1133F60002B02D1059B03930EE0224A059B1B0103
S1133F7013449B7B002B01D1059B0493059B0133C8
S1133F800593059B032BE6DD039BB3F1FF3F08D1AB
S1133F90049BB3F1FF3F02D0049B059301E000238F
S1133FA024E0144A059B1B0113440293029B019ACB
S1133FB05A60029B4FF0FF321A60009B9A68029B82
S1133FC09A60029B0022DA73009B5B7B03F0080378
S1133FD0002B06D0029BDB7B43F00103DAB2029B89
S1133FE0DA73029B4FF6FF729A81029B184606B061
S1133FF0704700BFC011002000B58DB001900023B0
S11340000B933AE03D4A0B9B1B0113449B68002B26
S11340102FD03A4A0B9B1B0113445A6802AB11463A
S11340201846FFF7C5FD9DF8153003F00203002B79
S113403020D09DF8153003F00403002B1AD19DF80D
S1134040153003F02003002B14D19DF8153003F034
S11340501003002B0ED102AB0E331946019808F061
S1134060F9FD0346002B05D1244A0B9B1B01134485
S113407040E000BF0B9B01330B930B9B032BC1DD73
S113408000230A9332E002AB0A991846FFF790FD29
S11340909DF8153003F00203002B21D09DF8153054
S11340A003F00403002B1BD19DF8153003F020030B
S11340B0002B15D19DF8153003F01003002B0FD100
S11340C002AB0E331946019808F0C4FD0346002BD9
S11340D006D102AB19460A98FFF732FF034609E0FE
S11340E002AB19460A98FFF70FFF0A900A9B1F2B91
S11340F0C9D9002318460DB05DF804FBC011002097
S113410000B5ADF6340D01AB186001AB0DF6080235
S113411019681046FFF74CFDDDF81038013BCDF867
S11341202C3801AB1A68DDF82C3813444033DB0219
S113413002A94FF40062184603F06AFE40F2FF73CE
S1134140CDF828381DE002AADDF8283813441B787E
S1134150002B11D0DDF82C38002B05D1DDF82838E0
S11341601F2B01D8002316E0DDF82C38DA02DDF825
S1134170283813441F3B0EE0DDF82838013BCDF806
S11341802838DDF82838002BDDDADDF82C38013B3F
S1134190CDF82C38C5E718460DF6340D5DF804FB50
S11341A000B58DB001904FF0FF330A93224B1B688A
S11341B00B9336E002AB0B991846FFF7F9FC9DF818
S11341C0153003F00203002B22D10A9BB3F1FF3F09
S11341D006D10B9B0A930A9A019B13441F2B24D8E4
S11341E002AB19460B98FFF78FFE0B900A9A019BBE
S11341F01A440B9B9A4214D80F4B1A680A9B9A4292
S113420004D10D490A9A019B13440B600A9B0FE0E9
S11342104FF0FF330A9302AB19460B98FFF774FE75
S11342200B900B9B1F2BC5D900E000BF4FF0FF3351
S113423018460DB05DF804FB6012002000B58FB085
S1134240039002910192009305AB03991846FFF77E
S1134250AFFC9DF8213003F00203002B0BD09DF836
S1134260213003F00403002B05D19DF8213003F025
S11342702003002B02D04FF0FF3373E0029B002B8E
S113428011D09DF8213003F00803002B0BD00598C2
S1134290002300220021FFF7D1FF0346002B02DA9E
S11342A04FF0FF335EE09DF8213043F00403DBB2AE
S11342B08DF8213005AB03991846FFF761FC2B4BB1
S11342C000221A70019B002B27D000230D9321E0BC
S11342D027490D9A13465B0013449B000B445B680B
S11342E0002B14D022490D9A13465B0013449B0003
S11342F00B445B685A68039B9A4208D11C490D9A87
S113430013465B0013449B000B4400221A720D9B5E
S113431001330D930D9B072BDADD00230D931DE074
S1134320144A0D9B1B0113445A68039B9A4212D1F1
S1134330104A0D9B1B0113444FF0FF325A600D4A83
S11343400D9B1B01134400229A730A4A0D9B1B0107
S1134350134400229A600D9B01330D930D9B032B94
S1134360DEDD002318460FB05DF804FB6412002064
S113437000120020C011002082B00190019B03F6BE
S11343801F03DB0A184602B0704700BF00B58FB0A8
S11343900390029101920093019B002B07D1039893
S11343A0FFF72AFE0346002B01D000234BE00298BE
S11343B0FFF7F6FE0D900D9BB3F1FF3F15D1244B93
S11343C01B78002B01D000233DE00020FFF724FDE3
S11343D00298FFF7E5FE0D900D9BB3F1FF3F04D16A
S11343E01B4B01221A7000232DE004AB2022002174
S11343F0184608F05BFB04AB0E330F2203991846F2
S113440008F0DEFA029B0693009BDBB243F0020342
S1134410DBB28DF81D3004AB0D991846FFF7B0FBE5
S1134420039B0D9A02990B4802F0ACFA04AB1946AF
S11344300D98FFF785FD0C900C9B002B02D00C9B74
S113444000221A600C9B18460FB05DF804FB00BFF5
S11344506412002028DB00002DE9F0479AB000AF79
S11344607860396007F1280379681846FFF7A0FBE4
S113447007F128030E330121184600F009F9F86505
S1134480FB6D002B02DA4FF0FF36DBE03A6B3B6842
S113449002FA03F3BB6507F1280303F10E000023BE
S11344A00122B96DFFF772FF78657B6D002B05D192
S11344B0F86D00F067F94FF0FF36C3E000237B6628
S11344C06B469A46FB8D002B02D0FB8D194601E00A
S11344D04FF400614B1E3B650B461A464FF0000338
S11344E0DD0045EA5275D4000B461A464FF000032E
S11344F04FEAC30949EA52794FEAC2080B46073327
S1134500DB08DB00ADEB030D6B460033FB64FB6C97
S11345100A461946F86D00F085F9B864BB6C002BA7
S11345200DDA7B6D5868012300220021FFF786FE17
S1134530F86D00F027F94FF0FF36002316E0BB6C4E
S1134540002B12DD7B6D5B68796E1846FFF75EFB0E
S1134550034603F500331846FB6CBA6C194603F0A6
S113456075FC7A6EBB6C13447B660123D546012B24
S113457068D1BB6C002BA3D100233B6627E03449F0
S11345803A6E13465B0013449B000B441B7A002BCA
S11345901AD02F493A6E13465B0013449B000B4418
S11345A05B685A687B689A420ED129493A6E134671
S11345B05B0013449B000B447A6D5A607B6D9B7BBC
S11345C00133DAB27B6D9A733B6E01333B663B6E0B
S11345D0072BD4DD0023002201217868FFF72EFE8B
S11345E00346002B0CDA7B6D58680023002200215F
S11345F0FFF724FEF86D00F0C5F84FF0FF3621E018
S11346007B6D5A6807F1080311461846FFF7D0FA84
S1134610FB8DFB81BB8DBB817B6D5A6807F1080361
S113462011461846FFF7ACFA7B6DDB7B23F00103E0
S1134630DAB27B6DDA737B6D7A6E1A60F86D00F016
S1134640A1F80026334618466837BD46BDE8F08712
S11346500012002082B0002301930EE00B49019A5E
S113466013465B0013449B000B441B7A002B01D1BF
S1134670019B07E0019B01330193019B072BEDDDB7
S11346804FF0FF33184602B0704700BF00120020FD
S113469010B584B001900091FFF7DCFF0390039BF9
S11346A0002B05DA354802F081F94FF0FF3362E060
S11346B03349039A13465B0013449B000B44029353
S11346C0029B00221A720198FFF796FC0246029B95
S11346D05A60029B5B68002B20D1009B03F003030C
S11346E0012B02D14FF0FF3345E04FF40060FFF798
S11346F043FE0146002301220198FFF747FE0246CC
S1134700029B5A60029B5B68002B02D14FF0FF337F
S113471031E0029B5B6800221A600FE0029B5B6839
S11347201B68B3F1FF3F09D1029B5C68029B5B6885
S11347305B681846FFF7E4FC03462360029B1B7A80
S11347405AB2009B5BB213435BB2DAB2029B1A7299
S1134750009B03F00403002B03D0029B5B681B68DF
S113476000E00023029A1360029B5B689A7B01328B
S1134770D2B29A73039B184604B010BD60DB0000EC
S11347800012002082B00190019B002B2ADB019BC8
S1134790072B27DC1549019A13465B0013449B0041
S11347A00B441B7A002B1DD01049019A13465B0061
S11347B013449B000B4400221A720C49019A1346BD
S11347C05B0013449B000B445B689A7B013AD2B2B2
S11347D09A730649019A13465B0013449B000B44E9
S11347E000225A6000BF02B0704700BF00120020D0
S11347F000B585B001900198FFF7FEFB0390039B81
S1134800002B02D14FF0FF3307E0039B58680123CC
S113481001220121FFF712FD0346184605B05DF899
S113482004FB00BF00B587B0039002910192039B83
S1134830002B18DB039B072B15DC2C49039A13462A
S11348405B0013449B000B441B7A002B0BD02749BD
S1134850039A13465B0013449B000B441B7A03F03A
S11348600103002B02D14FF0FF333AE01F49039AB2
S113487013465B0013449B000B440593059B5B6844
S11348800493059B1B681A46019B1344049A1268FF
S1134890934205D9049B1A68059B1B68D31A01939C
S11348A0049BDB7B03F00103002B19D1049B5A68A2
S11348B0059B1B6819461046FFF7A8F9034603F544
S11348C00033019A0299184603F0A2FA059B1B686B
S11348D01A46019B13441A46059B1A60019B00E08B
S11348E0019B184607B05DF804FB00BF00120020CE
S11348F000B587B0039002910192039B002B18DB53
S1134900039B072B15DC3949039A13465B001344B8
S11349109B000B441B7A002B0BD03449039A13469B
S11349205B0013449B000B441B7A03F00203002B2F
S113493002D14FF0FF3355E02C49039A13465B0034
S113494013449B000B440493049B5B680593049BF2
S11349505B7A03F00203002B21D114E0059B5B6812
S113496001211846FFF778FD0346002B02DA4FF0C9
S1134970FF3337E0049B5B680593059B5B6819462E
S11349801B4801F0FFFF049B1B681A46019B13445C
S113499003F12002059B9B68DB029A42DED8059B4B
S11349A05A68049B1B6819461046FFF72FF9034603
S11349B003F50033019A0299184603F047FA049B61
S11349C01B681A46019B13441A46049B1A60049BF5
S11349D01A68059B1B689A4203DD049B1A68059BB1
S11349E01A60019B184607B05DF804FB0012002012
S11349F094DB000000B583B02021134801F0C2FF0E
S1134A00124B00221A60002301930DE0019B4033F6
S1134A10DB024FF40061184603F0CEF92E2001F0BA
S1134A20D9FF019B01330193019B1F2BEED9A822CF
S1134A300021074808F03AF8064801F0B7FF0023C0
S1134A40184603B05DF804FBB4DB000060120020DC
S1134A50C0110020D4DB000000B583B001900091A8
S1134A6002220099019807F0ABFF00BF03B05DF884
S1134A7004FB00BF00B583B0019001990348FFF720
S1134A80EBFF00BF03B05DF804FB00BFAC1D0020CA
S1134A9000B583B000F0AEFA00900F4B1B681846C7
S1134AA001F008FA01900AE0019B5B68002B02D038
S1134AB0019B5B689847019801F068FA0190019B9B
S1134AC0002BF1D1009B002B02D0009800F060FA7B
S1134AD000BF03B05DF804FB8800002008B501F0B6
S1134AE0E1FE01F019FD00F05DF800F07DFA054BE0
S1134AF04EF660224FF47A61022000F091F900BF73
S1134B0008BD00BF80EE360000B587B00390029167
S1134B100192039B0493029B012B03D0022B03D02D
S1134B20002B02E000BF00E000BF0F4B1B681846DB
S1134B3001F0C0F905900BE0059B9B68002B03D0A6
S1134B40059B9B6802989847059801F01FFA059009
S1134B50059B002BF0D1019A0299049800F02CFADD
S1134B6000BF07B05DF804FB8800002000B583B0E7
S1134B700190019800F056FA0346002B08D001F08A
S1134B800FFD064B9B68019905489847012300E0F7
S1134B900023184603B05DF804FB00BF2CDC0000C2
S1134BA0094B000008B5034B1B68184601F07AF95D
S1134BB000BF08BD8C00002082B00190024A019B16
S1134BC0136000BF02B070477812002008B5044B90
S1134BD01B68184601F06EF90346184608BD00BF6D
S1134BE08C00002010B584B001900B46ADF8023063
S1134BF01346ADF80030134B1B68184601F05AF900
S1134C00039017E0039B9B88BDF802209A420DD1C4
S1134C10039B9B68002B11D0039B9C68BDF800305C
S1134C20BDF8022001990398A04707E0039801F01A
S1134C30ADF90390039B002BE4D100E000BF04B066
S1134C4010BD00BF8C00002000B585B0019001F0BC
S1134C5063FC01F043FD0290029B00221A80FFF7DF
S1134C60B5FF03901DE0029B1B881846039B99889F
S1134C70029A830013440A465A80029B1B881846F2
S1134C80039BD988029A830013440A469A80029BA4
S1134C901B8801339AB2029B1A80039801F076F9BB
S1134CA00390039B002B03D0039B1B7B002BDAD1C7
S1134CB0029B1B889B009BB202339BB2184601F0F7
S1134CC0F5FC029B1B88002B02D0034800F024F95A
S1134CD000BF05B05DF804FB7C12002010B586B05F
S1134CE00190009101F0FAFC059003AB02220599B2
S1134CF0184607F065FEBDF80C309B009C1C01F0C3
S1134D001DFD03469C4220D8059B023305930023D6
S1134D10049313E002AB04220599184607F050FEF1
S1134D20BDF80830BDF80A2019460098FFF75AFF6D
S1134D30059B04330593049B01330493BDF80C30A5
S1134D401A46049B9A42E5DC00E000BF06B010BDA1
S1134D5084B003900291019200BF04B0704700BF79
S1134D6008B50C4B596E00230B4A0C4801F0EEFABF
S1134D7001F042FB03461A46064B5B6EB2FBF3F1AD
S1134D8003FB01F3D11A0023054A064801F0DEFAB9
S1134D9000BF08BD7C120020A94D0000B412002001
S1134DA0494C00009412002000B585B001900A4BD4
S1134DB05B6E5B000393084B1A6E039B9A4202D20C
S1134DC0054B1B6E0393044A039B5366FFF7C8FF0E
S1134DD000BF05B05DF804FB7C12002010B582B062
S1134DE00446084611461A462346ADF806300346E3
S1134DF08DF805300B46ADF802301346ADF800309F
S1134E009DF81030012B05D1044B9B6D034A53666A
S1134E10FFF7A6FF00BF02B010BD00BF7C12002048
S1134E2000B585B00291019200930346ADF80E30AF
S1134E30BDF80E300A4A19460A4800F04DF8094AEE
S1134E40029B9365074A019BD365064A009B136640
S1134E500548FFF7B1FE00BF05B05DF804FB00BFD5
S1134E60F4DB00007C120020DD4D000000B585B0AD
S1134E700190019B0393182001F0FCFC024602AB55
S1134E8011461846FFF7E8FD039B5B691B68002B7E
S1134E9006D0039B5B691B6802AA114603989847D6
S1134EA000BF05B05DF804FB00B587B00390029124
S1134EB00192039B0593059B5B695B68002B06D0FD
S1134EC0059B5B695B68019A02990598984700BF46
S1134ED007B05DF804FB00BF00B585B003900B4636
S1134EE00192ADF80A30039BBDF80A10084A18462F
S1134EF000F024F8039B019A5A61BDF80A30054971
S1134F00184600F0C1F800BF05B05DF804FB00BF0F
S1134F1000DC0000FCDB000000B583B00190064912
S1134F20182001F08FFC019B184600F025F8034679
S1134F30184603B05DF804FBAC1D002000B585B035
S1134F4003900B460192ADF80A30039BBDF80A208A
S1134F501146184600F0B6F8039B019A1A61BDF891
S1134F600A300449184600F08FF800BF05B05DF818
S1134F7004FB00BF08DC000000B583B00190019B76
S1134F801846FFF7F3FD0346184603B05DF804FB2B
S1134F9000B585B00190019B0393039B1B691B68BB
S1134FA0002B04D0039B1B691B680398984700BF20
S1134FB005B05DF804FB00BF00B587B00390029113
S1134FC00192039B0593059B1B695B68002B06D02C
S1134FD0059B1B695B68019A02990598984700BF75
S1134FE007B05DF804FB00BF08B500F043F800BF4C
S1134FF008BD00BF00B583B000230193084B1B68B4
S113500098470190019B002B05D0019B9B88194672
S1135010012001F0F3FB019B184603B05DF804FB8B
S113502018DC000000B585B001900A4B5B6801985C
S113503098470390019B9B881946012001F0DEFBF1
S1135040039B002B01D0012300E00023184605B088
S11350505DF804FB18DC000000B583B00190044B3C
S11350609B68019898470346184603B05DF804FB13
S113507018DC000008B5034B1B68184600F012FF4B
S113508000BF08BD9000002000B585B00346009124
S1135090ADF80630BDF80630184600F029F8039044
S11350A0039B002B09D0039B009A9A600098FFF79A
S11350B0D3FF0346DAB2039B1A7300BF05B05DF851
S11350C004FB00BF00B583B001900B46ADF802307D
S11350D0019BBDF802209A80044B1B680199184675
S11350E000F008FF00BF03B05DF804FB900000204F
S11350F000B585B00346ADF806300D4B1B68184665
S113510000F0D8FE03900BE0039B9B88BDF80620BB
S11351109A4201D1039B07E0039800F037FF039004
S1135120039B002BF0D10023184605B05DF804FB67
S11351309000002086B0039002910192039B1B789B
S11351401B021AB2039B01331B781BB213431BB21D
S1135150ADF81630BDF81620029B02FA03F31B12B9
S11351600649019A0A4412781A40019BC3F10803C4
S113517042FA03F3DBB2184606B070470CDC0000B9
S113518010B586B00390029101920093009B072B07
S113519009DC009A01990298FFF7CCFF03461A46EE
S11351A0039B1A705EE0019B002B2BD10023059317
S11351B00AE0059B039A1344059A02990A4412785B
S11351C01A70059B01330593009B002B00DA07330B
S11351D0DB101A46059B9A42EBDC009B03F00703A5
S11351E00493049B002B3DD0059B039AD418059B84
S11351F0029A1344049A00211846FFF79BFF0346C2
S113520023702FE0002305930FE0059B039AD41825
S1135210059B029A1344082201991846FFF78AFF56
S113522003462370059B01330593009B002B00DA92
S11352300733DB101A46059B9A42E6DC009B03F019
S113524007030493049B002B0CD0059B039AD418EA
S1135250059B029A1344049A01991846FFF76AFFC2
S11352600346237000BF06B010BD00BF84B0019098
S11352700023039309E0019B5B780293039A029B4A
S113528013440393019B02330193019B1B78002B6E
S1135290F1D1039B184604B0704700BF86B0039059
S11352A00291009313468DF807309DF80720029B66
S11352B0C3F11001009BCB1A02FA03F3ADF81630C8
S11352C0039B1A78BDF816301B0A9BB2DBB213435A
S11352D0DAB2039B1A70039B0133039A01321278EA
S11352E051B2BDF8162052B20A4352B2D2B21A7069
S11352F000BF06B0704700BF00B587B003900291AD
S113530001920093009B072B07DC019B1A78009BFA
S113531002990398FFF7C2FF68E0029B002B30D18B
S1135320002305930AE0059B039A1344059A019907
S11353300A4412781A70059B01330593009B002BD5
S113534000DA0733DB101A46059B9A42EBDC009B1C
S113535003F007030493049B002B47D0059B039A97
S1135360D018059B019A13441B781A46049BC3F179
S1135370080342FA03F3DAB2049B0021FFF78EFF1D
S113538034E0002305930DE0059B039AD018059B98
S1135390019A13441A7808230299FFF77FFF059BAB
S11353A001330593009B002B00DA0733DB101A4608
S11353B0059B9A42E8DC009B03F007030493049BDB
S11353C0002B13D0059B039AD018059B019A134414
S11353D01B781946049BC3F10802029B134441FA4B
S11353E003F3DAB2049B0021FFF758FF00BF07B0B4
S11353F05DF804FB30B58BB00190019B1B7BDB088F
S1135400DBB21A46019B1B7B03F00703002B14BF7E
S113541001230023DBB213440793079B023318468E
S113542001F000F90346002B01D100235FE001F0F5
S113543061F90690019B9B88DAB2069B1A70019B66
S11354409B881B0A9BB2DAB2069B5A7001F052F990
S1135450034602330593079B1A460021059807F07B
S113546025FB00230893089B0493019B9B680993E5
S113547038E0099B5B780393089B002B00DA073321
S1135480DB100493099B1B78172B11D9049B059AF5
S1135490D418089B03F00705099B1B78184601F0F4
S11354A0E9F90246039B29462046FFF725FF12E04F
S11354B0099B1B78184601F0B7F90346ADF80A308A
S11354C0049B059AD018089B03F007010DF10A020A
S11354D0039BFFF711FF089A039B13440893099B4E
S11354E002330993099B1B78002BC2D10123184670
S11354F00BB030BD00B58BB001F0F0F8079002207E
S113550001F0B2F80346002B01D1002376E0079B9B
S11355105B789BB21B029AB2079B1B789BB2134425
S11355209BB21846FFF7E4FD0690069B002B01D1C1
S1135530002363E001F0D2F80590069B1B7BDB0897
S1135540DBB21A46069B1B7B03F00703002B14BF38
S113555001230023DBB213440493049801F084F87C
S11355600346002B01D1002348E000230893089B45
S11355700393069B9B6809933BE0099B5B7802932A
S1135580089B002B00DA0733DB100393099B1B787D
S1135590172B11D9039B059AD118089B03F0070216
S11355A001A8029BFFF7ECFD099B1B7801AA114699
S11355B0184601F047F915E00023ADF80230039BCB
S11355C0059AD118089B03F007020DF10200029B13
S11355D0FFF7D6FD099B1B78BDF80220114618463B
S11355E001F00CF9089A029B13440893099B0233B7
S11355F00993099B1B78002BBFD1069B18460BB05F
S11356005DF804FB00B583B001900091044B9B68E6
S113561000990198984700BF03B05DF804FB00BFF0
S11356205CDC000008B5024B9B68984700BF08BDCE
S1135630E8DB000008B5034B5B699847034618464E
S113564008BD00BF5CDC000000B583B00190044BD2
S11356509B69019898470346184603B05DF804FB1C
S11356605CDC000000231846704700BF00BF704791
S113567030B585B0019000910D4BDC6801F03AF82B
S1135680054601F06BF8034619462846A047034631
S1135690002B02D10023039301E00423039301238D
S11356A0039A0099019800F04DF800BF05B030BD91
S11356B0E8D4000000B585B0039002910192019BEB
S11356C0002B08D0019B5B68184601F0FDF8029995
S11356D00398FFF7CDFF00BF05B05DF804FB00BFE2
S11356E008B5024BDB68984700BF08BD2CDC0000FE
S11356F008B5034B1B6A98470346184608BD00BF0C
S1135700E8D4000000B583B00190019B002B04D0C5
S1135710064B1B6A9847034603E0044B5B6A9847B1
S11357200346184603B05DF804FB00BFE8D400004C
S113573000231846704700BF08B5FFF7D9FF00BF24
S113574008BD00BF00B585B003900291019200939B
S1135750019B012B03D0022B03D0002B02E000BFDE
S113576000E000BF039B002B04D0039B009A019927
S11357700298984700BF05B05DF804FB034B1B7803
S11357805A1CD1B2014A117018467047F412002015
S113579000B585B001900091144B1B68039302E09F
S11357A0039B1B680393039A019B9A4202D0039BB9
S11357B0002BF5D1039A019B9A4212D00B4B1A6825
S11357C0019B1A60094A019B1360019B01229A7391
S11357D0019B00229A81009A8121019800F0D6F958
S11357E000E000BF05B05DF804FB00BFEC12002030
S11357F010B584B0019000912B4B1B6803932B4B85
S11358001C6800E02468019B9C4201D0002CF9D163
S1135810002C46D0019800F0EBF90346002B23D06E
S1135820019B00229A73214B1C6808E0019BA34250
S113583004D0019A8721204600F03AF82468002C0D
S1135840F4D1019B9B68002B0ED0019A009B9A42D5
S11358500AD0154A019B1360019B9B68019A02F1CF
S11358600C00002283219847104B1B68019A9A422E
S113587005D10E4B1B681B680C4A13600DE00B4BE3
S11358801C6808E02268019B9A4203D1019B1B68B3
S1135890236002E02468002CF4D1034A039B1360C4
S11358A000E000BF04B010BDF0120020EC12002094
S11358B000B587B003900B4601928DF80B30039B23
S11358C09B7B03F00103002B26D0039B9B68002BDA
S11358D022D0134A039B1360039B02229A73039BF7
S11358E09B68039A02F10C009DF80B10019A9847EB
S11358F003460593059B022B06D0059B032B03D07F
S11359009DF80B30832B04D103990398FFF770FFA4
S113591002E0039B01229A7300BF07B05DF804FB09
S1135920F0120020094B8A221A70094B00221A70C7
S1135930074B1A78074B1A70074B00221A60064B64
S11359401B68064A136000BF704700BFF4120020B2
S1135950F6120020F5120020EC120020F0120020B4
S113596000B583B00F4B00221A700F4B1B680193D4
S113597011E0019BDB7B002B0AD0019B01229A736F
S1135980019B0022DA73002282210198FFF790FF25
S1135990019B1B680193019B002BEAD100BF03B05C
S11359A05DF804FB78140020EC12002008B53A4B93
S11359B01B78002B6DD0394B1B781946384A0B469F
S11359C05B000B449B0013441A78364B1A70334B1C
S11359D01B781946324A0B465B000B449B00134468
S11359E004331B68304A13602C4B1B7819462C4A2D
S11359F00B465B000B449B00134408331B682B4A83
S1135A001360264B1B785A1C294B1340002B03DAD6
S1135A10013B63F01F030133DAB2204B1A701E4BB3
S1135A201B78013BDAB21C4B1A70204B1B68002B0D
S1135A301ED1204B1B68204A136014E01F4B1B78B7
S1135A40DBB2002B01D0FFF78BFF1B4B1868154B03
S1135A501978154B1B681A46FFF72AFF164B1B686B
S1135A601B68154A1360144B1B68002BE6D110E029
S1135A700C4B1B78812B03D10C4B1B6801229A73AE
S1135A800A4B1868074B1978074B1B681A46FFF72F
S1135A900FFF00BF08BD00BFF5120020F612002062
S1135AA0F8120020791400207C14002080140020B7
S1135AB01F000080EC1200208414002078140020C1
S1135AC008B5094B1B78DBB2002B01D0FFF748FF68
S1135AD0FFF76CFF054B1B781A46034B1B78DBB2B0
S1135AE01344184608BD00BF78140020F5120020A6
S1135AF084B003900B4601928DF80B301F4B1B783A
S1135B00202B01D1012335E01D4B1A781B4B1B7848
S1135B101344DBB203F01F03DAB21A4B1A70194BA9
S1135B201B781946184A0B465B000B449B00134430
S1135B309DF80B201A70134B1B781946124A0B461A
S1135B405B000B449B0013440433019A1A600D4B11
S1135B501B7819460C4A0B465B000B449B0013440C
S1135B600833039A1A60054B1B780133DAB2034BEE
S1135B701A700023184604B0704700BFF5120020C5
S1135B80F612002088140020F812002000B587B017
S1135B9003900B4601928DF80B30084B1B6805935C
S1135BA09DF80B30019A19460398FFF781FE034ACA
S1135BB0059B136000BF07B05DF804FBF0120020E2
S1135BC082B00190019B002B0DD0019B9B7B012B8C
S1135BD003D0019B9B7B022B05D1019B0122DA732D
S1135BE0024B01221A7000BF02B0704778140020E3
S1135BF082B00190019B9B7B002B14BF01230023E7
S1135C00DBB2184602B0704700B585B0019000239E
S1135C1003930BE0039B9B00019A13441B68002130
S1135C201846FFF7B5FD039B01330393039B9B00C9
S1135C30019A13441B68002BECD100BF05B05DF83A
S1135C4004FB00BF00B583B003468DF807309DF810
S1135C5007300D2B01D1002324E0144B1B78002BBB
S1135C600CD19DF807301946114800F0E5FB0346B6
S1135C70002B13D10D4B01221A700FE09DF8073051
S1135C800A2B0BD19DF807301946094800F0D4FBC4
S1135C900346002B02D0054B00221A700548FFF77B
S1135CA08FFF0123184603B05DF804FB1415002090
S1135CB08C1400209400002000B587B003900B469C
S1135CC001928DF80B3001238DF81730039B1B884C
S1135CD0672B1CD0792B50D0002B5CD1FFF74EFDE5
S1135CE003461A46314B1A70314B00221A6000E009
