S0150000656C666C6F616465722D746573742E73333744
S21400000000800020AD970000D9970000E13700007F
S214000010E5370000E9370000ED370000D99700000B
S214000020D9970000D9970000D9970000D99700000B
S214000030D9970000D9970000D997000009820000E0
S21400004021A80000F99D0000FD2B0000D9970000B4
S214000050D9970000D9970000D99700001D9300009B
S214000060D9970000D9970000D9970000219E00007C
S214000070D9970000D9970000D9970000D9970000BB
S214000080D9970000D9970000D9970000D9970000AB
S214000090D9970000D997000095940000D9970000E2
S2140000A0D9970000D9970000D9970000C1910000A9
S2140000B0D9970000D9970000CD1D0000F18E0000F2
S2140000C0D9970000D9970000D9970000D99700006B
S2140000D0D9970000D9970000D9970000D99700005B
S2140000E010B5054C237833B9044B13B10448AFF36D
S2140000F000800123237010BD000E002000000000C9
S214000100C01A0100084B10B51BB108480849AFF3E8
S21400011000800848036803B910BD074B002BFBD0CE
S214000120BDE81040184700BF00000000C01A0100DC
S214000130040E0020680D002000000000154B002B68
S21400014008BF134B9D46A3F5803A00218B460F4609
S2140001501348144A121A0DF049FA0F4B002B00D020
S21400016098470E4B002B00D0984700200021040033
S2140001700D000D48002802D00C480CF0AFFE0DF024
S21400018065F92000290003F033FB0CF0ADFE00BF3C
S21400019000000800008000200000000000000000B2
S2140001A0000E002008220020DDCE000095DC0000B6
S2140001B000B583B001900C4807F0E6F809E0019B13
S2140001C01B685B680948194607F0DEF8019B043394
S2140001D00193019B1B68002BF1D10A2007F0FCF865
S2140001E003B05DF804FB00BF8CE3000098E300005A
S2140001F000B5ADF2F45D03AB186001AB1A600DF10B
S2140002000B030A461A7001238DF8EF3503AB1B6803
S2140002101B88002B02D0812B20D0F9E0642008F048
S2140002204FF8032002F040FF05F09CFE7F4B9B68D2
S2140002308120012198477E4B9B68812001219847A9
S2140002407C4B9B6881200121984700E000BF00237B
S2140002508DF8EF3503AB1B6881221A809DF8EF35C9
S214000260002B06D0744B1B780DF10B0212789A42C5
S21400027001D00123D4E001AB1B686C4A934239D10C
S2140002800023CDF8E0350023CDF8DC356B48072198
S21400029004F07CF9CDF8E005DDF8E035002B05DA52
S2140002A06748664907F070F80023B9E0DDF8E00516
S2140002B064494FF4B86204F0DBFACDF8DC05DDF8EB
S2140002C0DC35B3F5B86F0BD05F484FF4B8615B4AC6
S2140002D007F05AF8DDF8E00504F0D4F900239FE0B3
S2140002E0DDF8E00504F0CEF958485449DDF8DC2581
S2140002F007F04AF801AB1B684D4A9342A6D101208D
S21400030002F0F4FE0023CDF8E8350023CDF8D8350A
S2140003100023CDF8D4350023CDF8D0354748012149
S21400032004F034F9CDF8D805DDF8D835002B05DA19
S2140003304348424907F028F8002371E004ABDDF893
S214000340D80519464FF4B66204F02CFACDF8D40559
S2140003500123CDF8E4350023CDF8E83528E004AADB
S214000360DDF8E83513441B783948194607F00CF8D1
S214000370DDF8E415374B83FB0123DA10CB17D21ACE
S21400038013469B0013449B00CA1A002A06D1DDF8C8
S214000390E435002B02D00A2007F01EF8DDF8E4351D
S2140003A00133CDF8E435DDF8E8350133CDF8E8352E
S2140003B0DDF8E83540F2AB529342D0DD2648DDF852
S2140003C0D415DDF8E4254FF4B86306F0DDFF2348C6
S2140003D006F0EEFFDDF8D80505F0CCFDCDF8D0052B
S2140003E01F48DDF8D01506F0CFFFDDF8D035002B1E
S2140003F009D11C4B1B681846FFF7DAFE194B1B6821
S214000400184605F0C1FBDDF8D80504F03BF91DE7FA
S21400041000238DF8EF3503AB1B6800221A800323F8
S21400042018460DF2F45D5DF804FB00BF8CE8000092
S21400043074E800005CE80000E01E0020A0E3000076
S214000440B0E30000A8DD0000C4E30000E4E3000021
S21400045014E40000676666661CE4000050E40000D2
S21400046054E40000301F002000B587B003900B4610
S21400047001928DF80B3001238DF81730039B1B88F3
S214000480002B02D0C42B0AD019E01248C82106F06F
S21400049099FB00238DF81730039BC4221A809DF821
S2140004A01730002B05D00B4806F09CFB0346002BAC
S2140004B001D101230AE0022002F018FEE5E700233E
S2140004C08DF81730039B00221A800323184607B0C6
S2140004D05DF804FB1C0E002084B0019000230393FB
S2140004E00BE00B4A039B52F82320019B9A4201D152
S2140004F0039B09E0039B01330393064B1B781A46C4
S214000500039B9A42EDDC039B184604B0704700BF7D
S214000510840000202C0E002000B583B001900198C6
S214000520FFF7DAFF0346064AD25C62F07F02D1B2DA
S214000530034AD154034805F003FB03B05DF804FBFF
S214000540001F00202000002000B587B003900B4657
S21400055001928DF80B3001238DF81730039B1B8812
S214000560772B33D07E2B5AD0002B40F0858005F0B9
S214000570C5F803461A46464B1A70464B00221A60C8
S21400058012E0444B1B68444A0021D154414B1B687F
S214000590424A52F823309B688020002198473D4B02
S2140005A01B6801333B4A13603A4B1B683B4A52F8C0
S2140005B02330002BE5D1374B1B68DAB2384B1A7064
S2140005C000238DF81730039B77221A809DF817308A
S2140005D0002B01D1012356E0324B00221A602D4B2E
S2140005E000221A603CE02B4B1B682B4AD35CDBB224
S2140005F05BB2002B2FDA264B1978264B1B68274A4E
S21400060052F8233000201A4605F032FA0346002B33
S21400061011D100238DF81730039B7E221A809DF897
S2140006201730002B05D01A4B1B789DF80B209A42EA
S21400063001D0012327E0174B1B68164A126816499B
S2140006408A5C02F07F02D1B2134AD154154B1B6864
S2140006500133144A13600F4B1B6801330D4A1360B5
S2140006600F4B1B781A460B4B1B689A42BBDC0D4B94
S2140006701B68002BB0D1A3E700238DF81730039B2F
S21400068000221A800323184607B05DF804FB00BF5B
S214000690E01E0020300E0020001F002084000020F6
S2140006A02C0E0020340E002082B00B49896C01917C
S2140006B00949C96C08464FF0000103000022019961
S2140006C008464FF0000142EA000243EA01031046E2
S2140006D0194602B0704700BFA881E00F08B5084A67
S2140006E0084B9B6C1360084A064BDB6C1360FFF7E5
S2140006F0DBFF02460B4692B2044B1A8008BD00BFD1
S214000700E41E0020A881E00FE81E0020380E00201E
S21400071008B502F033F900F0B9FA0A2002F01EFA22
S21400072000F0BAFA642002F019FA00F0E7FB02F0D3
S214000730F7F908BD00B585B0019001238DF80830A3
S21400074002AA02AB01201146082200F0DDFB019B45
S214000750002B25D09DF80820019B1A709DF80930C3
S2140007601B029AB29DF80A309BB213449AB2019BC0
S2140007705A809DF80B20019B1A719DF80C301B02C5
S2140007809AB29DF80D309BB213449AB2019BDA8060
S2140007909DF80E20019B1A729DF80F20019B5A723D
S2140007A005B05DF804FB00BF00B585B003468DF8C4
S2140007B007300B468DF806301346ADF8043031236B
S2140007C08DF808309DF807308DF809309DF8063012
S2140007D08DF80A30BDF804301B0A9BB2DBB28DF8E8
S2140007E00B30BDF80430DBB28DF80C3000238DF8EA
S2140007F00D3000238DF80E3002AB0720194600F0AE
S214000800F9FA05B05DF804FB10B584B00446084656
S21400081011461A4623468DF8073003468DF80630F3
S2140008200B46ADF8043013468DF8033032238DF8AE
S21400083008309DF807308DF809309DF806308DF8A1
S2140008400A30BDF804301B0A9BB2DBB28DF80B30C1
S214000850BDF80430DBB28DF80C309DF803308DF80F
S2140008600D309DF818308DF80E309DF81C308DF840
S2140008700F3002AB0820194600F0BCFA04B010BDD9
S21400088000B585B0009303468DF807300B468DF80B
S214000890063013468DF8053020238DF808309DF875
S2140008A007308DF809309DF806308DF80A309DF82F
S2140008B005308DF80B3002AA02AB04201146082240
S2140008C000F022FB009B002B1FD09DF80820009B09
S2140008D01A709DF80920009B5A709DF80A20009B0C
S2140008E09A709DF80B20009BDA709DF80C20009BF8
S2140008F01A719DF80D20009B5A719DF80E20009BE2
S2140009009A719DF80F20009BDA7105B05DF804FB24
S21400091000B585B0034600918DF8073015238DF895
S2140009200C309DF807308DF80D3003AA03AB02207B
S2140009301146022200F0E8FA009B002B07D09DF833
S2140009400C20009B1A709DF80D20009B5A7005B075
S2140009505DF804FB00B583B0034600918DF80730C0
S2140009609DF80730662000211A46009B00F090FA9A
S21400097003B05DF804FB00BF00B583B003460091EA
S2140009808DF807309DF80730772000211A46009B27
S21400099000F050FA03B05DF804FB00BF00B585B068
S2140009A0019033238DF80C3003AA03AB01201146C7
S2140009B0022200F0A9FA019B002B07D09DF80C201C
S2140009C0019B1A709DF80D20019B5A7005B05DF8CA
S2140009D004FB00BF84B001900091019B03F10473F7
S2140009E0DA00009B13449B000393039B1B68184686
S2140009F004B0704782B0019000910748064BD3F8C8
S214000A002421009BDB431A400199009B0B401343B3
S214000A10C0F8243102B070470060004000B583B0D3
S214000A20034600918DF807309DF80730002B12D052
S214000A309DF80730012B0ED09DF80730022B0AD008
S214000A409DF80730032B06D09DF80730042B02D004
S214000A509DF80730052B9DF807201346DB0013444E
S214000A609B001C3303F1804303F5C04318460099EE
S214000A70FFF7B0FF0346184603B05DF804FB00BF5F
S214000A8082B0034600918DF807309DF80730002BA2
S214000A9012D09DF80730012B0ED09DF80730022BA0
S214000AA00AD09DF80730032B06D09DF80730042B9C
S214000AB002D09DF80730052B08499DF80720009BBB
S214000AC0012000FA03F318461346DB0013449B008C
S214000AD00B441033586002B0704700BF00600040FF
S214000AE082B0034600918DF807309DF80730002B42
S214000AF012D09DF80730012B0ED09DF80730022B40
S214000B000AD09DF80730032B06D09DF80730042B3B
S214000B1002D09DF80730052B08499DF80720009B5A
S214000B20012000FA03F318461346DB0013449B002B
S214000B300B441033186002B0704700BF00600040DE
S214000B4010B584B0029111461A4603468DF80F3050
S214000B500B468DF80E3013468DF80D309DF80F209D
S214000B609DF80E409DF80D3000939DF818300193C7
S214000B7010460299029A234609F09EFB04B010BD67
S214000B8000B585B003900B468DF80B300420092184
S214000B900422012309F004FC042008210422002377
S214000BA009F0FEFB04200D210222012309F0F8FBC8
S214000BB09DF80B30002B3ED0284801210AF00AFD94
S214000BC000200F210122002309F0EAFB04200E2159
S214000BD00122002309F0E4FB002000210422002368
S214000BE009F0DEFB002001210422002309F0D8FBD7
S214000BF00023009300200F2100220023FFF7A0FF10
S214000C000023009304200E2100220023FFF798FF04
S214000C1000204FF4441107220AF04CF901204FF44B
S214000C20441106220AF046F90D4B03229A60022070
S214000C300221FFF7DFFE039B002B0BD00D2003994C
S214000C4009F09AF80123009304200D2100220123C5
S214000C50FFF776FF05B05DF804FB00BF00F2040066
S214000C6000C00C4008B5064B064A9A60044B0122A9
S214000C70DA75054B1B681846014900F0F5F908BD02
S214000C803400002000127A003000002008B504204E
S214000C900821FFF725FF08BD08B504200821FFF747
S214000CA0EFFE08BD08B504200921FFF7E9FE08BDE0
S214000CB008B504200921FFF713FF08BD08B5042076
S214000CC00D21FFF7ABFE0346DBB2184608BD00BF9A
S214000CD000B583B003468DF80730064B1A680DF151
S214000CE0070310461946012200F020FB03B05DF80A
S214000CF004FB00BF3000002000B583B00190054B18
S214000D001B6818460199012200F0E6FA03B05DF868
S214000D1004FB00BF3000002000B583B003460091FE
S214000D208DF80730054B1A689DF807301046009975
S214000D301A4600F0FBFA03B05DF804FB3000002012
S214000D4000B583B0034600918DF80730054B1A684E
S214000D509DF80730104600991A4600F0BDFA03B019
S214000D605DF804FB3000002000B585B00346009116
S214000D708DF8073042F21073ADF80E3000238DF870
S214000D800D3020E0FFF78EFF4420FFF7A1FF03ABF6
S214000D901846FFF7B1FF9DF80C30FF2B0CD19DF8DD
S214000DA00730002B05D09DF8073018460099FFF74E
S214000DB0C7FFFFF77DFF0AE0FFF77AFFBDF80E30AA
S214000DC0013BADF80E30BDF80E30002BDAD19DF8A1
S214000DD00C30FF2B06D1064B01221A709DF80C3002
S214000DE08DF80D309DF80D30184605B05DF804FB03
S214000DF0940E002000B583B0034600918DF80730AE
S214000E0001E000F073F80A4B1B78002BF9D0FFF7CF
S214000E1049FF9DF8073018460099FFF77DFFFFF75A
S214000E2047FF034B00221A7003B05DF804FB00BFB7
S214000E30940E002000B583B0009303468DF807306B
S214000E400B468DF8063013468DF805309DF80630B3
S214000E50002B06D001E000F049F80C4B1B78002B65
S214000E60F9D0FFF71FFF9DF807301846FFF730FF51
S214000E709DF8053018460099FFF762FFFFF718FF48
S214000E80024B00221A7003B05DF804FB940E00209B
S214000E9000B583B0009303468DF807300B468DF8F7
S214000EA0063013468DF805309DF80630002B06D028
S214000EB001E000F01BF80C4B1B78002BF9D0FFF775
S214000EC0F1FE9DF807301846FFF702FF9DF8053043
S214000ED018460099FFF720FFFFF7EAFE024B0022B4
S214000EE01A7003B05DF804FB940E002008B50020CD
S214000EF00021FFF739FF0346184608BD014B0022C4
S214000F001A707047940E002000B585B002910193C8
S214000F1003468DF80F3013468DF80E309DF80F30CF
S214000F2018460299FFF766FF9DF80E30184601999D
S214000F30FFF71AFF0346184605B05DF804FB00BF2E
S214000F4000B58DB0019073E0019B5A1C01921B788E
S214000F508DF82E309DF82E30102B1DD9019B1B7856
S214000F60662B17D19DF82E30802B01D9042364E020
S214000F70019B013301939DF82E30013BDBB21846EE
S214000F80019900F05FF89DF82E30013B019A13445A
S214000F9001934DE0042350E000238DF82F300FE03E
S214000FA09DF82F30019A12780CA90B4403F8142CE4
S214000FB0019B013301939DF82F3001338DF82F30BC
S214000FC09DF82F209DF82E309A42E9D39DF82E10DA
S214000FD007AA0DF10B03084611460122FFF794FFFE
S214000FE00346FF2B01D0022327E09DF81C30192B67
S214000FF00BD19DF80C30012B01D104231DE09DF888
S2140010000C30022B01D1042317E0FFF757FE0346EE
S214001010002B0DD103AB002000210022FFF730FC8F
S2140010209DF8123003F00803002B01D0042304E0DF
S214001030019B1B78002B87D1002318460DB05DF866
S21400104004FB00BF00B583B0034600918DF807305F
S2140010509DF80730662001211A46009BFFF718FF0F
S21400106003B05DF804FB00BF30B58BB00190009173
S214001070884B02AC1D460FCD0FC495E8030084E8EC
S2140010800300019B002B01D1834B00E1009B002B4A
S21400109001D1824BFBE00198002158220CF0A6FA01
S2140010A0009B1B687E4A93420AD1019B7D4ADA6404
S2140010B0019B7D4A5A62019B4FF450229A6221E0BE
S2140010C0009B1B68794A93420AD1019B784ADA64EE
S2140010D0019B784A5A62019B4FF460229A6211E0A3
S2140010E0009B1B68744A93420AD1019B734ADA64D8
S2140010F0019B734A5A62019B4FF440229A6201E0B8
S214001100664BC4E0019A009B14461D460FCD0FC4E3
S21400111095E8070084E80700009B5B7D012B02D161
S21400112001238DF81630009B9B7D002B03D10023F6
S214001130ADF818301CE0009B9B7D012B04D14FF4CA
S2140011400073ADF8183013E0009B9B7D022B04D192
S2140011504FF48073ADF818300AE0009B9B7D032B9C
S21400116004D14FF44073ADF8183001E04B4B8EE0DD
S214001170009B1B7D012B06D100238DF815304FF404
S2140011807A73049302E0009B9B6804934D48012108
S2140011900AF020FA4C4801210AF01CFA019BDB6C8D
S2140011A0184601210AF016FA009B1A6802AB104690
S2140011B0194608F0E5FC009B1B7D002B0BD1009B1D
S2140011C0DB7D002B07D1009B1B68009A1268126813
S2140011D042F480321A60009BDB7D002B08D1009B16
S2140011E01B68009A1279120242F00F025A6507E055
S2140011F0009B1B68009A1279120242F00B025A6595
S2140012000198012100F0CAF80990099B002B01D033
S214001210099B3CE00BF074F808902C4B1B7883F08D
S2140012200103DBB2002B08D0284B01221A70089865
S2140012300BF072F800F046FD02E008980BF06CF830
S214001240009B1B7D012B09D1019B5433184600F0EF
S214001250F3FC0346002B01D01D4B18E001F098F874
S214001260019B1C331846002101F038F80346002B7A
S21400127001D0184B0BE0019B20331846002101F0EB
S2140012802DF80346002B01D0124B00E00023184631
S2140012900BB030BD84E40000012000F0022000F016
S2140012A000C400400012040001000D0000C8004009
S2140012B00022040001000E0000C0004000020400EE
S2140012C001000C004081040000D20400950E0020AE
S2140012D0042000F0092000F000B587B003900291CA
S2140012E00192039B1B7D012B01D10E4B15E0039849
S2140012F00299019A00F0E2FB0590059B002B01D0B5
S214001300059B0AE003980299019A074B00F00CFB34
S214001310039800F009FC039B5B6C184607B05DF869
S21400132004FB00BF082000F08113000000B587B062
S214001330039002910192039B1B7D012B01D10E4B62
S21400134015E003980299019A00F0B8FB0590059BFA
S214001350002B01D0059B0AE003980299019A074BDF
S21400136000F048FB039800F0DFFB039B5B6C18461D
S21400137007B05DF804FB00BF082000F081130000F2
S21400138084B0039002910192039B029A5A64039BD5
S214001390012283F8502004B0704700BF00B58BB020
S2140013A001900B468DF80330019B1B790393019B3C
S2140013B01B689D4A934240F09B80039B002B0CD0F9
S2140013C0039B012B07D0039B022B01D1032306E0CE
S2140013D04FF0FF3303E0032301E04FF0FF330693A3
S2140013E0039B002B0CD0039B012B07D0039B022BE7
S2140013F001D1032306E04FF0FF3303E0032301E0AF
S2140014004FF0FF330593039B002B0CD0039B012B5F
S21400141007D0039B022B01D1052306E04FF0FF33D4
S21400142003E0032301E04FF0FF330493039B002BFC
S2140014300CD0039B012B07D0039B022B01D1052365
S21400144006E04FF0FF3303E0032301E04FF0FF33E5
S214001450019AD363039B002B0CD0039B012B07D070
S214001460039B022B01D1072306E04FF0FF3303E076
S214001470002301E04FF0FF330993039B002B0CD0B1
S214001480039B012B07D0039B022B01D1062306E00A
S2140014904FF0FF3303E0012301E04FF0FF330893E2
S2140014A0039B002B0CD0039B012B07D0039B022B26
S2140014B001D1002306E04FF0FF3303E0022301E0F2
S2140014C04FF0FF330793039B002B0CD0039B012B9D
S2140014D007D0039B022B01D1012306E04FF0FF3318
S2140014E003E0032301E04FF0FF33019A136425E184
S2140014F0019B1B684D4A934272D1039B002B07D079
S214001500039B012B01D1012304E04FF0FF3301E0E0
S2140015104FF0FF330693039B002B07D0039B012B52
S21400152001D1012304E04FF0FF3301E04FF0FF3319
S2140015300593039B002B07D0039B012B01D10123AE
S21400154004E04FF0FF3301E04FF0FF330493039BBA
S214001550002B07D0039B012B01D1012304E04FF0A1
S214001560FF3301E04FF0FF33019AD363039B002B58
S21400157007D0039B012B01D1032304E04FF0FF3378
S21400158001E04FF0FF330993039B002B07D0039B2A
S214001590012B01D1042304E04FF0FF3301E04FF0AC
S2140015A0FF330893039B002B07D0039B012B01D12D
S2140015B0052304E04FF0FF3301E04FF0FF330793BD
S2140015C0039B002B07D0039B012B01D1062304E0CD
S2140015D04FF0FF3301E04FF0FF33019A1364ADE0A4
S2140015E0019B1B68124A934240F0A680039B002B87
S2140015F020D0039B012B13D0039B022B0DD0039B03
S214001600032B07D0039B042B01D1012313E04FF0DB
S214001610FF3310E04FF0FF330DE04FF0FF330AE0EA
S2140016204FF0FF3307E000BF00C4004000C8004092
S21400163000C0004004230693039B002B19D0039B95
S214001640012B13D0039B022B0DD0039B032B07D03B
S214001650039B042B01D101230CE04FF0FF3309E07C
S2140016604FF0FF3306E04FF0FF3303E04FF0FF3359
S21400167000E004230593039B002B01D1042301E023
S2140016804FF0FF330493039B002B01D1042201E0AB
S2140016904FF0FF32019BDA63039B002B19D0039BAC
S2140016A0012B13D0039B022B0DD0039B032B07D0DB
S2140016B0039B042B01D107230CE04FF0FF3309E016
S2140016C04FF0FF3306E04FF0FF3303E04FF0FF33F9
S2140016D000E00A230993039B002B19D0039B012BE0
S2140016E013D0039B022B0DD0039B032B07D0039B29
S2140016F0042B01D108230CE04FF0FF3309E04FF034
S214001700FF3306E04FF0FF3303E04FF0FF3300E017
S2140017100B230893039B002B01D10C2301E04FF011
S214001720FF330793039B002B01D10D2201E04FF0FE
S214001730FF32019B1A6401E0624BBFE09DF8033064
S214001740002B7ED0019B1B7D002B3DD1069BDAB281
S214001750099B104619460422002308F021FE059B2B
S214001760DAB2089B104619460222002308F018FE3B
S214001770019B9B7D002B03D0019B9B7D012B09D1F8
S214001780049BDAB2079B104619460422002308F091
S21400179007FE08E0049BDAB2079B104619460422AF
S2140017A0012308F0FDFD019BDB7D002B40F08580CA
S2140017B0019BDB6BDAB2019B1B6C104619460422B8
S2140017C0012308F0EDFD78E0069BDAB2099B10468F
S2140017D019460222002308F0E3FD059BDAB2089BB7
S2140017E0104619460422002308F0DAFD019B9B7D73
S2140017F0002B03D0019B9B7D012B09D1049BDAB201
S214001800079B104619460222002308F0C9FD08E08F
S214001810049BDAB2079B104619460222012308F001
S214001820BFFD019BDB7D002B47D1019BDB6BDAB252
S214001830019B1B6C104619460222012308F0B0FDDE
S2140018403BE0069BDAB2099B1046194602220023AB
S21400185008F0A6FD059BDAB2089B10461946022240
S214001860002308F09DFD019B9B7D002B03D0019B70
S2140018709B7D012B09D1049BDAB2079B10461946C3
S2140018800222002308F08CFD08E0049BDAB2079BD6
S214001890104619460222012308F082FD019BDB7DDB
S2140018A0002B0AD1019BDB6BDAB2019B1B6C104646
S2140018B019460022002308F073FD002318460BB0DB
S2140018C05DF804FB022000F000B587B0039002919B
S2140018D001920AF015FD0590019B0493049B0022DB
S2140018E05A64049B002283F84820049B00229A63D3
S2140018F0049B1B7D012B04D1049B5B6D184600F0F6
S2140019002FFA049BDB6A002B06D0049BDB6A049A42
S214001910526B04980021984705980AF0FDFC0123B5
S214001920184607B05DF804FB10B58EB00990089114
S21400193007920693099B002283F85020099B079A7A
S2140019405A63099B1B684FF44062DA60099B069A4B
S214001950DA62099BDB68082B03D901238DF82F3048
S21400196002E000238DF82F30099BDB68082B08D98E
S214001970099B1B6824330D93099B1B683C330C930F
S21400198007E0099B1B681C330D93099B1B683433C7
S2140019900C93099B196A099B9A6A01230093079B7B
S2140019A001939DF82F300293114B0393099B0493E8
S2140019B008461146089A0D9B00F050FD099BD96910
S2140019C0099B5A6A099B03F1100400230093079BA6
S2140019D001939DF82F300293002303930023049372
S2140019E0084611460C9A234600F014FD0EB010BDB2
S2140019F0C918000000B58FB00990089107920693A9
S214001A00099B002283F85020099B079A5A63099B7A
S214001A101B684FF44062DA60099B069ADA62099BFB
S214001A20DB68082B03D901238DF82F3002E0002352
S214001A308DF82F30099BDB68082B08D9099B1B689B
S214001A4024330D93099B1B683C330C9307E0099BDA
S214001A501B681C330D93099B1B6834330C93099B3E
S214001A60186A099B996A099B03F1300200230093C8
S214001A70079B01939DF82F3002930F4B0393099B0E
S214001A8004930D9B00F0EAFC099BD969099B5A6AEE
S214001A9001230093079B01939DF82F3002930023A8
S214001AA0039300230493084611460C9A089B00F003
S214001AB0B1FC0FB05DF804FBC918000000B587B094
S214001AC0039002910192039B002B01D1134B21E05E
S214001AD0029B002B06D0019B002B03D0019BB3F585
S214001AE0806F01DD0E4B15E00AF00AFC0590039BA3
S214001AF093F84830DBB2002B04D005980AF00CFCB3
S214001B00084B07E0039B012283F8482005980AF05B
S214001B1003FC0023184607B05DF804FB012000F024
S214001B20022000F0032000F000B583B001900020F2
S214001B300AF0FCFB0346002B0CD001E008F070FE18
S214001B40019B93F85030DBB283F00103DBB2002B2D
S214001B50F4D109E000BF019B93F85030DBB283F06C
S214001B600103DBB2002BF6D103B05DF804FB00BF27
S214001B7082B003468DF8073007499DF907305B09A8
S214001B809DF8072002F01F02012000FA02F241F839
S214001B90232002B0704700BF00E100E082B0034699
S214001BA08DF8073007499DF907305B099DF8072037
S214001BB002F01F02012000FA02F2603341F82320EF
S214001BC002B0704700E100E0014B5B6818467047C2
S214001BD00000084082B00190024A019B936102B067
S214001BE0704700BF0000084082B001900449044BD3
S214001BF0DA69019BDB431340CB6102B0704700BF3C
S214001C000000084082B001900349034BDA69019B4B
S214001C101343CB6102B070470000084082B0054B0A
S214001C20DB690193034B1A69019B1340184602B007
S214001C30704700BF0000084000B587B00190002341
S214001C400593002304930AF05BFB039002E0059BD8
S214001C5001330593059B032B0ADC1749059A1346A7
S214001C609B001344DB000B4418339B79002BEED10A
S214001C70059B042B02D1114B049314E0019B002B0F
S214001C800FD00D49059A13469B001344DB000B4406
S214001C90183301229A71059A019B1A600023049357
S214001CA001E0074B049303980AF036FB049B1846A2
S214001CB007B05DF804FB00BF980E0020011000F08E
S214001CC0041000F008B51D4B1B78002B01D0002334
S214001CD032E01A4B01221A701948012109F07AFCE9
S214001CE01848022109F058FE1748082109F084FB1D
S214001CF01548012109F06EFC14480AF0AFFA0720D7
S214001D00FFF772FF0720FFF765FF0AF0CBFA1E20E9
S214001D10FFF744FF1E20FFF72BFF0D480021A022EF
S214001D200BF064FC0B4B00221A700B4B00221A704F
S214001D300A4B00221A600023184608BD420F0020F6
S214001D400043020002001A00601610009CE4000027
S214001D50980E0020400F0020410F00203C0F00206E
S214001D6000B585B00190019B032B01D9144B23E0ED
S214001D700AF0C6FA03901349019A13469B001344CF
S214001D80DB000B4418339B7983F00103DBB2002B96
S214001D9004D003980AF0C0FA0B4B0DE00949019AEB
S214001DA013469B001344DB000B44183300221A71C1
S214001DB003980AF0B1FA0023184605B05DF804FB54
S214001DC0021000F0980E0020031000F000B587B057
S214001DD00AF096FA0490FFF721FF0390039B23F086
S214001DE003031846FFF7F6FE039B03F00203002BDF
S214001DF039D0204B01221A70FFF7E6FE059002202C
S214001E00FFF7F2FE059B1A021B4B1B681B02D31A38
S214001E101B0A0293029800F033F800F083F9059845
S214001E2000F0B0F9FFF7D0FE0590059B1A02124BA2
S214001E301B681B02D31A1B0A029300200AF0C2F981
S214001E4003461A020C4B1B681B02D31A1B0A01938B
S214001E500A4B1B78002B03D0029A019B9A42CED8DD
S214001E60044B00221A7004980AF056FA07B05DF880
S214001E7004FB00BF400F0020380F0020410F002059
S214001E8010B485B001900023039341E1A449039A5E
S214001E9013469B001344DB000B44183300225A7190
S214001EA09F49039A13469B001344DB000B441833E8
S214001EB01B79002B00F029819949039A13469B0051
S214001EC01344DB000B44D3E90023019908464FF086
S214001ED00001994208BF904219D29149039A1346CD
S214001EE09B001344DB000B44D3E90001019B1A4618
S214001EF04FF00003801A61EB0301894C039A1346E6
S214001F009B001344DB002344C3E90001FDE0844941
S214001F10039A13469B001344DB000B441833DB790B
S214001F20002B0AD17E49039A13469B001344DB001C
S214001F300B44183300221A71D2E07949039A1346EB
S214001F409B001344DB000B440833D3E90001019BDC
S214001F501A464FF00003801A61EB0301704C039A97
S214001F6013469B001344DB002344D3E90023801868
S214001F7041EB03016A4C039A13469B001344DB00B3
S214001F802344C3E900016649039A13469B001344A1
S214001F90DB000B4410331B68002B50DD6049039AAE
S214001FA013469B001344DB000B44103359685C480F
S214001FB0039A13469B001344DB00034410331B684C
S214001FC019445748039A13469B001344DB00034406
S214001FD0103359605249039A13469B001344DB00A2
S214001FE00B4410335B68F32B7AD94D49039A13469A
S214001FF09B001344DB000B44D3E90023501C43F141
S2140020000001474C039A13469B001344DB0023440D
S214002010C3E900014249039A13469B001344DB00C0
S2140020200B4410335B68A3F1F4013D48039A134652
S2140020309B001344DB0003441033596050E03849DA
S214002040039A13469B001344DB000B441033596875
S2140020503348039A13469B001344DB0003441033B3
S2140020601B68C91A2E48039A13469B001344DB00CC
S2140020700344103359602A49039A13469B001344BD
S214002080DB000B4410335B68F32B29D92449039AF1
S21400209013469B001344DB000B44D3E9002312F1E4
S2140020A0FF3043F1FF311E4C039A13469B00134446
S2140020B0DB002344C3E900011949039A13469B0039
S2140020C01344DB000B4410335B68A3F1F40114489F
S2140020D0039A13469B001344DB00034410335960F5
S2140020E00F49039A13469B001344DB000B44183336
S2140020F01B68002B09D00A49039A13469B00134419
S214002100DB000B44183301225A71039B01330393FF
S214002110039B032B7FF7BAAE05B05DF8044B704700
S214002120980E002010B582B00023019322E01449D7
S214002130019A13469B001344DB000B4418335B796B
S214002140002B14D00E49019A13469B001344DB0063
S2140021500B4418331C6801980949019A13469B00E2
S2140021601344DB000B4420331B681946A047019B31
S21400217001330193019B032BD9DD02B010BD00BFD4
S214002180980E002000B58BB001904FF0FF324FF054
S214002190FF33CDE906230023099327E03749099A40
S2140021A013469B001344DB000B4418331B79002BAB
S2140021B019D03249099A13469B001344DB000B449E
S2140021C0D3E90001DDE90623994208BF90420AD20E
S2140021D02A49099A13469B001344DB000B44D3E9B3
S2140021E00023CDE90623099B01330993099B032BA2
S2140021F0D4DD234B00221A70DDE90623B3F1FF3F3E
S21400220008BFB2F1FF3F35D0DDE90623CDE9042350
S2140022101C4B0393039B1A464FF00003DDE90401B1
S214002220994208BF904201D202460B46CDE90623EA
S214002230154B1B7883F00103DBB2002B05D0019B06
S21400224023F07F43114A136002E0104A019B13609B
S2140022500220FFF7BFFC069A019B134423F07F433E
S2140022600020194609F0C8FF054B01221A7002200B
S214002270FFF7C8FC0BB05DF804FB00BF980E00200B
S214002280410F00209BFFFF00400F0020380F00206A
S21400229082B0034600918DF807309DF90730002B79
S2140022A00CDA0C499DF8073003F00F03043B009A44
S2140022B0D2B25201D2B20B441A7609E006499DF911
S2140022C00730009AD2B25201D2B20B4483F80023F0
S2140022D002B0704700ED00E000E100E000B585B018
S2140022E001900091254B1B7883F00103DBB2002B95
S2140022F001D0234B3DE0019B002B01D1214B38E060
S21400230009F0FEFF0290002303932BE01E49039A78
S21400231013469B0013449B000B4410331B7883F03A
S2140023200103DBB2002B1AD0039A019B1A601649F0
S214002330039A13469B0013449B000B441033012260
S2140023401A701149039A13469B0013449B000B44D2
S21400235000221A60029809F0DFFF002309E0039BC1
S21400236001330393039B0B2BD0DD029809F0D4FFB7
S214002370064B184605B05DF804FB00BF430F00206F
S214002380028000F0018000F0440F0020048000F07E
S21400239000B585B009F0B4FF02901A4B1B78002BED
S2140023A004D0029809F0B8FF174B26E0154B01221F
S2140023B01A70029809F0B0FF002303930CE013494B
S2140023C0039A13469B0013449B000B4410330022D1
S2140023D01A70039B01330393039B0B2BEFDD002046
S2140023E00421FFF755FF00238DF80030084B0193BA
S2140023F06B46184608F054FB0023184605B05DF8F7
S21400240004FB00BF430F0020038000F0440F0020B1
S2140024100020002000B58DB00B900A910992089319
S214002420099B0093089B0193002302939DF8383084
S21400243003930F9B04939DF840300593119B0693DE
S214002440129B0793002000210B9A0A9B00F09CF831
S214002450034618460DB05DF804FB00BF00B58DB00E
S2140024600B900A9109920893099B0093089B01938D
S214002470002302939DF8383003930F9B04939DF836
S21400248040300593119B0693129B07930020012171
S2140024900B9A0A9B00F078F8034618460DB05DF8D4
S2140024A004FB00BF00B587B003900B4601928DF881
S2140024B00B30039A13469B0013449B000B4A1344AD
S2140024C00593059B1B68002B0CD0059B9B685A1C2C
S2140024D0059B9A60059B1B68059A9168059A526849
S2140024E00398984707B05DF804FB00BF440F002030
S2140024F000B58BB007900B4605928DF81B30012374
S2140025008DF82730079A13469B0013449B001D4AFC
S21400251013440893089B1B68002B1DD0089B9B68E0
S2140025205A1C089B9A60089B1B68089A9168089A30
S2140025305268079898470346002B14BF01230023D0
S214002540DBB283F00103DBB28DF827309DF827302D
S21400255003F001038DF82730089BDB68013B194622
S2140025609DF81B200023009301919DF827300293CD
S214002570002011460022002308F0BCFA0BB05DF8DC
S21400258004FB00BF440F002000B58FB006920593F1
S21400259003468DF81F300B468DF81E308F4B1B7888
S2140025A083F00103DBB2002B01D08D4B12E1069BBA
S2140025B00B2B10D8109B002B0DD0119B002B0AD094
S2140025C0149BB3F5806F06DC9DF81F30012B04D1F9
S2140025D0129B002B01D1834BFCE0069A13469B000E
S2140025E013449B00804A13440D930D9B1B7C83F081
S2140025F00103DBB2002B01D07C4BEBE09DF81F30D3
S214002600002B09D17A49069A13465B0013449B00B7
S2140026100B44784A1A6008E07549069A13465B0030
S21400262013449B000B44744A1A607149069A134679
S2140026305B0013449B000B4400225A6000238DF875
S2140026402830169B002B03D19DF81F30012B03D199
S21400265001238DF8293002E000238DF82930059BF0
S2140026600B93069A13465B0013449B00604A134480
S2140026700C930AAB0698194608F094F99DF81E309C
S214002680002B1ED19DF84C30002B13D09DF85430F3
S214002690002B03D100238DF821300EE09DF8543036
S2140026A0012B03D101238DF8213006E002238DF89B
S2140026B0213002E003238DF8213003238DF82030EB
S2140026C01DE09DF84C30002B13D09DF85430002BA5
S2140026D003D100238DF820300EE09DF85430012BF6
S2140026E003D101238DF8203006E002238DF8203038
S2140026F002E003238DF8203003238DF821309DF867
S21400270054308DF8223000238DF8233000238DF8C6
S214002710243008AB069801211A4608F08BF99DF87C
S2140027201F30012B05D108AB069800211A4608F089
S21400273081F90D9B169A1A600D9B179A5A600D9B8D
S21400274000229A600D9B149ADA602C4A069B01219F
S21400275001FA03F3194602F58053083319609DF811
S2140027601F30002B0CD1149B013B1A46119B009383
S2140027700192069801210022109B08F0BDF828E07F
S2140027809DF81E30002B12D1149B013B1946149B5A
S214002790013B1A460091109B0193129B02930392F1
S2140027A006980021109A119B08F0CCF811E0149BB3
S2140027B0013B1946149B013B1A460091119B01935D
S2140027C0129B0293039206980021109A129B08F01F
S2140027D0B9F8002318460FB05DF804FB430F00203D
S2140027E0028000F0018000F0440F0020078000F017
S2140027F034100020A5240000F124000000200C4026
S21400280082B003468DF8073007499DF907305B090B
S2140028109DF8072002F01F02012000FA02F241F89C
S214002820232002B0704700BF00E100E082B00346FC
S2140028308DF8073007499DF907305B099DF807209A
S21400284002F01F02012000FA02F2203341F8232092
S21400285002B0704700E100E082B003468DF8073012
S21400286007499DF907305B099DF8072002F01F0213
S214002870012000FA02F2603341F8232002B07047CC
S21400288000E100E0034A034B1B6923F004031361D5
S21400289030BF704700ED00E084B0039002910192D3
S2140028A0039A029B03331B011344019A5A6004B037
S2140028B0704700BF82B00190019B5B6A184602B069
S2140028C0704700BF82B001900B468DF80330019B25
S2140028D00E4A93420BD0019B0D4A934207D0019BB0
S2140028E00C4A934203D0019B0B4A934200D100BF8F
S2140028F09DF80330002B03D0019B01225A6002E0B2
S214002900019B02225A6002B0704700BF00000140DF
S2140029100004014000080140000C014082B0019014
S2140029200091019B009A9A6102B0704782B00190B4
S2140029300091019BDA68009BDB431A40019BDA603A
S21400294002B0704782B001900091019BDA68009B4C
S2140029501A43019BDA6002B0704700BF82B0019054
S214002960019B1B69184602B0704700BF82B00190F9
S2140029700091019B009ADA6102B0704730B589B0C9
S21400298001238DF80C3000238DF80D3000238DF8D0
S2140029900E3000238DF80F3000238DF81030002302
S2140029A08DF8113000238DF8123000238DF8133087
S2140029B000238DF8143000238DF8153000238DF891
S2140029C0163000238DF8173000238DF818300023BA
S2140029D08DF8003000238DF8013000238DF802308A
S2140029E000238DF8033000238DF8043000238DF883
S2140029F0053000238DF8063000238DF807300023BD
S214002A008DF8083000238DF8093000238DF80A3041
S214002A1002238DF806303748012108F0DBFD3648E2
S214002A204FF6FF71FFF7A2FF6B46334800211A46A8
S214002A3008F0A2F900238DF80E3003AB2E48194695
S214002A4008F01AF92D4808F031FE02462C4B1A60A1
S214002A502B4B1B689DF80E20D340294A13609DF827
S214002A600E300133DBB28DF80E309DF80E300A2B97
S214002A7004D8234B1B68234A9342DED8224808F02A
S214002A8015FE0246214BB3FBF2F307931C4B1B6863
S214002A9018464FF00001079B1A464FF0000302FB52
S214002AA001F500FB03F42C44A0FB0223E1180B46BF
S214002AB017484FF00001121843EB01031046194661
S214002AC0144A4FF0000309F031FF02460B46124B42
S214002AD01A60124B00221A7007481021FFF726FFD3
S214002AE00220FFF7B9FE0220FFF78AFE00231846F1
S214002AF009B030BD005204000000014040810400CF
S214002B00C410002080841E005000020000B0710B2C
S214002B1020A1070040420F00C8100020CC10002063
S214002B2008B50220FFF782FE0A481021FFF7FEFED6
S214002B3008481021FFF7F2FE0220FFF78DFE054839
S214002B400021FFF7BFFE0448002108F043FD0023E4
S214002B50184608BD000001400052040030B585B09C
S214002B600190224B1B6818464FF00001019B1A4645
S214002B704FF0000302FB01F500FB03F42C44A0FB1E
S214002B800223E1180B461A484FF00001121843EBD7
S214002B90010310461946174A4FF0000309F0C6FE17
S214002BA002460B46CDE902230DE04FF6E85000F052
S214002BB03FF8DDE9022310484FF0FF31121843EBCF
S214002BC00103CDE90223DDE902234FF6E8504FF07A
S214002BD00001994208BF9042E7D3BDF80830184676
S214002BE000F026F80023184605B030BDC4100020BB
S214002BF020A1070040420F001802FFFF00B583B077
S214002C000948FFF7ABFE0190019B03F01003002B71
S214002C1006D005481021FFF781FE044B01221A70EA
S214002C2003B05DF804FB00BF00000140CC1000209C
S214002C3000B587B00346ADF80630BDF80630002B69
S214002C4036D009F05DFB05901B48FFF733FE0146C2
S214002C501A4B1B680493BDF80630ADF80E30BDF86D
S214002C600E20049B934238BF13460B4412480021A3
S214002C701A46FFF711FE10481021FFF74FFE0E48C8
S214002C801021FFF75FFE059809F046FB01E0FFF70D
S214002C90F9FD0B4B1B78DBB283F00103DBB2002B94
S214002CA0F5D1074B00221A7003481021FFF73EFEAD
S214002CB007B05DF804FB00BF00000140C81000200C
S214002CC0CC10002000B589B003468DF8073003AB62
S214002CD00793002000210022079BFDF7D1FD079BEC
S214002CE09B7803F01003002B03D0074802F028FF60
S214002CF004E0079B9B7803F00803002B00F080F9A4
S214002D0009B05DF804FB00BF5000002008B5194864
S214002D100121FDF735FFFDF7A5FF00F085F90CE072
S214002D20154804F045FBFFF729FE42F21070FFF746
S214002D3015FFFFF7F5FE00F077F91048FEF700F9EB
S214002D400346002BECD10020002100220023FDF7D3
S214002D5097FD0B48FDF7EEFC094B5B8809481946C2
S214002D6004F012FB0848002102F0D2FC01231846AA
S214002D7008BD00BFC52C0000B8E4000018E5000040
S214002D80EC1E0020DCE400005000002000B585B0FA
S214002D9001900B46ADF80230214B00221A60BDF8B8
S214002DA00230402B01D9002335E0002303930BE0CB
S214002DB0039A1C4B1340002B03DA013B63F00F030E
S214002DC00133039B01330393BDF80220039B9A4211
S214002DD0EEDC01200021FDF79BFD134A019B1360EA
S214002DE0124ABDF8023013801148FDF7D7FD02E005
S214002DF00F48FDF7D3FD0E4B1B78072BF8D00D4B75
S214002E001B68DB88DBB218460199FDF7A3FD044B6F
S214002E1001221A600023184605B05DF804FB00BFC7
S214002E20D01000200F000080D4100020D810002002
S214002E30EC1E00208000002000B589B00346ADF8E7
S214002E40063003AB0793114B1B689A7BBDF8063020
S214002E50104630211A46FDF7A7FC0020002100226C
S214002E60079BFDF70DFD05E0002000210022079BD3
S214002E70FDF706FD079B9B7803F02003002BF3D19C
S214002E800023184609B05DF804FB00BF8000002050
S214002E9000B583B001900B46ADF80230BDF80230A5
S214002EA001981946FFF772FF0346012B01D1012353
S214002EB005E0BDF802301846FFF7BEFF0346184689
S214002EC003B05DF804FB00BF00B587B001900B4669
S214002ED0ADF8023002AB00201946FDF719FD9DF84B
S214002EE00830ADF80230BDF80230DBB21846019962
S214002EF0FDF742FD02200021FDF70AFDBDF8023075
S214002F00184607B05DF804FB1846704700231846BD
S214002F10704700BF1846704708B502200021FDF72D
S214002F20F7FC01200021FDF7F3FC00F069F801230F
S214002F30184608BD00231846704700BF00B589B084
S214002F4003900B4601928DF80B3001238DF81F304D
S214002F50039B1B88002B03D0B3F5847F07D03FE08C
S214002F6000238DF81F30039B4FF484721A809DF85F
S214002F701F30002B03D09DF80B30822B01D001238D
S214002F8035E003F0CBFF04F0ABF80346184680218B
S214002F90FFF79AFF0590059B9BB2184604F088F849
S214002FA0154B1B69984704F09BF804900023069382
S214002FB00BE0069A114B1340002B03DA013B63F03B
S214002FC00F030133069B01330693069A059B9A422C
S214002FD0EFDB01200021FDF79BFCFFF79DFFBFE71D
S214002FE000238DF81F30039B00221A800323184607
S214002FF009B05DF804FB00BFC80F01000F00008099
S21400300000B583B0074B1B681A7E03230093082382
S21400301001931046002100220023FDF7F5FB03B0C4
S2140030205DF804FB8000002008B5FDF771FBFFF794
S214003030A5FC42F21070FFF791FDFFF771FD08BD89
S21400304000B583B003468DF807309DF8073003F0CF
S2140030500103002B9DF8073003F00203002B9DF8B8
S214003060073003F00403002B054B1A78054B1B783A
S2140030705340DBB2184600F06DF803B05DF804FB71
S214003080DA100020DB10002008B500F055F8044BDD
S21400309000221A70024B1A78024B1A7008BD00BF45
S2140030A0DB100020DA10002000B585B003468DF84E
S2140030B007300D4B1A789DF8073013408DF80F3007
S2140030C09DF80730DB43DAB2074B1B78DBB21340C0
S2140030D0DBB2DAB2044B1A709DF80F301846FFF7D1
S2140030E0AFFF05B05DF804FBDA10002000B583B032
S2140030F003468DF807309DF80730184600F004F8B0
S21400310003B05DF804FB00BF00B583B003468DF83E
S2140031100730084B1A789DF807305340DAB2054B53
S2140031201A709DF807301846FFF78AFF03B05DF85F
S21400313004FB00BFDB10002008B505200621042292
S214003140002307F02DF9052007210422002307F0AD
S21400315027F908BD00B583B003468DF807309DF803
S214003160073003F00103002B04D0F620012105F000
S2140031700FFC03E0F620002105F00AFC9DF807305E
S21400318003F00203002B04D0F720012105F000FC19
S21400319003E0F720002105F0FBFB03B05DF804FB1D
S2140031A0014B01221A607047DC100020014B0122FF
S2140031B01A607047DC100020014B00221A6070472E
S2140031C0DC100020014B1B6818467047DC100020FE
S2140031D000B583B0019006F0B7F80346184603B072
S2140031E05DF804FB00B583B001900091019B802B35
S2140031F002D0812B04D00DE0FFF7D2FF01230AE0B6
S214003200009B002B02D0FFF7D1FF01E0FFF7D4FFB1
S214003210012300E00023184603B05DF804FB00BF5E
S21400322000B583B00190019B822B03D1FFF7CAFF44
S214003230034600E00023184603B05DF804FB00BF19
S21400324010B584B0029111461A4603468DF80F3029
S2140032500B468DF80E3013468DF80D309DF80F2076
S2140032609DF80E409DF80D3000939DF818300193A0
S21400327010460299029A234607F01EF804B010BDC5
S21400328008B50248FDF748F908BD00BF74E800001D
S21400329000B583B005F0DEFB0346002B01D105F038
S2140032A0DFFB042003210222012307F079F8012323
S2140032B000930420032100220123FFF7C1FF03200F
S2140032C0024906F059FD03B05DF804FB81320000A8
S2140032D008B5054B1B68002B01D1FFF7D9FF034B40
S2140032E001221A6008BD00BFE0100020E410002094
S2140032F0014B00221A607047E4100020014B1B6847
S21400330018467047E410002082B00190012318464A
S21400331002B0704700B583B00190019B813B012B42
S21400332003D8FFF7EBFF034600E00023184603B080
S2140033305DF804FB00B583B001900091019B802BE3
S21400334002D0812B04D00DE0FFF7A2FF01230AE094
S214003350009B002B02D0FFF7BBFF01E0FFF7C8FF82
S214003360012300E00023184603B05DF804FB00BF0D
S214003370024BD3F814311846704700BF0060004077
S21400338010B584B0029111461A4603468DF80F30E8
S2140033900B468DF80E3013468DF80D309DF80F2035
S2140033A09DF80E409DF80D3000939DF8183001935F
S2140033B010460299029A234606F07EFF04B010BD1E
S2140033C008B50248FDF7A8F808BD00BF8CE8000065
S2140033D000B583B005F03EFB0346002B01D105F097
S2140033E03FFB042002210222012306F0D9FF01231D
S2140033F000930420022100220123FFF7C1FF0220D0
S214003400024906F0B9FC03B05DF804FBC1330000C6
S21400341008B5054B1B68002B01D1FFF7D9FF034BFE
S21400342001221A6008BD00BFE8100020EC10002042
S214003430014B1B6818467047EC10002000B583B09F
S2140034400190FFF795FF0346184603B05DF804FBAE
S21400345000B583B00190019B813B012B03D8FFF799
S214003460E7FF034600E00023184603B05DF804FBC0
S21400347000B583B001900091019B802B02D0812B78
S21400348004D007E0FFF7A4FF012304E0FFF7C0FF26
S214003490012300E00023184603B05DF804FB00BFDC
S2140034A0034B01221A60034B01221A60704700BFCB
S2140034B0F0100020F410002008B5054B1B68002B08
S2140034C001D1FFF7EDFF034B01221A6008BD00BFD4
S2140034D0F0100020F4100020014B00221A60704704
S2140034E0F4100020014B1B6818467047F4100020AB
S2140034F000B585B00190042003F098FE0346143B07
S214003500184609F049F8034618464FF0804109F07E
S2140035104BF9034618460A4908F088FF034603930A
S2140035200398084909F08CF80346184609F0D8F9BC
S21400353003460293029B184605B05DF804FB00BFE5
S2140035400000F0420000204100B583B001900091D9
S214003550019B802B02D0812B04D00DE0FFF7A0FF4B
S21400356001230AE0009B002B02D0FFF7A5FF01E035
S214003570FFF7B2FF012300E00023184603B05DF812
S21400358004FB00BF00B583B00190019B822B03D1E2
S214003590FFF7A8FF034600E00023184603B05DF8D7
S2140035A004FB00BF2A4A2A4B5B6C43F40053536467
S2140035B0284A284BD3F8203143F00403C2F82031C0
S2140035C0244A244BD3F8203123F44073C2F8203128
S2140035D0204A204BD3F8B83023F47063C2F8B830D2
S2140035E01C4A1C4BD3F8B83043F48063C2F8B8309A
S2140035F0174B10221A6200BF154BDB6A03F020033C
S214003600002BF9D0144A144B1B6843F001031360D7
S214003610114A114BDB6843F08073D3600F4B104A9E
S2140036201A60104B0F221A610E4B0222C3F8F020CC
S2140036300C4B4FF48072C3F804234FF060430A4AE1
S214003640C3F8B02F4FF06043084AC3F8802E704787
S21400365000800C4000600040F0ED00E0001000E04C
S214003660FF130140000004E055CEACC50900010080
S21400367008B5D720012105F0D1F9D62005F0B6F916
S214003680052002210422002306F08AFE184A184B61
S214003690D3F8203123F44073C2F82031144A144B77
S2140036A0D3F8203143F00403C2F82031DE200E2187
S2140036B0012205F04DF9DF200E21012205F048F920
S2140036C0D020002105F0AAF9D12005F08FF9D220EC
S2140036D0002105F0A3F9D320012105F09FF9D7209A
S2140036E0002105F09BF9D62005F080F908BD00BF43
S2140036F00060004000B587B0019000230593194B89
S2140037001B68013B049323E0059A049B1344DA0FDD
S21400371013445B100393144A039B52F8333001980A
S21400372019460AF033F80290029B002B03DA039B3B
S214003730013B04930CE0029B002B03DD039B01334B
S214003740059305E0084A039BDB0013445B6804E02E
S214003750059A049B9A42D7DD0023184607B05DF809
S21400376004FB00BFB4E800000801010082B00B496A
S214003770896C01910949C96C08464FF000010300A5
S2140037800022019908464FF0000142EA000243EA8F
S21400379001031046194602B0704700BFA881E00F2B
S2140037A000B583B00C4B1B6801936B46184607F0B8
S2140037B099FB019B1B0E0F2B0BD99DF80030032B9A
S2140037C007D1064A054B1B6823F0500343F010034D
S2140037D0136003B05DF804FBFC81E00FC0800C4072
S2140037E0FEE700BFFEE700BFFEE700BFFEE700BF44
S2140037F000B587B0FFF7D4FF05F032F9FFF744FCB9
S2140038000320FFF751FC4FF4E13005F063FE454816
S21400381005F002FF444803F0B7FD444803F0C8FD36
S214003820032008F01FFA424B5B68059306F050F839
S2140038300346049306F024F805F088FCFFF7B2FE72
S214003840059805F08BFBFFF713FF05F09BFD05F0D1
S21400385085FCFFF78BFFCDE9020105F0A1F903F027
S214003860B9FA02F01FF8334803F08EFD324B1B689E
S2140038709B68184609F002FC04F0F4FC05F044F9D5
S21400388002F010F82D48002101F042FF03F04AFA3A
S21400389002F08CFF2A48002101F03AFF294803F085
S2140038A087FD294803F070FD234B1B689B6818466C
S2140038B009F0E4FBFCF712FF00F0C4F8234B1B886A
S2140038C0184603F08DFA03F011FB1E4803F070FD56
S2140038D01F4803F059FD01F04DF80346B3F1FF3FD2
S2140038E003D11C4803F064FD02E01B4803F060FDB2
S2140038F003F06EFA00F058F81848194903F044FD32
S214003900184800F031F8174802F03EF905F0F0F8D4
S21400391005F0F4F802F094F80190019B002BF7DC18
S214003920F6E700BF31660000180C0100240C010009
S21400393000A00C40480C010040050020B400002008
S21400394020000020640C01006C0C0100380E0020E2
S214003950880C0100BC0C0100E40C0100EC0C01001A
S2140039601C0D010070E4000000B583B001900C4807
S21400397003F00AFD09E0019B1B685B6809481946CD
S21400398003F002FD019B04330193019B1B68002B8F
S214003990F1D10A2003F020FD03B05DF804FB00BF60
S2140039A0280D0100340D010000B583B01B4803F05C
S2140039B0EBFC002301930AE0194A019B13441B7891
S2140039C01848194603F0E0FC019B01330193019B64
S2140039D0002BF1D0124A019B13441B78124819465B
S2140039E003F0D2FC114B1B88002B06D00F4B1B8814
S2140039F00F48194603F0C8FC02E00E4803F0D8FC56
S214003A000D4B1A680D4B1B680D4811461A464FF4AD
S214003A10D97303F0B9FC03B05DF804FB3C0D01005C
S214003A20081F0020440D0100480D0100380E00203C
S214003A304C0D0100580D0100980F0100C80F010041
S214003A40700D010008B50A480021022209F0CEFDDB
S214003A50084B1B88DAB2064B1A70064B1B881B0AEB
S214003A609BB2DAB2024B5A70014800F0C3FF08BDA1
S214003A70081F0020380E002000B583B0019000918A
S214003A80019B5B7B43F00103DAB2019B5A73009BF8
S214003A904033DB0218460199202205F053F903B0A3
S214003AA05DF804FB00B583B001900091009B4033A5
S214003AB0DB0218460199202205F01AF9019B5B7B70
S214003AC003F00203002B15D0019B5B7B03F004037D
S214003AD0002B0FD1019B5B7B03F02003002B09D149
S214003AE0019B5B7B03F00103002B03D10348009985
S214003AF003F04AFC03B05DF804FB00BF900D010024
S214003B0082B001900091019BDA02009B134420339F
S214003B10184602B0704700BF00B591B0034600914A
S214003B20ADF80630009800210C2209F05FFD002356
S214003B300D930D9B0E930E9B0F93BDF80630002B36
S214003B4005D15B4B00221A605A4B00221A70BDF852
S214003B5006300B930B9B01330A93564B1B78002BB6
S214003B6011D0534B1B68002B09D0009B01221A6012
S214003B704F4B1B68013B4E4A1360002394E04C4BAE
S214003B801B680F9310E04A4B1B68002B09D0009B64
S214003B9001225A60464B1B68013B454A13600023CE
S214003BA082E0434B1B680E93414B1B680B9A1344F1
S214003BB00C9346E002AB18460C99FFF773FF3D4B9B
S214003BC000221A709DF8153003F00203002B17D060
S214003BD09DF8153003F00403002B11D19DF8153025
S214003BE003F02003002B0BD1324B01221A70049BEA
S214003BF00C9A13440C93049B0F9A13440F9320E0E3
S214003C009DF8153003F02003002B06D00C9B0133E3
S214003C100C930E9B01330E9313E09DF8153003F0C2
S214003C200403002B08D0049B0C9A13440C93049BAB
S214003C300E9A13440E9304E00A9A0C9BD31A0D9323
S214003C4003E00C9A0A9B9A42B4D30F9A0E9B1A442E
S214003C500D9B1344013B164A1360154B1B68002B43
S214003C600CD0144B1B78002B04D00E9BC3F1010321
S214003C700F9303E00F9BC3F101030E93009B0F9A73
S214003C801A60009B0E9A5A60009B0D9A9A60094B28
S214003C901B78002B06D1064B1B68002B02D1044B69
S214003CA01B6800E0002300BF184611B05DF804FB57
S214003CB0A0110020A411002000B58DB00190009145
S214003CC003AB18460021202209F090FC22238DF831
S214003CD0193000230B930AE0019A0B9B134403AAA6
S214003CE010461946FFF7C8FE0B9B01330B930B9A41
S214003CF0009B9A42F0D304480099019A03F044FBD3
S214003D000DB05DF804FB00BFAC0D010010B58AB025
S214003D100390039B012B01D1304B00E0304B314820
S214003D20194603F031FB0023ADF8263050E0BDF80D
S214003D30262004AB10461946FFF7EEFE0890BDF8A5
S214003D402610049A059C069B00932748234603F0FA
S214003D501BFB049B002B00D035E0039B012B02D1FC
S214003D60069B002B05D0039B002B2CD1059B002B1C
S214003D7029D0BDF8263007931C4B1A68079B9A4239
S214003D8002D91A4A079B1360089B002B05D0079B95
S214003D90013318460899FFF78FFFBDF826304033E9
S214003DA0DB0218464FF4006104F06CFFBDF82630C5
S214003DB00F48194603F0E8FA039B012B03D1089B32
S214003DC0002B00D008E0BDF826300133ADF82630D1
S214003DD0BDF826301F2BAAD90AB010BDE00D010091
S214003DE0EC0D0100F40D0100340E010098110020C6
S214003DF0780E010082B001900091009B5B7B03F07F
S214003E000203002B02D1019B01330CE0009B5B7B7D
S214003E1003F02003002B02D0019B013303E0009B3C
S214003E209A68019B1344184602B0704786B001900A
S214003E300091002305934FF0FF330393039B0493F5
S214003E4015E0274A059B1B0113449B68002B02D1F3
S214003E50059B03930EE0224A059B1B0113449B7BA4
S214003E60002B01D1059B0493059B01330593059B0D
S214003E70032BE6DD039BB3F1FF3F08D1049BB3F1B0
S214003E80FF3F02D0049B059301E0002324E0144A80
S214003E90059B1B0113440293029B019A5A60029BE6
S214003EA04FF0FF321A60009B9A68029B9A60029B52
S214003EB00022DA73009B5B7B03F00803002B06D01E
S214003EC0029BDB7B43F00103DAB2029BDA73029BB0
S214003ED04FF6FF729A81029B184606B0704700BFE5
S214003EE0F810002000B58DB0019000230B933AE047
S214003EF03D4A0B9B1B0113449B68002B00D12FE00F
S214003F00394A0B9B1B0113445B6802AA10461946EC
S214003F10FFF7C8FD9DF8153003F00203002B1FD0F5
S214003F209DF8153003F00403002B19D19DF81530C9
S214003F3003F02003002B13D19DF8153003F0100377
S214003F40002B0DD102AB0E330198194609F01EFC6A
S214003F500346002B04D1244A0B9B1B0113443FE06D
S214003F600B9B01330B930B9B032BC1DD00230A93A2
S214003F7032E002AB18460A99FFF794FD9DF815301B
S214003F8003F00203002B21D09DF8153003F0040344
S214003F90002B1BD19DF8153003F02003002B15D104
S214003FA09DF8153003F01003002B0FD102AB0E3333
S214003FB00198194609F0EAFB0346002B06D102AB2E
S214003FC00A981946FFF732FF034609E002AB0A9843
S214003FD01946FFF70FFF0A900A9B1F2BC9D900232B
S214003FE018460DB05DF804FBF810002000B5ADF6DD
S214003FF0340D01AB18600DF6080201AB10461968C7
S214004000FFF750FDDDF81038013BCDF82C3801AB3A
S2140040101A68DDF82C3813444033DA0202AB104637
S21400402019464FF4006204F063FE40F2FF73CDF8C9
S21400403028381DE002AADDF8283813441B78002B28
S21400404011D0DDF82C38002B05D1DDF828381F2BD1
S21400405001D8002316E0DDF82C38DA02DDF828381F
S21400406013441F3B0EE0DDF82838013BCDF8283816
S214004070DDF82838002BDDDADDF82C38013BCDF8EA
S2140040802C38C4E718460DF6340D5DF804FB00BF67
S21400409000B58DB001904FF0FF330A93224B1B689A
S2140040A00B9337E002AB18460B99FFF7FBFC9DF825
S2140040B0153003F00203002B23D10A9BB3F1FF3F18
S2140040C007D10B9B0A930A9A019B13441F2B00D916
S2140040D023E002AB0B981946FFF78CFE0B900A9A6A
S2140040E0019B1A440B9B9A4214D80F4B1A680A9BE2
S2140040F09A4204D10C490A9A019B13440B600A9B0E
S2140041000DE04FF0FF330A9302AB0B981946FFF70A
S21400411071FE0B900B9B1F2BC4D94FF0FF33184634
S2140041200DB05DF804FB00BF9811002000B58FB0FD
S214004130039002910192009305AB18460399FFF78E
S214004140B1FC9DF8213003F00203002B0BD09DF844
S214004150213003F00403002B05D19DF8213003F035
S2140041602003002B02D04FF0FF3374E0029B002B9D
S21400417012D09DF8213003F00803002B0CD0059BCD
S2140041801846002100220023FFF7D0FF0346002B2D
S21400419002DA4FF0FF335EE09DF8213043F004036F
S2140041A0DBB28DF8213005AB18460399FFF764FCA7
S2140041B02B4B00221A70019B002B27D000230D9357
S2140041C021E028490D9A13465B0013449B000B44DC
S2140041D05B68002B14D023490D9A13465B001344EA
S2140041E09B000B445B685A68039B9A4208D11D49A2
S2140041F00D9A13465B0013449B000B4400221A7270
S2140042000D9B01330D930D9B072BDADD00230D93D9
S2140042101DE0154A0D9B1B0113445A68039B9A42E6
S21400422012D1114A0D9B1B0113444FF0FF325A6006
S2140042300D4A0D9B1B01134400229A730A4A0D9BDC
S2140042401B01134400229A600D9B01330D930D9BB6
S214004250032BDEDD002318460FB05DF804FB00BF1D
S2140042609C11002038110020F810002082B0019028
S214004270019B03F61F03DB0A184602B0704700BF17
S21400428000B58FB00390029101920093019B002B22
S21400429007D10398FFF726FE0346002B01D0002324
S2140042A04BE00298FFF7F4FE0D900D9BB3F1FF3F35
S2140042B015D1244B1B78002B01D000233DE00020B5
S2140042C0FFF724FD0298FFF7E3FE0D900D9BB3F178
S2140042D0FF3F04D11B4B01221A7000232DE004ABD4
S2140042E018460021202209F081F904AB0E33184647
S2140042F003990F2209F004F9029B0693009BDBB298
S21400430043F00203DBB28DF81D3004AB18460D995E
S214004310FFF7B2FB0C4802990D9A039B03F034F8A2
S21400432004AB0D981946FFF781FD0C900C9B002BF3
S21400433002D00C9B00221A600C9B18460FB05DF84A
S21400434004FB00BF9C110020940E01002DE9F047ED
S2140043509AB000AF7860396007F12803184679688C
S214004360FFF7A0FB07F128030E331846012100F0E3
S2140043700DF9F865FB6D002B02DA4FF0FF36DFE033
S2140043803A6B3B6802FA03F3BB6507F128030E336A
S2140043901846B96D01220023FFF772FF78657B6D22
S2140043A0002B05D1F86D00F06DF94FF0FF36C7E031
S2140043B000237B666B469A46FB8D002B02D0FB8D56
S2140043C0194601E04FF400614B1E3B650B461A464A
S2140043D04FF00003DD0045EA5275D4000B461A463E
S2140043E04FF000034FEAC30949EA52794FEAC20880
S2140043F00B460733DB08DB00ADEB030D6B460033E3
S214004400FB64FB6C0A46F86D194600F0CBF9B864FD
S214004410BB6C002B0EDA7B6D5B6818460021002211
S2140044200123FFF783FEF86D00F02CF94FF0FF36FE
S214004430002318E0BB6C002B14DD7B6D5B68184610
S214004440796EFFF75DFB034603F500331946FA6CF9
S214004450BB6C084611461A4604F074FC7A6EBB6CB8
S21400446013447B660123D546012B69D1BB6C002B18
S214004470A0D100233B6627E034493A6E13465B0022
S21400448013449B000B441B7A002B1AD02F493A6E1C
S21400449013465B0013449B000B445B685A687B68BA
S2140044A09A420ED129493A6E13465B0013449B008C
S2140044B00B447A6D5A607B6D9B7B0133DAB27B6D61
S2140044C09A733B6E01333B663B6E072BD4DD7868F0
S2140044D0012100220023FFF729FE0346002B0DDAF8
S2140044E07B6D5B681846002100220023FFF71EFE46
S2140044F0F86D00F0C7F84FF0FF3621E07B6D5B6883
S21400450007F1080210461946FFF7CCFAFB8DFB812F
S214004510BB8DBB817B6D5B6807F1080210461946B0
S214004520FFF7AAFA7B6DDB7B23F00103DAB27B6D23
S214004530DA737B6D7A6E1A60F86D00F0A3F80026C9
S214004540334618466837BD46BDE8F0873811002068
S21400455082B0002301930EE00B49019A13465B00DC
S21400456013449B000B441B7A002B01D1019B07E0F0
S214004570019B01330193019B072BEDDD4FF0FF33C9
S214004580184602B0704700BF3811002010B584B03E
S21400459001900091FFF7DCFF0390039B002B05DAE8
S2140045A0364802F005FF4FF0FF3363E03449039AC4
S2140045B013465B0013449B000B440293029B0022AD
S2140045C01A720198FFF78EFC0246029B5A60029B05
S2140045D05B68002B21D1009B03F00303012B02D163
S2140045E04FF0FF3346E04FF40060FFF73FFE034610
S2140045F00198194601220023FFF742FE0246029B5D
S2140046005A60029B5B68002B02D14FF0FF3331E00B
S214004610029B5B6800221A600FE0029B5B681B68C7
S214004620B3F1FF3F09D1029B5C68029B5B685B6845
S2140046301846FFF7DBFC03462360029B1B7ADAB2C0
S214004640009BDBB21343DBB2DAB2029B1A72009B0A
S21400465003F00403002B03D0029B5B681B6800E09A
S2140046600023029A1360029B5B689A7B0132D2B2E7
S2140046709A73039B184604B010BD00BFCC0E010011
S2140046803811002082B00190019B002B2ADB019B91
S214004690072B27DC1449019A13465B0013449B0042
S2140046A00B441B7A002B1DD00F49019A13465B0062
S2140046B013449B000B4400221A720B49019A1346BE
S2140046C05B0013449B000B445B689A7B013AD2B2B2
S2140046D09A730549019A13465B0013449B000B44EA
S2140046E000225A6002B070473811002086B003904E
S2140046F002910192039B002B0CDB039B072B09DC2A
S2140047002749039A13465B0013449B000B441B7A0D
S214004710002B02D14FF0FF333FE02149039A1346A6
S2140047205B0013449B000B440493019B002B02D1B7
S214004730029B059315E0019B022B06D1049B5B6848
S2140047401A68029B134405930BE0019B012B05D1CD
S214004750049B1A68029B1344059302E04FF0FF3354
S2140047601BE0059B002B06DB059A049B5B689B6899
S214004770DB029A4202D94FF0FF330EE0049B5B68DF
S2140047801A68059B9A4203DA049B5B68059A1A60CE
S214004790049B059A1A60049B1B68184606B070476F
S2140047A03811002000B587B0039002910192039B58
S2140047B0002B18DB039B072B15DC2C49039A1346AA
S2140047C05B0013449B000B441B7A002B0BD027493D
S2140047D0039A13465B0013449B000B441B7A03F0BA
S2140047E00103002B02D14FF0FF333AE01F49039A32
S2140047F013465B0013449B000B440593059B5B68C4
S2140048000493059B1B681A46019B1344049A12687E
S214004810934205D9049B1A68059B1B68D31A01931B
S214004820049BDB7B03F00103002B19D1049B5A6821
S214004830059B1B6810461946FFF762F9034603F509
S214004840003318460299019A04F052FA059B1B6839
S2140048501A46019B13441A46059B1A60019B00E00A
S214004860019B184607B05DF804FB00BF3811002016
S21400487000B587B0039002910192039B002B18DBD2
S214004880039B072B15DC3949039A13465B00134438
S2140048909B000B441B7A002B0BD03449039A13461B
S2140048A05B0013449B000B441B7A03F00203002BAF
S2140048B002D14FF0FF3355E02C49039A13465B00B4
S2140048C013449B000B440493049B5B680593049B72
S2140048D05B7A03F00203002B21D114E0059B5B6892
S2140048E018460121FFF732FD0346002B02DA4FF08F
S2140048F0FF3337E0049B5B680593059B5B681C48A9
S214004900194602F041FD049B1B681A46019B13449E
S21400491003F12002059B9B68DB029A42DED8059BCA
S2140049205A68049B1B6810461946FFF7E9F80346C9
S21400493003F5003318460299019A04F003FA049B23
S2140049401B681A46019B13441A46049B1A60049B74
S2140049501A68059B1B689A4203DD049B1A68059B30
S2140049601A60019B184607B05DF804FB381100205A
S214004970000F010000B583B01348202102F004FDAB
S214004980124B00221A60002301930DE0019B403376
S214004990DB0218464FF4006104F074F92E2002F092
S2140049A01BFD019B01330193019B1F2BEED9084889
S2140049B00021A82208F01AFE064802F0F9FC00239F
S2140049C0184603B05DF804FB200F01009811002084
S2140049D0F8100020400F010000B583B00190009150
S2140049E002220099019808F08BFD00BF03B05DF825
S2140049F004FB00BF00B583B0019001990348FFF7A0
S214004A00EBFF00BF03B05DF804FB00BF0C1F0020E7
S214004A1000B583B000F0AEFA00900F4B1B68184646
S214004A2001F03EFF01900AE0019B5B68002B02D07C
S214004A30019B5B689847019801F09EFF0190019BDF
S214004A40002BF1D1009B002B02D0009800F060FAFA
S214004A5000BF03B05DF804FB9800002008B502F024
S214004A6023FC02F05BFA00F05DF800F07DFA054BDF
S214004A704EF660224FF47A61022000F091F900BFF2
S214004A8008BD00BF80EE360000B587B003900291E7
S214004A900192039B0493029B012B03D0022B03D0AD
S214004AA0002B02E000BF00E000BF0F4B1B6818465B
S214004AB001F0F6FE05900BE0059B9B68002B03D0EB
S214004AC0059B9B6802989847059801F055FF05904E
S214004AD0059B002BF0D1019A0299049800F02CFA5D
S214004AE000BF07B05DF804FB9800002000B583B057
S214004AF00190019800F056FA0346002B08D002F009
S214004B0051FA064B9B68019905489847012300E037
S214004B100023184603B05DF804FB00BF980F0100A1
S214004B20894A000008B5034B1B68184601F0B0FE22
S214004B3000BF08BD9C00002082B00190024A019B85
S214004B40136000BF02B07047B011002008B5044BD8
S214004B501B68184601F0A4FE0346184608BD00BFB1
S214004B609C00002010B584B001900B46ADF80230D2
S214004B701346ADF80030134B1B68184601F090FE44
S214004B80039017E0039B9B88BDF802209A420DD144
S214004B90039B9B68002B11D0039B9C68BDF80030DC
S214004BA0BDF8022001990398A04707E0039801F09A
S214004BB0E3FE0390039B002BE4D100E000BF04B0AB
S214004BC010BD00BF9C00002000B585B0019002F02B
S214004BD0A5F902F085FA0290029B00221A80FFF7E0
S214004BE0B5FF03901DE0029B1B881846039B99881F
S214004BF0029A830013440A465A80029B1B88184672
S214004C00039BD988029A830013440A469A80029B23
S214004C101B8801339AB2029B1A80039801F0ACFEFF
S214004C200390039B002B03D0039B1B7B002BDAD146
S214004C30029B1B889B009BB202339BB2184602F075
S214004C4037FA029B1B88002B02D0034800F024F999
S214004C5000BF05B05DF804FBB411002010B586B0A7
S214004C600190009102F03CFA059003AB02220599F0
S214004C70184608F045FCBDF80C309B009C1C02F062
S214004C805FFA03469C4220D8059B02330593002317
S214004C90049313E002AB04220599184608F030FC92
S214004CA0BDF80830BDF80A2019460098FFF75AFFED
S214004CB0059B04330593049B01330493BDF80C3025
S214004CC01A46049B9A42E5DC00E000BF06B010BD21
S214004CD084B003900291019200BF04B0704700BFF9
S214004CE008B50C4B596E00230B4A0C4802F030F8FE
S214004CF002F084F803461A46064B5B6EB2FBF3F1ED
S214004D0003FB01F3D11A0023054A064802F020F8F7
S214004D1000BF08BDB4110020294D0000EC11002092
S214004D20C94B0000CC11002000B585B001900A4B9D
S214004D305B6E5B000393084B1A6E039B9A4202D28B
S214004D40054B1B6E0393044A039B5366FFF7C8FF8D
S214004D5000BF05B05DF804FBB411002010B582B0AA
S214004D600446084611461A462346ADF80630034662
S214004D708DF805300B46ADF802301346ADF800301E
S214004D809DF81030012B05D1044B9B6D034A5366EA
S214004D90FFF7A6FF00BF02B010BD00BFB411002091
S214004DA000B585B00291019200930346ADF80E302F
S214004DB0BDF80E300A4A19460A4800F04DF8094A6E
S214004DC0029B9365074A019BD365064A009B1366C0
S214004DD00548FFF7B1FE00BF05B05DF804FB00BF55
S214004DE0600F0100B41100205D4D000000B585B0D5
S214004DF00190019B0393182002F03EFA024602AB94
S214004E0011461846FFF7E8FD039B5B691B68002BFD
S214004E1006D0039B5B691B6802AA11460398984755
S214004E2000BF05B05DF804FB00B587B003900291A3
S214004E300192039B0593059B5B695B68002B06D07C
S214004E40059B5B695B68019A02990598984700BFC5
S214004E5007B05DF804FB00BF00B585B003900B46B5
S214004E600192ADF80A30039BBDF80A10084A1846AE
S214004E7000F024F8039B019A5A61BDF80A300549F0
S214004E80184600F0C1F800BF05B05DF804FB00BF8F
S214004E906C0F0100680F010000B583B00190064951
S214004EA0182002F0D1F9019B184600F025F80346B9
S214004EB0184603B05DF804FB0C1F002000B585B053
S214004EC003900B460192ADF80A30039BBDF80A200A
S214004ED01146184600F0B6F8039B019A1A61BDF811
S214004EE00A300449184600F08FF800BF05B05DF898
S214004EF004FB00BF740F010000B583B00190019B56
S214004F001846FFF7F3FD0346184603B05DF804FBAA
S214004F1000B585B00190019B0393039B1B691B683A
S214004F20002B04D0039B1B691B680398984700BF9F
S214004F3005B05DF804FB00BF00B587B00390029192
S214004F400192039B0593059B1B695B68002B06D0AB
S214004F50059B1B695B68019A02990598984700BFF4
S214004F6007B05DF804FB00BF08B500F043F800BFCB
S214004F7008BD00BF00B583B000230193084B1B6833
S214004F8098470190019B002B05D0019B9B881946F2
S214004F90012002F035F9019B184603B05DF804FBCA
S214004FA0840F010000B585B001900A4B5B6801983C
S214004FB098470390019B9B881946012002F020F930
S214004FC0039B002B01D0012300E00023184605B008
S214004FD05DF804FB840F010000B583B00190044B1C
S214004FE09B68019898470346184603B05DF804FB93
S214004FF0840F010008B5034B1B68184601F048FCF7
S21400500000BF08BDA000002000B585B00346009193
S214005010ADF80630BDF80630184600F029F80390C3
S214005020039B002B09D0039B009A9A600098FFF719
S214005030D3FF0346DAB2039B1A7300BF05B05DF8D0
S21400504004FB00BF00B583B001900B46ADF80230FC
S214005050019BBDF802209A80044B1B6801991846F4
S21400506001F03EFC00BF03B05DF804FBA00000208A
S21400507000B585B00346ADF806300D4B1B681846E4
S21400508001F00EFC03900BE0039B9B88BDF8062006
S2140050909A4201D1039B07E0039801F06DFC039050
S2140050A0039B002BF0D10023184605B05DF804FBE7
S2140050B0A000002086B0039002910192039B1B780B
S2140050C01B021AB2039B01331B781BB213431BB29D
S2140050D0ADF81630BDF81620029B02FA03F31B1239
S2140050E00649019A0A4412781A40019BC3F1080344
S2140050F042FA03F3DBB2184606B07047780F010099
S21400510010B586B00390029101920093009B072B86
S21400511009DC009A01990298FFF7CCFF03461A466D
S214005120039B1A705EE0019B002B2BD10023059396
S2140051300AE0059B039A1344059A02990A441278DA
S2140051401A70059B01330593009B002B00DA07338A
S214005150DB101A46059B9A42EBDC009B03F0070324
S2140051600493049B002B3DD0059B039AD418059B03
S214005170029A1344049A00211846FFF79BFF034641
S21400518023702FE0002305930FE0059B039AD418A5
S214005190059B029A1344082201991846FFF78AFFD6
S2140051A003462370059B01330593009B002B00DA12
S2140051B00733DB101A46059B9A42E6DC009B03F099
S2140051C007030493049B002B0CD0059B039AD4186A
S2140051D0059B029A1344049A01991846FFF76AFF42
S2140051E00346237000BF06B010BD00BF84B0019018
S2140051F00023039309E0019B5B780293039A029BCA
S21400520013440393019B02330193019B1B78002BED
S214005210F1D1039B184604B0704700BF86B00390D8
S2140052200291009313468DF807309DF80720029BE5
S214005230C3F11001009BCB1A02FA03F3ADF8163047
S214005240039B1A78BDF816301B0A9BB2DBB21343D9
S214005250DAB2039B1A70039B0133039A0132127869
S21400526051B2BDF8162052B20A4352B2D2B21A70E8
S21400527000BF06B0704700BF00B587B0039002912C
S21400528001920093009B072B07DC019B1A78009B7A
S21400529002990398FFF7C2FF68E0029B002B30D10B
S2140052A0002305930AE0059B039A1344059A019987
S2140052B00A4412781A70059B01330593009B002B55
S2140052C000DA0733DB101A46059B9A42EBDC009B9C
S2140052D003F007030493049B002B47D0059B039A17
S2140052E0D018059B019A13441B781A46049BC3F1F9
S2140052F0080342FA03F3DAB2049B0021FFF78EFF9D
S21400530034E0002305930DE0059B039AD018059B17
S214005310019A13441A7808230299FFF77FFF059B2A
S21400532001330593009B002B00DA0733DB101A4687
S214005330059B9A42E8DC009B03F007030493049B5A
S214005340002B13D0059B039AD018059B019A134493
S2140053501B781946049BC3F10802029B134441FACA
S21400536003F3DAB2049B0021FFF758FF00BF07B033
S2140053705DF804FB30B58BB00190019B1B7BDB080E
S214005380DBB21A46019B1B7B03F00703002B14BFFE
S21400539001230023DBB213440793079B023318460E
S2140053A001F042FE0346002B01D100235FE001F02E
S2140053B0A3FE0690019B9B88DAB2069B1A70019B9F
S2140053C09B881B0A9BB2DAB2069B5A7001F094FEC9
S2140053D0034602330593079B1A460021059808F0FA
S2140053E005F900230893089B0493019B9B68099387
S2140053F038E0099B5B780393089B002B00DA0733A1
S214005400DB100493099B1B78172B11D9049B059A74
S214005410D418089B03F00705099B1B78184601F073
S2140054202BFF0246039B29462046FFF725FF12E086
S214005430099B1B78184601F0F9FE0346ADF80A30C2
S214005440049B059AD018089B03F007010DF10A0289
S214005450039BFFF711FF089A039B13440893099BCD
S21400546002330993099B1B78002BC2D101231846EF
S2140054700BB030BD00B58BB001F032FE07900220B5
S21400548001F0F4FD0346002B01D1002376E0079BD4
S2140054905B789BB21B029AB2079B1B789BB21344A5
S2140054A09BB21846FFF7E4FD0690069B002B01D141
S2140054B0002363E001F014FE0590069B1B7BDB08CF
S2140054C0DBB21A46069B1B7B03F00703002B14BFB8
S2140054D001230023DBB213440493049801F0C6FDB5
S2140054E00346002B01D1002348E000230893089BC5
S2140054F00393069B9B6809933BE0099B5B780293AA
S214005500089B002B00DA0733DB100393099B1B78FC
S214005510172B11D9039B059AD118089B03F0070295
S21400552001A8029BFFF7ECFD099B1B7801AA114618
S214005530184601F089FE15E00023ADF80230039B03
S214005540059AD118089B03F007020DF10200029B92
S214005550FFF7D6FD099B1B78BDF8022011461846BA
S21400556001F04EFE089A029B13440893099B0233EF
S2140055700993099B1B78002BBFD1069B18460BB0DE
S2140055805DF804FB00B583B001900091044B9B6866
S21400559000990198984700BF03B05DF804FB00BF70
S2140055A0C80F010008B5024B9B68984700BF08BDAE
S2140055B0540F010008B5034B5B699847034618462D
S2140055C008BD00BFC80F010000B583B00190044BB2
S2140055D09B69019898470346184603B05DF804FB9C
S2140055E0C80F010000231846704700BF00BF704771
S2140055F030B585B0019000910D4BDC6801F07CFD64
S214005600054601F0ADFD034619462846A047034669
S214005610002B02D10023039301E00423039301230C
S214005620039A0099019800F04DF800BF05B030BD10
S214005630F0E4000000B585B0039002910192019B52
S214005640002B08D0019B5B68184601F03FFE0299CC
S2140056500398FFF7CDFF00BF05B05DF804FB00BF61
S21400566008B5024BDB68984700BF08BD980F0100DD
S21400567008B5034B1B6A98470346184608BD00BF8B
S214005680F0E4000000B583B00190019B002B04D02D
S214005690064B1B6A9847034603E0044B5B6A984731
S2140056A00346184603B05DF804FB00BFF0E40000B4
S2140056B000231846704700BF08B5FFF7D9FF00BFA4
S2140056C008BD00BF00B585B003900291019200931B
S2140056D0019B012B03D0022B03D0002B02E000BF5E
S2140056E000E000BF039B002B04D0039B009A0199A7
S2140056F00298984700BF05B05DF804FB034B1B7883
S2140057005A1CD1B2014A1170184670472C1200205C
S21400571000B585B001900091144B1B68039302E01E
S214005720039B1B680393039A019B9A4202D0039B38
S214005730002BF5D1039A019B9A4212D00B4B1A68A4
S214005740019B1A60094A019B1360019B01229A7310
S214005750019B00229A81009A8121019800F0D6F9D7
S21400576000E000BF05B05DF804FB00BF2412002077
S21400577010B584B0019000912B4B1B6803932B4B04
S2140057801C6800E02468019B9C4201D0002CF9D1E3
S214005790002C46D0019800F0EBF90346002B23D0EE
S2140057A0019B00229A73214B1C6808E0019BA342D0
S2140057B004D0019A8721204600F03AF82468002C8D
S2140057C0F4D1019B9B68002B0ED0019A009B9A4255
S2140057D00AD0154A019B1360019B9B68019A02F14F
S2140057E00C00002283219847104B1B68019A9A42AE
S2140057F005D10E4B1B681B680C4A13600DE00B4B63
S2140058001C6808E02268019B9A4203D1019B1B6832
S214005810236002E02468002CF4D1034A039B136043
S21400582000E000BF04B010BD2812002024120020A3
S21400583000B587B003900B4601928DF80B30039BA2
S2140058409B7B03F00103002B26D0039B9B68002B59
S21400585022D0134A039B1360039B02229A73039B76
S2140058609B68039A02F10C009DF80B10019A98476A
S21400587003460593059B022B06D0059B032B03D0FE
S2140058809DF80B30832B04D103990398FFF770FF24
S21400589002E0039B01229A7300BF07B05DF804FB89
S2140058A028120020094B8A221A70094B00221A700F
S2140058B0074B1A78074B1A70074B00221A60064BE4
S2140058C01B68064A136000BF704700BF2C120020FA
